{
  "contractName": "CoinCreator",
  "abi": [
    {
      "constant": true,
      "inputs": [
        {
          "name": "",
          "type": "address"
        },
        {
          "name": "",
          "type": "uint256"
        }
      ],
      "name": "deployedCrowdsales",
      "outputs": [
        {
          "name": "",
          "type": "address"
        }
      ],
      "payable": false,
      "stateMutability": "view",
      "type": "function"
    },
    {
      "constant": true,
      "inputs": [
        {
          "name": "",
          "type": "address"
        },
        {
          "name": "",
          "type": "uint256"
        }
      ],
      "name": "deployedTokens",
      "outputs": [
        {
          "name": "",
          "type": "address"
        }
      ],
      "payable": false,
      "stateMutability": "view",
      "type": "function"
    },
    {
      "inputs": [],
      "payable": false,
      "stateMutability": "nonpayable",
      "type": "constructor"
    },
    {
      "constant": false,
      "inputs": [
        {
          "name": "_name",
          "type": "string"
        },
        {
          "name": "_decimals",
          "type": "uint8"
        },
        {
          "name": "_symbol",
          "type": "string"
        },
        {
          "name": "_partners",
          "type": "address[]"
        },
        {
          "name": "_shares",
          "type": "uint256[]"
        }
      ],
      "name": "deployToken",
      "outputs": [],
      "payable": false,
      "stateMutability": "nonpayable",
      "type": "function"
    },
    {
      "constant": false,
      "inputs": [
        {
          "name": "_openingTime",
          "type": "uint256"
        },
        {
          "name": "_closingTime",
          "type": "uint256"
        },
        {
          "name": "_rate",
          "type": "uint256"
        },
        {
          "name": "_wallet",
          "type": "address"
        },
        {
          "name": "_token",
          "type": "address"
        }
      ],
      "name": "deployCrowdsale",
      "outputs": [],
      "payable": false,
      "stateMutability": "nonpayable",
      "type": "function"
    }
  ],
  "bytecode": "0x608060405234801561001057600080fd5b50613f3e806100206000396000f3fe608060405260043610620000665763ffffffff7c01000000000000000000000000000000000000000000000000000000006000350416630de0b22b81146200006b5780634ba0786314620000c45780637785cec61462000117578063f26576cf1462000154575b600080fd5b3480156200007857600080fd5b50620000a8600480360360408110156200009157600080fd5b50600160a060020a038135169060200135620003b1565b60408051600160a060020a039092168252519081900360200190f35b348015620000d157600080fd5b5062000115600480360360a0811015620000ea57600080fd5b50803590602081013590604081013590600160a060020a0360608201358116916080013516620003e9565b005b3480156200012457600080fd5b50620000a8600480360360408110156200013d57600080fd5b50600160a060020a038135169060200135620004a0565b3480156200016157600080fd5b5062000115600480360360a08110156200017a57600080fd5b8101906020810181356401000000008111156200019657600080fd5b820183602082011115620001a957600080fd5b80359060200191846001830284011164010000000083111715620001cc57600080fd5b91908080601f016020809104026020016040519081016040528093929190818152602001838380828437600092019190915250929560ff8535169590949093506040810192506020013590506401000000008111156200022b57600080fd5b8201836020820111156200023e57600080fd5b803590602001918460018302840111640100000000831117156200026157600080fd5b91908080601f0160208091040260200160405190810160405280939291908181526020018383808284376000920191909152509295949360208101935035915050640100000000811115620002b557600080fd5b820183602082011115620002c857600080fd5b80359060200191846020830284011164010000000083111715620002eb57600080fd5b91908080602002602001604051908101604052809392919081815260200183836020028082843760009201919091525092959493602081019350359150506401000000008111156200033c57600080fd5b8201836020820111156200034f57600080fd5b803590602001918460208302840111640100000000831117156200037257600080fd5b919080806020026020016040519081016040528093929190818152602001838360200280828437600092019190915250929550620004bc945050505050565b600160205281600052604060002081815481101515620003cd57fe5b600091825260209091200154600160a060020a03169150829050565b6000858585858533620003fb620006a6565b9586526020860194909452604080860193909352600160a060020a039182166060860152811660808501529190911660a0830152519081900360c001906000f0801580156200044e573d6000803e3d6000fd5b50336000908152600160208181526040832080549283018155835290912001805473ffffffffffffffffffffffffffffffffffffffff1916600160a060020a0392909216919091179055505050505050565b600060205281600052604060002081815481101515620003cd57fe5b60008584868585620004cd620006b7565b60ff8416604082015260a0808252865190820152855181906020808301916060840191608085019160c08601918c019080838360005b838110156200051d57818101518382015260200162000503565b50505050905090810190601f1680156200054b5780820380516001836020036101000a031916815260200191505b5085810384528951815289516020918201918b019080838360005b838110156200058057818101518382015260200162000566565b50505050905090810190601f168015620005ae5780820380516001836020036101000a031916815260200191505b508581038352875181528751602091820191808a01910280838360005b83811015620005e5578181015183820152602001620005cb565b50505050905001858103825286818151815260200191508051906020019060200280838360005b83811015620006265781810151838201526020016200060c565b505050509050019950505050505050505050604051809103906000f08015801562000655573d6000803e3d6000fd5b503360009081526020818152604082208054600181018255908352912001805473ffffffffffffffffffffffffffffffffffffffff1916600160a060020a0392909216919091179055505050505050565b6040516121e880620006c983390190565b60405161166280620028b18339019056fe60806040523480156200001157600080fd5b5060405160c080620021e8833981018060405260c08110156200003357600080fd5b508051602082015160408301516060840151608085015160a090950151939492939192909180868686868682828282828262000078336401000000006200036b810204565b600160045560008311620000ed57604080517f08c379a000000000000000000000000000000000000000000000000000000000815260206004820152601460248201527f43726f776473616c653a20726174652069732030000000000000000000000000604482015290519081900360640190fd5b600160a060020a03821615156200018b57604080517f08c379a000000000000000000000000000000000000000000000000000000000815260206004820152602560248201527f43726f776473616c653a2077616c6c657420697320746865207a65726f20616460448201527f6472657373000000000000000000000000000000000000000000000000000000606482015290519081900360840190fd5b600160a060020a03811615156200022857604080517f08c379a0000000000000000000000000000000000000000000000000000000008152602060048201526024808201527f43726f776473616c653a20746f6b656e20697320746865207a65726f2061646460448201527f7265737300000000000000000000000000000000000000000000000000000000606482015290519081900360840190fd5b60079290925560068054600160a060020a03928316600160a060020a03199182161790915560058054929093169116179055505050848411620002f257604080517f08c379a000000000000000000000000000000000000000000000000000000000815260206004820152603760248201527f54696d656443726f776473616c653a206f70656e696e672074696d652069732060448201527f6e6f74206265666f726520636c6f73696e672074696d65000000000000000000606482015290519081900360840190fd5b505050600991909155600a55600b8054600160a060020a031916600160a060020a0383811691909117918290556040519116906000907f8be0079c531659141344cd1fd0a4f28419497f9722a3daafe3b4186f6b6457e0908290a35050600b805460a060020a60ff021916905550620005249350505050565b62000386600082640100000000620017d7620003bd82021704565b604051600160a060020a038216907f22380c05984257a1cb900161c713dd71d39e74820f1aea43bd3f1bdd2096129990600090a250565b620003d2828264010000000062000464810204565b156200043f57604080517f08c379a000000000000000000000000000000000000000000000000000000000815260206004820152601f60248201527f526f6c65733a206163636f756e7420616c72656164792068617320726f6c6500604482015290519081900360640190fd5b600160a060020a0316600090815260209190915260409020805460ff19166001179055565b6000600160a060020a03821615156200050457604080517f08c379a000000000000000000000000000000000000000000000000000000000815260206004820152602260248201527f526f6c65733a206163636f756e7420697320746865207a65726f20616464726560448201527f7373000000000000000000000000000000000000000000000000000000000000606482015290519081900360840190fd5b50600160a060020a03166000908152602091909152604090205460ff1690565b611cb480620005346000396000f3fe60806040526004361061017f5763ffffffff7c01000000000000000000000000000000000000000000000000000000006000350416630b46a07c811461018a5780631515bc2b146101d7578063291d9549146101ec5780632c4e722e1461021f57806334fcf437146102465780633af32abf146102705780634042b66f146102a357806347535d7b146102b85780634b6753bc146102cd5780634bb278f3146102e25780634c5a628c146102f7578063521eb2731461030c578063715018a61461033d5780637362d9c81461035257806382b6a4bf146103855780638902ff86146103b85780638d8f2adb146103f15780638da5cb5b146104065780638f32d59b1461041b578063915b410d14610430578063abe069e714610463578063af91e8c814610496578063b3f05b97146104cf578063b7a8807c146104e4578063bb5f747b146104f9578063d6cd94731461052c578063ec8ac4d814610541578063f2fde38b14610567578063f6d6f9a91461059a578063fc0c546a146105d3575b610188336105e8565b005b34801561019657600080fd5b506101c3600480360360408110156101ad57600080fd5b50600160a060020a03813516906020013561076b565b604080519115158252519081900360200190f35b3480156101e357600080fd5b506101c361078a565b3480156101f857600080fd5b506101886004803603602081101561020f57600080fd5b5035600160a060020a0316610792565b34801561022b57600080fd5b506102346107ff565b60408051918252519081900360200190f35b34801561025257600080fd5b506101886004803603602081101561026957600080fd5b5035610805565b34801561027c57600080fd5b506101c36004803603602081101561029357600080fd5b5035600160a060020a031661093c565b3480156102af57600080fd5b5061023461094f565b3480156102c457600080fd5b506101c3610955565b3480156102d957600080fd5b50610234610970565b3480156102ee57600080fd5b50610188610976565b34801561030357600080fd5b50610188610aff565b34801561031857600080fd5b50610321610b0a565b60408051600160a060020a039092168252519081900360200190f35b34801561034957600080fd5b50610188610b19565b34801561035e57600080fd5b506101886004803603602081101561037557600080fd5b5035600160a060020a0316610bbc565b34801561039157600080fd5b506101c3600480360360208110156103a857600080fd5b5035600160a060020a0316610c26565b3480156103c457600080fd5b50610188600480360360408110156103db57600080fd5b50600160a060020a038135169060200135610c3b565b3480156103fd57600080fd5b50610188610ca6565b34801561041257600080fd5b50610321610ec0565b34801561042757600080fd5b506101c3610ecf565b34801561043c57600080fd5b506102346004803603602081101561045357600080fd5b5035600160a060020a0316610ee0565b34801561046f57600080fd5b506102346004803603602081101561048657600080fd5b5035600160a060020a0316610ef2565b3480156104a257600080fd5b50610188600480360360408110156104b957600080fd5b50600160a060020a038135169060200135610f05565b3480156104db57600080fd5b506101c3610f70565b3480156104f057600080fd5b50610234610f80565b34801561050557600080fd5b506101c36004803603602081101561051c57600080fd5b5035600160a060020a0316610f86565b34801561053857600080fd5b50610188610f98565b6101886004803603602081101561055757600080fd5b5035600160a060020a03166105e8565b34801561057357600080fd5b506101886004803603602081101561058a57600080fd5b5035600160a060020a0316610fa1565b3480156105a657600080fd5b50610188600480360360408110156105bd57600080fd5b50600160a060020a038135169060200135610ff6565b3480156105df57600080fd5b50610321611061565b6105f0610955565b1515610646576040805160e560020a62461bcd02815260206004820152601860248201527f54696d656443726f776473616c653a206e6f74206f70656e0000000000000000604482015290519081900360640190fd5b600480546001019081905534600061065d82611070565b90506106698483611087565b60085461067c908363ffffffff61115916565b600855600160a060020a0384166000908152600c60205260409020546106a8908363ffffffff61115916565b600160a060020a0385166000818152600c60209081526040918290209390935580518581529283018490528051919233927f6faf93231a456e552dbc9961f58d9713ee4f2e69d15f1975b050ef0911053a7b929181900390910190a361070c6111bd565b50506004548114610767576040805160e560020a62461bcd02815260206004820152601f60248201527f5265656e7472616e637947756172643a207265656e7472616e742063616c6c00604482015290519081900360640190fd5b5050565b60008161077f60028563ffffffff6111f616565b101590505b92915050565b600a54421190565b61079b33610f86565b15156107f3576040805160e560020a62461bcd0281526020600482015260248101829052600080516020611c698339815191526044820152600080516020611c29833981519152606482015290519081900360840190fd5b6107fc8161129e565b50565b60075490565b61080d610ecf565b1515610851576040805160e560020a62461bcd0281526020600482018190526024820152600080516020611c49833981519152604482015290519081900360640190fd5b600b5460a060020a900460ff16156108d9576040805160e560020a62461bcd02815260206004820152602760248201527f46696e616c697a61626c6543726f776473616c653a20616c726561647920666960448201527f6e616c697a656400000000000000000000000000000000000000000000000000606482015290519081900360840190fd5b6108e161078a565b1515610937576040805160e560020a62461bcd02815260206004820181905260248201527f46696e616c697a61626c6543726f776473616c653a206e6f7420636c6f736564604482015290519081900360640190fd5b600755565b600061078460028363ffffffff6112e616565b60085490565b6000600954421015801561096b5750600a544211155b905090565b600a5490565b61097e610ecf565b15156109c2576040805160e560020a62461bcd0281526020600482018190526024820152600080516020611c49833981519152604482015290519081900360640190fd5b600b5460a060020a900460ff1615610a4a576040805160e560020a62461bcd02815260206004820152602760248201527f46696e616c697a61626c6543726f776473616c653a20616c726561647920666960448201527f6e616c697a656400000000000000000000000000000000000000000000000000606482015290519081900360840190fd5b610a5261078a565b1515610aa8576040805160e560020a62461bcd02815260206004820181905260248201527f46696e616c697a61626c6543726f776473616c653a206e6f7420636c6f736564604482015290519081900360640190fd5b600b805474ff0000000000000000000000000000000000000000191660a060020a179055610ad461138e565b6040517f9270cc390c096600a1c17c44345a1ba689fafd99d97487b10cfccf86cf73183690600090a1565b610b08336113b4565b565b600654600160a060020a031690565b610b21610ecf565b1515610b65576040805160e560020a62461bcd0281526020600482018190526024820152600080516020611c49833981519152604482015290519081900360640190fd5b600b54604051600091600160a060020a0316907f8be0079c531659141344cd1fd0a4f28419497f9722a3daafe3b4186f6b6457e0908390a3600b805473ffffffffffffffffffffffffffffffffffffffff19169055565b610bc533610f86565b1515610c1d576040805160e560020a62461bcd0281526020600482015260248101829052600080516020611c698339815191526044820152600080516020611c29833981519152606482015290519081900360840190fd5b6107fc816113fc565b600d6020526000908152604090205460ff1681565b610c4433610f86565b1515610c9c576040805160e560020a62461bcd0281526020600482015260248101829052600080516020611c698339815191526044820152600080516020611c29833981519152606482015290519081900360840190fd5b6107678282611444565b6004805460010190819055610cb961078a565b1515610d0f576040805160e560020a62461bcd02815260206004820181905260248201527f46696e616c697a61626c6543726f776473616c653a206e6f7420636c6f736564604482015290519081900360640190fd5b600b5460a060020a900460ff161515610d98576040805160e560020a62461bcd02815260206004820152602760248201527f46696e616c697a61626c6543726f776473616c653a20616c726561647920666960448201527f6e616c697a656400000000000000000000000000000000000000000000000000606482015290519081900360840190fd5b336000908152600d602052604090205460ff1615610e26576040805160e560020a62461bcd02815260206004820152602260248201527f746f6b656e732068617665206265656e2077697468647261776e20616c72656160448201527f6479000000000000000000000000000000000000000000000000000000000000606482015290519081900360840190fd5b336000908152600c6020526040812054610e3f90611070565b336000818152600d60205260409020805460ff19166001179055909150610e66908261148e565b5060045481146107fc576040805160e560020a62461bcd02815260206004820152601f60248201527f5265656e7472616e637947756172643a207265656e7472616e742063616c6c00604482015290519081900360640190fd5b600b54600160a060020a031690565b600b54600160a060020a0316331490565b600c6020526000908152604090205481565b600061078460028363ffffffff6111f616565b610f0e33610f86565b1515610f66576040805160e560020a62461bcd0281526020600482015260248101829052600080516020611c698339815191526044820152600080516020611c29833981519152606482015290519081900360840190fd5b6107678282611498565b600b5460a060020a900460ff1690565b60095490565b6000610784818363ffffffff6112e616565b610b083361129e565b610fa9610ecf565b1515610fed576040805160e560020a62461bcd0281526020600482018190526024820152600080516020611c49833981519152604482015290519081900360640190fd5b6107fc816114aa565b610fff33610f86565b1515611057576040805160e560020a62461bcd0281526020600482015260248101829052600080516020611c698339815191526044820152600080516020611c29833981519152606482015290519081900360840190fd5b6107678282611599565b600554600160a060020a031690565b6000610784600754836115ab90919063ffffffff16565b600061109282611070565b905061109e838261076b565b1515611140576040805160e560020a62461bcd02815260206004820152605860248201527f57686974656c69737443726f776473616c653a2062656e65666963696172792060448201527f646f65736e27742068617665207468652057686974656c697374656420726f6c60648201527f6520666f722074686520636f727265637420616d6f756e740000000000000000608482015290519081900360a40190fd5b61114a8383611647565b6111548382611599565b505050565b6000828201838110156111b6576040805160e560020a62461bcd02815260206004820152601b60248201527f536166654d6174683a206164646974696f6e206f766572666c6f770000000000604482015290519081900360640190fd5b9392505050565b600654604051600160a060020a03909116903480156108fc02916000818181858888f193505050501580156107fc573d6000803e3d6000fd5b6000600160a060020a038216151561127e576040805160e560020a62461bcd02815260206004820152602260248201527f526f6c65733a206163636f756e7420697320746865207a65726f20616464726560448201527f7373000000000000000000000000000000000000000000000000000000000000606482015290519081900360840190fd5b50600160a060020a03166000908152600191909101602052604090205490565b6112af60028263ffffffff61172416565b604051600160a060020a038216907f270d9b30cf5b0793bbfd54c9d5b94aeb49462b8148399000265144a8722da6b690600090a250565b6000600160a060020a038216151561136e576040805160e560020a62461bcd02815260206004820152602260248201527f526f6c65733a206163636f756e7420697320746865207a65726f20616464726560448201527f7373000000000000000000000000000000000000000000000000000000000000606482015290519081900360840190fd5b50600160a060020a03166000908152602091909152604090205460ff1690565b600b805474ff0000000000000000000000000000000000000000191660a060020a179055565b6113c560008263ffffffff61172416565b604051600160a060020a038216907f0a8eb35e5ca14b3d6f28e4abf2f128dbab231a58b56e89beb5d636115001e16590600090a250565b61140d60008263ffffffff6117d716565b604051600160a060020a038216907f22380c05984257a1cb900161c713dd71d39e74820f1aea43bd3f1bdd2096129990600090a250565b6114566002838363ffffffff61185b16565b604051600160a060020a038316907fee1504a83b6d4a361f4c1dc78ab59bfa30d6a3b6612c403e86bb01ef2984295f90600090a25050565b61076782826118ef565b6107676002838363ffffffff6119e916565b600160a060020a0381161515611530576040805160e560020a62461bcd02815260206004820152602660248201527f4f776e61626c653a206e6577206f776e657220697320746865207a65726f206160448201527f6464726573730000000000000000000000000000000000000000000000000000606482015290519081900360840190fd5b600b54604051600160a060020a038084169216907f8be0079c531659141344cd1fd0a4f28419497f9722a3daafe3b4186f6b6457e090600090a3600b805473ffffffffffffffffffffffffffffffffffffffff1916600160a060020a0392909216919091179055565b6107676002838363ffffffff611b0816565b60008215156115bc57506000610784565b8282028284828115156115cb57fe5b04146111b6576040805160e560020a62461bcd02815260206004820152602160248201527f536166654d6174683a206d756c7469706c69636174696f6e206f766572666c6f60448201527f7700000000000000000000000000000000000000000000000000000000000000606482015290519081900360840190fd5b600160a060020a03821615156116cd576040805160e560020a62461bcd02815260206004820152602a60248201527f43726f776473616c653a2062656e656669636961727920697320746865207a6560448201527f726f206164647265737300000000000000000000000000000000000000000000606482015290519081900360840190fd5b801515610767576040805160e560020a62461bcd02815260206004820152601960248201527f43726f776473616c653a20776569416d6f756e74206973203000000000000000604482015290519081900360640190fd5b61172e82826112e6565b15156117aa576040805160e560020a62461bcd02815260206004820152602160248201527f526f6c65733a206163636f756e7420646f6573206e6f74206861766520726f6c60448201527f6500000000000000000000000000000000000000000000000000000000000000606482015290519081900360840190fd5b600160a060020a0316600090815260208281526040808320805460ff191690556001909301905290812055565b6117e182826112e6565b15611836576040805160e560020a62461bcd02815260206004820152601f60248201527f526f6c65733a206163636f756e7420616c72656164792068617320726f6c6500604482015290519081900360640190fd5b600160a060020a0316600090815260209190915260409020805460ff19166001179055565b61186583836112e6565b156118ba576040805160e560020a62461bcd02815260206004820152601f60248201527f526f6c65733a206163636f756e7420616c72656164792068617320726f6c6500604482015290519081900360640190fd5b600160a060020a03909116600090815260208381526040808320805460ff191660019081179091559490940190529190912055565b600554604080517fa9059cbb000000000000000000000000000000000000000000000000000000008152600160a060020a038581166004830152602482018590529151600093929092169163a9059cbb9160448082019260209290919082900301818787803b15801561196157600080fd5b505af1158015611975573d6000803e3d6000fd5b505050506040513d602081101561198b57600080fd5b50519050600181151514611154576040805160e560020a62461bcd02815260206004820152601560248201527f746f6b656e207472616e73666572206661696c65640000000000000000000000604482015290519081900360640190fd5b6119f383836112e6565b1515611a6f576040805160e560020a62461bcd02815260206004820152602160248201527f526f6c65733a206163636f756e7420646f6573206e6f74206861766520726f6c60448201527f6500000000000000000000000000000000000000000000000000000000000000606482015290519081900360840190fd5b600160a060020a038216600090815260018401602052604090205481810111611ae2576040805160e560020a62461bcd02815260206004820152600e60248201527f696e76616c696420616d6f756e74000000000000000000000000000000000000604482015290519081900360640190fd5b600160a060020a0390911660009081526001909201602052604090912080549091019055565b611b1283836112e6565b1515611b8e576040805160e560020a62461bcd02815260206004820152602160248201527f526f6c65733a206163636f756e7420646f6573206e6f74206861766520726f6c60448201527f6500000000000000000000000000000000000000000000000000000000000000606482015290519081900360840190fd5b600160a060020a038216600090815260018401602052604090205481810310611c01576040805160e560020a62461bcd02815260206004820152600e60248201527f696e76616c696420616d6f756e74000000000000000000000000000000000000604482015290519081900360640190fd5b600160a060020a03909116600090815260019092016020526040909120805491909103905556fe6e6f742068617665207468652057686974656c69737441646d696e20726f6c654f776e61626c653a2063616c6c6572206973206e6f7420746865206f776e657257686974656c69737441646d696e526f6c653a2063616c6c657220646f657320a165627a7a723058209b7e8b1bfe6fde6bd45869201f3c6befdbfd9c68b13b63b5c4499099b3bc7b51002960806040523480156200001157600080fd5b506040516200166238038062001662833981018060405260a08110156200003757600080fd5b8101908080516401000000008111156200005057600080fd5b820160208101848111156200006457600080fd5b81516401000000008111828201871017156200007f57600080fd5b505092919060200180516401000000008111156200009c57600080fd5b82016020810184811115620000b057600080fd5b8151640100000000811182820187101715620000cb57600080fd5b50506020820151604090920180519194929391640100000000811115620000f157600080fd5b820160208101848111156200010557600080fd5b81518560208202830111640100000000821117156200012357600080fd5b505092919060200180516401000000008111156200014057600080fd5b820160208101848111156200015457600080fd5b81518560208202830111640100000000821117156200017257600080fd5b5050929190505050848484620001973362000210640100000000026401000000009004565b8251620001ac906005906020860190620003c9565b508151620001c2906006906020850190620003c9565b506007805460ff191660ff9290921691909117905550508151620001ee9060089060208501906200044e565b50805162000204906009906020840190620004b4565b50505050505062000538565b6200022b60038264010000000062000fb76200026282021704565b604051600160a060020a038216907f6ae172837ea30b801fbfcdd4108aa1d5bf8ff775444fd70256b44e6bf3dfc3f690600090a250565b62000277828264010000000062000309810204565b15620002e457604080517f08c379a000000000000000000000000000000000000000000000000000000000815260206004820152601f60248201527f526f6c65733a206163636f756e7420616c72656164792068617320726f6c6500604482015290519081900360640190fd5b600160a060020a0316600090815260209190915260409020805460ff19166001179055565b6000600160a060020a0382161515620003a957604080517f08c379a000000000000000000000000000000000000000000000000000000000815260206004820152602260248201527f526f6c65733a206163636f756e7420697320746865207a65726f20616464726560448201527f7373000000000000000000000000000000000000000000000000000000000000606482015290519081900360840190fd5b50600160a060020a03166000908152602091909152604090205460ff1690565b828054600181600116156101000203166002900490600052602060002090601f016020900481019282601f106200040c57805160ff19168380011785556200043c565b828001600101855582156200043c579182015b828111156200043c5782518255916020019190600101906200041f565b506200044a929150620004f1565b5090565b828054828255906000526020600020908101928215620004a6579160200282015b82811115620004a65782518254600160a060020a031916600160a060020a039091161782556020909201916001909101906200046f565b506200044a92915062000511565b8280548282559060005260206000209081019282156200043c57916020028201828111156200043c5782518255916020019190600101906200041f565b6200050e91905b808211156200044a5760008155600101620004f8565b90565b6200050e91905b808211156200044a578054600160a060020a031916815560010162000518565b61111a80620005486000396000f3fe6080604052600436106100fb5763ffffffff7c010000000000000000000000000000000000000000000000000000000060003504166306fdde038114610100578063095ea7b31461018a57806318160ddd146101d757806323b872dd146101fe578063313ce56714610241578063395093511461026c57806340c10f19146102a557806357a858fc146102de57806359363bca1461030857806370a082311461033457806395d89b4114610367578063983b2d561461037c57806398650275146103af578063a457c2d7146103c4578063a9059cbb146103fd578063aa271e1a14610436578063c3b49d0414610469578063dd62ed3e146104af575b600080fd5b34801561010c57600080fd5b506101156104ea565b6040805160208082528351818301528351919283929083019185019080838360005b8381101561014f578181015183820152602001610137565b50505050905090810190601f16801561017c5780820380516001836020036101000a031916815260200191505b509250505060405180910390f35b34801561019657600080fd5b506101c3600480360360408110156101ad57600080fd5b50600160a060020a038135169060200135610580565b604080519115158252519081900360200190f35b3480156101e357600080fd5b506101ec610596565b60408051918252519081900360200190f35b34801561020a57600080fd5b506101c36004803603606081101561022157600080fd5b50600160a060020a0381358116916020810135909116906040013561059c565b34801561024d57600080fd5b506102566105f3565b6040805160ff9092168252519081900360200190f35b34801561027857600080fd5b506101c36004803603604081101561028f57600080fd5b50600160a060020a0381351690602001356105fc565b3480156102b157600080fd5b506101c3600480360360408110156102c857600080fd5b50600160a060020a038135169060200135610638565b3480156102ea57600080fd5b506101ec6004803603602081101561030157600080fd5b50356106c9565b34801561031457600080fd5b506103326004803603602081101561032b57600080fd5b50356106e8565b005b34801561034057600080fd5b506101ec6004803603602081101561035757600080fd5b5035600160a060020a03166107cb565b34801561037357600080fd5b506101156107e6565b34801561038857600080fd5b506103326004803603602081101561039f57600080fd5b5035600160a060020a0316610847565b3480156103bb57600080fd5b506103326108d5565b3480156103d057600080fd5b506101c3600480360360408110156103e757600080fd5b50600160a060020a0381351690602001356108e0565b34801561040957600080fd5b506101c36004803603604081101561042057600080fd5b50600160a060020a03813516906020013561091c565b34801561044257600080fd5b506101c36004803603602081101561045957600080fd5b5035600160a060020a0316610929565b34801561047557600080fd5b506104936004803603602081101561048c57600080fd5b5035610942565b60408051600160a060020a039092168252519081900360200190f35b3480156104bb57600080fd5b506101ec600480360360408110156104d257600080fd5b50600160a060020a038135811691602001351661096a565b60058054604080516020601f60026000196101006001881615020190951694909404938401819004810282018101909252828152606093909290918301828280156105765780601f1061054b57610100808354040283529160200191610576565b820191906000526020600020905b81548152906001019060200180831161055957829003601f168201915b5050505050905090565b600061058d338484610995565b50600192915050565b60025490565b60006105a9848484610b02565b600160a060020a0384166000908152600160209081526040808320338085529252909120546105e99186916105e4908663ffffffff610cc616565b610995565b5060019392505050565b60075460ff1690565b336000818152600160209081526040808320600160a060020a0387168452909152812054909161058d9185906105e4908663ffffffff610d2616565b600061064333610929565b15156106bf576040805160e560020a62461bcd02815260206004820152603060248201527f4d696e746572526f6c653a2063616c6c657220646f6573206e6f74206861766560448201527f20746865204d696e74657220726f6c6500000000000000000000000000000000606482015290519081900360840190fd5b61058d8383610d8a565b60098054829081106106d757fe5b600091825260209091200154905081565b60088054829081106106f657fe5b600091825260209091200154600160a060020a0316331461071657600080fd5b600a600060088381548110151561072957fe5b6000918252602080832090910154600160a060020a0316835282019290925260400190205460ff161561075b57600080fd5b6001600a600060088481548110151561077057fe5b600091825260208083209190910154600160a060020a031683528201929092526040019020805460ff1916911515919091179055600980546107c8913391849081106107b857fe5b9060005260206000200154610d8a565b50565b600160a060020a031660009081526020819052604090205490565b60068054604080516020601f60026000196101006001881615020190951694909404938401819004810282018101909252828152606093909290918301828280156105765780601f1061054b57610100808354040283529160200191610576565b61085033610929565b15156108cc576040805160e560020a62461bcd02815260206004820152603060248201527f4d696e746572526f6c653a2063616c6c657220646f6573206e6f74206861766560448201527f20746865204d696e74657220726f6c6500000000000000000000000000000000606482015290519081900360840190fd5b6107c881610e7f565b6108de33610ec7565b565b336000818152600160209081526040808320600160a060020a0387168452909152812054909161058d9185906105e4908663ffffffff610cc616565b600061058d338484610b02565b600061093c60038363ffffffff610f0f16565b92915050565b600880548290811061095057fe5b600091825260209091200154600160a060020a0316905081565b600160a060020a03918216600090815260016020908152604080832093909416825291909152205490565b600160a060020a0383161515610a1a576040805160e560020a62461bcd028152602060048201526024808201527f45524332303a20617070726f76652066726f6d20746865207a65726f2061646460448201527f7265737300000000000000000000000000000000000000000000000000000000606482015290519081900360840190fd5b600160a060020a0382161515610aa0576040805160e560020a62461bcd02815260206004820152602260248201527f45524332303a20617070726f766520746f20746865207a65726f20616464726560448201527f7373000000000000000000000000000000000000000000000000000000000000606482015290519081900360840190fd5b600160a060020a03808416600081815260016020908152604080832094871680845294825291829020859055815185815291517f8c5be1e5ebec7d5bd14f71427d1e84f3dd0314c0f7b2291e5b200ac8c7c3b9259281900390910190a3505050565b600160a060020a0383161515610b88576040805160e560020a62461bcd02815260206004820152602560248201527f45524332303a207472616e736665722066726f6d20746865207a65726f20616460448201527f6472657373000000000000000000000000000000000000000000000000000000606482015290519081900360840190fd5b600160a060020a0382161515610c0e576040805160e560020a62461bcd02815260206004820152602360248201527f45524332303a207472616e7366657220746f20746865207a65726f206164647260448201527f6573730000000000000000000000000000000000000000000000000000000000606482015290519081900360840190fd5b600160a060020a038316600090815260208190526040902054610c37908263ffffffff610cc616565b600160a060020a038085166000908152602081905260408082209390935590841681522054610c6c908263ffffffff610d2616565b600160a060020a038084166000818152602081815260409182902094909455805185815290519193928716927fddf252ad1be2c89b69c2b068fc378daa952ba7f163c4a11628f55a4df523b3ef92918290030190a3505050565b600082821115610d20576040805160e560020a62461bcd02815260206004820152601e60248201527f536166654d6174683a207375627472616374696f6e206f766572666c6f770000604482015290519081900360640190fd5b50900390565b600082820183811015610d83576040805160e560020a62461bcd02815260206004820152601b60248201527f536166654d6174683a206164646974696f6e206f766572666c6f770000000000604482015290519081900360640190fd5b9392505050565b600160a060020a0382161515610dea576040805160e560020a62461bcd02815260206004820152601f60248201527f45524332303a206d696e7420746f20746865207a65726f206164647265737300604482015290519081900360640190fd5b600254610dfd908263ffffffff610d2616565b600255600160a060020a038216600090815260208190526040902054610e29908263ffffffff610d2616565b600160a060020a0383166000818152602081815260408083209490945583518581529351929391927fddf252ad1be2c89b69c2b068fc378daa952ba7f163c4a11628f55a4df523b3ef9281900390910190a35050565b610e9060038263ffffffff610fb716565b604051600160a060020a038216907f6ae172837ea30b801fbfcdd4108aa1d5bf8ff775444fd70256b44e6bf3dfc3f690600090a250565b610ed860038263ffffffff61103b16565b604051600160a060020a038216907fe94479a9f7e1952cc78f2d6baab678adc1b772d936c6583def489e524cb6669290600090a250565b6000600160a060020a0382161515610f97576040805160e560020a62461bcd02815260206004820152602260248201527f526f6c65733a206163636f756e7420697320746865207a65726f20616464726560448201527f7373000000000000000000000000000000000000000000000000000000000000606482015290519081900360840190fd5b50600160a060020a03166000908152602091909152604090205460ff1690565b610fc18282610f0f565b15611016576040805160e560020a62461bcd02815260206004820152601f60248201527f526f6c65733a206163636f756e7420616c72656164792068617320726f6c6500604482015290519081900360640190fd5b600160a060020a0316600090815260209190915260409020805460ff19166001179055565b6110458282610f0f565b15156110c1576040805160e560020a62461bcd02815260206004820152602160248201527f526f6c65733a206163636f756e7420646f6573206e6f74206861766520726f6c60448201527f6500000000000000000000000000000000000000000000000000000000000000606482015290519081900360840190fd5b600160a060020a0316600090815260208281526040808320805460ff19169055600190930190529081205556fea165627a7a72305820cba39ede35b34a1447988ceb7425e89668ecbc349e952099655407641dc01a7c0029a165627a7a72305820396b8501fce966c1c07ca2076fc1b62d55325a4f8a92b5e5321ec6ffc416a9ce0029",
  "source": "pragma solidity ^0.5.0;\nimport \"./OEToken.sol\";\nimport \"./FinalizableCrowdsale.sol\";\n\ncontract CoinCreator{\n    mapping(address=>address[]) public deployedTokens;\n    mapping(address=>address[]) public deployedCrowdsales;\n\n    constructor() public{\n    }\n\n    function deployToken(string memory _name,uint8 _decimals,string memory _symbol,address[] memory _partners, uint[] memory _shares ) public{\n        OEToken TokenInstance=new OEToken(_name,_symbol,_decimals,_partners,_shares);\n        deployedTokens[msg.sender].push(address(TokenInstance));\n    }\n\n    function deployCrowdsale(uint256 _openingTime, uint256 _closingTime,uint256 _rate, address payable _wallet, IERC20 _token) public{\n        FinalizableCrowdsale instance = new FinalizableCrowdsale(_openingTime,_closingTime,_rate,_wallet,_token,msg.sender);\n        deployedCrowdsales[msg.sender].push(address(instance));\n    }\n}",
  "sourcePath": "E:/Task_space/Elena/2Backend/contracts/CoinCreator.sol",
  "compiler": {
    "name": "solc",
    "version": "0.5.0+commit.1d4f565a.Emscripten.clang"
  },
  "schemaVersion": "3.3.2",
  "updatedAt": "2021-02-03T03:15:05.661Z",
  "networkType": "ethereum",
  "devdoc": {
    "methods": {}
  },
  "userdoc": {
    "methods": {}
  }
}