{
  "contractName": "OrderStatisticTree",
  "abi": [
    {
      "inputs": [
        {
          "name": "_owner",
          "type": "address"
        },
        {
          "name": "_eligibleCount",
          "type": "uint256"
        }
      ],
      "payable": false,
      "stateMutability": "nonpayable",
      "type": "constructor"
    },
    {
      "constant": false,
      "inputs": [
        {
          "name": "value",
          "type": "uint256"
        }
      ],
      "name": "SetCoinOwnerEligible",
      "outputs": [],
      "payable": false,
      "stateMutability": "nonpayable",
      "type": "function"
    },
    {
      "constant": false,
      "inputs": [],
      "name": "SetGoalReached",
      "outputs": [],
      "payable": false,
      "stateMutability": "nonpayable",
      "type": "function"
    },
    {
      "constant": false,
      "inputs": [
        {
          "name": "value",
          "type": "uint256"
        }
      ],
      "name": "insert",
      "outputs": [],
      "payable": false,
      "stateMutability": "nonpayable",
      "type": "function"
    },
    {
      "constant": false,
      "inputs": [
        {
          "name": "value",
          "type": "uint256"
        }
      ],
      "name": "remove",
      "outputs": [],
      "payable": false,
      "stateMutability": "nonpayable",
      "type": "function"
    },
    {
      "constant": true,
      "inputs": [
        {
          "name": "value",
          "type": "uint256"
        }
      ],
      "name": "rank",
      "outputs": [
        {
          "name": "smaller",
          "type": "uint256"
        }
      ],
      "payable": false,
      "stateMutability": "view",
      "type": "function"
    },
    {
      "constant": true,
      "inputs": [
        {
          "name": "pos",
          "type": "uint256"
        }
      ],
      "name": "select_at",
      "outputs": [
        {
          "name": "value",
          "type": "uint256"
        }
      ],
      "payable": false,
      "stateMutability": "view",
      "type": "function"
    },
    {
      "constant": true,
      "inputs": [
        {
          "name": "value",
          "type": "uint256"
        }
      ],
      "name": "duplicates",
      "outputs": [
        {
          "name": "n",
          "type": "uint256"
        }
      ],
      "payable": false,
      "stateMutability": "view",
      "type": "function"
    },
    {
      "constant": true,
      "inputs": [],
      "name": "count",
      "outputs": [
        {
          "name": "count",
          "type": "uint256"
        }
      ],
      "payable": false,
      "stateMutability": "view",
      "type": "function"
    },
    {
      "constant": true,
      "inputs": [
        {
          "name": "value",
          "type": "uint256"
        },
        {
          "name": "n",
          "type": "uint256"
        }
      ],
      "name": "in_top_n",
      "outputs": [
        {
          "name": "truth",
          "type": "bool"
        }
      ],
      "payable": false,
      "stateMutability": "view",
      "type": "function"
    },
    {
      "constant": true,
      "inputs": [
        {
          "name": "value",
          "type": "uint256"
        }
      ],
      "name": "percentile",
      "outputs": [
        {
          "name": "k",
          "type": "uint256"
        }
      ],
      "payable": false,
      "stateMutability": "view",
      "type": "function"
    },
    {
      "constant": true,
      "inputs": [
        {
          "name": "percentile",
          "type": "uint256"
        }
      ],
      "name": "at_percentile",
      "outputs": [
        {
          "name": "value",
          "type": "uint256"
        }
      ],
      "payable": false,
      "stateMutability": "view",
      "type": "function"
    },
    {
      "constant": true,
      "inputs": [
        {
          "name": "value",
          "type": "uint256"
        }
      ],
      "name": "permille",
      "outputs": [
        {
          "name": "k",
          "type": "uint256"
        }
      ],
      "payable": false,
      "stateMutability": "view",
      "type": "function"
    },
    {
      "constant": true,
      "inputs": [
        {
          "name": "permille",
          "type": "uint256"
        }
      ],
      "name": "at_permille",
      "outputs": [
        {
          "name": "value",
          "type": "uint256"
        }
      ],
      "payable": false,
      "stateMutability": "view",
      "type": "function"
    },
    {
      "constant": true,
      "inputs": [],
      "name": "median",
      "outputs": [
        {
          "name": "value",
          "type": "uint256"
        }
      ],
      "payable": false,
      "stateMutability": "view",
      "type": "function"
    },
    {
      "constant": true,
      "inputs": [
        {
          "name": "value",
          "type": "uint256"
        }
      ],
      "name": "node_left_child",
      "outputs": [
        {
          "name": "child",
          "type": "uint256"
        }
      ],
      "payable": false,
      "stateMutability": "view",
      "type": "function"
    },
    {
      "constant": true,
      "inputs": [
        {
          "name": "value",
          "type": "uint256"
        }
      ],
      "name": "node_right_child",
      "outputs": [
        {
          "name": "child",
          "type": "uint256"
        }
      ],
      "payable": false,
      "stateMutability": "view",
      "type": "function"
    },
    {
      "constant": true,
      "inputs": [
        {
          "name": "value",
          "type": "uint256"
        }
      ],
      "name": "node_parent",
      "outputs": [
        {
          "name": "parent",
          "type": "uint256"
        }
      ],
      "payable": false,
      "stateMutability": "view",
      "type": "function"
    },
    {
      "constant": true,
      "inputs": [
        {
          "name": "value",
          "type": "uint256"
        }
      ],
      "name": "node_side",
      "outputs": [
        {
          "name": "side",
          "type": "bool"
        }
      ],
      "payable": false,
      "stateMutability": "view",
      "type": "function"
    },
    {
      "constant": true,
      "inputs": [
        {
          "name": "value",
          "type": "uint256"
        }
      ],
      "name": "node_height",
      "outputs": [
        {
          "name": "height",
          "type": "uint256"
        }
      ],
      "payable": false,
      "stateMutability": "view",
      "type": "function"
    },
    {
      "constant": true,
      "inputs": [
        {
          "name": "value",
          "type": "uint256"
        }
      ],
      "name": "node_count",
      "outputs": [
        {
          "name": "count",
          "type": "uint256"
        }
      ],
      "payable": false,
      "stateMutability": "view",
      "type": "function"
    },
    {
      "constant": true,
      "inputs": [
        {
          "name": "value",
          "type": "uint256"
        }
      ],
      "name": "node_dupes",
      "outputs": [
        {
          "name": "dupes",
          "type": "uint256"
        }
      ],
      "payable": false,
      "stateMutability": "view",
      "type": "function"
    },
    {
      "constant": true,
      "inputs": [],
      "name": "numInserts",
      "outputs": [
        {
          "name": "",
          "type": "uint256"
        }
      ],
      "payable": false,
      "stateMutability": "view",
      "type": "function"
    }
  ],
  "bytecode": "0x608060405234801561001057600080fd5b506040516040806114678339810180604052604081101561003057600080fd5b50805160209091015160008054600160a060020a031916600160a060020a0390931692909217825560018290556002556003805460ff191690556113ed90819061007a90396000f3fe6080604052600436106101275763ffffffff7c010000000000000000000000000000000000000000000000000000000060003504166306661abd811461012c57806321f0a7271461015357806337da80581461017d5780633b5f24eb146101c157806341beb997146101eb57806348da1532146102005780634cc822151461022a5780635014a18e1461025657806354c8f46d1461028057806356632637146102aa578063598ac8f2146102d457806366d5c8ed146102fe578063770494571461032857806390b5561d1461033d5780639f85371714610367578063b37c191b14610391578063b754175b146103bb578063bdc0f93c146103d0578063d9269cb4146103fa578063e832fda314610424578063e973b7ba1461044e578063fa2b579d14610478575b600080fd5b34801561013857600080fd5b506101416104a2565b60408051918252519081900360200190f35b34801561015f57600080fd5b506101416004803603602081101561017657600080fd5b50356104fd565b34801561018957600080fd5b506101ad600480360360408110156101a057600080fd5b508035906020013561051b565b604080519115158252519081900360200190f35b3480156101cd57600080fd5b50610141600480360360208110156101e457600080fd5b5035610547565b3480156101f757600080fd5b50610141610596565b34801561020c57600080fd5b506101ad6004803603602081101561022357600080fd5b503561059c565b34801561023657600080fd5b506102546004803603602081101561024d57600080fd5b50356105b4565b005b34801561026257600080fd5b506101416004803603602081101561027957600080fd5b503561066a565b34801561028c57600080fd5b50610254600480360360208110156102a357600080fd5b503561067f565b3480156102b657600080fd5b50610141600480360360208110156102cd57600080fd5b50356106ce565b3480156102e057600080fd5b50610141600480360360208110156102f757600080fd5b50356106e3565b34801561030a57600080fd5b506101416004803603602081101561032157600080fd5b5035610728565b34801561033457600080fd5b50610141610745565b34801561034957600080fd5b506102546004803603602081101561036057600080fd5b5035610756565b34801561037357600080fd5b506101416004803603602081101561038a57600080fd5b50356107b3565b34801561039d57600080fd5b50610141600480360360208110156103b457600080fd5b50356107cb565b3480156103c757600080fd5b506102546108f0565b3480156103dc57600080fd5b50610141600480360360208110156103f357600080fd5b5035610923565b34801561040657600080fd5b506101416004803603602081101561041d57600080fd5b5035610939565b34801561043057600080fd5b506101416004803603602081101561044757600080fd5b503561095d565b34801561045a57600080fd5b506101416004803603602081101561047157600080fd5b5035610a54565b34801561048457600080fd5b506101416004803603602081101561049b57600080fd5b5035610a69565b7f560c5c35d362ebe12852e61b5bb1957021175ee6b552ac19e7c3fb4e272bed3f54600090815260046020819052604090912001547f17ef568e3e12ab5b9c7254a8d58478811de00f9e6eb34345acd53bf8fd09d3f1540190565b60009081526004602090815260408083206001845290915290205490565b600080610527846107cb565b905060006105336104a2565b905083600183830303109250505092915050565b600080610553836107cb565b6000848152600460205260408120600501549192506105706104a2565b905080600260648085020104846064020181151561058a57fe5b0493505050505b919050565b60015490565b60009081526004602052604090206002015460ff1690565b60005473ffffffffffffffffffffffffffffffffffffffff1633146105d857600080fd5b600081815260046020526040902081151561060357600581015415156105fe5750610667565b610614565b600481015415156106145750610667565b60008160050154111561065c576005810180546000190190558115610640576004810180546000190190555b60018101546002820154610657919060ff16610a83565b610665565b61066582610aa5565b505b50565b60009081526004602052604090206001015490565b60005473ffffffffffffffffffffffffffffffffffffffff1633146106a357600080fd5b60035460ff1615156001146106b757600080fd5b6002546106c3826107cb565b111561066757600080fd5b60009081526004602052604090206005015490565b6000806106ef836107cb565b60008481526004602052604081206005015491925061070c6104a2565b90508060026103e88085020104846103e8020181151561058a57fe5b600090815260046020908152604080832083805290915290205490565b60006107516032610a69565b905090565b60005473ffffffffffffffffffffffffffffffffffffffff16331461077a57600080fd5b80151561079e57600081815260046020526040902060050180546001019055610667565b60018054810181556106679060009083610b94565b60009081526004602052604090206005015460010190565b60008082156108ea577f17ef568e3e12ab5b9c7254a8d58478811de00f9e6eb34345acd53bf8fd09d3f1547f560c5c35d362ebe12852e61b5bb1957021175ee6b552ac19e7c3fb4e272bed3f546000818152600460205260409020919350905b600a8310156108e757600192909201918482116108875784821015610857578060050154600101840193505b6000808052602082905260409020548015610885576000818152600460208190526040909120015494909401935b505b84821415610894576108e7565b848210156108bc57600160009081526020918252604080822054808352600490935290209091505b848211156108e25760008080526020918252604080822054808352600490935290209091505b61082b565b50505b50919050565b60005473ffffffffffffffffffffffffffffffffffffffff16331461091457600080fd5b6003805460ff19166001179055565b6000908152600460208190526040909120015490565b6000806109446104a2565b90506109566103e88483025b0461095d565b9392505050565b600080805260046020527f17ef568e3e12ab5b9c7254a8d58478811de00f9e6eb34345acd53bf8fd09d3f154818184101561099d57600092505050610591565b7f560c5c35d362ebe12852e61b5bb1957021175ee6b552ac19e7c3fb4e272bed3f54600081815260046020526040902083860391905b6000808052602082815260408083205460058501548185526004909352922060019091019086861015610a0b57829450809350610a4c565b818701861015610a25578498505050505050505050610591565b60016000908152602094855260408082205480835260049096529020878301909603959394505b5050506109d3565b60009081526004602052604090206003015490565b600080610a746104a2565b90506109566064848302610950565b811561066557610a9282610c67565b610a9b82610cb9565b6106658282610cf2565b600081815260046020908152604080832060018082015460028301548187528487208780529584905284872054928752939095205491949360ff909316929181158015610af0575080155b15610b1f57831515600090815260208490526040812055610b1087610e25565b610b1a8585610a83565b610b8b565b8115801590610b2d57508015155b15610b3c57610b1a8783610e72565b81810160008181526004602090815260408083208815158085529288905292208390556001820188905560028201805460ff19169091179055610b7e89610e25565b610b888787610a83565b50505b50505050505050565b600083815260046020908152604080832085151584529182905290912054801515610c1857831515600081815260208481526040808320879055868352600491829052909120600180820189905560028201805460ff19169094179093556003810183905590810191909155610c0984610cb9565b610c1284611016565b50610c60565b82811415610c4f57600081815260046020526040902060050180546001019055610c4183610c67565b610c4a83610cb9565b610c60565b80831015610c5e828286610b94565b505b5050505050565b6000908152600460208181526040808420600581015460018087528285528387205487528585528387208601548780528386528488205488529486905292909520840154909201909301909201910155565b6000818152600460205260409020600101545b801561066557610cdb81610c67565b600090815260046020526040902060010154610ccc565b811561066557610d01826110f6565b6000610d0c8361115a565b905060008215610d1e57506001610d23565b506000195b6000610d2e8561115a565b905081600202811415610dba57600085815260046020908152604080832087158452918290528220549091610d628261115a565b90508460001902811415610d7b57610d7b82881561119d565b610d85888861119d565b8015610db257600088815260046020526040902060018101546002820154919450610db29160ff16610cf2565b505050610c60565b828214610c6057610dc961138f565b50600085815260046020818152604092839020835160a0810185526001820154808252600283015460ff1615159382018490526003830154958201959095529281015460608401526005015460808301529091610c5e91610cf2565b6000908152600460208181526040808420600180820186905560028201805460ff191690558580529281905281852085905591845283208390559081018290556003810182905560050155565b6000610e7d82611354565b6000818152600460205260409020600581015491925090610e9d83610aa5565b6000600460008781526020019081526020016000209050600081600101549050600060046000838152602001908152602001600020905060008360030154905060008460020160009054906101000a900460ff169050600085600401549050600086600001600060011515151581526020019081526020016000205490506000876000016000801515151581526020019081526020016000205490508a8660000160008615151515815260200190815260200160002081905550868a60010181905550838a60020160006101000a81548160ff0219169083151502179055508760050154898401038a60040181905550848a60030181905550888a60050181905550806000141515610fcc57600080805260208b81526040808320849055838352600490915290206001018b90555b8115610ff5576001600081815260208c8152604080832086905585835260049091529020018b90555b610ffe8d610e25565b6110078b610cb9565b50505050505050505050505050565b61101f816110f6565b61102761138f565b50600081815260046020818152604092839020835160a0810185526001820154808252600283015460ff16151593820193909352600382015494810194909452918201546060840152600590910154608083015280156110f157600061108c8261115a565b6020840151909150600081156110a557506000196110a9565b5060015b806002028314156110e25780600019026110c28761115a565b14156110d2576110d2868361119d565b6110dd84831561119d565b610c5e565b8215610c5e57610c5e84611016565b505050565b60008181526004602081815260408084208480528083528185205485528383528185206003908101546001875282855283872054875294909352932001548082111561114a57600182016003840155611154565b6001810160038401555b50505050565b6000908152600460208181526040808420600185528083528185205485528383528185206003908101548680529184528286205486529390925290922001540390565b600081159050600060046000858152602001908152602001600020905060008160020160009054906101000a900460ff169050600082600101549050600083600001600086151515158152602001908152602001600020549050600060046000838152602001908152602001600020905060008160000160008915151515815260200190815260200160002054905060006004600086815260200190815260200160002090506000600460008481526020019081526020016000209050848260000160008915151515815260200190815260200160002081905550868460020160006101000a81548160ff0219169083151502179055508584600101819055508a8460000160008c15151515815260200190815260200160002081905550848860010181905550898860020160006101000a81548160ff021916908315150217905550828860000160008b151515158152602001908152602001600020819055508a8160010181905550888160020160006101000a81548160ff02191690831515021790555061132c8b6110f6565b611335856110f6565b61133e8b610c67565b61134785610c67565b5050505050505050505050565b60008181526004602090815260408083206001845290915281205480156113865761137e81611354565b915050610591565b82915050610591565b60a06040519081016040528060008152602001600015158152602001600081526020016000815260200160008152509056fea165627a7a72305820d1aa96cc8b89e2400fe52d2a9e0bfa65dc09dd285bb88e1ae6ef6907f95a02580029",
  "source": "pragma solidity ^0.5.0;\n\ncontract OrderStatisticTree {\n\n\n    address owner;\n    uint numberofInserts;\n    uint EligibleCount;\n    bool GoalReached;\n\n    constructor(address _owner, uint _eligibleCount) public {\n        owner=_owner;\n        numberofInserts=0;\n        EligibleCount=_eligibleCount;\n        GoalReached=false;\n    }\n    function SetCoinOwnerEligible(uint value) public isOwner(){\n      require(GoalReached==true);\n      require(rank(value)<=EligibleCount);\n     // if(!owner.call(bytes4(keccak256(\"setEligible(uint256)\")),value )) revert();\n    }\n    function SetGoalReached() public isOwner(){\n      GoalReached=true;\n    }\n    modifier isOwner(){\n      require(msg.sender==owner);\n      _;\n    }\n    function update_count(uint value) private {\n        Node storage n=nodes[value];\n        n.count=1+nodes[n.children[false]].count+nodes[n.children[true]].count+n.dupes;\n    }\n    function update_counts(uint value) private {\n        uint parent=nodes[value].parent;\n        while (parent!=0) {\n            update_count(parent);\n            parent=nodes[parent].parent;\n        }\n    }\n    function update_height(uint value) private {\n        Node storage n=nodes[value];\n        uint height_left=nodes[n.children[false]].height;\n        uint height_right=nodes[n.children[true]].height;\n        if (height_left>height_right)\n            n.height=height_left+1;\n        else\n            n.height=height_right+1;\n    }\n    function balance_factor(uint value) view private returns (int bf) {\n        Node storage  n=nodes[value];\n        return int(nodes[n.children[false]].height)-int(nodes[n.children[true]].height);\n    }\n    function rotate(uint value,bool dir) private {\n        bool other_dir=!dir;\n        Node  storage n=nodes[value];\n        bool side=n.side;\n        uint parent=n.parent;\n        uint value_new=n.children[other_dir];\n        Node  storage  n_new=nodes[value_new];\n        uint orphan=n_new.children[dir];\n        Node storage  p=nodes[parent];\n        Node storage o=nodes[orphan];\n        p.children[side]=value_new;\n        n_new.side=side;\n        n_new.parent=parent;\n        n_new.children[dir]=value;\n        n.parent=value_new;\n        n.side=dir;\n        n.children[other_dir]=orphan;\n        o.parent=value;\n        o.side=other_dir;\n        update_height(value);\n        update_height(value_new);\n        update_count(value);\n        update_count(value_new);\n    }\n    function rebalance_insert(uint n_value) private {\n        update_height(n_value);\n        Node memory n=nodes[n_value];\n        uint p_value=n.parent;\n        if (p_value!=0) {\n            int p_bf=balance_factor(p_value);\n            bool side=n.side;\n            int sign;\n            if (side)\n                sign=-1;\n            else\n                sign=1;\n            if (p_bf == sign*2) {\n                if (balance_factor(n_value) == (-1 * sign))\n                    rotate(n_value,side);\n                rotate(p_value,!side);\n            }\n            else if (p_bf != 0)\n                rebalance_insert(p_value);\n        }\n    }\n    function rebalance_delete(uint p_value,bool side) private{\n        if (p_value!=0) {\n            update_height(p_value);\n            int p_bf=balance_factor(p_value);\n            //bool dir = side;\n            int sign;\n            if (side)\n                sign=1;\n            else\n                sign=-1;\n            int bf=balance_factor(p_value);\n            if (bf==(2*sign)) {\n                Node storage p=nodes[p_value];\n                uint s_value=p.children[!side];\n                int s_bf=balance_factor(s_value);\n                if (s_bf == (-1 * sign))\n                    rotate(s_value,!side);\n                rotate(p_value,side);\n                if (s_bf!=0){\n                    p=nodes[p_value];\n                    rebalance_delete(p.parent,p.side);\n                }\n            }\n            else if (p_bf != sign){\n                Node memory p=nodes[p_value];\n                rebalance_delete(p.parent,p.side);\n            }\n        }\n    }\n    function fix_parents(uint parent,bool side) private {\n        if(parent!=0) {\n            update_count(parent);\n            update_counts(parent);\n            rebalance_delete(parent,side);\n        }\n    }\n    function insert_helper(uint p_value,bool side,uint value) private {\n        Node storage root=nodes[p_value];\n        uint c_value=root.children[side];\n        if (c_value==0){\n            root.children[side]=value;\n            Node storage child=nodes[value];\n            child.parent=p_value;\n            child.side=side;\n            child.height=1;\n            child.count=1;\n            update_counts(value);\n            rebalance_insert(value);\n        }\n        else if (c_value==value){\n            nodes[c_value].dupes++;\n            update_count(value);\n            update_counts(value);\n        }\n        else{\n            bool side_new=(value >= c_value);\n            insert_helper(c_value,side_new,value);\n        }\n    }\n    function insert(uint value) public isOwner() {\n\n        if (value==0)\n            nodes[value].dupes++;\n        else{\n            numberofInserts+=1;\n            insert_helper(0,true,value);\n        }\n    }\n    function rightmost_leaf(uint value) view private returns (uint leaf) {\n        uint child=nodes[value].children[true];\n        if (child!=0)\n            return rightmost_leaf(child);\n        else\n            return value;\n    }\n    function zero_out(uint value) private {\n        Node  storage n=nodes[value];\n        n.parent=0;\n        n.side=false;\n        n.children[false]=0;\n        n.children[true]=0;\n        n.count=0;\n        n.height=0;\n        n.dupes=0;\n    }\n    function remove_branch(uint _value,uint _left) private {\n        uint ipn=rightmost_leaf(_left);\n        Node storage i=nodes[ipn];\n        uint dupes=i.dupes;\n        remove_helper(ipn);\n        Node storage n=nodes[_value];\n        uint parent=n.parent;\n        Node  storage p=nodes[parent];\n        uint height=n.height;\n        bool side=n.side;\n        uint count=n.count;\n        uint right=n.children[true];\n        uint left=n.children[false];\n        p.children[side]=ipn;\n        i.parent=parent;\n        i.side=side;\n        i.count=count+dupes-n.dupes;\n        i.height=height;\n        i.dupes=dupes;\n        if (left!=0) {\n            i.children[false]=left;\n            nodes[left].parent=ipn;\n        }\n        if (right!=0) {\n            i.children[true]=right;\n            nodes[right].parent=ipn;\n        }\n        zero_out(_value);\n        update_counts(ipn);\n    }\n    function remove_helper(uint value) private {\n        Node storage  n=nodes[value];\n        uint parent=n.parent;\n        bool side=n.side;\n        Node storage p=nodes[parent];\n        uint left=n.children[false];\n        uint right=n.children[true];\n        if ((left == 0) && (right == 0)) {\n            p.children[side]=0;\n            zero_out(value);\n            fix_parents(parent,side);\n        }\n        else if ((left !=0) && (right != 0)) {\n            remove_branch(value,left);\n        }\n        else {\n            uint child=left+right;\n            Node storage c=nodes[child];\n            p.children[side]=child;\n            c.parent=parent;\n            c.side=side;\n            zero_out(value);\n            fix_parents(parent,side);\n        }\n    }\n    function remove(uint value) public isOwner(){\n        Node storage n=nodes[value];\n        if (value==0){\n            if (n.dupes==0)\n                return;\n        }\n        else{\n            if (n.count==0)\n                return;\n        }\n        if (n.dupes>0) {\n            n.dupes--;\n            if(value!=0)\n                n.count--;\n            fix_parents(n.parent,n.side);\n        }\n        else\n            remove_helper(value);\n    }\n\n    function rank(uint value) view public returns (uint smaller){\n        uint temp=0;\n        if(value!=0){\n            smaller=nodes[0].dupes;\n            uint cur=nodes[0].children[true];\n            Node storage cur_node=nodes[cur];\n            while(temp<10){\n                temp+=1;\n                if (cur<=value){\n                    if(cur<value)\n                        smaller+=1+cur_node.dupes;\n                    uint left_child=cur_node.children[false];\n                    if (left_child!=0)\n                        smaller+=nodes[left_child].count;\n                }\n                if (cur==value)\n                    break;\n                //cur=cur_node.children[cur<value];\n                if(cur<value){\n                    cur=cur_node.children[true];\n                    cur_node=nodes[cur];\n\n                }\n                if(cur>value){\n                    cur=cur_node.children[false];\n                    cur_node=nodes[cur];\n                }\n            }\n        }\n    }\n\n    function select_at(uint pos) view public returns (uint value){\n        uint zeroes=nodes[0].dupes;\n        uint left_count;\n        if (pos<zeroes)\n            return 0;\n        else {\n            uint pos_new=pos-zeroes;\n            uint cur=nodes[0].children[true];\n            Node storage cur_node=nodes[cur];\n            while(true){\n                uint left=cur_node.children[false];\n                uint cur_num=cur_node.dupes+1;\n                Node storage left_node=nodes[left];\n                if (left!=0) {\n                   \n                    uint left_count=left_node.count;\n                }\n                \n                if (pos_new<left_count) {\n                    cur=left;\n                    cur_node=left_node;\n                }\n                else if (pos_new<left_count+cur_num){\n                    return cur;\n                }\n                else {\n                    cur=cur_node.children[true];\n                    cur_node=nodes[cur];\n                    pos_new-=left_count+cur_num;\n                }\n            }\n        }\n    }\n\n    function duplicates(uint value)  public view returns (uint n){\n        return nodes[value].dupes+1;\n    }\n\n    function count()  public view returns (uint count){\n        Node storage root=nodes[0];\n        Node storage child=nodes[root.children[true]];\n        return root.dupes+child.count;\n    }\n\n    function in_top_n(uint value,uint n) public view returns (bool truth){\n        uint pos=rank(value);\n        uint num=count();\n        return (num-pos-1<n);\n    }\n    function percentile(uint value) public view returns (uint k){\n        uint pos=rank(value);\n        uint same=nodes[value].dupes;\n        uint num=count();\n        return (pos*100+(same*100+100)/2)/num;\n    }\n    function at_percentile(uint percentile) public view returns (uint value){\n        uint n=count();\n        return select_at(percentile*n/100);\n    }\n    function permille(uint value) public view  returns (uint k){\n        uint pos=rank(value);\n        uint same=nodes[value].dupes;\n        uint num=count();\n        return (pos*1000+(same*1000+1000)/2)/num;\n    }\n    function at_permille(uint permille) public view returns (uint value){\n        uint n=count();\n        return select_at(permille*n/1000);\n    }\n    function median() public view returns (uint value){\n        return at_percentile(50);\n    }\n    function node_left_child(uint value) public view returns (uint child){\n        child=nodes[value].children[false];\n    }\n    function node_right_child(uint value) public view returns (uint child){\n        child=nodes[value].children[true];\n    }\n    function node_parent(uint value) public view returns (uint parent){\n        parent=nodes[value].parent;\n    }\n    function node_side(uint value) public view returns (bool side){\n        side=nodes[value].side;\n    }\n    function node_height(uint value) public view returns (uint height){\n        height=nodes[value].height;\n    }\n    function node_count(uint value) public view returns (uint count){\n        count=nodes[value].count;\n    }\n    function node_dupes(uint value) public view returns (uint dupes){\n        dupes=nodes[value].dupes;\n    }\n    function numInserts() public view returns(uint){\n        return numberofInserts;\n    }\n    struct Node {\n        mapping (bool => uint) children;\n        uint parent;\n        bool side;\n        uint height;\n        uint count;\n        uint dupes;\n    }\n    mapping(uint => Node) nodes;\n}\n",
  "sourcePath": "E:/Task_space/Elena/2Backend/contracts/OrderStatisticsTree.sol",
  "compiler": {
    "name": "solc",
    "version": "0.5.0+commit.1d4f565a.Emscripten.clang"
  },
  "schemaVersion": "3.3.2",
  "updatedAt": "2021-02-02T16:12:09.530Z",
  "devdoc": {
    "methods": {}
  },
  "userdoc": {
    "methods": {}
  }
}