{
  "contractName": "WhitelistCrowdsale",
  "abi": [
    {
      "constant": true,
      "inputs": [
        {
          "name": "account",
          "type": "address"
        },
        {
          "name": "value",
          "type": "uint256"
        }
      ],
      "name": "isWhitelistedforAmount",
      "outputs": [
        {
          "name": "",
          "type": "bool"
        }
      ],
      "payable": false,
      "stateMutability": "view",
      "type": "function"
    },
    {
      "constant": false,
      "inputs": [
        {
          "name": "account",
          "type": "address"
        }
      ],
      "name": "removeWhitelisted",
      "outputs": [],
      "payable": false,
      "stateMutability": "nonpayable",
      "type": "function"
    },
    {
      "constant": true,
      "inputs": [],
      "name": "rate",
      "outputs": [
        {
          "name": "",
          "type": "uint256"
        }
      ],
      "payable": false,
      "stateMutability": "view",
      "type": "function"
    },
    {
      "constant": true,
      "inputs": [
        {
          "name": "account",
          "type": "address"
        }
      ],
      "name": "isWhitelisted",
      "outputs": [
        {
          "name": "",
          "type": "bool"
        }
      ],
      "payable": false,
      "stateMutability": "view",
      "type": "function"
    },
    {
      "constant": true,
      "inputs": [],
      "name": "weiRaised",
      "outputs": [
        {
          "name": "",
          "type": "uint256"
        }
      ],
      "payable": false,
      "stateMutability": "view",
      "type": "function"
    },
    {
      "constant": false,
      "inputs": [],
      "name": "renounceWhitelistAdmin",
      "outputs": [],
      "payable": false,
      "stateMutability": "nonpayable",
      "type": "function"
    },
    {
      "constant": true,
      "inputs": [],
      "name": "wallet",
      "outputs": [
        {
          "name": "",
          "type": "address"
        }
      ],
      "payable": false,
      "stateMutability": "view",
      "type": "function"
    },
    {
      "constant": false,
      "inputs": [
        {
          "name": "account",
          "type": "address"
        }
      ],
      "name": "addWhitelistAdmin",
      "outputs": [],
      "payable": false,
      "stateMutability": "nonpayable",
      "type": "function"
    },
    {
      "constant": false,
      "inputs": [
        {
          "name": "account",
          "type": "address"
        },
        {
          "name": "purchase",
          "type": "uint256"
        }
      ],
      "name": "addWhitelisted",
      "outputs": [],
      "payable": false,
      "stateMutability": "nonpayable",
      "type": "function"
    },
    {
      "constant": true,
      "inputs": [
        {
          "name": "account",
          "type": "address"
        }
      ],
      "name": "getPurchasePower",
      "outputs": [
        {
          "name": "",
          "type": "uint256"
        }
      ],
      "payable": false,
      "stateMutability": "view",
      "type": "function"
    },
    {
      "constant": false,
      "inputs": [
        {
          "name": "account",
          "type": "address"
        },
        {
          "name": "purchaseTier",
          "type": "uint256"
        }
      ],
      "name": "increaseWhiteListingTier",
      "outputs": [],
      "payable": false,
      "stateMutability": "nonpayable",
      "type": "function"
    },
    {
      "constant": true,
      "inputs": [
        {
          "name": "account",
          "type": "address"
        }
      ],
      "name": "isWhitelistAdmin",
      "outputs": [
        {
          "name": "",
          "type": "bool"
        }
      ],
      "payable": false,
      "stateMutability": "view",
      "type": "function"
    },
    {
      "constant": false,
      "inputs": [],
      "name": "renounceWhitelisted",
      "outputs": [],
      "payable": false,
      "stateMutability": "nonpayable",
      "type": "function"
    },
    {
      "constant": false,
      "inputs": [
        {
          "name": "account",
          "type": "address"
        },
        {
          "name": "purchaseTier",
          "type": "uint256"
        }
      ],
      "name": "decreaseWhiteListingTier",
      "outputs": [],
      "payable": false,
      "stateMutability": "nonpayable",
      "type": "function"
    },
    {
      "constant": true,
      "inputs": [],
      "name": "token",
      "outputs": [
        {
          "name": "",
          "type": "address"
        }
      ],
      "payable": false,
      "stateMutability": "view",
      "type": "function"
    },
    {
      "inputs": [
        {
          "name": "rate",
          "type": "uint256"
        },
        {
          "name": "wallet",
          "type": "address"
        },
        {
          "name": "token",
          "type": "address"
        }
      ],
      "payable": false,
      "stateMutability": "nonpayable",
      "type": "constructor"
    },
    {
      "anonymous": false,
      "inputs": [
        {
          "indexed": true,
          "name": "purchaser",
          "type": "address"
        },
        {
          "indexed": true,
          "name": "beneficiary",
          "type": "address"
        },
        {
          "indexed": false,
          "name": "value",
          "type": "uint256"
        },
        {
          "indexed": false,
          "name": "amount",
          "type": "uint256"
        }
      ],
      "name": "TokensPurchased",
      "type": "event"
    },
    {
      "anonymous": false,
      "inputs": [
        {
          "indexed": true,
          "name": "account",
          "type": "address"
        }
      ],
      "name": "WhitelistedAdded",
      "type": "event"
    },
    {
      "anonymous": false,
      "inputs": [
        {
          "indexed": true,
          "name": "account",
          "type": "address"
        }
      ],
      "name": "WhitelistedRemoved",
      "type": "event"
    },
    {
      "anonymous": false,
      "inputs": [
        {
          "indexed": true,
          "name": "account",
          "type": "address"
        }
      ],
      "name": "WhitelistAdminAdded",
      "type": "event"
    },
    {
      "anonymous": false,
      "inputs": [
        {
          "indexed": true,
          "name": "account",
          "type": "address"
        }
      ],
      "name": "WhitelistAdminRemoved",
      "type": "event"
    }
  ],
  "bytecode": "0x608060405234801561001057600080fd5b506040516060806111448339810180604052606081101561003057600080fd5b50805160208201516040909201519091908282826100563364010000000061023e810204565b6001600455600083116100ca57604080517f08c379a000000000000000000000000000000000000000000000000000000000815260206004820152601460248201527f43726f776473616c653a20726174652069732030000000000000000000000000604482015290519081900360640190fd5b600160a060020a038216151561016757604080517f08c379a000000000000000000000000000000000000000000000000000000000815260206004820152602560248201527f43726f776473616c653a2077616c6c657420697320746865207a65726f20616460448201527f6472657373000000000000000000000000000000000000000000000000000000606482015290519081900360840190fd5b600160a060020a038116151561020357604080517f08c379a0000000000000000000000000000000000000000000000000000000008152602060048201526024808201527f43726f776473616c653a20746f6b656e20697320746865207a65726f2061646460448201527f7265737300000000000000000000000000000000000000000000000000000000606482015290519081900360840190fd5b60079290925560068054600160a060020a03928316600160a060020a03199182161790915560058054929093169116179055506103f0915050565b61025660008264010000000061098261028d82021704565b604051600160a060020a038216907f22380c05984257a1cb900161c713dd71d39e74820f1aea43bd3f1bdd2096129990600090a250565b6102a08282640100000000610331810204565b1561030c57604080517f08c379a000000000000000000000000000000000000000000000000000000000815260206004820152601f60248201527f526f6c65733a206163636f756e7420616c72656164792068617320726f6c6500604482015290519081900360640190fd5b600160a060020a0316600090815260209190915260409020805460ff19166001179055565b6000600160a060020a03821615156103d057604080517f08c379a000000000000000000000000000000000000000000000000000000000815260206004820152602260248201527f526f6c65733a206163636f756e7420697320746865207a65726f20616464726560448201527f7373000000000000000000000000000000000000000000000000000000000000606482015290519081900360840190fd5b50600160a060020a03166000908152602091909152604090205460ff1690565b610d45806103ff6000396000f3fe6080604052600436106100da5763ffffffff7c01000000000000000000000000000000000000000000000000000000006000350416630b46a07c81146100df578063291d95491461012c5780632c4e722e146101615780633af32abf146101885780634042b66f146101bb5780634c5a628c146101d0578063521eb273146101e55780637362d9c8146102165780638902ff8614610249578063abe069e714610282578063af91e8c8146102b5578063bb5f747b146102ee578063d6cd947314610321578063f6d6f9a914610336578063fc0c546a1461036f575b600080fd5b3480156100eb57600080fd5b506101186004803603604081101561010257600080fd5b50600160a060020a038135169060200135610384565b604080519115158252519081900360200190f35b34801561013857600080fd5b5061015f6004803603602081101561014f57600080fd5b5035600160a060020a03166103a1565b005b34801561016d57600080fd5b5061017661040e565b60408051918252519081900360200190f35b34801561019457600080fd5b50610118600480360360208110156101ab57600080fd5b5035600160a060020a0316610414565b3480156101c757600080fd5b5061017661042d565b3480156101dc57600080fd5b5061015f610433565b3480156101f157600080fd5b506101fa61043e565b60408051600160a060020a039092168252519081900360200190f35b34801561022257600080fd5b5061015f6004803603602081101561023957600080fd5b5035600160a060020a031661044d565b34801561025557600080fd5b5061015f6004803603604081101561026c57600080fd5b50600160a060020a0381351690602001356104b7565b34801561028e57600080fd5b50610176600480360360208110156102a557600080fd5b5035600160a060020a0316610526565b3480156102c157600080fd5b5061015f600480360360408110156102d857600080fd5b50600160a060020a038135169060200135610539565b3480156102fa57600080fd5b506101186004803603602081101561031157600080fd5b5035600160a060020a03166105a4565b34801561032d57600080fd5b5061015f6105b6565b34801561034257600080fd5b5061015f6004803603604081101561035957600080fd5b50600160a060020a0381351690602001356105bf565b34801561037b57600080fd5b506101fa61062a565b60008161039860028563ffffffff61063916565b10159392505050565b6103aa336105a4565b1515610402576040805160e560020a62461bcd0281526020600482015260248101829052600080516020610cfa8339815191526044820152600080516020610cda833981519152606482015290519081900360840190fd5b61040b816106e1565b50565b60075490565b600061042760028363ffffffff61072916565b92915050565b60085490565b61043c336107d1565b565b600654600160a060020a031690565b610456336105a4565b15156104ae576040805160e560020a62461bcd0281526020600482015260248101829052600080516020610cfa8339815191526044820152600080516020610cda833981519152606482015290519081900360840190fd5b61040b81610819565b6104c0336105a4565b1515610518576040805160e560020a62461bcd0281526020600482015260248101829052600080516020610cfa8339815191526044820152600080516020610cda833981519152606482015290519081900360840190fd5b6105228282610861565b5050565b600061042760028363ffffffff61063916565b610542336105a4565b151561059a576040805160e560020a62461bcd0281526020600482015260248101829052600080516020610cfa8339815191526044820152600080516020610cda833981519152606482015290519081900360840190fd5b61052282826108ab565b6000610427818363ffffffff61072916565b61043c336106e1565b6105c8336105a4565b1515610620576040805160e560020a62461bcd0281526020600482015260248101829052600080516020610cfa8339815191526044820152600080516020610cda833981519152606482015290519081900360840190fd5b61052282826108bd565b600554600160a060020a031690565b6000600160a060020a03821615156106c1576040805160e560020a62461bcd02815260206004820152602260248201527f526f6c65733a206163636f756e7420697320746865207a65726f20616464726560448201527f7373000000000000000000000000000000000000000000000000000000000000606482015290519081900360840190fd5b50600160a060020a03166000908152600191909101602052604090205490565b6106f260028263ffffffff6108cf16565b604051600160a060020a038216907f270d9b30cf5b0793bbfd54c9d5b94aeb49462b8148399000265144a8722da6b690600090a250565b6000600160a060020a03821615156107b1576040805160e560020a62461bcd02815260206004820152602260248201527f526f6c65733a206163636f756e7420697320746865207a65726f20616464726560448201527f7373000000000000000000000000000000000000000000000000000000000000606482015290519081900360840190fd5b50600160a060020a03166000908152602091909152604090205460ff1690565b6107e260008263ffffffff6108cf16565b604051600160a060020a038216907f0a8eb35e5ca14b3d6f28e4abf2f128dbab231a58b56e89beb5d636115001e16590600090a250565b61082a60008263ffffffff61098216565b604051600160a060020a038216907f22380c05984257a1cb900161c713dd71d39e74820f1aea43bd3f1bdd2096129990600090a250565b6108736002838363ffffffff610a0616565b604051600160a060020a038316907fee1504a83b6d4a361f4c1dc78ab59bfa30d6a3b6612c403e86bb01ef2984295f90600090a25050565b6105226002838363ffffffff610a9a16565b6105226002838363ffffffff610bb916565b6108d98282610729565b1515610955576040805160e560020a62461bcd02815260206004820152602160248201527f526f6c65733a206163636f756e7420646f6573206e6f74206861766520726f6c60448201527f6500000000000000000000000000000000000000000000000000000000000000606482015290519081900360840190fd5b600160a060020a0316600090815260208281526040808320805460ff191690556001909301905290812055565b61098c8282610729565b156109e1576040805160e560020a62461bcd02815260206004820152601f60248201527f526f6c65733a206163636f756e7420616c72656164792068617320726f6c6500604482015290519081900360640190fd5b600160a060020a0316600090815260209190915260409020805460ff19166001179055565b610a108383610729565b15610a65576040805160e560020a62461bcd02815260206004820152601f60248201527f526f6c65733a206163636f756e7420616c72656164792068617320726f6c6500604482015290519081900360640190fd5b600160a060020a03909116600090815260208381526040808320805460ff191660019081179091559490940190529190912055565b610aa48383610729565b1515610b20576040805160e560020a62461bcd02815260206004820152602160248201527f526f6c65733a206163636f756e7420646f6573206e6f74206861766520726f6c60448201527f6500000000000000000000000000000000000000000000000000000000000000606482015290519081900360840190fd5b600160a060020a038216600090815260018401602052604090205481810111610b93576040805160e560020a62461bcd02815260206004820152600e60248201527f696e76616c696420616d6f756e74000000000000000000000000000000000000604482015290519081900360640190fd5b600160a060020a0390911660009081526001909201602052604090912080549091019055565b610bc38383610729565b1515610c3f576040805160e560020a62461bcd02815260206004820152602160248201527f526f6c65733a206163636f756e7420646f6573206e6f74206861766520726f6c60448201527f6500000000000000000000000000000000000000000000000000000000000000606482015290519081900360840190fd5b600160a060020a038216600090815260018401602052604090205481810310610cb2576040805160e560020a62461bcd02815260206004820152600e60248201527f696e76616c696420616d6f756e74000000000000000000000000000000000000604482015290519081900360640190fd5b600160a060020a03909116600090815260019092016020526040909120805491909103905556fe6e6f742068617665207468652057686974656c69737441646d696e20726f6c6557686974656c69737441646d696e526f6c653a2063616c6c657220646f657320a165627a7a72305820c6d3e246e92abe6181f6bb37a738a916d79d12f40b604d2247afd457e74967540029",
  "source": "pragma solidity ^0.5.0;\nimport \"./Crowdsale.sol\";\nimport \"./WhitelistedRole.sol\";\n//import \"./IncreasingPriceCrowdsale.sol\";\n\n\n/**\n * @title WhitelistCrowdsale\n * @dev Crowdsale in which only whitelisted users can contribute.\n */\ncontract WhitelistCrowdsale is WhitelistedRole, Crowdsale {\n\n\n    constructor(uint256 rate, address payable wallet, IERC20 token) Crowdsale(rate,wallet,address(token) ) public {\n\n    }\n    /**\n     * @dev Extend parent behavior requiring beneficiary to be whitelisted. Note that no\n     * restriction is imposed on the account sending the transaction.\n \n     */\n    /*function _preValidatePurchase(address _beneficiary, uint256 _weiAmount) internal view {\n        require(isWhitelisted(_beneficiary), \"WhitelistCrowdsale: beneficiary doesn't have the Whitelisted role\");\n        super._preValidatePurchase(_beneficiary, _weiAmount);\n    }\n    */\n    function preValidatePurchaseAmount(address _beneficiary,uint PurchaseValue) internal{\n        uint256 tokens = _getTokenAmount(PurchaseValue);\n        require (isWhitelistedforAmount( _beneficiary, tokens), \"WhitelistCrowdsale: beneficiary doesn't have the Whitelisted role for the correct amount\");\n        super._preValidatePurchase(_beneficiary,PurchaseValue);\n        _decreaseTierPurchase(_beneficiary,tokens);\n        \n    }\n}",
  "sourcePath": "E:\\Task_space\\Elena\\2Backend\\contracts\\WhitelistedCrowdsale.sol",
  "compiler": {
    "name": "solc",
    "version": "0.5.0+commit.1d4f565a.Emscripten.clang"
  },
  "schemaVersion": "3.3.2",
  "updatedAt": "2021-02-03T03:14:59.043Z",
  "devdoc": {
    "details": "Crowdsale in which only whitelisted users can contribute.",
    "methods": {
      "rate()": {
        "return": "the number of token units a buyer gets per wei."
      },
      "token()": {
        "return": "the token being sold."
      },
      "wallet()": {
        "return": "the address where funds are collected."
      },
      "weiRaised()": {
        "return": "the amount of wei raised."
      }
    },
    "title": "WhitelistCrowdsale"
  },
  "userdoc": {
    "methods": {}
  }
}