{
  "contractName": "FinalizableCrowdsale",
  "abi": [
    {
      "constant": true,
      "inputs": [
        {
          "name": "account",
          "type": "address"
        },
        {
          "name": "value",
          "type": "uint256"
        }
      ],
      "name": "isWhitelistedforAmount",
      "outputs": [
        {
          "name": "",
          "type": "bool"
        }
      ],
      "payable": false,
      "stateMutability": "view",
      "type": "function"
    },
    {
      "constant": true,
      "inputs": [],
      "name": "hasClosed",
      "outputs": [
        {
          "name": "",
          "type": "bool"
        }
      ],
      "payable": false,
      "stateMutability": "view",
      "type": "function"
    },
    {
      "constant": false,
      "inputs": [
        {
          "name": "account",
          "type": "address"
        }
      ],
      "name": "removeWhitelisted",
      "outputs": [],
      "payable": false,
      "stateMutability": "nonpayable",
      "type": "function"
    },
    {
      "constant": true,
      "inputs": [],
      "name": "rate",
      "outputs": [
        {
          "name": "",
          "type": "uint256"
        }
      ],
      "payable": false,
      "stateMutability": "view",
      "type": "function"
    },
    {
      "constant": true,
      "inputs": [
        {
          "name": "account",
          "type": "address"
        }
      ],
      "name": "isWhitelisted",
      "outputs": [
        {
          "name": "",
          "type": "bool"
        }
      ],
      "payable": false,
      "stateMutability": "view",
      "type": "function"
    },
    {
      "constant": true,
      "inputs": [],
      "name": "weiRaised",
      "outputs": [
        {
          "name": "",
          "type": "uint256"
        }
      ],
      "payable": false,
      "stateMutability": "view",
      "type": "function"
    },
    {
      "constant": true,
      "inputs": [],
      "name": "isOpen",
      "outputs": [
        {
          "name": "",
          "type": "bool"
        }
      ],
      "payable": false,
      "stateMutability": "view",
      "type": "function"
    },
    {
      "constant": true,
      "inputs": [],
      "name": "closingTime",
      "outputs": [
        {
          "name": "",
          "type": "uint256"
        }
      ],
      "payable": false,
      "stateMutability": "view",
      "type": "function"
    },
    {
      "constant": false,
      "inputs": [],
      "name": "renounceWhitelistAdmin",
      "outputs": [],
      "payable": false,
      "stateMutability": "nonpayable",
      "type": "function"
    },
    {
      "constant": true,
      "inputs": [],
      "name": "wallet",
      "outputs": [
        {
          "name": "",
          "type": "address"
        }
      ],
      "payable": false,
      "stateMutability": "view",
      "type": "function"
    },
    {
      "constant": false,
      "inputs": [],
      "name": "renounceOwnership",
      "outputs": [],
      "payable": false,
      "stateMutability": "nonpayable",
      "type": "function"
    },
    {
      "constant": false,
      "inputs": [
        {
          "name": "account",
          "type": "address"
        }
      ],
      "name": "addWhitelistAdmin",
      "outputs": [],
      "payable": false,
      "stateMutability": "nonpayable",
      "type": "function"
    },
    {
      "constant": true,
      "inputs": [
        {
          "name": "",
          "type": "address"
        }
      ],
      "name": "tokenswithdrawn",
      "outputs": [
        {
          "name": "",
          "type": "bool"
        }
      ],
      "payable": false,
      "stateMutability": "view",
      "type": "function"
    },
    {
      "constant": false,
      "inputs": [
        {
          "name": "account",
          "type": "address"
        },
        {
          "name": "purchase",
          "type": "uint256"
        }
      ],
      "name": "addWhitelisted",
      "outputs": [],
      "payable": false,
      "stateMutability": "nonpayable",
      "type": "function"
    },
    {
      "constant": true,
      "inputs": [],
      "name": "owner",
      "outputs": [
        {
          "name": "",
          "type": "address"
        }
      ],
      "payable": false,
      "stateMutability": "view",
      "type": "function"
    },
    {
      "constant": true,
      "inputs": [],
      "name": "isOwner",
      "outputs": [
        {
          "name": "",
          "type": "bool"
        }
      ],
      "payable": false,
      "stateMutability": "view",
      "type": "function"
    },
    {
      "constant": true,
      "inputs": [
        {
          "name": "",
          "type": "address"
        }
      ],
      "name": "weiReceived",
      "outputs": [
        {
          "name": "",
          "type": "uint256"
        }
      ],
      "payable": false,
      "stateMutability": "view",
      "type": "function"
    },
    {
      "constant": true,
      "inputs": [
        {
          "name": "account",
          "type": "address"
        }
      ],
      "name": "getPurchasePower",
      "outputs": [
        {
          "name": "",
          "type": "uint256"
        }
      ],
      "payable": false,
      "stateMutability": "view",
      "type": "function"
    },
    {
      "constant": false,
      "inputs": [
        {
          "name": "account",
          "type": "address"
        },
        {
          "name": "purchaseTier",
          "type": "uint256"
        }
      ],
      "name": "increaseWhiteListingTier",
      "outputs": [],
      "payable": false,
      "stateMutability": "nonpayable",
      "type": "function"
    },
    {
      "constant": true,
      "inputs": [],
      "name": "openingTime",
      "outputs": [
        {
          "name": "",
          "type": "uint256"
        }
      ],
      "payable": false,
      "stateMutability": "view",
      "type": "function"
    },
    {
      "constant": true,
      "inputs": [
        {
          "name": "account",
          "type": "address"
        }
      ],
      "name": "isWhitelistAdmin",
      "outputs": [
        {
          "name": "",
          "type": "bool"
        }
      ],
      "payable": false,
      "stateMutability": "view",
      "type": "function"
    },
    {
      "constant": false,
      "inputs": [],
      "name": "renounceWhitelisted",
      "outputs": [],
      "payable": false,
      "stateMutability": "nonpayable",
      "type": "function"
    },
    {
      "constant": false,
      "inputs": [
        {
          "name": "newOwner",
          "type": "address"
        }
      ],
      "name": "transferOwnership",
      "outputs": [],
      "payable": false,
      "stateMutability": "nonpayable",
      "type": "function"
    },
    {
      "constant": false,
      "inputs": [
        {
          "name": "account",
          "type": "address"
        },
        {
          "name": "purchaseTier",
          "type": "uint256"
        }
      ],
      "name": "decreaseWhiteListingTier",
      "outputs": [],
      "payable": false,
      "stateMutability": "nonpayable",
      "type": "function"
    },
    {
      "constant": true,
      "inputs": [],
      "name": "token",
      "outputs": [
        {
          "name": "",
          "type": "address"
        }
      ],
      "payable": false,
      "stateMutability": "view",
      "type": "function"
    },
    {
      "inputs": [
        {
          "name": "openingTime",
          "type": "uint256"
        },
        {
          "name": "closingTime",
          "type": "uint256"
        },
        {
          "name": "rate",
          "type": "uint256"
        },
        {
          "name": "wallet",
          "type": "address"
        },
        {
          "name": "token",
          "type": "address"
        },
        {
          "name": "owner",
          "type": "address"
        }
      ],
      "payable": false,
      "stateMutability": "nonpayable",
      "type": "constructor"
    },
    {
      "payable": true,
      "stateMutability": "payable",
      "type": "fallback"
    },
    {
      "anonymous": false,
      "inputs": [],
      "name": "CrowdsaleFinalized",
      "type": "event"
    },
    {
      "anonymous": false,
      "inputs": [
        {
          "indexed": true,
          "name": "previousOwner",
          "type": "address"
        },
        {
          "indexed": true,
          "name": "newOwner",
          "type": "address"
        }
      ],
      "name": "OwnershipTransferred",
      "type": "event"
    },
    {
      "anonymous": false,
      "inputs": [
        {
          "indexed": false,
          "name": "prevClosingTime",
          "type": "uint256"
        },
        {
          "indexed": false,
          "name": "newClosingTime",
          "type": "uint256"
        }
      ],
      "name": "TimedCrowdsaleExtended",
      "type": "event"
    },
    {
      "anonymous": false,
      "inputs": [
        {
          "indexed": true,
          "name": "purchaser",
          "type": "address"
        },
        {
          "indexed": true,
          "name": "beneficiary",
          "type": "address"
        },
        {
          "indexed": false,
          "name": "value",
          "type": "uint256"
        },
        {
          "indexed": false,
          "name": "amount",
          "type": "uint256"
        }
      ],
      "name": "TokensPurchased",
      "type": "event"
    },
    {
      "anonymous": false,
      "inputs": [
        {
          "indexed": true,
          "name": "account",
          "type": "address"
        }
      ],
      "name": "WhitelistedAdded",
      "type": "event"
    },
    {
      "anonymous": false,
      "inputs": [
        {
          "indexed": true,
          "name": "account",
          "type": "address"
        }
      ],
      "name": "WhitelistedRemoved",
      "type": "event"
    },
    {
      "anonymous": false,
      "inputs": [
        {
          "indexed": true,
          "name": "account",
          "type": "address"
        }
      ],
      "name": "WhitelistAdminAdded",
      "type": "event"
    },
    {
      "anonymous": false,
      "inputs": [
        {
          "indexed": true,
          "name": "account",
          "type": "address"
        }
      ],
      "name": "WhitelistAdminRemoved",
      "type": "event"
    },
    {
      "constant": true,
      "inputs": [],
      "name": "finalized",
      "outputs": [
        {
          "name": "",
          "type": "bool"
        }
      ],
      "payable": false,
      "stateMutability": "view",
      "type": "function"
    },
    {
      "constant": false,
      "inputs": [],
      "name": "finalize",
      "outputs": [],
      "payable": false,
      "stateMutability": "nonpayable",
      "type": "function"
    },
    {
      "constant": false,
      "inputs": [
        {
          "name": "beneficiary",
          "type": "address"
        }
      ],
      "name": "buyTokens",
      "outputs": [],
      "payable": true,
      "stateMutability": "payable",
      "type": "function"
    },
    {
      "constant": false,
      "inputs": [
        {
          "name": "r",
          "type": "uint256"
        }
      ],
      "name": "setRate",
      "outputs": [],
      "payable": false,
      "stateMutability": "nonpayable",
      "type": "function"
    },
    {
      "constant": false,
      "inputs": [],
      "name": "withdrawTokens",
      "outputs": [],
      "payable": false,
      "stateMutability": "nonpayable",
      "type": "function"
    }
  ],
  "bytecode": "0x60806040523480156200001157600080fd5b5060405160c080620021e8833981018060405260c08110156200003357600080fd5b508051602082015160408301516060840151608085015160a090950151939492939192909180868686868682828282828262000078336401000000006200036b810204565b600160045560008311620000ed57604080517f08c379a000000000000000000000000000000000000000000000000000000000815260206004820152601460248201527f43726f776473616c653a20726174652069732030000000000000000000000000604482015290519081900360640190fd5b600160a060020a03821615156200018b57604080517f08c379a000000000000000000000000000000000000000000000000000000000815260206004820152602560248201527f43726f776473616c653a2077616c6c657420697320746865207a65726f20616460448201527f6472657373000000000000000000000000000000000000000000000000000000606482015290519081900360840190fd5b600160a060020a03811615156200022857604080517f08c379a0000000000000000000000000000000000000000000000000000000008152602060048201526024808201527f43726f776473616c653a20746f6b656e20697320746865207a65726f2061646460448201527f7265737300000000000000000000000000000000000000000000000000000000606482015290519081900360840190fd5b60079290925560068054600160a060020a03928316600160a060020a03199182161790915560058054929093169116179055505050848411620002f257604080517f08c379a000000000000000000000000000000000000000000000000000000000815260206004820152603760248201527f54696d656443726f776473616c653a206f70656e696e672074696d652069732060448201527f6e6f74206265666f726520636c6f73696e672074696d65000000000000000000606482015290519081900360840190fd5b505050600991909155600a55600b8054600160a060020a031916600160a060020a0383811691909117918290556040519116906000907f8be0079c531659141344cd1fd0a4f28419497f9722a3daafe3b4186f6b6457e0908290a35050600b805460a060020a60ff021916905550620005249350505050565b62000386600082640100000000620017d7620003bd82021704565b604051600160a060020a038216907f22380c05984257a1cb900161c713dd71d39e74820f1aea43bd3f1bdd2096129990600090a250565b620003d2828264010000000062000464810204565b156200043f57604080517f08c379a000000000000000000000000000000000000000000000000000000000815260206004820152601f60248201527f526f6c65733a206163636f756e7420616c72656164792068617320726f6c6500604482015290519081900360640190fd5b600160a060020a0316600090815260209190915260409020805460ff19166001179055565b6000600160a060020a03821615156200050457604080517f08c379a000000000000000000000000000000000000000000000000000000000815260206004820152602260248201527f526f6c65733a206163636f756e7420697320746865207a65726f20616464726560448201527f7373000000000000000000000000000000000000000000000000000000000000606482015290519081900360840190fd5b50600160a060020a03166000908152602091909152604090205460ff1690565b611cb480620005346000396000f3fe60806040526004361061017f5763ffffffff7c01000000000000000000000000000000000000000000000000000000006000350416630b46a07c811461018a5780631515bc2b146101d7578063291d9549146101ec5780632c4e722e1461021f57806334fcf437146102465780633af32abf146102705780634042b66f146102a357806347535d7b146102b85780634b6753bc146102cd5780634bb278f3146102e25780634c5a628c146102f7578063521eb2731461030c578063715018a61461033d5780637362d9c81461035257806382b6a4bf146103855780638902ff86146103b85780638d8f2adb146103f15780638da5cb5b146104065780638f32d59b1461041b578063915b410d14610430578063abe069e714610463578063af91e8c814610496578063b3f05b97146104cf578063b7a8807c146104e4578063bb5f747b146104f9578063d6cd94731461052c578063ec8ac4d814610541578063f2fde38b14610567578063f6d6f9a91461059a578063fc0c546a146105d3575b610188336105e8565b005b34801561019657600080fd5b506101c3600480360360408110156101ad57600080fd5b50600160a060020a03813516906020013561076b565b604080519115158252519081900360200190f35b3480156101e357600080fd5b506101c361078a565b3480156101f857600080fd5b506101886004803603602081101561020f57600080fd5b5035600160a060020a0316610792565b34801561022b57600080fd5b506102346107ff565b60408051918252519081900360200190f35b34801561025257600080fd5b506101886004803603602081101561026957600080fd5b5035610805565b34801561027c57600080fd5b506101c36004803603602081101561029357600080fd5b5035600160a060020a031661093c565b3480156102af57600080fd5b5061023461094f565b3480156102c457600080fd5b506101c3610955565b3480156102d957600080fd5b50610234610970565b3480156102ee57600080fd5b50610188610976565b34801561030357600080fd5b50610188610aff565b34801561031857600080fd5b50610321610b0a565b60408051600160a060020a039092168252519081900360200190f35b34801561034957600080fd5b50610188610b19565b34801561035e57600080fd5b506101886004803603602081101561037557600080fd5b5035600160a060020a0316610bbc565b34801561039157600080fd5b506101c3600480360360208110156103a857600080fd5b5035600160a060020a0316610c26565b3480156103c457600080fd5b50610188600480360360408110156103db57600080fd5b50600160a060020a038135169060200135610c3b565b3480156103fd57600080fd5b50610188610ca6565b34801561041257600080fd5b50610321610ec0565b34801561042757600080fd5b506101c3610ecf565b34801561043c57600080fd5b506102346004803603602081101561045357600080fd5b5035600160a060020a0316610ee0565b34801561046f57600080fd5b506102346004803603602081101561048657600080fd5b5035600160a060020a0316610ef2565b3480156104a257600080fd5b50610188600480360360408110156104b957600080fd5b50600160a060020a038135169060200135610f05565b3480156104db57600080fd5b506101c3610f70565b3480156104f057600080fd5b50610234610f80565b34801561050557600080fd5b506101c36004803603602081101561051c57600080fd5b5035600160a060020a0316610f86565b34801561053857600080fd5b50610188610f98565b6101886004803603602081101561055757600080fd5b5035600160a060020a03166105e8565b34801561057357600080fd5b506101886004803603602081101561058a57600080fd5b5035600160a060020a0316610fa1565b3480156105a657600080fd5b50610188600480360360408110156105bd57600080fd5b50600160a060020a038135169060200135610ff6565b3480156105df57600080fd5b50610321611061565b6105f0610955565b1515610646576040805160e560020a62461bcd02815260206004820152601860248201527f54696d656443726f776473616c653a206e6f74206f70656e0000000000000000604482015290519081900360640190fd5b600480546001019081905534600061065d82611070565b90506106698483611087565b60085461067c908363ffffffff61115916565b600855600160a060020a0384166000908152600c60205260409020546106a8908363ffffffff61115916565b600160a060020a0385166000818152600c60209081526040918290209390935580518581529283018490528051919233927f6faf93231a456e552dbc9961f58d9713ee4f2e69d15f1975b050ef0911053a7b929181900390910190a361070c6111bd565b50506004548114610767576040805160e560020a62461bcd02815260206004820152601f60248201527f5265656e7472616e637947756172643a207265656e7472616e742063616c6c00604482015290519081900360640190fd5b5050565b60008161077f60028563ffffffff6111f616565b101590505b92915050565b600a54421190565b61079b33610f86565b15156107f3576040805160e560020a62461bcd0281526020600482015260248101829052600080516020611c698339815191526044820152600080516020611c29833981519152606482015290519081900360840190fd5b6107fc8161129e565b50565b60075490565b61080d610ecf565b1515610851576040805160e560020a62461bcd0281526020600482018190526024820152600080516020611c49833981519152604482015290519081900360640190fd5b600b5460a060020a900460ff16156108d9576040805160e560020a62461bcd02815260206004820152602760248201527f46696e616c697a61626c6543726f776473616c653a20616c726561647920666960448201527f6e616c697a656400000000000000000000000000000000000000000000000000606482015290519081900360840190fd5b6108e161078a565b1515610937576040805160e560020a62461bcd02815260206004820181905260248201527f46696e616c697a61626c6543726f776473616c653a206e6f7420636c6f736564604482015290519081900360640190fd5b600755565b600061078460028363ffffffff6112e616565b60085490565b6000600954421015801561096b5750600a544211155b905090565b600a5490565b61097e610ecf565b15156109c2576040805160e560020a62461bcd0281526020600482018190526024820152600080516020611c49833981519152604482015290519081900360640190fd5b600b5460a060020a900460ff1615610a4a576040805160e560020a62461bcd02815260206004820152602760248201527f46696e616c697a61626c6543726f776473616c653a20616c726561647920666960448201527f6e616c697a656400000000000000000000000000000000000000000000000000606482015290519081900360840190fd5b610a5261078a565b1515610aa8576040805160e560020a62461bcd02815260206004820181905260248201527f46696e616c697a61626c6543726f776473616c653a206e6f7420636c6f736564604482015290519081900360640190fd5b600b805474ff0000000000000000000000000000000000000000191660a060020a179055610ad461138e565b6040517f9270cc390c096600a1c17c44345a1ba689fafd99d97487b10cfccf86cf73183690600090a1565b610b08336113b4565b565b600654600160a060020a031690565b610b21610ecf565b1515610b65576040805160e560020a62461bcd0281526020600482018190526024820152600080516020611c49833981519152604482015290519081900360640190fd5b600b54604051600091600160a060020a0316907f8be0079c531659141344cd1fd0a4f28419497f9722a3daafe3b4186f6b6457e0908390a3600b805473ffffffffffffffffffffffffffffffffffffffff19169055565b610bc533610f86565b1515610c1d576040805160e560020a62461bcd0281526020600482015260248101829052600080516020611c698339815191526044820152600080516020611c29833981519152606482015290519081900360840190fd5b6107fc816113fc565b600d6020526000908152604090205460ff1681565b610c4433610f86565b1515610c9c576040805160e560020a62461bcd0281526020600482015260248101829052600080516020611c698339815191526044820152600080516020611c29833981519152606482015290519081900360840190fd5b6107678282611444565b6004805460010190819055610cb961078a565b1515610d0f576040805160e560020a62461bcd02815260206004820181905260248201527f46696e616c697a61626c6543726f776473616c653a206e6f7420636c6f736564604482015290519081900360640190fd5b600b5460a060020a900460ff161515610d98576040805160e560020a62461bcd02815260206004820152602760248201527f46696e616c697a61626c6543726f776473616c653a20616c726561647920666960448201527f6e616c697a656400000000000000000000000000000000000000000000000000606482015290519081900360840190fd5b336000908152600d602052604090205460ff1615610e26576040805160e560020a62461bcd02815260206004820152602260248201527f746f6b656e732068617665206265656e2077697468647261776e20616c72656160448201527f6479000000000000000000000000000000000000000000000000000000000000606482015290519081900360840190fd5b336000908152600c6020526040812054610e3f90611070565b336000818152600d60205260409020805460ff19166001179055909150610e66908261148e565b5060045481146107fc576040805160e560020a62461bcd02815260206004820152601f60248201527f5265656e7472616e637947756172643a207265656e7472616e742063616c6c00604482015290519081900360640190fd5b600b54600160a060020a031690565b600b54600160a060020a0316331490565b600c6020526000908152604090205481565b600061078460028363ffffffff6111f616565b610f0e33610f86565b1515610f66576040805160e560020a62461bcd0281526020600482015260248101829052600080516020611c698339815191526044820152600080516020611c29833981519152606482015290519081900360840190fd5b6107678282611498565b600b5460a060020a900460ff1690565b60095490565b6000610784818363ffffffff6112e616565b610b083361129e565b610fa9610ecf565b1515610fed576040805160e560020a62461bcd0281526020600482018190526024820152600080516020611c49833981519152604482015290519081900360640190fd5b6107fc816114aa565b610fff33610f86565b1515611057576040805160e560020a62461bcd0281526020600482015260248101829052600080516020611c698339815191526044820152600080516020611c29833981519152606482015290519081900360840190fd5b6107678282611599565b600554600160a060020a031690565b6000610784600754836115ab90919063ffffffff16565b600061109282611070565b905061109e838261076b565b1515611140576040805160e560020a62461bcd02815260206004820152605860248201527f57686974656c69737443726f776473616c653a2062656e65666963696172792060448201527f646f65736e27742068617665207468652057686974656c697374656420726f6c60648201527f6520666f722074686520636f727265637420616d6f756e740000000000000000608482015290519081900360a40190fd5b61114a8383611647565b6111548382611599565b505050565b6000828201838110156111b6576040805160e560020a62461bcd02815260206004820152601b60248201527f536166654d6174683a206164646974696f6e206f766572666c6f770000000000604482015290519081900360640190fd5b9392505050565b600654604051600160a060020a03909116903480156108fc02916000818181858888f193505050501580156107fc573d6000803e3d6000fd5b6000600160a060020a038216151561127e576040805160e560020a62461bcd02815260206004820152602260248201527f526f6c65733a206163636f756e7420697320746865207a65726f20616464726560448201527f7373000000000000000000000000000000000000000000000000000000000000606482015290519081900360840190fd5b50600160a060020a03166000908152600191909101602052604090205490565b6112af60028263ffffffff61172416565b604051600160a060020a038216907f270d9b30cf5b0793bbfd54c9d5b94aeb49462b8148399000265144a8722da6b690600090a250565b6000600160a060020a038216151561136e576040805160e560020a62461bcd02815260206004820152602260248201527f526f6c65733a206163636f756e7420697320746865207a65726f20616464726560448201527f7373000000000000000000000000000000000000000000000000000000000000606482015290519081900360840190fd5b50600160a060020a03166000908152602091909152604090205460ff1690565b600b805474ff0000000000000000000000000000000000000000191660a060020a179055565b6113c560008263ffffffff61172416565b604051600160a060020a038216907f0a8eb35e5ca14b3d6f28e4abf2f128dbab231a58b56e89beb5d636115001e16590600090a250565b61140d60008263ffffffff6117d716565b604051600160a060020a038216907f22380c05984257a1cb900161c713dd71d39e74820f1aea43bd3f1bdd2096129990600090a250565b6114566002838363ffffffff61185b16565b604051600160a060020a038316907fee1504a83b6d4a361f4c1dc78ab59bfa30d6a3b6612c403e86bb01ef2984295f90600090a25050565b61076782826118ef565b6107676002838363ffffffff6119e916565b600160a060020a0381161515611530576040805160e560020a62461bcd02815260206004820152602660248201527f4f776e61626c653a206e6577206f776e657220697320746865207a65726f206160448201527f6464726573730000000000000000000000000000000000000000000000000000606482015290519081900360840190fd5b600b54604051600160a060020a038084169216907f8be0079c531659141344cd1fd0a4f28419497f9722a3daafe3b4186f6b6457e090600090a3600b805473ffffffffffffffffffffffffffffffffffffffff1916600160a060020a0392909216919091179055565b6107676002838363ffffffff611b0816565b60008215156115bc57506000610784565b8282028284828115156115cb57fe5b04146111b6576040805160e560020a62461bcd02815260206004820152602160248201527f536166654d6174683a206d756c7469706c69636174696f6e206f766572666c6f60448201527f7700000000000000000000000000000000000000000000000000000000000000606482015290519081900360840190fd5b600160a060020a03821615156116cd576040805160e560020a62461bcd02815260206004820152602a60248201527f43726f776473616c653a2062656e656669636961727920697320746865207a6560448201527f726f206164647265737300000000000000000000000000000000000000000000606482015290519081900360840190fd5b801515610767576040805160e560020a62461bcd02815260206004820152601960248201527f43726f776473616c653a20776569416d6f756e74206973203000000000000000604482015290519081900360640190fd5b61172e82826112e6565b15156117aa576040805160e560020a62461bcd02815260206004820152602160248201527f526f6c65733a206163636f756e7420646f6573206e6f74206861766520726f6c60448201527f6500000000000000000000000000000000000000000000000000000000000000606482015290519081900360840190fd5b600160a060020a0316600090815260208281526040808320805460ff191690556001909301905290812055565b6117e182826112e6565b15611836576040805160e560020a62461bcd02815260206004820152601f60248201527f526f6c65733a206163636f756e7420616c72656164792068617320726f6c6500604482015290519081900360640190fd5b600160a060020a0316600090815260209190915260409020805460ff19166001179055565b61186583836112e6565b156118ba576040805160e560020a62461bcd02815260206004820152601f60248201527f526f6c65733a206163636f756e7420616c72656164792068617320726f6c6500604482015290519081900360640190fd5b600160a060020a03909116600090815260208381526040808320805460ff191660019081179091559490940190529190912055565b600554604080517fa9059cbb000000000000000000000000000000000000000000000000000000008152600160a060020a038581166004830152602482018590529151600093929092169163a9059cbb9160448082019260209290919082900301818787803b15801561196157600080fd5b505af1158015611975573d6000803e3d6000fd5b505050506040513d602081101561198b57600080fd5b50519050600181151514611154576040805160e560020a62461bcd02815260206004820152601560248201527f746f6b656e207472616e73666572206661696c65640000000000000000000000604482015290519081900360640190fd5b6119f383836112e6565b1515611a6f576040805160e560020a62461bcd02815260206004820152602160248201527f526f6c65733a206163636f756e7420646f6573206e6f74206861766520726f6c60448201527f6500000000000000000000000000000000000000000000000000000000000000606482015290519081900360840190fd5b600160a060020a038216600090815260018401602052604090205481810111611ae2576040805160e560020a62461bcd02815260206004820152600e60248201527f696e76616c696420616d6f756e74000000000000000000000000000000000000604482015290519081900360640190fd5b600160a060020a0390911660009081526001909201602052604090912080549091019055565b611b1283836112e6565b1515611b8e576040805160e560020a62461bcd02815260206004820152602160248201527f526f6c65733a206163636f756e7420646f6573206e6f74206861766520726f6c60448201527f6500000000000000000000000000000000000000000000000000000000000000606482015290519081900360840190fd5b600160a060020a038216600090815260018401602052604090205481810310611c01576040805160e560020a62461bcd02815260206004820152600e60248201527f696e76616c696420616d6f756e74000000000000000000000000000000000000604482015290519081900360640190fd5b600160a060020a03909116600090815260019092016020526040909120805491909103905556fe6e6f742068617665207468652057686974656c69737441646d696e20726f6c654f776e61626c653a2063616c6c6572206973206e6f7420746865206f776e657257686974656c69737441646d696e526f6c653a2063616c6c657220646f657320a165627a7a723058209b7e8b1bfe6fde6bd45869201f3c6befdbfd9c68b13b63b5c4499099b3bc7b510029",
  "source": "pragma solidity ^0.5.0;\n\nimport \"./SafeMath.sol\";\nimport \"./TimedCrowdsale.sol\";\nimport \"./SpecifiedOwnable.sol\";\n\n/**\n * @title FinalizableCrowdsale\n * @dev Extension of TimedCrowdsale with a one-off finalization action, where one\n * can do extra work after finishing.\n */\ncontract FinalizableCrowdsale is TimedCrowdsale,SpecifiedOwnable {\n    using SafeMath for uint256;\n\n    bool private _finalized;\n    mapping(address=>uint) public weiReceived;\n    mapping(address=>bool) public tokenswithdrawn;\n    event CrowdsaleFinalized();\n\n    constructor (uint256 openingTime, uint256 closingTime,uint256 rate, address payable wallet, IERC20 token,address owner) \n    TimedCrowdsale(openingTime,closingTime,rate,wallet,token) SpecifiedOwnable(owner) public {\n        _finalized = false;\n    }\n\n    /**\n     * @return true if the crowdsale is finalized, false otherwise.\n     */\n    function finalized() public view returns (bool) {\n        return _finalized;\n    }\n\n    /**\n     * @dev Must be called after crowdsale ends, to do some extra finalization\n     * work. Calls the contract's finalization function.\n     */\n    function finalize() public onlyOwner {\n        require(!_finalized, \"FinalizableCrowdsale: already finalized\");\n        require(hasClosed(), \"FinalizableCrowdsale: not closed\");\n\n        _finalized = true;\n\n        _finalization();\n        emit CrowdsaleFinalized();\n    }\n\n    /**\n     * @dev Can be overridden to add finalization logic. The overriding function\n     * should call super._finalization() to ensure the chain of finalization is\n     * executed entirely.\n     */\n    function _finalization() internal {\n        // solhint-disable-previous-line no-empty-blocks\n         _finalized = true;\n    }\n\n      function buyTokens(address beneficiary) onlyWhileOpen() public nonReentrant payable {\n        uint256 weiAmount = msg.value;\n       \n      \n        uint256 tokens = _getTokenAmount(weiAmount);\n        preValidatePurchaseAmount(beneficiary,weiAmount);\n        \n        _weiRaised = _weiRaised.add(weiAmount);\n        weiReceived[beneficiary]= weiReceived[beneficiary].add(weiAmount);\n        //_processPurchase(beneficiary, tokens);\n    \n        \n   \n        emit TokensPurchased(msg.sender, beneficiary, weiAmount, tokens);\n\n        //_updatePurchasingState(beneficiary, weiAmount);\n   \n        _forwardFunds();\n       // _postValidatePurchase(beneficiary, weiAmount);\n    }\n\n    function setRate(uint r)  public onlyOwner{\n        require(!_finalized, \"FinalizableCrowdsale: already finalized\");\n        require(hasClosed(), \"FinalizableCrowdsale: not closed\");\n         _rate=r;\n    }\n\n    function withdrawTokens() public nonReentrant {\n         require(hasClosed(), \"FinalizableCrowdsale: not closed\");\n         require(_finalized, \"FinalizableCrowdsale: already finalized\");\n         require( tokenswithdrawn[msg.sender]==false,'tokens have been withdrawn already');\n         uint256 tokens = _getTokenAmount(weiReceived[msg.sender]);\n          tokenswithdrawn[msg.sender]=true;\n         _processPurchase(msg.sender, tokens);\n        \n    }\n\n     /**\n     * @dev fallback function ***DO NOT OVERRIDE***\n     * Note that other contracts will transfer funds with a base gas stipend\n     * of 2300, which is not enough to call buyTokens. Consider calling\n     * buyTokens directly when purchasing tokens from a contract.\n     */\n    function () external payable {\n        buyTokens(msg.sender);\n    }\n\n}",
  "sourcePath": "E:\\Task_space\\Elena\\2Backend\\contracts\\FinalizableCrowdsale.sol",
  "compiler": {
    "name": "solc",
    "version": "0.5.0+commit.1d4f565a.Emscripten.clang"
  },
  "schemaVersion": "3.3.2",
  "updatedAt": "2021-02-02T16:15:50.357Z",
  "devdoc": {
    "details": "Extension of TimedCrowdsale with a one-off finalization action, where one can do extra work after finishing.",
    "methods": {
      "closingTime()": {
        "return": "the crowdsale closing time."
      },
      "finalize()": {
        "details": "Must be called after crowdsale ends, to do some extra finalization work. Calls the contract's finalization function."
      },
      "finalized()": {
        "return": "true if the crowdsale is finalized, false otherwise."
      },
      "hasClosed()": {
        "details": "Checks whether the period in which the crowdsale is open has already elapsed.",
        "return": "Whether crowdsale period has elapsed"
      },
      "isOpen()": {
        "return": "true if the crowdsale is open, false otherwise."
      },
      "isOwner()": {
        "details": "Returns true if the caller is the current owner."
      },
      "openingTime()": {
        "return": "the crowdsale opening time."
      },
      "owner()": {
        "details": "Returns the address of the current owner."
      },
      "rate()": {
        "return": "the number of token units a buyer gets per wei."
      },
      "renounceOwnership()": {
        "details": "Leaves the contract without owner. It will not be possible to call `onlyOwner` functions anymore. Can only be called by the current owner.     * > Note: Renouncing ownership will leave the contract without an owner, thereby removing any functionality that is only available to the owner."
      },
      "token()": {
        "return": "the token being sold."
      },
      "transferOwnership(address)": {
        "details": "Transfers ownership of the contract to a new account (`newOwner`). Can only be called by the current owner."
      },
      "wallet()": {
        "return": "the address where funds are collected."
      },
      "weiRaised()": {
        "return": "the amount of wei raised."
      }
    },
    "title": "FinalizableCrowdsale"
  },
  "userdoc": {
    "methods": {}
  }
}