{
  "contractName": "TimedCrowdsale",
  "abi": [
    {
      "constant": true,
      "inputs": [
        {
          "name": "account",
          "type": "address"
        },
        {
          "name": "value",
          "type": "uint256"
        }
      ],
      "name": "isWhitelistedforAmount",
      "outputs": [
        {
          "name": "",
          "type": "bool"
        }
      ],
      "payable": false,
      "stateMutability": "view",
      "type": "function"
    },
    {
      "constant": false,
      "inputs": [
        {
          "name": "account",
          "type": "address"
        }
      ],
      "name": "removeWhitelisted",
      "outputs": [],
      "payable": false,
      "stateMutability": "nonpayable",
      "type": "function"
    },
    {
      "constant": true,
      "inputs": [],
      "name": "rate",
      "outputs": [
        {
          "name": "",
          "type": "uint256"
        }
      ],
      "payable": false,
      "stateMutability": "view",
      "type": "function"
    },
    {
      "constant": true,
      "inputs": [
        {
          "name": "account",
          "type": "address"
        }
      ],
      "name": "isWhitelisted",
      "outputs": [
        {
          "name": "",
          "type": "bool"
        }
      ],
      "payable": false,
      "stateMutability": "view",
      "type": "function"
    },
    {
      "constant": true,
      "inputs": [],
      "name": "weiRaised",
      "outputs": [
        {
          "name": "",
          "type": "uint256"
        }
      ],
      "payable": false,
      "stateMutability": "view",
      "type": "function"
    },
    {
      "constant": false,
      "inputs": [],
      "name": "renounceWhitelistAdmin",
      "outputs": [],
      "payable": false,
      "stateMutability": "nonpayable",
      "type": "function"
    },
    {
      "constant": true,
      "inputs": [],
      "name": "wallet",
      "outputs": [
        {
          "name": "",
          "type": "address"
        }
      ],
      "payable": false,
      "stateMutability": "view",
      "type": "function"
    },
    {
      "constant": false,
      "inputs": [
        {
          "name": "account",
          "type": "address"
        }
      ],
      "name": "addWhitelistAdmin",
      "outputs": [],
      "payable": false,
      "stateMutability": "nonpayable",
      "type": "function"
    },
    {
      "constant": false,
      "inputs": [
        {
          "name": "account",
          "type": "address"
        },
        {
          "name": "purchase",
          "type": "uint256"
        }
      ],
      "name": "addWhitelisted",
      "outputs": [],
      "payable": false,
      "stateMutability": "nonpayable",
      "type": "function"
    },
    {
      "constant": true,
      "inputs": [
        {
          "name": "account",
          "type": "address"
        }
      ],
      "name": "getPurchasePower",
      "outputs": [
        {
          "name": "",
          "type": "uint256"
        }
      ],
      "payable": false,
      "stateMutability": "view",
      "type": "function"
    },
    {
      "constant": false,
      "inputs": [
        {
          "name": "account",
          "type": "address"
        },
        {
          "name": "purchaseTier",
          "type": "uint256"
        }
      ],
      "name": "increaseWhiteListingTier",
      "outputs": [],
      "payable": false,
      "stateMutability": "nonpayable",
      "type": "function"
    },
    {
      "constant": true,
      "inputs": [
        {
          "name": "account",
          "type": "address"
        }
      ],
      "name": "isWhitelistAdmin",
      "outputs": [
        {
          "name": "",
          "type": "bool"
        }
      ],
      "payable": false,
      "stateMutability": "view",
      "type": "function"
    },
    {
      "constant": false,
      "inputs": [],
      "name": "renounceWhitelisted",
      "outputs": [],
      "payable": false,
      "stateMutability": "nonpayable",
      "type": "function"
    },
    {
      "constant": false,
      "inputs": [
        {
          "name": "account",
          "type": "address"
        },
        {
          "name": "purchaseTier",
          "type": "uint256"
        }
      ],
      "name": "decreaseWhiteListingTier",
      "outputs": [],
      "payable": false,
      "stateMutability": "nonpayable",
      "type": "function"
    },
    {
      "constant": true,
      "inputs": [],
      "name": "token",
      "outputs": [
        {
          "name": "",
          "type": "address"
        }
      ],
      "payable": false,
      "stateMutability": "view",
      "type": "function"
    },
    {
      "inputs": [
        {
          "name": "openingTime",
          "type": "uint256"
        },
        {
          "name": "closingTime",
          "type": "uint256"
        },
        {
          "name": "rate",
          "type": "uint256"
        },
        {
          "name": "wallet",
          "type": "address"
        },
        {
          "name": "token",
          "type": "address"
        }
      ],
      "payable": false,
      "stateMutability": "nonpayable",
      "type": "constructor"
    },
    {
      "anonymous": false,
      "inputs": [
        {
          "indexed": false,
          "name": "prevClosingTime",
          "type": "uint256"
        },
        {
          "indexed": false,
          "name": "newClosingTime",
          "type": "uint256"
        }
      ],
      "name": "TimedCrowdsaleExtended",
      "type": "event"
    },
    {
      "anonymous": false,
      "inputs": [
        {
          "indexed": true,
          "name": "purchaser",
          "type": "address"
        },
        {
          "indexed": true,
          "name": "beneficiary",
          "type": "address"
        },
        {
          "indexed": false,
          "name": "value",
          "type": "uint256"
        },
        {
          "indexed": false,
          "name": "amount",
          "type": "uint256"
        }
      ],
      "name": "TokensPurchased",
      "type": "event"
    },
    {
      "anonymous": false,
      "inputs": [
        {
          "indexed": true,
          "name": "account",
          "type": "address"
        }
      ],
      "name": "WhitelistedAdded",
      "type": "event"
    },
    {
      "anonymous": false,
      "inputs": [
        {
          "indexed": true,
          "name": "account",
          "type": "address"
        }
      ],
      "name": "WhitelistedRemoved",
      "type": "event"
    },
    {
      "anonymous": false,
      "inputs": [
        {
          "indexed": true,
          "name": "account",
          "type": "address"
        }
      ],
      "name": "WhitelistAdminAdded",
      "type": "event"
    },
    {
      "anonymous": false,
      "inputs": [
        {
          "indexed": true,
          "name": "account",
          "type": "address"
        }
      ],
      "name": "WhitelistAdminRemoved",
      "type": "event"
    },
    {
      "constant": true,
      "inputs": [],
      "name": "openingTime",
      "outputs": [
        {
          "name": "",
          "type": "uint256"
        }
      ],
      "payable": false,
      "stateMutability": "view",
      "type": "function"
    },
    {
      "constant": true,
      "inputs": [],
      "name": "closingTime",
      "outputs": [
        {
          "name": "",
          "type": "uint256"
        }
      ],
      "payable": false,
      "stateMutability": "view",
      "type": "function"
    },
    {
      "constant": true,
      "inputs": [],
      "name": "isOpen",
      "outputs": [
        {
          "name": "",
          "type": "bool"
        }
      ],
      "payable": false,
      "stateMutability": "view",
      "type": "function"
    },
    {
      "constant": true,
      "inputs": [],
      "name": "hasClosed",
      "outputs": [
        {
          "name": "",
          "type": "bool"
        }
      ],
      "payable": false,
      "stateMutability": "view",
      "type": "function"
    }
  ],
  "bytecode": "0x608060405234801561001057600080fd5b5060405160a0806112a3833981018060405260a081101561003057600080fd5b50805160208201516040830151606084015160809094015192939192909190828282828282610067336401000000006102ee810204565b6001600455600083116100db57604080517f08c379a000000000000000000000000000000000000000000000000000000000815260206004820152601460248201527f43726f776473616c653a20726174652069732030000000000000000000000000604482015290519081900360640190fd5b600160a060020a038216151561017857604080517f08c379a000000000000000000000000000000000000000000000000000000000815260206004820152602560248201527f43726f776473616c653a2077616c6c657420697320746865207a65726f20616460448201527f6472657373000000000000000000000000000000000000000000000000000000606482015290519081900360840190fd5b600160a060020a038116151561021457604080517f08c379a0000000000000000000000000000000000000000000000000000000008152602060048201526024808201527f43726f776473616c653a20746f6b656e20697320746865207a65726f2061646460448201527f7265737300000000000000000000000000000000000000000000000000000000606482015290519081900360840190fd5b60079290925560068054600160a060020a03928316600160a060020a031991821617909155600580549290931691161790555050508484116102dd57604080517f08c379a000000000000000000000000000000000000000000000000000000000815260206004820152603760248201527f54696d656443726f776473616c653a206f70656e696e672074696d652069732060448201527f6e6f74206265666f726520636c6f73696e672074696d65000000000000000000606482015290519081900360840190fd5b505050600991909155600a556104a0565b610306600082640100000000610a3161033d82021704565b604051600160a060020a038216907f22380c05984257a1cb900161c713dd71d39e74820f1aea43bd3f1bdd2096129990600090a250565b61035082826401000000006103e1810204565b156103bc57604080517f08c379a000000000000000000000000000000000000000000000000000000000815260206004820152601f60248201527f526f6c65733a206163636f756e7420616c72656164792068617320726f6c6500604482015290519081900360640190fd5b600160a060020a0316600090815260209190915260409020805460ff19166001179055565b6000600160a060020a038216151561048057604080517f08c379a000000000000000000000000000000000000000000000000000000000815260206004820152602260248201527f526f6c65733a206163636f756e7420697320746865207a65726f20616464726560448201527f7373000000000000000000000000000000000000000000000000000000000000606482015290519081900360840190fd5b50600160a060020a03166000908152602091909152604090205460ff1690565b610df4806104af6000396000f3fe6080604052600436106101065763ffffffff7c01000000000000000000000000000000000000000000000000000000006000350416630b46a07c811461010b5780631515bc2b14610158578063291d95491461016d5780632c4e722e146101a25780633af32abf146101c95780634042b66f146101fc57806347535d7b146102115780634b6753bc146102265780634c5a628c1461023b578063521eb273146102505780637362d9c8146102815780638902ff86146102b4578063abe069e7146102ed578063af91e8c814610320578063b7a8807c14610359578063bb5f747b1461036e578063d6cd9473146103a1578063f6d6f9a9146103b6578063fc0c546a146103ef575b600080fd5b34801561011757600080fd5b506101446004803603604081101561012e57600080fd5b50600160a060020a038135169060200135610404565b604080519115158252519081900360200190f35b34801561016457600080fd5b50610144610421565b34801561017957600080fd5b506101a06004803603602081101561019057600080fd5b5035600160a060020a0316610429565b005b3480156101ae57600080fd5b506101b7610496565b60408051918252519081900360200190f35b3480156101d557600080fd5b50610144600480360360208110156101ec57600080fd5b5035600160a060020a031661049c565b34801561020857600080fd5b506101b76104b5565b34801561021d57600080fd5b506101446104bb565b34801561023257600080fd5b506101b76104d6565b34801561024757600080fd5b506101a06104dc565b34801561025c57600080fd5b506102656104e7565b60408051600160a060020a039092168252519081900360200190f35b34801561028d57600080fd5b506101a0600480360360208110156102a457600080fd5b5035600160a060020a03166104f6565b3480156102c057600080fd5b506101a0600480360360408110156102d757600080fd5b50600160a060020a038135169060200135610560565b3480156102f957600080fd5b506101b76004803603602081101561031057600080fd5b5035600160a060020a03166105cf565b34801561032c57600080fd5b506101a06004803603604081101561034357600080fd5b50600160a060020a0381351690602001356105e2565b34801561036557600080fd5b506101b761064d565b34801561037a57600080fd5b506101446004803603602081101561039157600080fd5b5035600160a060020a0316610653565b3480156103ad57600080fd5b506101a0610665565b3480156103c257600080fd5b506101a0600480360360408110156103d957600080fd5b50600160a060020a03813516906020013561066e565b3480156103fb57600080fd5b506102656106d9565b60008161041860028563ffffffff6106e816565b10159392505050565b600a54421190565b61043233610653565b151561048a576040805160e560020a62461bcd0281526020600482015260248101829052600080516020610da98339815191526044820152600080516020610d89833981519152606482015290519081900360840190fd5b61049381610790565b50565b60075490565b60006104af60028363ffffffff6107d816565b92915050565b60085490565b600060095442101580156104d15750600a544211155b905090565b600a5490565b6104e533610880565b565b600654600160a060020a031690565b6104ff33610653565b1515610557576040805160e560020a62461bcd0281526020600482015260248101829052600080516020610da98339815191526044820152600080516020610d89833981519152606482015290519081900360840190fd5b610493816108c8565b61056933610653565b15156105c1576040805160e560020a62461bcd0281526020600482015260248101829052600080516020610da98339815191526044820152600080516020610d89833981519152606482015290519081900360840190fd5b6105cb8282610910565b5050565b60006104af60028363ffffffff6106e816565b6105eb33610653565b1515610643576040805160e560020a62461bcd0281526020600482015260248101829052600080516020610da98339815191526044820152600080516020610d89833981519152606482015290519081900360840190fd5b6105cb828261095a565b60095490565b60006104af818363ffffffff6107d816565b6104e533610790565b61067733610653565b15156106cf576040805160e560020a62461bcd0281526020600482015260248101829052600080516020610da98339815191526044820152600080516020610d89833981519152606482015290519081900360840190fd5b6105cb828261096c565b600554600160a060020a031690565b6000600160a060020a0382161515610770576040805160e560020a62461bcd02815260206004820152602260248201527f526f6c65733a206163636f756e7420697320746865207a65726f20616464726560448201527f7373000000000000000000000000000000000000000000000000000000000000606482015290519081900360840190fd5b50600160a060020a03166000908152600191909101602052604090205490565b6107a160028263ffffffff61097e16565b604051600160a060020a038216907f270d9b30cf5b0793bbfd54c9d5b94aeb49462b8148399000265144a8722da6b690600090a250565b6000600160a060020a0382161515610860576040805160e560020a62461bcd02815260206004820152602260248201527f526f6c65733a206163636f756e7420697320746865207a65726f20616464726560448201527f7373000000000000000000000000000000000000000000000000000000000000606482015290519081900360840190fd5b50600160a060020a03166000908152602091909152604090205460ff1690565b61089160008263ffffffff61097e16565b604051600160a060020a038216907f0a8eb35e5ca14b3d6f28e4abf2f128dbab231a58b56e89beb5d636115001e16590600090a250565b6108d960008263ffffffff610a3116565b604051600160a060020a038216907f22380c05984257a1cb900161c713dd71d39e74820f1aea43bd3f1bdd2096129990600090a250565b6109226002838363ffffffff610ab516565b604051600160a060020a038316907fee1504a83b6d4a361f4c1dc78ab59bfa30d6a3b6612c403e86bb01ef2984295f90600090a25050565b6105cb6002838363ffffffff610b4916565b6105cb6002838363ffffffff610c6816565b61098882826107d8565b1515610a04576040805160e560020a62461bcd02815260206004820152602160248201527f526f6c65733a206163636f756e7420646f6573206e6f74206861766520726f6c60448201527f6500000000000000000000000000000000000000000000000000000000000000606482015290519081900360840190fd5b600160a060020a0316600090815260208281526040808320805460ff191690556001909301905290812055565b610a3b82826107d8565b15610a90576040805160e560020a62461bcd02815260206004820152601f60248201527f526f6c65733a206163636f756e7420616c72656164792068617320726f6c6500604482015290519081900360640190fd5b600160a060020a0316600090815260209190915260409020805460ff19166001179055565b610abf83836107d8565b15610b14576040805160e560020a62461bcd02815260206004820152601f60248201527f526f6c65733a206163636f756e7420616c72656164792068617320726f6c6500604482015290519081900360640190fd5b600160a060020a03909116600090815260208381526040808320805460ff191660019081179091559490940190529190912055565b610b5383836107d8565b1515610bcf576040805160e560020a62461bcd02815260206004820152602160248201527f526f6c65733a206163636f756e7420646f6573206e6f74206861766520726f6c60448201527f6500000000000000000000000000000000000000000000000000000000000000606482015290519081900360840190fd5b600160a060020a038216600090815260018401602052604090205481810111610c42576040805160e560020a62461bcd02815260206004820152600e60248201527f696e76616c696420616d6f756e74000000000000000000000000000000000000604482015290519081900360640190fd5b600160a060020a0390911660009081526001909201602052604090912080549091019055565b610c7283836107d8565b1515610cee576040805160e560020a62461bcd02815260206004820152602160248201527f526f6c65733a206163636f756e7420646f6573206e6f74206861766520726f6c60448201527f6500000000000000000000000000000000000000000000000000000000000000606482015290519081900360840190fd5b600160a060020a038216600090815260018401602052604090205481810310610d61576040805160e560020a62461bcd02815260206004820152600e60248201527f696e76616c696420616d6f756e74000000000000000000000000000000000000604482015290519081900360640190fd5b600160a060020a03909116600090815260019092016020526040909120805491909103905556fe6e6f742068617665207468652057686974656c69737441646d696e20726f6c6557686974656c69737441646d696e526f6c653a2063616c6c657220646f657320a165627a7a7230582019f303a332c868259a19079c4925fc9d590bc89181f8ac70f2bf631a446f57490029",
  "source": "pragma solidity ^0.5.0;\n\nimport \"./SafeMath.sol\";\nimport \"./Crowdsale.sol\";\nimport \"./WhitelistedCrowdsale.sol\";\n/**\n * @title TimedCrowdsale\n * @dev Crowdsale accepting contributions only within a time frame.\n */\ncontract TimedCrowdsale is WhitelistCrowdsale {\n    using SafeMath for uint256;\n\n    uint256 private _openingTime;\n    uint256 private _closingTime;\n\n    /**\n     * Event for crowdsale extending\n     * @param newClosingTime new closing time\n     * @param prevClosingTime old closing time\n     */\n    event TimedCrowdsaleExtended(uint256 prevClosingTime, uint256 newClosingTime);\n\n    /**\n     * @dev Reverts if not in crowdsale time range.\n     */\n    modifier onlyWhileOpen {\n        require(isOpen(), \"TimedCrowdsale: not open\");\n        _;\n    }\n\n    /**\n     * @dev Constructor, takes crowdsale opening and closing times.\n     * @param openingTime Crowdsale opening time\n     * @param closingTime Crowdsale closing time\n     */\n    constructor (uint256 openingTime, uint256 closingTime,uint256 rate, address payable wallet, IERC20 token)  WhitelistCrowdsale(rate,wallet,token) public {\n        // solhint-disable-next-line not-rely-on-time\n        //require(openingTime >= block.timestamp, \"TimedCrowdsale: opening time is before current time\");\n        // solhint-disable-next-line max-line-length\n        require(closingTime > openingTime, \"TimedCrowdsale: opening time is not before closing time\");\n\n        _openingTime = openingTime;\n        _closingTime = closingTime;\n    }\n\n    /**\n     * @return the crowdsale opening time.\n     */\n    function openingTime() public view returns (uint256) {\n        return _openingTime;\n    }\n\n    /**\n     * @return the crowdsale closing time.\n     */\n    function closingTime() public view returns (uint256) {\n        return _closingTime;\n    }\n\n    /**\n     * @return true if the crowdsale is open, false otherwise.\n     */\n    function isOpen() public view returns (bool) {\n        // solhint-disable-next-line not-rely-on-time\n        return block.timestamp >= _openingTime && block.timestamp <= _closingTime;\n    }\n\n    /**\n     * @dev Checks whether the period in which the crowdsale is open has already elapsed.\n     * @return Whether crowdsale period has elapsed\n     */\n    function hasClosed() public view returns (bool) {\n        // solhint-disable-next-line not-rely-on-time\n        return block.timestamp > _closingTime;\n    }\n\n    /**\n     * @dev Extend parent behavior requiring to be within contributing period.\n     * @param beneficiary Token purchaser\n     * @param weiAmount Amount of wei contributed\n     */\n    function _preValidatePurchase(address beneficiary, uint256 weiAmount) internal onlyWhileOpen view {\n        super._preValidatePurchase(beneficiary, weiAmount);\n    }\n\n    /**\n     * @dev Extend crowdsale.\n     * @param newClosingTime Crowdsale closing time\n     */\n    function _extendTime(uint256 newClosingTime) internal {\n        require(!hasClosed(), \"TimedCrowdsale: already closed\");\n        // solhint-disable-next-line max-line-length\n        require(newClosingTime > _closingTime, \"TimedCrowdsale: new closing time is before current closing time\");\n\n        emit TimedCrowdsaleExtended(_closingTime, newClosingTime);\n        _closingTime = newClosingTime;\n    }\n}",
  "sourcePath": "E:\\Task_space\\Elena\\2Backend\\contracts\\TimedCrowdsale.sol",
  "compiler": {
    "name": "solc",
    "version": "0.5.0+commit.1d4f565a.Emscripten.clang"
  },
  "schemaVersion": "3.3.2",
  "updatedAt": "2021-02-02T16:15:50.395Z",
  "devdoc": {
    "details": "Crowdsale accepting contributions only within a time frame.",
    "methods": {
      "closingTime()": {
        "return": "the crowdsale closing time."
      },
      "constructor": {
        "details": "Constructor, takes crowdsale opening and closing times.",
        "params": {
          "closingTime": "Crowdsale closing time",
          "openingTime": "Crowdsale opening time"
        }
      },
      "hasClosed()": {
        "details": "Checks whether the period in which the crowdsale is open has already elapsed.",
        "return": "Whether crowdsale period has elapsed"
      },
      "isOpen()": {
        "return": "true if the crowdsale is open, false otherwise."
      },
      "openingTime()": {
        "return": "the crowdsale opening time."
      },
      "rate()": {
        "return": "the number of token units a buyer gets per wei."
      },
      "token()": {
        "return": "the token being sold."
      },
      "wallet()": {
        "return": "the address where funds are collected."
      },
      "weiRaised()": {
        "return": "the amount of wei raised."
      }
    },
    "title": "TimedCrowdsale"
  },
  "userdoc": {
    "methods": {}
  }
}