{
  "contractName": "WhitelistedRole",
  "abi": [
    {
      "constant": false,
      "inputs": [],
      "name": "renounceWhitelistAdmin",
      "outputs": [],
      "payable": false,
      "stateMutability": "nonpayable",
      "type": "function"
    },
    {
      "constant": false,
      "inputs": [
        {
          "name": "account",
          "type": "address"
        }
      ],
      "name": "addWhitelistAdmin",
      "outputs": [],
      "payable": false,
      "stateMutability": "nonpayable",
      "type": "function"
    },
    {
      "constant": true,
      "inputs": [
        {
          "name": "account",
          "type": "address"
        }
      ],
      "name": "isWhitelistAdmin",
      "outputs": [
        {
          "name": "",
          "type": "bool"
        }
      ],
      "payable": false,
      "stateMutability": "view",
      "type": "function"
    },
    {
      "anonymous": false,
      "inputs": [
        {
          "indexed": true,
          "name": "account",
          "type": "address"
        }
      ],
      "name": "WhitelistedAdded",
      "type": "event"
    },
    {
      "anonymous": false,
      "inputs": [
        {
          "indexed": true,
          "name": "account",
          "type": "address"
        }
      ],
      "name": "WhitelistedRemoved",
      "type": "event"
    },
    {
      "anonymous": false,
      "inputs": [
        {
          "indexed": true,
          "name": "account",
          "type": "address"
        }
      ],
      "name": "WhitelistAdminAdded",
      "type": "event"
    },
    {
      "anonymous": false,
      "inputs": [
        {
          "indexed": true,
          "name": "account",
          "type": "address"
        }
      ],
      "name": "WhitelistAdminRemoved",
      "type": "event"
    },
    {
      "constant": true,
      "inputs": [
        {
          "name": "account",
          "type": "address"
        }
      ],
      "name": "isWhitelisted",
      "outputs": [
        {
          "name": "",
          "type": "bool"
        }
      ],
      "payable": false,
      "stateMutability": "view",
      "type": "function"
    },
    {
      "constant": true,
      "inputs": [
        {
          "name": "account",
          "type": "address"
        },
        {
          "name": "value",
          "type": "uint256"
        }
      ],
      "name": "isWhitelistedforAmount",
      "outputs": [
        {
          "name": "",
          "type": "bool"
        }
      ],
      "payable": false,
      "stateMutability": "view",
      "type": "function"
    },
    {
      "constant": false,
      "inputs": [
        {
          "name": "account",
          "type": "address"
        },
        {
          "name": "purchase",
          "type": "uint256"
        }
      ],
      "name": "addWhitelisted",
      "outputs": [],
      "payable": false,
      "stateMutability": "nonpayable",
      "type": "function"
    },
    {
      "constant": false,
      "inputs": [
        {
          "name": "account",
          "type": "address"
        },
        {
          "name": "purchaseTier",
          "type": "uint256"
        }
      ],
      "name": "increaseWhiteListingTier",
      "outputs": [],
      "payable": false,
      "stateMutability": "nonpayable",
      "type": "function"
    },
    {
      "constant": false,
      "inputs": [
        {
          "name": "account",
          "type": "address"
        },
        {
          "name": "purchaseTier",
          "type": "uint256"
        }
      ],
      "name": "decreaseWhiteListingTier",
      "outputs": [],
      "payable": false,
      "stateMutability": "nonpayable",
      "type": "function"
    },
    {
      "constant": false,
      "inputs": [
        {
          "name": "account",
          "type": "address"
        }
      ],
      "name": "removeWhitelisted",
      "outputs": [],
      "payable": false,
      "stateMutability": "nonpayable",
      "type": "function"
    },
    {
      "constant": true,
      "inputs": [
        {
          "name": "account",
          "type": "address"
        }
      ],
      "name": "getPurchasePower",
      "outputs": [
        {
          "name": "",
          "type": "uint256"
        }
      ],
      "payable": false,
      "stateMutability": "view",
      "type": "function"
    },
    {
      "constant": false,
      "inputs": [],
      "name": "renounceWhitelisted",
      "outputs": [],
      "payable": false,
      "stateMutability": "nonpayable",
      "type": "function"
    }
  ],
  "bytecode": "0x60806040526100163364010000000061001b810204565b6101cd565b6100336000826401000000006108bc61006a82021704565b604051600160a060020a038216907f22380c05984257a1cb900161c713dd71d39e74820f1aea43bd3f1bdd2096129990600090a250565b61007d828264010000000061010e810204565b156100e957604080517f08c379a000000000000000000000000000000000000000000000000000000000815260206004820152601f60248201527f526f6c65733a206163636f756e7420616c72656164792068617320726f6c6500604482015290519081900360640190fd5b600160a060020a0316600090815260209190915260409020805460ff19166001179055565b6000600160a060020a03821615156101ad57604080517f08c379a000000000000000000000000000000000000000000000000000000000815260206004820152602260248201527f526f6c65733a206163636f756e7420697320746865207a65726f20616464726560448201527f7373000000000000000000000000000000000000000000000000000000000000606482015290519081900360840190fd5b50600160a060020a03166000908152602091909152604090205460ff1690565b610c7f806101dc6000396000f3fe6080604052600436106100ae5763ffffffff7c01000000000000000000000000000000000000000000000000000000006000350416630b46a07c81146100b3578063291d9549146101005780633af32abf146101355780634c5a628c146101685780637362d9c81461017d5780638902ff86146101b0578063abe069e7146101e9578063af91e8c81461022e578063bb5f747b14610267578063d6cd94731461029a578063f6d6f9a9146102af575b600080fd5b3480156100bf57600080fd5b506100ec600480360360408110156100d657600080fd5b50600160a060020a0381351690602001356102e8565b604080519115158252519081900360200190f35b34801561010c57600080fd5b506101336004803603602081101561012357600080fd5b5035600160a060020a0316610305565b005b34801561014157600080fd5b506100ec6004803603602081101561015857600080fd5b5035600160a060020a0316610372565b34801561017457600080fd5b5061013361038b565b34801561018957600080fd5b50610133600480360360208110156101a057600080fd5b5035600160a060020a0316610396565b3480156101bc57600080fd5b50610133600480360360408110156101d357600080fd5b50600160a060020a038135169060200135610400565b3480156101f557600080fd5b5061021c6004803603602081101561020c57600080fd5b5035600160a060020a031661046f565b60408051918252519081900360200190f35b34801561023a57600080fd5b506101336004803603604081101561025157600080fd5b50600160a060020a038135169060200135610482565b34801561027357600080fd5b506100ec6004803603602081101561028a57600080fd5b5035600160a060020a03166104ed565b3480156102a657600080fd5b506101336104ff565b3480156102bb57600080fd5b50610133600480360360408110156102d257600080fd5b50600160a060020a038135169060200135610508565b6000816102fc60028563ffffffff61057316565b10159392505050565b61030e336104ed565b1515610366576040805160e560020a62461bcd0281526020600482015260248101829052600080516020610c348339815191526044820152600080516020610c14833981519152606482015290519081900360840190fd5b61036f8161061b565b50565b600061038560028363ffffffff61066316565b92915050565b6103943361070b565b565b61039f336104ed565b15156103f7576040805160e560020a62461bcd0281526020600482015260248101829052600080516020610c348339815191526044820152600080516020610c14833981519152606482015290519081900360840190fd5b61036f81610753565b610409336104ed565b1515610461576040805160e560020a62461bcd0281526020600482015260248101829052600080516020610c348339815191526044820152600080516020610c14833981519152606482015290519081900360840190fd5b61046b828261079b565b5050565b600061038560028363ffffffff61057316565b61048b336104ed565b15156104e3576040805160e560020a62461bcd0281526020600482015260248101829052600080516020610c348339815191526044820152600080516020610c14833981519152606482015290519081900360840190fd5b61046b82826107e5565b6000610385818363ffffffff61066316565b6103943361061b565b610511336104ed565b1515610569576040805160e560020a62461bcd0281526020600482015260248101829052600080516020610c348339815191526044820152600080516020610c14833981519152606482015290519081900360840190fd5b61046b82826107f7565b6000600160a060020a03821615156105fb576040805160e560020a62461bcd02815260206004820152602260248201527f526f6c65733a206163636f756e7420697320746865207a65726f20616464726560448201527f7373000000000000000000000000000000000000000000000000000000000000606482015290519081900360840190fd5b50600160a060020a03166000908152600191909101602052604090205490565b61062c60028263ffffffff61080916565b604051600160a060020a038216907f270d9b30cf5b0793bbfd54c9d5b94aeb49462b8148399000265144a8722da6b690600090a250565b6000600160a060020a03821615156106eb576040805160e560020a62461bcd02815260206004820152602260248201527f526f6c65733a206163636f756e7420697320746865207a65726f20616464726560448201527f7373000000000000000000000000000000000000000000000000000000000000606482015290519081900360840190fd5b50600160a060020a03166000908152602091909152604090205460ff1690565b61071c60008263ffffffff61080916565b604051600160a060020a038216907f0a8eb35e5ca14b3d6f28e4abf2f128dbab231a58b56e89beb5d636115001e16590600090a250565b61076460008263ffffffff6108bc16565b604051600160a060020a038216907f22380c05984257a1cb900161c713dd71d39e74820f1aea43bd3f1bdd2096129990600090a250565b6107ad6002838363ffffffff61094016565b604051600160a060020a038316907fee1504a83b6d4a361f4c1dc78ab59bfa30d6a3b6612c403e86bb01ef2984295f90600090a25050565b61046b6002838363ffffffff6109d416565b61046b6002838363ffffffff610af316565b6108138282610663565b151561088f576040805160e560020a62461bcd02815260206004820152602160248201527f526f6c65733a206163636f756e7420646f6573206e6f74206861766520726f6c60448201527f6500000000000000000000000000000000000000000000000000000000000000606482015290519081900360840190fd5b600160a060020a0316600090815260208281526040808320805460ff191690556001909301905290812055565b6108c68282610663565b1561091b576040805160e560020a62461bcd02815260206004820152601f60248201527f526f6c65733a206163636f756e7420616c72656164792068617320726f6c6500604482015290519081900360640190fd5b600160a060020a0316600090815260209190915260409020805460ff19166001179055565b61094a8383610663565b1561099f576040805160e560020a62461bcd02815260206004820152601f60248201527f526f6c65733a206163636f756e7420616c72656164792068617320726f6c6500604482015290519081900360640190fd5b600160a060020a03909116600090815260208381526040808320805460ff191660019081179091559490940190529190912055565b6109de8383610663565b1515610a5a576040805160e560020a62461bcd02815260206004820152602160248201527f526f6c65733a206163636f756e7420646f6573206e6f74206861766520726f6c60448201527f6500000000000000000000000000000000000000000000000000000000000000606482015290519081900360840190fd5b600160a060020a038216600090815260018401602052604090205481810111610acd576040805160e560020a62461bcd02815260206004820152600e60248201527f696e76616c696420616d6f756e74000000000000000000000000000000000000604482015290519081900360640190fd5b600160a060020a0390911660009081526001909201602052604090912080549091019055565b610afd8383610663565b1515610b79576040805160e560020a62461bcd02815260206004820152602160248201527f526f6c65733a206163636f756e7420646f6573206e6f74206861766520726f6c60448201527f6500000000000000000000000000000000000000000000000000000000000000606482015290519081900360840190fd5b600160a060020a038216600090815260018401602052604090205481810310610bec576040805160e560020a62461bcd02815260206004820152600e60248201527f696e76616c696420616d6f756e74000000000000000000000000000000000000604482015290519081900360640190fd5b600160a060020a03909116600090815260019092016020526040909120805491909103905556fe6e6f742068617665207468652057686974656c69737441646d696e20726f6c6557686974656c69737441646d696e526f6c653a2063616c6c657220646f657320a165627a7a723058201a2ca51c88adff04f5f0e9dd340eaeb262b7f1275adb2c66d4d532a60c8483110029",
  "source": "pragma solidity ^0.5.0;\n\nimport \"./Roles.sol\";\nimport \"./WhitelistAdminRole.sol\";\n\n/**\n * @title WhitelistedRole\n * @dev Whitelisted accounts have been approved by a WhitelistAdmin to perform certain actions (e.g. participate in a\n * crowdsale). This role is special in that the only accounts that can add it are WhitelistAdmins (who can also remove\n * it), and not Whitelisteds themselves.\n */\ncontract WhitelistedRole is WhitelistAdminRole {\n    using Roles for Roles.Role;\n\n    event WhitelistedAdded(address indexed account);\n    event WhitelistedRemoved(address indexed account);\n\n    Roles.Role private _whitelisteds;\n\n    modifier onlyWhitelisted() {\n        require(isWhitelisted(msg.sender), \"WhitelistedRole: caller does not have the Whitelisted role\");\n        _;\n    }\n    modifier onlyWhitelistedForAmount(uint purchaseValue) {\n        require(isWhitelistedforAmount(msg.sender,purchaseValue), \"WhitelistedRole: caller does not have the Whitelisted role\");\n        _;\n    }\n\n    function isWhitelisted(address account) public view returns (bool) {\n        return _whitelisteds.has(account);\n    }\n      function isWhitelistedforAmount(address account,uint value) public view returns (bool) {\n        return (_whitelisteds.hasAmount(account)>=value);\n    }\n\n    function addWhitelisted(address account,uint purchase) public onlyWhitelistAdmin {\n        _addWhitelisted(account,purchase);\n    }\n    function increaseWhiteListingTier(address account,uint purchaseTier) public onlyWhitelistAdmin {\n        _increaseTierPurchase( account, purchaseTier);\n    }\n     function decreaseWhiteListingTier(address account,uint purchaseTier) public onlyWhitelistAdmin {\n        _decreaseTierPurchase( account, purchaseTier);\n    }\n    function removeWhitelisted(address account) public onlyWhitelistAdmin {\n        _removeWhitelisted(account);\n    }\n    function getPurchasePower(address account) public view returns(uint){\n        return _whitelisteds.hasAmount(account);\n    }\n\n    function renounceWhitelisted() public {\n        _removeWhitelisted(msg.sender);\n    }\n\n    function _addWhitelisted(address account,uint purchase) internal {\n        _whitelisteds.add(account,purchase);\n        emit WhitelistedAdded(account);\n    }\n\n    function _removeWhitelisted(address account) internal {\n        _whitelisteds.remove(account);\n        emit WhitelistedRemoved(account);\n    }\n    function _increaseTierPurchase(address account,uint purchase) internal{\n         _whitelisteds.increaseAmount(account,purchase);\n    }\n    function _decreaseTierPurchase(address account,uint purchase) internal{\n         _whitelisteds.decreaseAmount(account,purchase);\n    }\n}",
  "sourcePath": "E:\\Task_space\\Elena\\2Backend\\contracts\\WhitelistedRole.sol",
  "compiler": {
    "name": "solc",
    "version": "0.5.0+commit.1d4f565a.Emscripten.clang"
  },
  "schemaVersion": "3.3.2",
  "updatedAt": "2021-02-02T16:15:50.406Z",
  "devdoc": {
    "details": "Whitelisted accounts have been approved by a WhitelistAdmin to perform certain actions (e.g. participate in a crowdsale). This role is special in that the only accounts that can add it are WhitelistAdmins (who can also remove it), and not Whitelisteds themselves.",
    "methods": {},
    "title": "WhitelistedRole"
  },
  "userdoc": {
    "methods": {}
  }
}