{
  "contractName": "BookQueueLib2",
  "abi": [
    {
      "constant": false,
      "inputs": [
        {
          "name": "queue",
          "type": "BookQueueLib2.BookQueue storage"
        },
        {
          "name": "reader",
          "type": "address"
        },
        {
          "name": "value",
          "type": "uint256"
        }
      ],
      "name": "insertReader",
      "outputs": [
        {
          "name": "",
          "type": "uint256"
        }
      ],
      "payable": false,
      "stateMutability": "nonpayable",
      "type": "function"
    },
    {
      "constant": false,
      "inputs": [
        {
          "name": "queue",
          "type": "BookQueueLib2.BookQueue storage"
        },
        {
          "name": "reader",
          "type": "address"
        },
        {
          "name": "value",
          "type": "uint256"
        }
      ],
      "name": "readerWithdraw",
      "outputs": [],
      "payable": false,
      "stateMutability": "nonpayable",
      "type": "function"
    },
    {
      "constant": false,
      "inputs": [
        {
          "name": "queue",
          "type": "BookQueueLib2.BookQueue storage"
        },
        {
          "name": "reader",
          "type": "address"
        }
      ],
      "name": "findReaderPos",
      "outputs": [
        {
          "name": "",
          "type": "uint256"
        }
      ],
      "payable": false,
      "stateMutability": "nonpayable",
      "type": "function"
    },
    {
      "constant": false,
      "inputs": [
        {
          "name": "queue",
          "type": "BookQueueLib2.BookQueue storage"
        }
      ],
      "name": "getFirstInLine",
      "outputs": [
        {
          "name": "",
          "type": "address"
        }
      ],
      "payable": false,
      "stateMutability": "nonpayable",
      "type": "function"
    },
    {
      "constant": false,
      "inputs": [
        {
          "name": "queue",
          "type": "BookQueueLib2.BookQueue storage"
        },
        {
          "name": "reader",
          "type": "address"
        }
      ],
      "name": "findbalance",
      "outputs": [
        {
          "name": "",
          "type": "uint256"
        }
      ],
      "payable": false,
      "stateMutability": "nonpayable",
      "type": "function"
    },
    {
      "constant": false,
      "inputs": [
        {
          "name": "queue",
          "type": "BookQueueLib2.BookQueue storage"
        }
      ],
      "name": "findinserts",
      "outputs": [
        {
          "name": "",
          "type": "uint256"
        }
      ],
      "payable": false,
      "stateMutability": "nonpayable",
      "type": "function"
    },
    {
      "constant": false,
      "inputs": [
        {
          "name": "queue",
          "type": "BookQueueLib2.BookQueue storage"
        },
        {
          "name": "value",
          "type": "uint256"
        }
      ],
      "name": "findvalueAtRank",
      "outputs": [
        {
          "name": "",
          "type": "uint256"
        }
      ],
      "payable": false,
      "stateMutability": "nonpayable",
      "type": "function"
    },
    {
      "constant": false,
      "inputs": [
        {
          "name": "queue",
          "type": "BookQueueLib2.BookQueue storage"
        },
        {
          "name": "value",
          "type": "uint256"
        }
      ],
      "name": "findheight",
      "outputs": [
        {
          "name": "",
          "type": "uint256"
        }
      ],
      "payable": false,
      "stateMutability": "nonpayable",
      "type": "function"
    },
    {
      "constant": false,
      "inputs": [
        {
          "name": "queue",
          "type": "BookQueueLib2.BookQueue storage"
        },
        {
          "name": "value",
          "type": "uint256"
        }
      ],
      "name": "findValueAtPercentile",
      "outputs": [
        {
          "name": "",
          "type": "uint256"
        }
      ],
      "payable": false,
      "stateMutability": "nonpayable",
      "type": "function"
    },
    {
      "constant": false,
      "inputs": [
        {
          "name": "queue",
          "type": "BookQueueLib2.BookQueue storage"
        },
        {
          "name": "value",
          "type": "uint256"
        }
      ],
      "name": "findNodeCount",
      "outputs": [
        {
          "name": "",
          "type": "uint256"
        }
      ],
      "payable": false,
      "stateMutability": "nonpayable",
      "type": "function"
    }
  ],
  "bytecode": "0x6060604052341561000f57600080fd5b610ca48061001e6000396000f3006060604052600436106100a4576000357c0100000000000000000000000000000000000000000000000000000000900463ffffffff168063076c44ed146100a95780631b01067d146100de5780631b13a526146101135780633272064014610167578063536b69571461019c578063728cffc2146101c85780637decd1df1461021357806385eb83b71461025e578063c1601ef514610293578063fc96f810146102eb575b600080fd5b6100c8600480803590602001909190803590602001909190505061032b565b6040518082815260200191505060405180910390f35b6100fd60048080359060200190919080359060200190919050506103d0565b6040518082815260200191505060405180910390f35b610151600480803590602001909190803573ffffffffffffffffffffffffffffffffffffffff16906020019091908035906020019091905050610475565b6040518082815260200191505060405180910390f35b6101866004808035906020019091908035906020019091905050610735565b6040518082815260200191505060405180910390f35b6101b260048080359060200190919050506107da565b6040518082815260200191505060405180910390f35b6101fd600480803590602001909190803573ffffffffffffffffffffffffffffffffffffffff16906020019091905050610876565b6040518082815260200191505060405180910390f35b610248600480803590602001909190803573ffffffffffffffffffffffffffffffffffffffff16906020019091905050610967565b6040518082815260200191505060405180910390f35b61027d60048080359060200190919080359060200190919050506109b3565b6040518082815260200191505060405180910390f35b6102a96004808035906020019091905050610a58565b604051808273ffffffffffffffffffffffffffffffffffffffff1673ffffffffffffffffffffffffffffffffffffffff16815260200191505060405180910390f35b610329600480803590602001909190803573ffffffffffffffffffffffffffffffffffffffff16906020019091908035906020019091905050610a86565b005b60008260000173__OrderedStatisticTree__________________6330c580789091846000604051602001526040518363ffffffff167c0100000000000000000000000000000000000000000000000000000000028152600401808381526020018281526020019250505060206040518083038186803b15156103ad57600080fd5b6102c65a03f415156103be57600080fd5b50505060405180519050905092915050565b60008260000173__OrderedStatisticTree__________________630b9d35f69091846000604051602001526040518363ffffffff167c0100000000000000000000000000000000000000000000000000000000028152600401808381526020018281526020019250505060206040518083038186803b151561045257600080fd5b6102c65a03f4151561046357600080fd5b50505060405180519050905092915050565b60008060008060008760030160008873ffffffffffffffffffffffffffffffffffffffff1673ffffffffffffffffffffffffffffffffffffffff1681526020019081526020016000205414156104d957600187600601600082825401925050819055505b8660030160008773ffffffffffffffffffffffffffffffffffffffff1673ffffffffffffffffffffffffffffffffffffffff168152602001908152602001600020549250848760030160008873ffffffffffffffffffffffffffffffffffffffff1673ffffffffffffffffffffffffffffffffffffffff168152602001908152602001600020600082825401925050819055508660030160008773ffffffffffffffffffffffffffffffffffffffff1673ffffffffffffffffffffffffffffffffffffffff1681526020019081526020016000205491508660000173__OrderedStatisticTree__________________6314055b399091846040518363ffffffff167c0100000000000000000000000000000000000000000000000000000000028152600401808381526020018281526020019250505060006040518083038186803b151561062757600080fd5b6102c65a03f4151561063857600080fd5b5050508660000173__OrderedStatisticTree__________________63ad7d76599091846000604051602001526040518363ffffffff167c0100000000000000000000000000000000000000000000000000000000028152600401808381526020018281526020019250505060206040518083038186803b15156106bb57600080fd5b6102c65a03f415156106cc57600080fd5b505050604051805190509050866006015481141561072857858760050160006101000a81548173ffffffffffffffffffffffffffffffffffffffff021916908373ffffffffffffffffffffffffffffffffffffffff1602179055505b8093505050509392505050565b60008260000173__OrderedStatisticTree__________________63c22005a79091846000604051602001526040518363ffffffff167c0100000000000000000000000000000000000000000000000000000000028152600401808381526020018281526020019250505060206040518083038186803b15156107b757600080fd5b6102c65a03f415156107c857600080fd5b50505060405180519050905092915050565b60008160000173__OrderedStatisticTree__________________631e6e281090916000604051602001526040518263ffffffff167c01000000000000000000000000000000000000000000000000000000000281526004018082815260200191505060206040518083038186803b151561085457600080fd5b6102c65a03f4151561086557600080fd5b505050604051805190509050919050565b60008060008460030160008573ffffffffffffffffffffffffffffffffffffffff1673ffffffffffffffffffffffffffffffffffffffff1681526020019081526020016000205491508460000173__OrderedStatisticTree__________________63ad7d76599091846000604051602001526040518363ffffffff167c0100000000000000000000000000000000000000000000000000000000028152600401808381526020018281526020019250505060206040518083038186803b151561093f57600080fd5b6102c65a03f4151561095057600080fd5b505050604051805190509050809250505092915050565b60008260030160008373ffffffffffffffffffffffffffffffffffffffff1673ffffffffffffffffffffffffffffffffffffffff16815260200190815260200160002054905092915050565b60008260000173__OrderedStatisticTree__________________63d6e6d2d89091846000604051602001526040518363ffffffff167c0100000000000000000000000000000000000000000000000000000000028152600401808381526020018281526020019250505060206040518083038186803b1515610a3557600080fd5b6102c65a03f41515610a4657600080fd5b50505060405180519050905092915050565b60008160050160009054906101000a900473ffffffffffffffffffffffffffffffffffffffff169050919050565b60008360030160008473ffffffffffffffffffffffffffffffffffffffff1673ffffffffffffffffffffffffffffffffffffffff168152602001908152602001600020549050818460030160008573ffffffffffffffffffffffffffffffffffffffff1673ffffffffffffffffffffffffffffffffffffffff168152602001908152602001600020600082825403925050819055508360000173__OrderedStatisticTree__________________6303c7511a9091836040518363ffffffff167c0100000000000000000000000000000000000000000000000000000000028152600401808381526020018281526020019250505060006040518083038186803b1515610b9257600080fd5b6102c65a03f41515610ba357600080fd5b5050508360000173__OrderedStatisticTree__________________6314055b3990918660030160008773ffffffffffffffffffffffffffffffffffffffff1673ffffffffffffffffffffffffffffffffffffffff168152602001908152602001600020546040518363ffffffff167c0100000000000000000000000000000000000000000000000000000000028152600401808381526020018281526020019250505060006040518083038186803b1515610c5e57600080fd5b6102c65a03f41515610c6f57600080fd5b505050505050505600a165627a7a7230582006352cfe343fde15cfc471454336f075201aa6140f1c692e5758bf9af12749710029",
  "source": "pragma solidity ^0.4.15;\n\nimport \"./OrderedStatisticTree.sol\";\nlibrary BookQueueLib2 {\n  using OrderedStatisticTree for OrderedStatisticTree.Index;\n\n\n\tstruct BookQueue {\n\n  \t\t//bytes32 id;\n  \t  OrderedStatisticTree.Index ReaderValues;\n   \t  mapping(address=>uint) insertOrder;\n\t    mapping(address=>uint) readerBalance;\n\t    mapping(uint=>address) balanceToReader;\n  //  mapping(address=>uint) positions;\n      address firstInLine;\n\t    uint numberReaders;\n\n\t}\n\tfunction createQueue()\n    internal\n    returns (BookQueue)\n  {\n    return BookQueue({\n      ReaderValues: OrderedStatisticTree.Index(0),numberReaders:0,firstInLine:0x3\n\n          });\n  }\n\n\tfunction insertReader(BookQueue storage queue,address reader,uint value) returns (uint){\n    \tif(queue.readerBalance[reader]==0){\n    \t  queue.numberReaders+=1;\n \t\t }\n\t    uint prevBalance=queue.readerBalance[reader];\n\t    queue.readerBalance[reader]+=value;\n\t  // queue.ReaderValues.remove(prevBalance);\n      uint temp=queue.readerBalance[reader];\n\t    queue.ReaderValues.insert(temp);\n\t  // queue.positions[reader]=queue.ReaderValues.rank(value);\n        uint Rank=queue.ReaderValues.rank(temp);\n        if(Rank==queue.numberReaders){\n    \t    queue.firstInLine=reader;\n        }\n        return Rank;\n}\n  function readerWithdraw(BookQueue storage queue,address reader, uint value){\n       uint prevBalance=queue.readerBalance[reader];\n       queue.readerBalance[reader]-=value;\n       queue.ReaderValues.remove(prevBalance);\n       queue.ReaderValues.insert(queue.readerBalance[reader]);\n       //queue.positions[reader]=queue.ReaderValues.rank(value);\n\n  }\n  function findReaderPos(BookQueue storage queue,address reader) returns(uint){\n\tuint balance=queue.readerBalance[reader];\n\tuint pos=queue.ReaderValues.rank(balance);\n\treturn pos;\n\t}\n  function getFirstInLine(BookQueue storage queue) returns(address){\n    return queue.firstInLine;\n\n  }\n  function findbalance(BookQueue storage queue,address reader) returns(uint){\n     return queue.readerBalance[reader];\n\n  }\n  function findinserts(BookQueue storage queue) returns(uint){\n\treturn queue.ReaderValues.numInserts();\n  }\n  function findvalueAtRank(BookQueue storage queue,uint value) returns(uint){\n\treturn queue.ReaderValues.select_at(value);\n\t}\n    function findheight(BookQueue storage queue,uint value) returns(uint){\n\treturn queue.ReaderValues.node_height(value);\n  }\n  function findValueAtPercentile(BookQueue storage queue,uint value) returns(uint){\n  \treturn queue.ReaderValues.percentile(value);\n\n  }\n  function findNodeCount(BookQueue storage queue, uint value) returns(uint){\n    return queue.ReaderValues.node_count(value);\n  }\n}\n",
  "sourcePath": "/home/jjj/Book_Pub_Dev/OE/OpenEquity/contracts/BookQueueLib2.sol",
  "compiler": {
    "name": "solc",
    "version": "0.4.19+commit.c4cbbb05.Emscripten.clang"
  },
  "schemaVersion": "1.0.1",
  "updatedAt": "2018-03-29T22:42:41.570Z"
}