{
  "contractName": "BookQueueLib",
  "abi": [
    {
      "constant": false,
      "inputs": [
        {
          "name": "queue",
          "type": "BookQueueLib.BookQueue storage"
        },
        {
          "name": "value",
          "type": "int256"
        },
        {
          "name": "readerAddress",
          "type": "address"
        }
      ],
      "name": "addToQueue",
      "outputs": [],
      "payable": false,
      "stateMutability": "nonpayable",
      "type": "function"
    },
    {
      "constant": false,
      "inputs": [
        {
          "name": "queue",
          "type": "BookQueueLib.BookQueue storage"
        },
        {
          "name": "value",
          "type": "int256"
        },
        {
          "name": "readerAddress",
          "type": "address"
        }
      ],
      "name": "addToQueueFirst",
      "outputs": [],
      "payable": false,
      "stateMutability": "nonpayable",
      "type": "function"
    },
    {
      "constant": false,
      "inputs": [
        {
          "name": "readerAddress",
          "type": "address"
        }
      ],
      "name": "retrieve",
      "outputs": [],
      "payable": false,
      "stateMutability": "nonpayable",
      "type": "function"
    },
    {
      "constant": false,
      "inputs": [
        {
          "name": "queue",
          "type": "BookQueueLib.BookQueue storage"
        },
        {
          "name": "reader",
          "type": "address"
        },
        {
          "name": "value",
          "type": "int256"
        }
      ],
      "name": "remove",
      "outputs": [
        {
          "name": "success",
          "type": "bool"
        }
      ],
      "payable": false,
      "stateMutability": "nonpayable",
      "type": "function"
    },
    {
      "constant": true,
      "inputs": [
        {
          "name": "queue",
          "type": "BookQueueLib.BookQueue storage"
        }
      ],
      "name": "getFirstInLine",
      "outputs": [
        {
          "name": "readerAddress",
          "type": "address"
        }
      ],
      "payable": false,
      "stateMutability": "view",
      "type": "function"
    },
    {
      "constant": false,
      "inputs": [
        {
          "name": "queue",
          "type": "BookQueueLib.BookQueue storage"
        }
      ],
      "name": "findAllFirst",
      "outputs": [
        {
          "name": "",
          "type": "address[]"
        }
      ],
      "payable": false,
      "stateMutability": "nonpayable",
      "type": "function"
    },
    {
      "constant": true,
      "inputs": [
        {
          "name": "queue",
          "type": "BookQueueLib.BookQueue storage"
        },
        {
          "name": "index",
          "type": "uint256"
        }
      ],
      "name": "getLinePosition",
      "outputs": [
        {
          "name": "readerAddress",
          "type": "address"
        }
      ],
      "payable": false,
      "stateMutability": "view",
      "type": "function"
    }
  ],
  "bytecode": "0x6060604052341561000f57600080fd5b610ef68061001e6000396000f300606060405260043610610083576000357c0100000000000000000000000000000000000000000000000000000000900463ffffffff1680630a79309b146100885780632931f0be146100b6578063358335c1146100f65780633fe25a781461014e578063602faa47146101af5780636cc5b7451461021c578063c2b025a814610274575b600080fd5b6100b4600480803573ffffffffffffffffffffffffffffffffffffffff169060200190919050506102b4565b005b6100f4600480803590602001909190803590602001909190803573ffffffffffffffffffffffffffffffffffffffff169060200190919050506102b7565b005b61010c6004808035906020019091905050610315565b604051808273ffffffffffffffffffffffffffffffffffffffff1673ffffffffffffffffffffffffffffffffffffffff16815260200191505060405180910390f35b61016d6004808035906020019091908035906020019091905050610419565b604051808273ffffffffffffffffffffffffffffffffffffffff1673ffffffffffffffffffffffffffffffffffffffff16815260200191505060405180910390f35b6101c56004808035906020019091905050610421565b6040518080602001828103825283818151815260200191508051906020019060200280838360005b838110156102085780820151818401526020810190506101ed565b505050509050019250505060405180910390f35b61025a600480803590602001909190803573ffffffffffffffffffffffffffffffffffffffff169060200190919080359060200190919050506105da565b604051808215151515815260200191505060405180910390f35b6102b2600480803590602001909190803590602001909190803573ffffffffffffffffffffffffffffffffffffffff169060200190919050506109dc565b005b50565b60006102c38484610a3a565b9050600060010281600019161415610304576102df8484610b07565b90508360050154600019168160001916111561030357808460050181600019169055505b5b61030f848284610be8565b50505050565b60008060008084600501549250846002016000846000191660001916815260200190815260200160002091508160000173__GroveLib______________________________63e6ce3a6a909184600401546000604051602001526040518363ffffffff167c010000000000000000000000000000000000000000000000000000000002815260040180838152602001807f3e3d0000000000000000000000000000000000000000000000000000000000008152506020018281526020019250505060206040518083038186803b15156103ed57600080fd5b6102c65a03f415156103fe57600080fd5b50505060405180519050905080600190049350505050919050565b600092915050565b610429610eb6565b600080600080610437610eb6565b600080886004015493508360405180591061044f5750595b90808252806020026020018201604052509250600191505b838210156105cb57886003016000838152602001908152602001600020549550886002016000876000191660001916815260200190815260200160002094508460000173__GroveLib______________________________63e6ce3a6a909187600401546000604051602001526040518363ffffffff167c010000000000000000000000000000000000000000000000000000000002815260040180838152602001807f3e3d0000000000000000000000000000000000000000000000000000000000008152506020018281526020019250505060206040518083038186803b151561055257600080fd5b6102c65a03f4151561056357600080fd5b5050506040518051905090508060019004838381518110151561058257fe5b9060200190602002019073ffffffffffffffffffffffffffffffffffffffff16908173ffffffffffffffffffffffffffffffffffffffff16815250508180600101925050610467565b82975050505050505050919050565b6000806000808660000173__GroveLib______________________________63e6ce3a6a9091876000604051602001526040518363ffffffff167c010000000000000000000000000000000000000000000000000000000002815260040180838152602001807f3d3d0000000000000000000000000000000000000000000000000000000000008152506020018281526020019250505060206040518083038186803b151561068857600080fd5b6102c65a03f4151561069957600080fd5b505050604051805190509250866002016000846000191660001916815260200190815260200160002091508160000173__GroveLib______________________________63ab7366f790918873ffffffffffffffffffffffffffffffffffffffff166001026040518363ffffffff167c01000000000000000000000000000000000000000000000000000000000281526004018083815260200182600019166000191681526020019250505060006040518083038186803b151561075c57600080fd5b6102c65a03f4151561076d57600080fd5b5050508160000173__GroveLib______________________________63e6ce3a6a909184600401546000604051602001526040518363ffffffff167c010000000000000000000000000000000000000000000000000000000002815260040180838152602001807f3e3d0000000000000000000000000000000000000000000000000000000000008152506020018281526020019250505060206040518083038186803b151561081c57600080fd5b6102c65a03f4151561082d57600080fd5b505050604051805190509050600060010260001916816000191614156109ce578660000173__GroveLib______________________________63ab7366f79091856040518363ffffffff167c01000000000000000000000000000000000000000000000000000000000281526004018083815260200182600019166000191681526020019250505060006040518083038186803b15156108cc57600080fd5b6102c65a03f415156108dd57600080fd5b505050866005015460001916836000191614156109cd578660000173__GroveLib______________________________63e6ce3a6a909160ff60019060020a02196000604051602001526040518363ffffffff167c010000000000000000000000000000000000000000000000000000000002815260040180838152602001807f3c3d0000000000000000000000000000000000000000000000000000000000008152506020018281526020019250505060206040518083038186803b15156109a557600080fd5b6102c65a03f415156109b657600080fd5b505050604051805190508760050181600019169055505b5b600193505050509392505050565b60006109e88484610a3a565b9050600060010281600019161415610a2957610a048484610b07565b905083600501546000191681600019161115610a2857808460050181600019169055505b5b610a34848284610d4f565b50505050565b60008260000173__GroveLib______________________________63e6ce3a6a9091846000604051602001526040518363ffffffff167c010000000000000000000000000000000000000000000000000000000002815260040180838152602001807f3d3d0000000000000000000000000000000000000000000000000000000000008152506020018281526020019250505060206040518083038186803b1515610ae457600080fd5b6102c65a03f41515610af557600080fd5b50505060405180519050905092915050565b60008160010290508260000173__GroveLib______________________________63bacd6958909183856040518463ffffffff167c0100000000000000000000000000000000000000000000000000000000028152600401808481526020018360001916600019168152602001828152602001935050505060006040518083038186803b1515610b9657600080fd5b6102c65a03f41515610ba757600080fd5b505050600183600401600082825401925050819055508083600301600085600401548152602001908152602001600020816000191690555080905092915050565b600083600201600084600019166000191681526020019081526020016000209050600181600401600082825403925050819055508060000173__GroveLib______________________________63bacd695890918473ffffffffffffffffffffffffffffffffffffffff1660010284600401546040518463ffffffff167c0100000000000000000000000000000000000000000000000000000000028152600401808481526020018360001916600019168152602001828152602001935050505060006040518083038186803b1515610cc057600080fd5b6102c65a03f41515610cd157600080fd5b505050818160020160008473ffffffffffffffffffffffffffffffffffffffff166001026000191660001916815260200190815260200160002060006101000a81548173ffffffffffffffffffffffffffffffffffffffff021916908373ffffffffffffffffffffffffffffffffffffffff16021790555050505050565b600083600201600084600019166000191681526020019081526020016000209050600181600301600082825401925050819055508060000173__GroveLib______________________________63bacd695890918473ffffffffffffffffffffffffffffffffffffffff1660010284600301546040518463ffffffff167c0100000000000000000000000000000000000000000000000000000000028152600401808481526020018360001916600019168152602001828152602001935050505060006040518083038186803b1515610e2757600080fd5b6102c65a03f41515610e3857600080fd5b505050818160020160008473ffffffffffffffffffffffffffffffffffffffff166001026000191660001916815260200190815260200160002060006101000a81548173ffffffffffffffffffffffffffffffffffffffff021916908373ffffffffffffffffffffffffffffffffffffffff16021790555050505050565b6020604051908101604052806000815250905600a165627a7a723058203e43bf521d69678285e30432baa67e20822708dff0067173fba2f32ed45e25310029",
  "source": "pragma solidity ^0.4.15;\n\nimport \"./GroveLib.sol\";\n//import \"./BookPub.sol\";\n\nlibrary BookQueueLib {\n  using GroveLib for GroveLib.Index;\n\n  int256 constant INT256_MAX = int256(~((uint256(1) << 255)));\n\n  struct BucketQueue {\n    GroveLib.Index bucketIndex;\n    mapping (bytes32 => address) readerAddress;\n    int lastIndex;\n    int firstIndex;\n  }\n\n  struct BookQueue {\n    GroveLib.Index bucketIndex;\n    mapping(bytes32 => BucketQueue) buckets;\n    mapping(uint => bytes32) bucketIDmap;\n    uint numberBuckets;\n    bytes32 highestBucketID;\n  }\n\n  function createQueue()\n    internal\n    returns (BookQueue)\n  {\n    return BookQueue({\n      bucketIndex: GroveLib.Index(sha3(this, block.number)),numberBuckets:0,\n          highestBucketID: 0\n          });\n  }\n\n  function addToQueue(BookQueue storage queue, int value, address readerAddress) {\n    //Take readers address, store it in BookQueue placement selected by value\n    var bucketID = findBucket(queue, value);\n\n    if (bucketID == 0x0) {\n      bucketID = createBucket(queue, value);\n      if(bucketID > queue.highestBucketID) {\n        queue.highestBucketID = bucketID;\n      }\n    }\n    addToBucket(queue, bucketID, readerAddress);\n  }\n\n  // TODO: Don't duplicate\n  function addToQueueFirst(BookQueue storage queue, int value, address readerAddress) {\n    //Take readers address, store it in BookQueue placement selected by value\n    var bucketID = findBucket(queue, value);\n\n    if (bucketID == 0x0) {\n      bucketID = createBucket(queue, value);\n      if(bucketID > queue.highestBucketID) {\n        queue.highestBucketID = bucketID;\n      }\n    }\n    addToBucketFirst(queue, bucketID, readerAddress);\n  }\n\n  function retrieve(address readerAddress){\n  }\n\n  function findBucket(BookQueue storage queue, int value)\n    internal\n    returns (bytes32 bucketID)\n  {\n    bucketID = queue.bucketIndex.query(\"==\", value);\n  }\n\n  function remove(BookQueue storage queue, address reader, int value)\n    returns (bool success)\n  {\n    bytes32 bucketID = queue.bucketIndex.query('==', value);\n    BucketQueue bucket = queue.buckets[bucketID];\n    bucket.bucketIndex.remove(bytes32(reader));\n    bytes32 nextInLine = bucket.bucketIndex.query('>=', bucket.firstIndex);\n    if (nextInLine == bytes32(0)) {\n      queue.bucketIndex.remove(bucketID);\n      if (bucketID == queue.highestBucketID) {\n        queue.highestBucketID = queue.bucketIndex.query('<=', INT256_MAX);\n      }\n    }\n    return true;\n  }\n\n  function createBucket(BookQueue storage queue, int value)\n    internal\n    returns(bytes32 bucketID)\n  {\n    bucketID = bytes32(value);\n    queue.bucketIndex.insert(bucketID, value);\n    queue.numberBuckets+=1;\n    queue.bucketIDmap[queue.numberBuckets]=bucketID;\n    return bucketID;\n  }\n\n  function addToBucket(BookQueue storage queue, bytes32 bucketID, address readerAddress)\n    internal\n  {\n    BucketQueue bucket = queue.buckets[bucketID];\n    bucket.lastIndex += 1;\n    bucket.bucketIndex.insert(bytes32(readerAddress), bucket.lastIndex);\n    bucket.readerAddress[bytes32(readerAddress)] = readerAddress;\n  }\n\n  function addToBucketFirst(BookQueue storage queue, bytes32 bucketID, address readerAddress)\n    internal\n  {\n    var bucket = queue.buckets[bucketID];\n    bucket.firstIndex -= 1;\n    bucket.bucketIndex.insert(bytes32(readerAddress), bucket.firstIndex);\n    bucket.readerAddress[bytes32(readerAddress)] = readerAddress;\n  }\n\n  function getFirstInLine(BookQueue storage queue)\n    constant\n    returns(address readerAddress)\n  {\n    var bucketID = queue.highestBucketID;\n    var bucket = queue.buckets[bucketID];\n    var bucketQueueID = bucket.bucketIndex.query('>=', bucket.firstIndex);\n    return address(bucketQueueID);\n  }\n  function findAllFirst(BookQueue storage queue) returns(address[]){\n\n    address A;\n    bytes32 Temp;\n    BucketQueue BQ;\n\n    uint N=queue.numberBuckets;\n    address[] memory R= new address[](N);\n    for (uint i=1;i<N;i++){\n      Temp=queue.bucketIDmap[i];\n      BQ=queue.buckets[Temp];\n      var bucketQueueID= BQ.bucketIndex.query('>=',BQ.firstIndex );\n\n      R[i]= address(bucketQueueID);\n    }\n    return R;\n  }\n\n  function getLinePosition(BookQueue storage queue, uint index)\n    constant\n    returns(address readerAddress){\n    /*var bucketID = queue.highestBucketID;\n      var bucket = queue.buckets[bucketID];\n      return bucket[bucket.length - 1];*/\n  }\n\n}\n",
  "sourcePath": "/home/jjj/Book_Pub_Dev/OE/OpenEquity/contracts/BookQueueLib.sol",
  "compiler": {
    "name": "solc",
    "version": "0.4.19+commit.c4cbbb05.Emscripten.clang"
  },
  "schemaVersion": "1.0.1",
  "updatedAt": "2018-03-25T14:20:17.913Z"
}