{
  "contractName": "CoinDeployer",
  "abi": [
    {
      "constant": true,
      "inputs": [
        {
          "name": "",
          "type": "address"
        },
        {
          "name": "",
          "type": "uint256"
        }
      ],
      "name": "CoinIDs",
      "outputs": [
        {
          "name": "",
          "type": "uint256"
        }
      ],
      "payable": false,
      "stateMutability": "view",
      "type": "function",
      "signature": "0x7b5884c6"
    },
    {
      "constant": true,
      "inputs": [
        {
          "name": "",
          "type": "uint256"
        }
      ],
      "name": "deployedAddresses",
      "outputs": [
        {
          "name": "",
          "type": "address"
        }
      ],
      "payable": false,
      "stateMutability": "view",
      "type": "function",
      "signature": "0xf6c3cdb5"
    },
    {
      "inputs": [
        {
          "name": "_tree",
          "type": "address"
        }
      ],
      "payable": false,
      "stateMutability": "nonpayable",
      "type": "constructor",
      "signature": "constructor"
    },
    {
      "anonymous": false,
      "inputs": [
        {
          "indexed": false,
          "name": "C",
          "type": "address"
        },
        {
          "indexed": false,
          "name": "author",
          "type": "address"
        }
      ],
      "name": "CoinCreation",
      "type": "event",
      "signature": "0x8505622f9d94ce8a4501ce2a775fe2a8a79be175c72535341b10930d396d81ab"
    },
    {
      "constant": false,
      "inputs": [
        {
          "name": "_authorAddress",
          "type": "address"
        },
        {
          "name": "_tokenName",
          "type": "string"
        },
        {
          "name": "_tokenSymbol",
          "type": "string"
        },
        {
          "name": "PartnerShares",
          "type": "uint256[]"
        },
        {
          "name": "_NumParams",
          "type": "uint256[]"
        },
        {
          "name": "PartnerArray",
          "type": "address[]"
        }
      ],
      "name": "deployCoin",
      "outputs": [],
      "payable": false,
      "stateMutability": "nonpayable",
      "type": "function",
      "signature": "0xeea19a51"
    },
    {
      "constant": true,
      "inputs": [
        {
          "name": "coin",
          "type": "uint256"
        }
      ],
      "name": "getCoinLocation",
      "outputs": [
        {
          "name": "",
          "type": "address"
        }
      ],
      "payable": false,
      "stateMutability": "view",
      "type": "function",
      "signature": "0xedcc4578"
    },
    {
      "constant": true,
      "inputs": [
        {
          "name": "a",
          "type": "address"
        }
      ],
      "name": "myCoins",
      "outputs": [
        {
          "name": "",
          "type": "uint256[]"
        }
      ],
      "payable": false,
      "stateMutability": "view",
      "type": "function",
      "signature": "0xf578c4bf"
    }
  ],
  "bytecode": "0x608060405234801561001057600080fd5b506040516020806122f1833981016040525160038054600160a060020a031916600160a060020a039092169190911790556122a1806100506000396000f3006080604052600436106100535763ffffffff60e060020a6000350416637b5884c68114610058578063edcc45781461008e578063eea19a51146100c2578063f578c4bf14610214578063f6c3cdb514610285575b600080fd5b34801561006457600080fd5b5061007c600160a060020a036004351660243561029d565b60408051918252519081900360200190f35b34801561009a57600080fd5b506100a66004356102cd565b60408051600160a060020a039092168252519081900360200190f35b3480156100ce57600080fd5b5060408051602060046024803582810135601f8101859004850286018501909652858552610212958335600160a060020a031695369560449491939091019190819084018382808284375050604080516020601f89358b018035918201839004830284018301909452808352979a999881019791965091820194509250829150840183828082843750506040805187358901803560208181028481018201909552818452989b9a998901989297509082019550935083925085019084908082843750506040805187358901803560208181028481018201909552818452989b9a998901989297509082019550935083925085019084908082843750506040805187358901803560208181028481018201909552818452989b9a9989019892975090820195509350839250850190849080828437509497506102e89650505050505050565b005b34801561022057600080fd5b50610235600160a060020a03600435166106ed565b60408051602080825283518183015283519192839290830191858101910280838360005b83811015610271578181015183820152602001610259565b505050509050019250505060405180910390f35b34801561029157600080fd5b506100a6600435610759565b6001602052816000526040600020818154811015156102b857fe5b90600052602060002001600091509150505481565b600090815260208190526040902054600160a060020a031690565b80516000906102fe906004906020850190610774565b506003546004805460018101825560008290527f8a35acfbc15ff81a39ae7d344fd709f28e8600b4aa8c65c6b64bfe7fe36bd19b01805473ffffffffffffffffffffffffffffffffffffffff1916600160a060020a0390931692909217909155879087908790879087906103706107e6565b8087600160a060020a0316600160a060020a03168152602001806020018060200180602001806020018060200186810386528b818151815260200191508051906020019080838360005b838110156103d25781810151838201526020016103ba565b50505050905090810190601f1680156103ff5780820380516001836020036101000a031916815260200191505b5086810385528a5181528a516020918201918c019080838360005b8381101561043257818101518382015260200161041a565b50505050905090810190601f16801561045f5780820380516001836020036101000a031916815260200191505b508681038452895181528951602091820191808c01910280838360005b8381101561049457818101518382015260200161047c565b50505050905001868103835288818151815260200191508051906020019060200280838360005b838110156104d35781810151838201526020016104bb565b50505050905001868103825287818154815260200191508054801561052157602002820191906000526020600020905b8154600160a060020a03168152600190910190602001808311610503575b50509b505050505050505050505050604051809103906000f08015801561054c573d6000803e3d6000fd5b509050600160a060020a038116151561056457600080fd5b600354604080517f6465706c6f795472656528616464726573732c75696e743235362c616464726581527f7373290000000000000000000000000000000000000000000000000000000000602082015290519081900360230190208451600160a060020a039092169160e060020a909104908390869060049081106105e557fe5b602090810290910101516040805160e060020a63ffffffff8616028152600160a060020a0390931660048401526024830191909152306044830152516064808301926000929190829003018183875af192505050151561064457600080fd5b60028054600090815260208181526040808320805473ffffffffffffffffffffffffffffffffffffffff1916600160a060020a038781169182179092558554600190810196879055918d16808652828552838620805493840181558652948490209091019490945580519384529083019190915280517f8505622f9d94ce8a4501ce2a775fe2a8a79be175c72535341b10930d396d81ab9281900390910190a150505050505050565b600160a060020a03811660009081526001602090815260409182902080548351818402810184019094528084526060939283018282801561074d57602002820191906000526020600020905b815481526020019060010190808311610739575b50505050509050919050565b600060208190529081526040902054600160a060020a031681565b8280548282559060005260206000209081019282156107d6579160200282015b828111156107d6578251825473ffffffffffffffffffffffffffffffffffffffff1916600160a060020a03909116178255602090920191600190910190610794565b506107e29291506107f6565b5090565b604051611a4b8061082b83390190565b61082791905b808211156107e257805473ffffffffffffffffffffffffffffffffffffffff191681556001016107fc565b90560060c0604052600460808190527f48302e310000000000000000000000000000000000000000000000000000000060a09081526200004091600691906200028f565b503480156200004e57600080fd5b5060405162001a4b38038062001a4b83398101604090815281516020830151918301516060840151608085015160a08601519186018051949695860195938401949093918201929091019083906000908110620000a757fe5b9060200190602002015185836007815181101515620000c257fe5b6020908102909101810151600160a060020a038a16600090815260018352604081208590558490558251909188918b9162000103916003918701906200028f565b506004805460ff191660ff85161790558151620001289060059060208501906200028f565b505060078054600160a060020a031916600160a060020a038c16179055505083518492506000915081106200015957fe5b602090810290910101516009558251839060019081106200017657fe5b60209081029091018101513060009081526001928390526040812091909155600a5582518391908110620001a657fe5b60209081029091010151600c55815182906002908110620001c357fe5b60209081029091010151600d55815182906003908110620001e057fe5b60209081029091010151600e55815182906004908110620001fd57fe5b602090810290910101516011558151829060059081106200021a57fe5b602090810290910101516012558151829060069081106200023757fe5b602090810290910181015160145581516200025991601b919084019062000314565b5082516200026f90601c9060208601906200037a565b505060138054600160a060020a0319163317905550620003fe9350505050565b828054600181600116156101000203166002900490600052602060002090601f016020900481019282601f10620002d257805160ff191683800117855562000302565b8280016001018555821562000302579182015b8281111562000302578251825591602001919060010190620002e5565b5062000310929150620003b7565b5090565b8280548282559060005260206000209081019282156200036c579160200282015b828111156200036c5782518254600160a060020a031916600160a060020a0390911617825560209092019160019091019062000335565b5062000310929150620003d7565b82805482825590600052602060002090810192821562000302579160200282018281111562000302578251825591602001919060010190620002e5565b620003d491905b80821115620003105760008155600101620003be565b90565b620003d491905b8082111562000310578054600160a060020a0319168155600101620003de565b61163d806200040e6000396000f3006080604052600436106101665763ffffffff60e060020a60003504166306fdde03811461016b578063091e9a60146101f5578063095ea7b31461021157806317727a001461023557806318160ddd1461024c5780631a8ebbf81461027357806323b872dd14610288578063244a39af146102b25780632f6301a4146102c7578063313ce567146102df5780633696a8171461030a578063410213e2146103225780634791abe11461035357806354fd4d50146103745780635b614794146103895780635f5fd2e2146103aa57806365ab841d146103bf57806370a08231146103d45780637d3d6522146103f557806395d89b411461040a5780639f7aee821461041f578063a9059cbb14610440578063c588953e14610464578063cae9ca5114610479578063cc01ca72146104e2578063cde9f2ea1461051b578063dd62ed3e14610530578063ebfdd32d14610557578063ee204abb1461056f578063fc6dc17d14610590575b600080fd5b34801561017757600080fd5b506101806105b1565b6040805160208082528351818301528351919283929083019185019080838360005b838110156101ba5781810151838201526020016101a2565b50505050905090810190601f1680156101e75780820380516001836020036101000a031916815260200191505b509250505060405180910390f35b6101fd61063f565b604080519115158252519081900360200190f35b34801561021d57600080fd5b506101fd600160a060020a0360043516602435610a49565b34801561024157600080fd5b5061024a610aaf565b005b34801561025857600080fd5b50610261610b25565b60408051918252519081900360200190f35b34801561027f57600080fd5b5061024a610b2b565b34801561029457600080fd5b506101fd600160a060020a0360043581169060243516604435610b91565b3480156102be57600080fd5b506101fd610c6f565b3480156102d357600080fd5b5061024a600435610c8b565b3480156102eb57600080fd5b506102f4610cf0565b6040805160ff9092168252519081900360200190f35b34801561031657600080fd5b5061024a600435610cf9565b34801561032e57600080fd5b50610337610d33565b60408051600160a060020a039092168252519081900360200190f35b34801561035f57600080fd5b506101fd600160a060020a0360043516610d42565b34801561038057600080fd5b50610180610ddd565b34801561039557600080fd5b5061024a600160a060020a0360043516610e38565b3480156103b657600080fd5b5061024a610e99565b3480156103cb57600080fd5b506101fd610fdc565b3480156103e057600080fd5b50610261600160a060020a036004351661100e565b34801561040157600080fd5b506101fd611029565b34801561041657600080fd5b50610180611034565b34801561042b57600080fd5b506101fd600160a060020a036004351661108f565b34801561044c57600080fd5b506101fd600160a060020a036004351660243561112a565b34801561047057600080fd5b506102616111b4565b34801561048557600080fd5b50604080516020600460443581810135601f81018490048402850184019095528484526101fd948235600160a060020a03169460248035953695946064949201919081908401838280828437509497506111ba9650505050505050565b3480156104ee57600080fd5b506104fd600435602435611355565b60408051938452602084019290925282820152519081900360600190f35b34801561052757600080fd5b50610261611457565b34801561053c57600080fd5b50610261600160a060020a036004358116906024351661145d565b34801561056357600080fd5b50610261600435611488565b34801561057b57600080fd5b50610261600160a060020a03600435166114b4565b34801561059c57600080fd5b506101fd600160a060020a03600435166114d2565b6003805460408051602060026001851615610100026000190190941693909304601f810184900484028201840190925281815292918301828280156106375780601f1061060c57610100808354040283529160200191610637565b820191906000526020600020905b81548152906001019060200180831161061a57829003601f168201915b505050505081565b33600090815260016020526040812054819081908190151561072557608060405190810160405280600b548152602001600081526020016040805190810160405280600981526020017f416e6f6e796d6f757300000000000000000000000000000000000000000000008152508152602001600060048111156106be57fe5b9052336000908152601e6020908152604091829020835181558382015160018201559183015180516106f69260028501920190611579565b50606082015160038201805460ff1916600183600481111561071457fe5b021790555050600b80546001019055505b600d54600e5403600d5442036402540be4000281151561074157fe5b049250600954600854600a0281151561075657fe5b046012540283601154020167028f5c28f5c28f60026000190291506014543481151561077e57fe5b3060009081526001602052604090208054929091049091039055601454348115156107a557fe5b3360009081526001602090815260409182902080549490930490930190915580517fe46751e30000000000000000000000000000000000000000000000000000000081526004810185905290516801000000000000000092349273__Math__________________________________9263e46751e392602480840193919291829003018186803b15801561083857600080fd5b505af415801561084c573d6000803e3d6000fd5b505050506040513d602081101561086257600080fd5b50510281151561086e57fe5b336000908152601e602052604090206001018054929091049182019055600954600854919250111561095b57601054604080517f595b59d70000000000000000000000000000000000000000000000000000000081526015600482015233602482015260448101849052600160a060020a0390921660648301525173__CoinQueueLib2_________________________9163595b59d7916084808301926020929190829003018186803b15801561092457600080fd5b505af4158015610938573d6000803e3d6000fd5b505050506040513d602081101561094e57600080fd5b5051151561095b57600080fd5b610963611029565b15610a2b57601060009054906101000a9004600160a060020a0316600160a060020a031660405180807f536574476f616c526561636865642829000000000000000000000000000000008152506010019050604051809103902060e060020a90046040518163ffffffff1660e060020a0281526004016000604051808303816000875af19250505015156109f657600080fd5b604080516001815290517f1e61fe9a90d23ee89cf23cb1f66c1188b68372e59b6ad3470f3b26b564e966779181900360200190a15b6008805434908101909155610a3f90610cf9565b6001935050505090565b336000818152600260209081526040808320600160a060020a038716808552908352818420869055815186815291519394909390927f8c5be1e5ebec7d5bd14f71427d1e84f3dd0314c0f7b2291e5b200ac8c7c3b925928290030190a350600192915050565b610ab7611029565b8015610ac45750600e5442115b1515610acf57600080fd5b600754600160a060020a03163314610ae657600080fd5b600754600854604051600160a060020a039092169181156108fc0291906000818181858888f19350505050158015610b22573d6000803e3d6000fd5b50565b60005481565b60025b601b54811015610b2257601c805482908110610b4657fe5b906000526020600020015460016000601b84815481101515610b6457fe5b6000918252602080832090910154600160a060020a03168352820192909252604001902055600101610b2e565b600160a060020a0383166000908152600160205260408120548211801590610bdc5750600160a060020a03841660009081526002602090815260408083203384529091529020548211155b1515610be757600080fd5b600160a060020a03808416600081815260016020908152604080832080548801905593881680835284832080548890039055600282528483203384528252918490208054879003905583518681529351929391927fddf252ad1be2c89b69c2b068fc378daa952ba7f163c4a11628f55a4df523b3ef9281900390910190a35060019392505050565b6000600954600854108015610c855750600e5442115b90505b90565b610c93611029565b8015610ca05750600e5442115b1515610cab57600080fd5b601054600160a060020a03163314610cc257600080fd5b610cca610fdc565b1515610cd557600080fd5b6000908152601d60205260409020805460ff19166001179055565b60045460ff1681565b6000600762015180600d544203811515610d0f57fe5b04811515610d1957fe5b046000908152601f60205260409020805490920190915550565b601054600160a060020a031681565b60006001600160a060020a0383166000908152601e602052604090206003015460ff166004811115610d7057fe5b14610d7a57600080fd5b600160a060020a0382166000908152601e6020908152604091829020600301805460ff19166002179055815133815291517f5da801b6e57bde18d536d5e32ef866b5fdd927d80101ed20524c269550edf1c79281900390910190a1506001919050565b6006805460408051602060026001851615610100026000190190941693909304601f810184900484028201840190925281815292918301828280156106375780601f1061060c57610100808354040283529160200191610637565b601b80546000198101908110610e4a57fe5b600091825260209091200154600160a060020a03163314610e6a57600080fd5b6010805473ffffffffffffffffffffffffffffffffffffffff1916600160a060020a0392909216919091179055565b6000610ea3611029565b8015610eb05750600e5442115b1515610ebb57600080fd5b50336000818152600160209081526040808320805493905560105481517f1189dab300000000000000000000000000000000000000000000000000000000815260156004820152602481019590955260448501849052600160a060020a0316606485015251919273__CoinQueueLib2_________________________92631189dab392608480840193919291829003018186803b158015610f5b57600080fd5b505af4158015610f6f573d6000803e3d6000fd5b505050506040513d6020811015610f8557600080fd5b50511515610f9257600080fd5b33600160a060020a03166108fc60085483811515610fac57fe5b049081150290604051600060405180830381858888f19350505050158015610fd8573d6000803e3d6000fd5b5050565b6000610fe6611029565b8015610ff35750600e5442115b1515610ffe57600080fd5b50600a8054600190810190915590565b600160a060020a031660009081526001602052604090205490565b600954600854101590565b6005805460408051602060026001851615610100026000190190941693909304601f810184900484028201840190925281815292918301828280156106375780601f1061060c57610100808354040283529160200191610637565b60006003600160a060020a0383166000908152601e602052604090206003015460ff1660048111156110bd57fe5b146110c757600080fd5b600160a060020a0382166000818152601e6020908152604091829020600301805460ff19166004179055815192835290517f2ede3ac351c71eef2c08079e7a98ae331342822768bb2ec7818b11a8e87cd1839281900390910190a1506001919050565b3360009081526001602052604081205482111561114657600080fd5b33600081815260016020908152604080832080548790039055600160a060020a03871680845292819020805487019055805186815290519293927fddf252ad1be2c89b69c2b068fc378daa952ba7f163c4a11628f55a4df523b3ef929181900390910190a350600192915050565b600e5481565b336000818152600260209081526040808320600160a060020a038816808552908352818420879055815187815291519394909390927f8c5be1e5ebec7d5bd14f71427d1e84f3dd0314c0f7b2291e5b200ac8c7c3b925928290030190a383600160a060020a031660405180807f72656365697665417070726f76616c28616464726573732c75696e743235362c81526020017f616464726573732c627974657329000000000000000000000000000000000000815250602e019050604051809103902060e060020a9004338530866040518563ffffffff1660e060020a0281526004018085600160a060020a0316600160a060020a0316815260200184815260200183600160a060020a0316600160a060020a03168152602001828051906020019080838360005b838110156112fa5781810151838201526020016112e2565b50505050905090810190601f1680156113275780820380516001836020036101000a031916815260200191505b509450505050506000604051808303816000875af192505050151561134b57600080fd5b5060019392505050565b600080600080600080600d54600e5403600d5442036402540be40002890281151561137c57fe5b049250600954600854600a0281151561139157fe5b0487028389020167028f5c28f5c28f6002600019029150680100000000000000008273__Math__________________________________63e46751e390916040518263ffffffff1660e060020a0281526004018082815260200191505060206040518083038186803b15801561140657600080fd5b505af415801561141a573d6000803e3d6000fd5b505050506040513d602081101561143057600080fd5b5051670de0b6b3a76400000281151561144557fe5b92999398509091049550909350505050565b600d5481565b600160a060020a03918216600090815260026020908152604080832093909416825291909152205490565b6000818152601f602052604081205481600782049150816009548115156114ab57fe5b04949350505050565b600160a060020a03166000908152601e602052604090206001015490565b60006002600160a060020a0383166000908152601e602052604090206003015460ff16600481111561150057fe5b1461150a57600080fd5b600160a060020a0382166000908152601e602052604090206003908101805460ff1916600183021790555060408051600160a060020a038416815290517f1fc44c2b44927a36b98c2262da2b66a43bf6395e97a25719577b1bbfa7f279d49181900360200190a1506001919050565b828054600181600116156101000203166002900490600052602060002090601f016020900481019282601f106115ba57805160ff19168380011785556115e7565b828001600101855582156115e7579182015b828111156115e75782518255916020019190600101906115cc565b506115f39291506115f7565b5090565b610c8891905b808211156115f357600081556001016115fd5600a165627a7a72305820fcf8762e6bef79e81cc79fa2d2cb23fd70ddd8f5a0593745071a52722bb7b6ec0029a165627a7a72305820dbfd4319ceb433b1567a6f93a7400c6bdad5b66a499c04af76f3b7769e6a727c0029",
  "source": "pragma solidity ^0.4.15;\n\nimport \"./Coin.sol\";\n\n\n\ncontract CoinDeployer{\n\nmapping(uint=>address) public deployedAddresses;\nmapping(address=>uint[] )public  CoinIDs;\nuint CoinID;\naddress TreeDeploy;\naddress[] _PartnerArray;\nuint[] _NumParams;\nevent CoinCreation(address C,address author);\nconstructor(address _tree){\nTreeDeploy =_tree;\n}\nfunction deployCoin(\n   address _authorAddress,\n   \n\n   string _tokenName,\n   \n   string _tokenSymbol,\n   uint[] PartnerShares,\n   uint[] _NumParams,\n   address[] PartnerArray\n  \n   ){\n   _PartnerArray=PartnerArray;\n   _PartnerArray.push(TreeDeploy);\n    Coin c= new Coin(_authorAddress,_tokenName,_tokenSymbol,PartnerShares,_NumParams,_PartnerArray);\n    if(address(c)==address(0)) revert();\n\n if(!TreeDeploy.call(bytes4(sha3('deployTree(address,uint256,address)')),address(c),_NumParams[4],address(this))) revert();\n  deployedAddresses[CoinID]=address(c);\n  CoinID+=1;\n  CoinIDs[_authorAddress].push(CoinID);\n emit CoinCreation(address(c),_authorAddress);\n}\n\nfunction getCoinLocation(uint coin) constant returns(address){\n  return deployedAddresses[coin];\n}\nfunction myCoins(address a) constant returns(uint[]){\n  return CoinIDs[a];\n}\n\n\n\n\n\n\n}\n",
  "sourcePath": "/home/john/OE/OpenEquity/contracts/CoinDeployer.sol",
  "compiler": {
    "name": "solc",
    "version": "0.4.24+commit.e67f0147.Emscripten.clang"
  },
  "schemaVersion": "3.0.5",
  "updatedAt": "2019-03-27T18:54:57.566Z",
  "devdoc": {
    "methods": {}
  },
  "userdoc": {
    "methods": {}
  }
}