{
  "contractName": "CoinQueueLib2",
  "abi": [
    {
      "constant": false,
      "inputs": [
        {
          "name": "queue",
          "type": "CoinQueueLib2.CoinQueue storage"
        },
        {
          "name": "customer",
          "type": "address"
        },
        {
          "name": "value",
          "type": "uint256"
        },
        {
          "name": "StatisticsTree",
          "type": "address"
        }
      ],
      "name": "insertcustomer",
      "outputs": [
        {
          "name": "",
          "type": "bool"
        }
      ],
      "payable": false,
      "stateMutability": "nonpayable",
      "type": "function",
      "signature": "0x595b59d7"
    },
    {
      "constant": false,
      "inputs": [
        {
          "name": "queue",
          "type": "CoinQueueLib2.CoinQueue storage"
        },
        {
          "name": "customer",
          "type": "address"
        },
        {
          "name": "value",
          "type": "uint256"
        },
        {
          "name": "StatisticsTree",
          "type": "address"
        }
      ],
      "name": "customerWithdraw",
      "outputs": [
        {
          "name": "",
          "type": "bool"
        }
      ],
      "payable": false,
      "stateMutability": "nonpayable",
      "type": "function",
      "signature": "0x1189dab3"
    },
    {
      "constant": false,
      "inputs": [
        {
          "name": "c",
          "type": "address"
        },
        {
          "name": "value",
          "type": "uint256"
        }
      ],
      "name": "CallInsert",
      "outputs": [],
      "payable": false,
      "stateMutability": "nonpayable",
      "type": "function",
      "signature": "0xf6e44b13"
    },
    {
      "constant": false,
      "inputs": [
        {
          "name": "c",
          "type": "address"
        },
        {
          "name": "value",
          "type": "uint256"
        }
      ],
      "name": "CallRemove",
      "outputs": [],
      "payable": false,
      "stateMutability": "nonpayable",
      "type": "function",
      "signature": "0x5ca3b3a5"
    }
  ],
  "bytecode": "0x610320610030600b82828239805160001a6073146000811461002057610022565bfe5b5030600052607381538281f300730000000000000000000000000000000000000000301460806040526004361061005f5763ffffffff60e060020a6000350416631189dab38114610064578063595b59d7146100a65780635ca3b3a5146100d4578063f6e44b13146100fa575b600080fd5b81801561007057600080fd5b50610092600435600160a060020a03602435811690604435906064351661011e565b604080519115158252519081900360200190f35b8180156100b257600080fd5b50610092600435600160a060020a036024358116906044359060643516610163565b8180156100e057600080fd5b506100f8600160a060020a03600435166024356101e8565b005b81801561010657600080fd5b506100f8600160a060020a0360043516602435610270565b600160a060020a038316600090815260018501602052604081208054848103918290559061014c84836101e8565b6101568482610270565b5060019695505050505050565b600160a060020a03831660009081526001850160205260408120548190819015156101945760058701805460010190555b600160a060020a03861660009081526001880160205260409020805486810190915591506101c284836101e8565b50600160a060020a03851660009081526001870160205260409020546101568482610270565b81600160a060020a031660405180807f72656d6f76652875696e74323536290000000000000000000000000000000000815250600f019050604051809103902060e060020a9004826040518263ffffffff1660e060020a028152600401808281526020019150506000604051808303816000875af192505050151561026c57600080fd5b5050565b81600160a060020a031660405180807f696e736572742875696e74323536290000000000000000000000000000000000815250600f019050604051809103902060e060020a9004826040518263ffffffff1660e060020a028152600401808281526020019150506000604051808303816000875af192505050151561026c57600080fd00a165627a7a723058200570acb2c3076a6628c668caf4c0786bb428c5aa6e3a535af71044fcb13b3a320029",
  "source": "library CoinQueueLib2 {\n  //using OrderedStatisticTree for OrderedStatisticTree.Index;\n\n  struct CoinQueue {\n\n  \t\t//bytes32 id;\n\n   \t  mapping(address=>uint) insertOrder;\n\t    mapping(address=>uint) customerBalance;\n\t    mapping(uint=>address) balanceTocustomer;\n  //  mapping(address=>uint) positions;\n      uint greatestCustomerPurchase;\n      address firstInLine;\n\t    uint numbercustomers;\n\n\t}\n\tfunction createQueue()\n    internal\n    returns (CoinQueue)\n  {\n    return CoinQueue({\n      numbercustomers:0,firstInLine:0x3,greatestCustomerPurchase:0\n\n          });\n  }\n\n\n\n\n\tfunction insertcustomer(CoinQueue storage queue,address customer,uint value,address StatisticsTree) returns (bool){\n    \tif(queue.customerBalance[customer]==0){\n    \t  queue.numbercustomers+=1;\n \t\t }\n\t    uint prevBalance=queue.customerBalance[customer];\n\t    queue.customerBalance[customer]+=value;\n\t  // customerValues.remove(prevBalance);\n      CallRemove(StatisticsTree,prevBalance);\n      uint temp=queue.customerBalance[customer];\n\t    CallInsert(StatisticsTree,temp);\n\t  // positions[customer]=customerValues.rank(value);\n\n        return true;\n}\n  function customerWithdraw(CoinQueue storage queue,address customer, uint value,address StatisticsTree) returns(bool){\n       uint prevBalance=queue.customerBalance[customer];\n       queue.customerBalance[customer]-=value;\n       uint temp=queue.customerBalance[customer];\n       CallRemove(StatisticsTree,prevBalance);\n       CallInsert(StatisticsTree,temp);\n       //positions[customer]=customerValues.rank(value);\n       return true;\n\t\t }\n\t\t function CallInsert(address c,uint value){\n\t\t\t if(!c.call(bytes4(keccak256(\"insert(uint256)\")),value )) revert();\n\t\t }\n\t\t function CallRemove(address c,uint value){\n\t \t\tif(!c.call(bytes4(keccak256(\"remove(uint256)\")),value )) revert();\n\t \t}\n\n}\n",
  "sourcePath": "/home/john/OE/OpenEquity/contracts/CoinQueueLib2.sol",
  "compiler": {
    "name": "solc",
    "version": "0.4.24+commit.e67f0147.Emscripten.clang"
  },
  "schemaVersion": "3.0.5",
  "updatedAt": "2019-03-27T18:54:57.564Z",
  "devdoc": {
    "methods": {}
  },
  "userdoc": {
    "methods": {}
  }
}