{
  "contractName": "CoinDeployer",
  "abi": [
    {
      "inputs": [
        {
          "name": "_tree",
          "type": "address"
        }
      ],
      "payable": false,
      "stateMutability": "nonpayable",
      "type": "constructor"
    },
    {
      "constant": false,
      "inputs": [
        {
          "name": "_authorAddress",
          "type": "address"
        },
        {
          "name": "_customershipStake",
          "type": "uint256"
        },
        {
          "name": "_goal",
          "type": "uint256"
        },
        {
          "name": "_eligibleCount",
          "type": "uint256"
        },
        {
          "name": "_initialAmount",
          "type": "uint256"
        },
        {
          "name": "_tokenName",
          "type": "string"
        },
        {
          "name": "_decimalUnits",
          "type": "uint8"
        },
        {
          "name": "_startdate",
          "type": "uint256"
        },
        {
          "name": "_enddate",
          "type": "uint256"
        },
        {
          "name": "_tokenSymbol",
          "type": "string"
        },
        {
          "name": "_weightCoefficient",
          "type": "uint256"
        },
        {
          "name": "_weightCoefficient2",
          "type": "uint256"
        },
        {
          "name": "id",
          "type": "uint256"
        }
      ],
      "name": "deployCoin",
      "outputs": [],
      "payable": false,
      "stateMutability": "nonpayable",
      "type": "function"
    },
    {
      "constant": true,
      "inputs": [
        {
          "name": "coin",
          "type": "uint256"
        }
      ],
      "name": "getCoinLocation",
      "outputs": [
        {
          "name": "",
          "type": "address"
        }
      ],
      "payable": false,
      "stateMutability": "view",
      "type": "function"
    },
    {
      "constant": false,
      "inputs": [
        {
          "name": "_coin",
          "type": "address"
        }
      ],
      "name": "setTreeInCoin",
      "outputs": [],
      "payable": false,
      "stateMutability": "nonpayable",
      "type": "function"
    }
  ],
  "bytecode": "0x608060405234801561001057600080fd5b50604051602080612efe8339810180604052810190808051906020019092919050505080600160006101000a81548173ffffffffffffffffffffffffffffffffffffffff021916908373ffffffffffffffffffffffffffffffffffffffff16021790555050612e7a806100846000396000f300608060405260043610610057576000357c0100000000000000000000000000000000000000000000000000000000900463ffffffff168063356007f81461005c578063edcc457814610192578063eed09774146101ff575b600080fd5b34801561006857600080fd5b50610190600480360381019080803573ffffffffffffffffffffffffffffffffffffffff16906020019092919080359060200190929190803590602001909291908035906020019092919080359060200190929190803590602001908201803590602001908080601f0160208091040260200160405190810160405280939291908181526020018383808284378201915050505050509192919290803560ff1690602001909291908035906020019092919080359060200190929190803590602001908201803590602001908080601f0160208091040260200160405190810160405280939291908181526020018383808284378201915050505050509192919290803590602001909291908035906020019092919080359060200190929190505050610242565b005b34801561019e57600080fd5b506101bd60048036038101908080359060200190929190505050610544565b604051808273ffffffffffffffffffffffffffffffffffffffff1673ffffffffffffffffffffffffffffffffffffffff16815260200191505060405180910390f35b34801561020b57600080fd5b50610240600480360381019080803573ffffffffffffffffffffffffffffffffffffffff169060200190929190505050610580565b005b60008d8d8d8d8d8d8d8d8d8d8d8d610258610692565b808d73ffffffffffffffffffffffffffffffffffffffff1673ffffffffffffffffffffffffffffffffffffffff1681526020018c81526020018b81526020018a8152602001898152602001806020018860ff1660ff1681526020018781526020018681526020018060200185815260200184815260200183810383528a818151815260200191508051906020019080838360005b838110156103075780820151818401526020810190506102ec565b50505050905090810190601f1680156103345780820380516001836020036101000a031916815260200191505b50838103825286818151815260200191508051906020019080838360005b8381101561036d578082015181840152602081019050610352565b50505050905090810190601f16801561039a5780820380516001836020036101000a031916815260200191505b509e505050505050505050505050505050604051809103906000f0801580156103c7573d6000803e3d6000fd5b509050600160009054906101000a900473ffffffffffffffffffffffffffffffffffffffff1673ffffffffffffffffffffffffffffffffffffffff1660405180807f6465706c6f795472656528616464726573732c75696e74323536290000000000815250601b01905060405180910390207c01000000000000000000000000000000000000000000000000000000009004828d6040518363ffffffff167c0100000000000000000000000000000000000000000000000000000000028152600401808373ffffffffffffffffffffffffffffffffffffffff1673ffffffffffffffffffffffffffffffffffffffff168152602001828152602001925050506000604051808303816000875af19250505015156104e357600080fd5b8060008084815260200190815260200160002060006101000a81548173ffffffffffffffffffffffffffffffffffffffff021916908373ffffffffffffffffffffffffffffffffffffffff1602179055505050505050505050505050505050565b600080600083815260200190815260200160002060009054906101000a900473ffffffffffffffffffffffffffffffffffffffff169050919050565b600160009054906101000a900473ffffffffffffffffffffffffffffffffffffffff1673ffffffffffffffffffffffffffffffffffffffff163373ffffffffffffffffffffffffffffffffffffffff161415156105dc57600080fd5b8073ffffffffffffffffffffffffffffffffffffffff16635b614794826040518263ffffffff167c0100000000000000000000000000000000000000000000000000000000028152600401808273ffffffffffffffffffffffffffffffffffffffff1673ffffffffffffffffffffffffffffffffffffffff168152602001915050600060405180830381600087803b15801561067757600080fd5b505af115801561068b573d6000803e3d6000fd5b5050505050565b6040516127ac806106a383390190560060806040526040805190810160405280600481526020017f48302e3100000000000000000000000000000000000000000000000000000000815250600690805190602001906200005192919062000262565b503480156200005f57600080fd5b50604051620027ac380380620027ac8339810180604052810190808051906020019092919080519060200190929190805190602001909291908051906020019092919080519060200190929190805182019291906020018051906020019092919080519060200190929190805190602001909291908051820192919060200180519060200190929190805190602001909291905050508787878583600160003373ffffffffffffffffffffffffffffffffffffffff1673ffffffffffffffffffffffffffffffffffffffff168152602001908152602001600020819055508360008190555082600390805190602001906200015c92919062000262565b5081600460006101000a81548160ff021916908360ff16021790555080600590805190602001906200019092919062000262565b50505050508b600760006101000a81548173ffffffffffffffffffffffffffffffffffffffff021916908373ffffffffffffffffffffffffffffffffffffffff1602179055508a60088190555089600a8190555088600d819055506000600b8190555084600e8190555083600f81905550816012819055508060138190555033601460006101000a81548173ffffffffffffffffffffffffffffffffffffffff021916908373ffffffffffffffffffffffffffffffffffffffff16021790555050505050505050505050505062000311565b828054600181600116156101000203166002900490600052602060002090601f016020900481019282601f10620002a557805160ff1916838001178555620002d6565b82800160010185558215620002d6579182015b82811115620002d5578251825591602001919060010190620002b8565b5b509050620002e59190620002e9565b5090565b6200030e91905b808211156200030a576000816000905550600101620002f0565b5090565b90565b61248b80620003216000396000f30060806040526004361061016a576000357c0100000000000000000000000000000000000000000000000000000000900463ffffffff16806306fdde031461016f578063091e9a60146101ff578063095ea7b31461022157806317727a001461028657806318160ddd1461029d57806323b872dd146102c8578063244a39af1461034d5780632f6301a41461037c578063313ce567146103a95780633696a817146103da578063410213e2146104075780634791abe11461045e57806354fd4d50146104b95780635b614794146105495780635f5fd2e21461058c57806365ab841d146105a357806370a08231146105d25780637d3d65221461062957806395d89b41146106585780639f7aee82146106e8578063a9059cbb14610743578063c588953e146107a8578063cae9ca51146107d3578063cde9f2ea1461087e578063dd62ed3e146108a9578063ebfdd32d14610920578063ee204abb14610961578063fc6dc17d146109b8575b600080fd5b34801561017b57600080fd5b50610184610a13565b6040518080602001828103825283818151815260200191508051906020019080838360005b838110156101c45780820151818401526020810190506101a9565b50505050905090810190601f1680156101f15780820380516001836020036101000a031916815260200191505b509250505060405180910390f35b610207610ab1565b604051808215151515815260200191505060405180910390f35b34801561022d57600080fd5b5061026c600480360381019080803573ffffffffffffffffffffffffffffffffffffffff16906020019092919080359060200190929190505050611073565b604051808215151515815260200191505060405180910390f35b34801561029257600080fd5b5061029b611165565b005b3480156102a957600080fd5b506102b261124e565b6040518082815260200191505060405180910390f35b3480156102d457600080fd5b50610333600480360381019080803573ffffffffffffffffffffffffffffffffffffffff169060200190929190803573ffffffffffffffffffffffffffffffffffffffff16906020019092919080359060200190929190505050611254565b604051808215151515815260200191505060405180910390f35b34801561035957600080fd5b506103626114c0565b604051808215151515815260200191505060405180910390f35b34801561038857600080fd5b506103a7600480360381019080803590602001909291905050506114db565b005b3480156103b557600080fd5b506103be611599565b604051808260ff1660ff16815260200191505060405180910390f35b3480156103e657600080fd5b50610405600480360381019080803590602001909291905050506115ac565b005b34801561041357600080fd5b5061041c6115f4565b604051808273ffffffffffffffffffffffffffffffffffffffff1673ffffffffffffffffffffffffffffffffffffffff16815260200191505060405180910390f35b34801561046a57600080fd5b5061049f600480360381019080803573ffffffffffffffffffffffffffffffffffffffff16906020019092919050505061161a565b604051808215151515815260200191505060405180910390f35b3480156104c557600080fd5b506104ce611760565b6040518080602001828103825283818151815260200191508051906020019080838360005b8381101561050e5780820151818401526020810190506104f3565b50505050905090810190601f16801561053b5780820380516001836020036101000a031916815260200191505b509250505060405180910390f35b34801561055557600080fd5b5061058a600480360381019080803573ffffffffffffffffffffffffffffffffffffffff1690602001909291905050506117fe565b005b34801561059857600080fd5b506105a161189e565b005b3480156105af57600080fd5b506105b8611ae4565b604051808215151515815260200191505060405180910390f35b3480156105de57600080fd5b50610613600480360381019080803573ffffffffffffffffffffffffffffffffffffffff169060200190929190505050611b1f565b6040518082815260200191505060405180910390f35b34801561063557600080fd5b5061063e611b68565b604051808215151515815260200191505060405180910390f35b34801561066457600080fd5b5061066d611b77565b6040518080602001828103825283818151815260200191508051906020019080838360005b838110156106ad578082015181840152602081019050610692565b50505050905090810190601f1680156106da5780820380516001836020036101000a031916815260200191505b509250505060405180910390f35b3480156106f457600080fd5b50610729600480360381019080803573ffffffffffffffffffffffffffffffffffffffff169060200190929190505050611c15565b604051808215151515815260200191505060405180910390f35b34801561074f57600080fd5b5061078e600480360381019080803573ffffffffffffffffffffffffffffffffffffffff16906020019092919080359060200190929190505050611d5b565b604051808215151515815260200191505060405180910390f35b3480156107b457600080fd5b506107bd611eb4565b6040518082815260200191505060405180910390f35b3480156107df57600080fd5b50610864600480360381019080803573ffffffffffffffffffffffffffffffffffffffff16906020019092919080359060200190929190803590602001908201803590602001908080601f0160208091040260200160405190810160405280939291908181526020018383808284378201915050505050509192919290505050611eba565b604051808215151515815260200191505060405180910390f35b34801561088a57600080fd5b50610893612157565b6040518082815260200191505060405180910390f35b3480156108b557600080fd5b5061090a600480360381019080803573ffffffffffffffffffffffffffffffffffffffff169060200190929190803573ffffffffffffffffffffffffffffffffffffffff16906020019092919050505061215d565b6040518082815260200191505060405180910390f35b34801561092c57600080fd5b5061094b600480360381019080803590602001909291905050506121e4565b6040518082815260200191505060405180910390f35b34801561096d57600080fd5b506109a2600480360381019080803573ffffffffffffffffffffffffffffffffffffffff169060200190929190505050612228565b6040518082815260200191505060405180910390f35b3480156109c457600080fd5b506109f9600480360381019080803573ffffffffffffffffffffffffffffffffffffffff169060200190929190505050612274565b604051808215151515815260200191505060405180910390f35b60038054600181600116156101000203166002900480601f016020809104026020016040519081016040528092919081815260200182805460018160011615610100020316600290048015610aa95780601f10610a7e57610100808354040283529160200191610aa9565b820191906000526020600020905b815481529060010190602001808311610a8c57829003601f168201915b505050505081565b6000806000806000600160003373ffffffffffffffffffffffffffffffffffffffff1673ffffffffffffffffffffffffffffffffffffffff168152602001908152602001600020541415610c1457608060405190810160405280600c548152602001600081526020016040805190810160405280600981526020017f416e6f6e796d6f75730000000000000000000000000000000000000000000000815250815260200160006004811115610b6257fe5b815250601c60003373ffffffffffffffffffffffffffffffffffffffff1673ffffffffffffffffffffffffffffffffffffffff16815260200190815260200160002060008201518160000155602082015181600101556040820151816002019080519060200190610bd49291906123ba565b5060608201518160030160006101000a81548160ff02191690836004811115610bf957fe5b0217905550905050600c600081548092919060010191905055505b600e54600f54036402540be400600e54420302811515610c3057fe5b049250600a54600954811515610c4257fe5b046013540283601254020168010000000000000000027fffffffffffffffffffffffffffffffffffffffffffffffffffffffffffffffff02915034600160003373ffffffffffffffffffffffffffffffffffffffff1673ffffffffffffffffffffffffffffffffffffffff1681526020019081526020016000206000828254019250508190555068010000000000000000348373__Math__________________________________63e46751e390916040518263ffffffff167c01000000000000000000000000000000000000000000000000000000000281526004018082815260200191505060206040518083038186803b158015610d4157600080fd5b505af4158015610d55573d6000803e3d6000fd5b505050506040513d6020811015610d6b57600080fd5b810190808051906020019092919050505002811515610d8657fe5b04905080601c60003373ffffffffffffffffffffffffffffffffffffffff1673ffffffffffffffffffffffffffffffffffffffff16815260200190815260200160002060010160008282540192505081905550600a546009541015610f2c57601573__CoinQueueLib2_________________________63595b59d790913384601160009054906101000a900473ffffffffffffffffffffffffffffffffffffffff166040518563ffffffff167c0100000000000000000000000000000000000000000000000000000000028152600401808581526020018473ffffffffffffffffffffffffffffffffffffffff1673ffffffffffffffffffffffffffffffffffffffff1681526020018381526020018273ffffffffffffffffffffffffffffffffffffffff1673ffffffffffffffffffffffffffffffffffffffff16815260200194505050505060206040518083038186803b158015610ee557600080fd5b505af4158015610ef9573d6000803e3d6000fd5b505050506040513d6020811015610f0f57600080fd5b81019080805190602001909291905050501515610f2b57600080fd5b5b610f34611b68565b1561105057601160009054906101000a900473ffffffffffffffffffffffffffffffffffffffff1673ffffffffffffffffffffffffffffffffffffffff1660405180807f536574476f616c52656163686564282900000000000000000000000000000000815250601001905060405180910390207c010000000000000000000000000000000000000000000000000000000090046040518163ffffffff167c01000000000000000000000000000000000000000000000000000000000281526004016000604051808303816000875af192505050151561101357600080fd5b7f1e61fe9a90d23ee89cf23cb1f66c1188b68372e59b6ad3470f3b26b564e966776001604051808215151515815260200191505060405180910390a15b34600960008282540192505081905550611069346115ac565b6001935050505090565b600081600260003373ffffffffffffffffffffffffffffffffffffffff1673ffffffffffffffffffffffffffffffffffffffff16815260200190815260200160002060008573ffffffffffffffffffffffffffffffffffffffff1673ffffffffffffffffffffffffffffffffffffffff168152602001908152602001600020819055508273ffffffffffffffffffffffffffffffffffffffff163373ffffffffffffffffffffffffffffffffffffffff167f8c5be1e5ebec7d5bd14f71427d1e84f3dd0314c0f7b2291e5b200ac8c7c3b925846040518082815260200191505060405180910390a36001905092915050565b61116d611b68565b801561117a5750600f5442115b151561118557600080fd5b600760009054906101000a900473ffffffffffffffffffffffffffffffffffffffff1673ffffffffffffffffffffffffffffffffffffffff163373ffffffffffffffffffffffffffffffffffffffff161415156111e157600080fd5b600760009054906101000a900473ffffffffffffffffffffffffffffffffffffffff1673ffffffffffffffffffffffffffffffffffffffff166108fc6009549081150290604051600060405180830381858888f1935050505015801561124b573d6000803e3d6000fd5b50565b60005481565b600081600160008673ffffffffffffffffffffffffffffffffffffffff1673ffffffffffffffffffffffffffffffffffffffff1681526020019081526020016000205410158015611321575081600260008673ffffffffffffffffffffffffffffffffffffffff1673ffffffffffffffffffffffffffffffffffffffff16815260200190815260200160002060003373ffffffffffffffffffffffffffffffffffffffff1673ffffffffffffffffffffffffffffffffffffffff1681526020019081526020016000205410155b151561132c57600080fd5b81600160008573ffffffffffffffffffffffffffffffffffffffff1673ffffffffffffffffffffffffffffffffffffffff1681526020019081526020016000206000828254019250508190555081600160008673ffffffffffffffffffffffffffffffffffffffff1673ffffffffffffffffffffffffffffffffffffffff1681526020019081526020016000206000828254039250508190555081600260008673ffffffffffffffffffffffffffffffffffffffff1673ffffffffffffffffffffffffffffffffffffffff16815260200190815260200160002060003373ffffffffffffffffffffffffffffffffffffffff1673ffffffffffffffffffffffffffffffffffffffff168152602001908152602001600020600082825403925050819055508273ffffffffffffffffffffffffffffffffffffffff168473ffffffffffffffffffffffffffffffffffffffff167fddf252ad1be2c89b69c2b068fc378daa952ba7f163c4a11628f55a4df523b3ef846040518082815260200191505060405180910390a3600190509392505050565b6000600a546009541080156114d65750600f5442115b905090565b6114e3611b68565b80156114f05750600f5442115b15156114fb57600080fd5b601160009054906101000a900473ffffffffffffffffffffffffffffffffffffffff1673ffffffffffffffffffffffffffffffffffffffff163373ffffffffffffffffffffffffffffffffffffffff1614151561155757600080fd5b61155f611ae4565b151561156a57600080fd5b6001601b600083815260200190815260200160002060006101000a81548160ff02191690831515021790555050565b600460009054906101000a900460ff1681565b6000600762015180600e5442038115156115c257fe5b048115156115cc57fe5b04905081601d6000838152602001908152602001600020600082825401925050819055505050565b601160009054906101000a900473ffffffffffffffffffffffffffffffffffffffff1681565b60006001600481111561162957fe5b601c60008473ffffffffffffffffffffffffffffffffffffffff1673ffffffffffffffffffffffffffffffffffffffff16815260200190815260200160002060030160009054906101000a900460ff16600481111561168457fe5b14151561169057600080fd5b6002601c60008473ffffffffffffffffffffffffffffffffffffffff1673ffffffffffffffffffffffffffffffffffffffff16815260200190815260200160002060030160006101000a81548160ff021916908360048111156116ef57fe5b02179055507f5da801b6e57bde18d536d5e32ef866b5fdd927d80101ed20524c269550edf1c733604051808273ffffffffffffffffffffffffffffffffffffffff1673ffffffffffffffffffffffffffffffffffffffff16815260200191505060405180910390a160019050919050565b60068054600181600116156101000203166002900480601f0160208091040260200160405190810160405280929190818152602001828054600181600116156101000203166002900480156117f65780601f106117cb576101008083540402835291602001916117f6565b820191906000526020600020905b8154815290600101906020018083116117d957829003601f168201915b505050505081565b600760009054906101000a900473ffffffffffffffffffffffffffffffffffffffff1673ffffffffffffffffffffffffffffffffffffffff163373ffffffffffffffffffffffffffffffffffffffff1614151561185a57600080fd5b80601160006101000a81548173ffffffffffffffffffffffffffffffffffffffff021916908373ffffffffffffffffffffffffffffffffffffffff16021790555050565b60006118a8611b68565b80156118b55750600f5442115b15156118c057600080fd5b600160003373ffffffffffffffffffffffffffffffffffffffff1673ffffffffffffffffffffffffffffffffffffffff1681526020019081526020016000205490506000600160003373ffffffffffffffffffffffffffffffffffffffff1673ffffffffffffffffffffffffffffffffffffffff16815260200190815260200160002081905550601573__CoinQueueLib2_________________________631189dab390913384601160009054906101000a900473ffffffffffffffffffffffffffffffffffffffff166040518563ffffffff167c0100000000000000000000000000000000000000000000000000000000028152600401808581526020018473ffffffffffffffffffffffffffffffffffffffff1673ffffffffffffffffffffffffffffffffffffffff1681526020018381526020018273ffffffffffffffffffffffffffffffffffffffff1673ffffffffffffffffffffffffffffffffffffffff16815260200194505050505060206040518083038186803b158015611a4757600080fd5b505af4158015611a5b573d6000803e3d6000fd5b505050506040513d6020811015611a7157600080fd5b81019080805190602001909291905050501515611a8d57600080fd5b3373ffffffffffffffffffffffffffffffffffffffff166108fc60095483811515611ab457fe5b049081150290604051600060405180830381858888f19350505050158015611ae0573d6000803e3d6000fd5b5050565b6000611aee611b68565b8015611afb5750600f5442115b1515611b0657600080fd5b600b600081548092919060010191905055506001905090565b6000600160008373ffffffffffffffffffffffffffffffffffffffff1673ffffffffffffffffffffffffffffffffffffffff168152602001908152602001600020549050919050565b6000600a546009541015905090565b60058054600181600116156101000203166002900480601f016020809104026020016040519081016040528092919081815260200182805460018160011615610100020316600290048015611c0d5780601f10611be257610100808354040283529160200191611c0d565b820191906000526020600020905b815481529060010190602001808311611bf057829003601f168201915b505050505081565b600060036004811115611c2457fe5b601c60008473ffffffffffffffffffffffffffffffffffffffff1673ffffffffffffffffffffffffffffffffffffffff16815260200190815260200160002060030160009054906101000a900460ff166004811115611c7f57fe5b141515611c8b57600080fd5b6004601c60008473ffffffffffffffffffffffffffffffffffffffff1673ffffffffffffffffffffffffffffffffffffffff16815260200190815260200160002060030160006101000a81548160ff02191690836004811115611cea57fe5b02179055507f2ede3ac351c71eef2c08079e7a98ae331342822768bb2ec7818b11a8e87cd18382604051808273ffffffffffffffffffffffffffffffffffffffff1673ffffffffffffffffffffffffffffffffffffffff16815260200191505060405180910390a160019050919050565b600081600160003373ffffffffffffffffffffffffffffffffffffffff1673ffffffffffffffffffffffffffffffffffffffff1681526020019081526020016000205410151515611dab57600080fd5b81600160003373ffffffffffffffffffffffffffffffffffffffff1673ffffffffffffffffffffffffffffffffffffffff1681526020019081526020016000206000828254039250508190555081600160008573ffffffffffffffffffffffffffffffffffffffff1673ffffffffffffffffffffffffffffffffffffffff168152602001908152602001600020600082825401925050819055508273ffffffffffffffffffffffffffffffffffffffff163373ffffffffffffffffffffffffffffffffffffffff167fddf252ad1be2c89b69c2b068fc378daa952ba7f163c4a11628f55a4df523b3ef846040518082815260200191505060405180910390a36001905092915050565b600f5481565b600082600260003373ffffffffffffffffffffffffffffffffffffffff1673ffffffffffffffffffffffffffffffffffffffff16815260200190815260200160002060008673ffffffffffffffffffffffffffffffffffffffff1673ffffffffffffffffffffffffffffffffffffffff168152602001908152602001600020819055508373ffffffffffffffffffffffffffffffffffffffff163373ffffffffffffffffffffffffffffffffffffffff167f8c5be1e5ebec7d5bd14f71427d1e84f3dd0314c0f7b2291e5b200ac8c7c3b925856040518082815260200191505060405180910390a38373ffffffffffffffffffffffffffffffffffffffff1660405180807f72656365697665417070726f76616c28616464726573732c75696e743235362c81526020017f616464726573732c627974657329000000000000000000000000000000000000815250602e01905060405180910390207c01000000000000000000000000000000000000000000000000000000009004338530866040518563ffffffff167c0100000000000000000000000000000000000000000000000000000000028152600401808573ffffffffffffffffffffffffffffffffffffffff1673ffffffffffffffffffffffffffffffffffffffff1681526020018481526020018373ffffffffffffffffffffffffffffffffffffffff1673ffffffffffffffffffffffffffffffffffffffff168152602001828051906020019080838360005b838110156120fb5780820151818401526020810190506120e0565b50505050905090810190601f1680156121285780820380516001836020036101000a031916815260200191505b509450505050506000604051808303816000875af192505050151561214c57600080fd5b600190509392505050565b600e5481565b6000600260008473ffffffffffffffffffffffffffffffffffffffff1673ffffffffffffffffffffffffffffffffffffffff16815260200190815260200160002060008373ffffffffffffffffffffffffffffffffffffffff1673ffffffffffffffffffffffffffffffffffffffff16815260200190815260200160002054905092915050565b6000806000601d600085815260200190815260200160002054915060078281151561220b57fe5b04915081600a5481151561221b57fe5b0490508092505050919050565b6000601c60008373ffffffffffffffffffffffffffffffffffffffff1673ffffffffffffffffffffffffffffffffffffffff168152602001908152602001600020600101549050919050565b60006002600481111561228357fe5b601c60008473ffffffffffffffffffffffffffffffffffffffff1673ffffffffffffffffffffffffffffffffffffffff16815260200190815260200160002060030160009054906101000a900460ff1660048111156122de57fe5b1415156122ea57600080fd5b6003601c60008473ffffffffffffffffffffffffffffffffffffffff1673ffffffffffffffffffffffffffffffffffffffff16815260200190815260200160002060030160006101000a81548160ff0219169083600481111561234957fe5b02179055507f1fc44c2b44927a36b98c2262da2b66a43bf6395e97a25719577b1bbfa7f279d482604051808273ffffffffffffffffffffffffffffffffffffffff1673ffffffffffffffffffffffffffffffffffffffff16815260200191505060405180910390a160019050919050565b828054600181600116156101000203166002900490600052602060002090601f016020900481019282601f106123fb57805160ff1916838001178555612429565b82800160010185558215612429579182015b8281111561242857825182559160200191906001019061240d565b5b509050612436919061243a565b5090565b61245c91905b80821115612458576000816000905550600101612440565b5090565b905600a165627a7a72305820108214589b30cbf8d1597430730ac9ef771cac52ea1ad1d8a912a5b2634387c30029a165627a7a72305820bdb6ce9f1628fa9053b9d1190112f795c158063f5134fd7bb2f9995c0e447d6d0029",
  "source": "pragma solidity ^0.4.15;\n\nimport \"./Coin.sol\";\n\n\n\ncontract CoinDeployer{\n\nmapping(uint=>address) deployedAddresses;\n\naddress TreeDeploy;\n//address TreeDeploy;\nconstructor(address _tree){\nTreeDeploy =_tree;\n}\nfunction deployCoin(\n   address _authorAddress,\n    uint _customershipStake,\n   uint _goal,\n   uint _eligibleCount,\n   uint _initialAmount,\n   string _tokenName,\n   uint8 _decimalUnits,\n   uint _startdate,\n   uint _enddate,\n   string _tokenSymbol,\n   uint _weightCoefficient,\n   uint _weightCoefficient2,\n   uint id\n\n   ){\nCoin c= new Coin(_authorAddress,_customershipStake,_goal,_eligibleCount,_initialAmount,_tokenName,_decimalUnits,_startdate,_enddate,_tokenSymbol,_weightCoefficient,_weightCoefficient2);\n\n\n if(!TreeDeploy.call(bytes4(sha3((\"deployTree(address,uint256)\"))),address(c),_eligibleCount)) revert();\ndeployedAddresses[id]=address(c);\n\n}\n\nfunction getCoinLocation(uint coin) constant returns(address){\n  return deployedAddresses[coin];\n}\n\nfunction setTreeInCoin(address _coin) {\n  require(msg.sender==TreeDeploy);\n   Coin(_coin).setTreeAddress(_coin);\n}\n\n\n\n\n}\n",
  "sourcePath": "/home/jjj/Documents/OE/OpenEquity/contracts/CoinDeployer.sol",
  "compiler": {
    "name": "solc",
    "version": "0.4.24+commit.e67f0147.Emscripten.clang"
  },
  "schemaVersion": "2.0.1",
  "updatedAt": "2018-09-27T19:32:13.211Z"
}