{
  "contractName": "Coin",
  "abi": [
    {
      "constant": true,
      "inputs": [],
      "name": "name",
      "outputs": [
        {
          "name": "",
          "type": "string"
        }
      ],
      "payable": false,
      "stateMutability": "view",
      "type": "function"
    },
    {
      "constant": false,
      "inputs": [
        {
          "name": "_spender",
          "type": "address"
        },
        {
          "name": "_value",
          "type": "uint256"
        }
      ],
      "name": "approve",
      "outputs": [
        {
          "name": "success",
          "type": "bool"
        }
      ],
      "payable": false,
      "stateMutability": "nonpayable",
      "type": "function"
    },
    {
      "constant": true,
      "inputs": [],
      "name": "totalSupply",
      "outputs": [
        {
          "name": "",
          "type": "uint256"
        }
      ],
      "payable": false,
      "stateMutability": "view",
      "type": "function"
    },
    {
      "constant": false,
      "inputs": [
        {
          "name": "_from",
          "type": "address"
        },
        {
          "name": "_to",
          "type": "address"
        },
        {
          "name": "_value",
          "type": "uint256"
        }
      ],
      "name": "transferFrom",
      "outputs": [
        {
          "name": "success",
          "type": "bool"
        }
      ],
      "payable": false,
      "stateMutability": "nonpayable",
      "type": "function"
    },
    {
      "constant": true,
      "inputs": [],
      "name": "decimals",
      "outputs": [
        {
          "name": "",
          "type": "uint8"
        }
      ],
      "payable": false,
      "stateMutability": "view",
      "type": "function"
    },
    {
      "constant": true,
      "inputs": [],
      "name": "version",
      "outputs": [
        {
          "name": "",
          "type": "string"
        }
      ],
      "payable": false,
      "stateMutability": "view",
      "type": "function"
    },
    {
      "constant": true,
      "inputs": [
        {
          "name": "_owner",
          "type": "address"
        }
      ],
      "name": "balanceOf",
      "outputs": [
        {
          "name": "balance",
          "type": "uint256"
        }
      ],
      "payable": false,
      "stateMutability": "view",
      "type": "function"
    },
    {
      "constant": true,
      "inputs": [],
      "name": "symbol",
      "outputs": [
        {
          "name": "",
          "type": "string"
        }
      ],
      "payable": false,
      "stateMutability": "view",
      "type": "function"
    },
    {
      "constant": false,
      "inputs": [
        {
          "name": "_to",
          "type": "address"
        },
        {
          "name": "_value",
          "type": "uint256"
        }
      ],
      "name": "transfer",
      "outputs": [
        {
          "name": "success",
          "type": "bool"
        }
      ],
      "payable": false,
      "stateMutability": "nonpayable",
      "type": "function"
    },
    {
      "constant": false,
      "inputs": [
        {
          "name": "_spender",
          "type": "address"
        },
        {
          "name": "_value",
          "type": "uint256"
        },
        {
          "name": "_extraData",
          "type": "bytes"
        }
      ],
      "name": "approveAndCall",
      "outputs": [
        {
          "name": "success",
          "type": "bool"
        }
      ],
      "payable": false,
      "stateMutability": "nonpayable",
      "type": "function"
    },
    {
      "constant": true,
      "inputs": [
        {
          "name": "_owner",
          "type": "address"
        },
        {
          "name": "_spender",
          "type": "address"
        }
      ],
      "name": "allowance",
      "outputs": [
        {
          "name": "remaining",
          "type": "uint256"
        }
      ],
      "payable": false,
      "stateMutability": "view",
      "type": "function"
    },
    {
      "inputs": [
        {
          "name": "_authorAddress",
          "type": "address"
        },
        {
          "name": "_customershipStake",
          "type": "uint256"
        },
        {
          "name": "_goal",
          "type": "uint256"
        },
        {
          "name": "_toBeShipped",
          "type": "uint256"
        },
        {
          "name": "_eligibleCount",
          "type": "uint256"
        },
        {
          "name": "_initialAmount",
          "type": "uint256"
        },
        {
          "name": "_tokenName",
          "type": "string"
        },
        {
          "name": "_decimalUnits",
          "type": "uint8"
        },
        {
          "name": "_startdate",
          "type": "uint256"
        },
        {
          "name": "_enddate",
          "type": "uint256"
        },
        {
          "name": "_tokenSymbol",
          "type": "string"
        },
        {
          "name": "_weightCoefficient",
          "type": "uint256"
        },
        {
          "name": "_weightCoefficient2",
          "type": "uint256"
        }
      ],
      "payable": false,
      "stateMutability": "nonpayable",
      "type": "constructor"
    },
    {
      "anonymous": false,
      "inputs": [
        {
          "indexed": false,
          "name": "customer",
          "type": "address"
        },
        {
          "indexed": false,
          "name": "amountPaid",
          "type": "uint256"
        }
      ],
      "name": "BoughtCoin",
      "type": "event"
    },
    {
      "anonymous": false,
      "inputs": [
        {
          "indexed": false,
          "name": "success",
          "type": "bool"
        }
      ],
      "name": "GoalMet",
      "type": "event"
    },
    {
      "anonymous": false,
      "inputs": [],
      "name": "NewQualifyingcustomers",
      "type": "event"
    },
    {
      "anonymous": false,
      "inputs": [
        {
          "indexed": false,
          "name": "customer",
          "type": "address"
        }
      ],
      "name": "CoinRequested",
      "type": "event"
    },
    {
      "anonymous": false,
      "inputs": [
        {
          "indexed": false,
          "name": "customer",
          "type": "address"
        }
      ],
      "name": "LogCoinShipped",
      "type": "event"
    },
    {
      "anonymous": false,
      "inputs": [
        {
          "indexed": false,
          "name": "customer",
          "type": "address"
        }
      ],
      "name": "LogCoinConfirmed",
      "type": "event"
    },
    {
      "anonymous": false,
      "inputs": [
        {
          "indexed": true,
          "name": "_from",
          "type": "address"
        },
        {
          "indexed": true,
          "name": "_to",
          "type": "address"
        },
        {
          "indexed": false,
          "name": "_value",
          "type": "uint256"
        }
      ],
      "name": "Transfer",
      "type": "event"
    },
    {
      "anonymous": false,
      "inputs": [
        {
          "indexed": true,
          "name": "_owner",
          "type": "address"
        },
        {
          "indexed": true,
          "name": "_spender",
          "type": "address"
        },
        {
          "indexed": false,
          "name": "_value",
          "type": "uint256"
        }
      ],
      "name": "Approval",
      "type": "event"
    },
    {
      "constant": false,
      "inputs": [],
      "name": "goalReached",
      "outputs": [
        {
          "name": "goalMet",
          "type": "bool"
        }
      ],
      "payable": false,
      "stateMutability": "nonpayable",
      "type": "function"
    },
    {
      "constant": false,
      "inputs": [],
      "name": "goalFailed",
      "outputs": [
        {
          "name": "goalFailed",
          "type": "bool"
        }
      ],
      "payable": false,
      "stateMutability": "nonpayable",
      "type": "function"
    },
    {
      "constant": false,
      "inputs": [
        {
          "name": "a",
          "type": "address"
        }
      ],
      "name": "setTreeAddress",
      "outputs": [],
      "payable": false,
      "stateMutability": "nonpayable",
      "type": "function"
    },
    {
      "constant": false,
      "inputs": [],
      "name": "buyCoin",
      "outputs": [
        {
          "name": "success",
          "type": "bool"
        }
      ],
      "payable": true,
      "stateMutability": "payable",
      "type": "function"
    },
    {
      "constant": false,
      "inputs": [
        {
          "name": "value",
          "type": "uint256"
        }
      ],
      "name": "weekSaleSum",
      "outputs": [],
      "payable": false,
      "stateMutability": "nonpayable",
      "type": "function"
    },
    {
      "constant": false,
      "inputs": [
        {
          "name": "week",
          "type": "uint256"
        }
      ],
      "name": "ETA",
      "outputs": [
        {
          "name": "",
          "type": "uint256"
        }
      ],
      "payable": false,
      "stateMutability": "nonpayable",
      "type": "function"
    },
    {
      "constant": false,
      "inputs": [],
      "name": "setFirstEligible",
      "outputs": [
        {
          "name": "success",
          "type": "bool"
        }
      ],
      "payable": false,
      "stateMutability": "nonpayable",
      "type": "function"
    },
    {
      "constant": false,
      "inputs": [
        {
          "name": "value",
          "type": "uint256"
        }
      ],
      "name": "setEligible",
      "outputs": [],
      "payable": false,
      "stateMutability": "nonpayable",
      "type": "function"
    },
    {
      "constant": false,
      "inputs": [],
      "name": "withdrawCapital",
      "outputs": [],
      "payable": false,
      "stateMutability": "nonpayable",
      "type": "function"
    },
    {
      "constant": false,
      "inputs": [],
      "name": "claimCoins",
      "outputs": [],
      "payable": false,
      "stateMutability": "nonpayable",
      "type": "function"
    },
    {
      "constant": false,
      "inputs": [
        {
          "name": "customerAddress",
          "type": "address"
        }
      ],
      "name": "requestDelivery",
      "outputs": [
        {
          "name": "success",
          "type": "bool"
        }
      ],
      "payable": false,
      "stateMutability": "nonpayable",
      "type": "function"
    },
    {
      "constant": false,
      "inputs": [
        {
          "name": "customer",
          "type": "address"
        }
      ],
      "name": "markShipped",
      "outputs": [
        {
          "name": "success",
          "type": "bool"
        }
      ],
      "payable": false,
      "stateMutability": "nonpayable",
      "type": "function"
    },
    {
      "constant": false,
      "inputs": [
        {
          "name": "customer",
          "type": "address"
        }
      ],
      "name": "confirmDelivery",
      "outputs": [
        {
          "name": "success",
          "type": "bool"
        }
      ],
      "payable": false,
      "stateMutability": "nonpayable",
      "type": "function"
    }
  ],
  "bytecode": "0x60806040526040805190810160405280600481526020017f48302e3100000000000000000000000000000000000000000000000000000000815250600690805190602001906200005192919062000236565b503480156200005f57600080fd5b506040516200254c3803806200254c833981018060405281019080805190602001909291908051906020019092919080519060200190929190805190602001909291908051906020019092919080519060200190929190805182019291906020018051906020019092919080519060200190929190805190602001909291908051820192919060200180519060200190929190805190602001909291905050508787878583600160003373ffffffffffffffffffffffffffffffffffffffff1673ffffffffffffffffffffffffffffffffffffffff168152602001908152602001600020819055508360008190555082600390805190602001906200016692919062000236565b5081600460006101000a81548160ff021916908360ff16021790555080600590805190602001906200019a92919062000236565b50505050508c600760006101000a81548173ffffffffffffffffffffffffffffffffffffffff021916908373ffffffffffffffffffffffffffffffffffffffff1602179055508b6008819055508a600a8190555088600d8190555089600b81905550600e54600e81905550620151808402600e5401600f81905550816012819055508060138190555050505050505050505050505050620002e5565b828054600181600116156101000203166002900490600052602060002090601f016020900481019282601f106200027957805160ff1916838001178555620002aa565b82800160010185558215620002aa579182015b82811115620002a95782518255916020019190600101906200028c565b5b509050620002b99190620002bd565b5090565b620002e291905b80821115620002de576000816000905550600101620002c4565b5090565b90565b61225780620002f56000396000f30060806040526004361061013e576000357c0100000000000000000000000000000000000000000000000000000000900463ffffffff16806306fdde0314610143578063091e9a60146101d3578063095ea7b3146101f557806317727a001461025a57806318160ddd1461027157806323b872dd1461029c578063244a39af14610321578063313ce567146103505780633696a817146103815780634791abe1146103ae57806354fd4d50146104095780635b614794146104995780635f5fd2e2146104dc57806365ab841d146104f357806370a08231146105225780637d3d65221461057957806395d89b41146105a85780639f7aee8214610638578063a9059cbb14610693578063cae9ca51146106f8578063dd62ed3e146107a3578063e3650d541461081a578063ebfdd32d14610847578063fc6dc17d14610888575b600080fd5b34801561014f57600080fd5b506101586108e3565b6040518080602001828103825283818151815260200191508051906020019080838360005b8381101561019857808201518184015260208101905061017d565b50505050905090810190601f1680156101c55780820380516001836020036101000a031916815260200191505b509250505060405180910390f35b6101db610981565b604051808215151515815260200191505060405180910390f35b34801561020157600080fd5b50610240600480360381019080803573ffffffffffffffffffffffffffffffffffffffff16906020019092919080359060200190929190505050610f75565b604051808215151515815260200191505060405180910390f35b34801561026657600080fd5b5061026f611067565b005b34801561027d57600080fd5b506102866110f4565b6040518082815260200191505060405180910390f35b3480156102a857600080fd5b50610307600480360381019080803573ffffffffffffffffffffffffffffffffffffffff169060200190929190803573ffffffffffffffffffffffffffffffffffffffff169060200190929190803590602001909291905050506110fa565b604051808215151515815260200191505060405180910390f35b34801561032d57600080fd5b50610336611366565b604051808215151515815260200191505060405180910390f35b34801561035c57600080fd5b50610365611381565b604051808260ff1660ff16815260200191505060405180910390f35b34801561038d57600080fd5b506103ac60048036038101908080359060200190929190505050611394565b005b3480156103ba57600080fd5b506103ef600480360381019080803573ffffffffffffffffffffffffffffffffffffffff1690602001909291905050506113dc565b604051808215151515815260200191505060405180910390f35b34801561041557600080fd5b5061041e611522565b6040518080602001828103825283818151815260200191508051906020019080838360005b8381101561045e578082015181840152602081019050610443565b50505050905090810190601f16801561048b5780820380516001836020036101000a031916815260200191505b509250505060405180910390f35b3480156104a557600080fd5b506104da600480360381019080803573ffffffffffffffffffffffffffffffffffffffff1690602001909291905050506115c0565b005b3480156104e857600080fd5b506104f1611604565b005b3480156104ff57600080fd5b5061050861184a565b604051808215151515815260200191505060405180910390f35b34801561052e57600080fd5b50610563600480360381019080803573ffffffffffffffffffffffffffffffffffffffff169060200190929190505050611898565b6040518082815260200191505060405180910390f35b34801561058557600080fd5b5061058e6118e1565b604051808215151515815260200191505060405180910390f35b3480156105b457600080fd5b506105bd6118f0565b6040518080602001828103825283818151815260200191508051906020019080838360005b838110156105fd5780820151818401526020810190506105e2565b50505050905090810190601f16801561062a5780820380516001836020036101000a031916815260200191505b509250505060405180910390f35b34801561064457600080fd5b50610679600480360381019080803573ffffffffffffffffffffffffffffffffffffffff16906020019092919050505061198e565b604051808215151515815260200191505060405180910390f35b34801561069f57600080fd5b506106de600480360381019080803573ffffffffffffffffffffffffffffffffffffffff16906020019092919080359060200190929190505050611ad4565b604051808215151515815260200191505060405180910390f35b34801561070457600080fd5b50610789600480360381019080803573ffffffffffffffffffffffffffffffffffffffff16906020019092919080359060200190929190803590602001908201803590602001908080601f0160208091040260200160405190810160405280939291908181526020018383808284378201915050505050509192919290505050611c2d565b604051808215151515815260200191505060405180910390f35b3480156107af57600080fd5b50610804600480360381019080803573ffffffffffffffffffffffffffffffffffffffff169060200190929190803573ffffffffffffffffffffffffffffffffffffffff169060200190929190505050611eca565b6040518082815260200191505060405180910390f35b34801561082657600080fd5b5061084560048036038101908080359060200190929190505050611f51565b005b34801561085357600080fd5b5061087260048036038101908080359060200190929190505050611ffc565b6040518082815260200191505060405180910390f35b34801561089457600080fd5b506108c9600480360381019080803573ffffffffffffffffffffffffffffffffffffffff169060200190929190505050612040565b604051808215151515815260200191505060405180910390f35b60038054600181600116156101000203166002900480601f0160208091040260200160405190810160405280929190818152602001828054600181600116156101000203166002900480156109795780601f1061094e57610100808354040283529160200191610979565b820191906000526020600020905b81548152906001019060200180831161095c57829003601f168201915b505050505081565b6000806000806000600160003373ffffffffffffffffffffffffffffffffffffffff1673ffffffffffffffffffffffffffffffffffffffff168152602001908152602001600020541415610ae457608060405190810160405280600c548152602001600081526020016040805190810160405280600981526020017f416e6f6e796d6f75730000000000000000000000000000000000000000000000815250815260200160006004811115610a3257fe5b815250601b60003373ffffffffffffffffffffffffffffffffffffffff1673ffffffffffffffffffffffffffffffffffffffff16815260200190815260200160002060008201518160000155602082015181600101556040820151816002019080519060200190610aa4929190612186565b5060608201518160030160006101000a81548160ff02191690836004811115610ac957fe5b0217905550905050600c600081548092919060010191905055505b600e54600f5403612710600e54420302811515610afd57fe5b049250600a54600954811515610b0f57fe5b046013540283601254020168010000000000000000027fffffffffffffffffffffffffffffffffffffffffffffffffffffffffffffffff02915034600160003373ffffffffffffffffffffffffffffffffffffffff1673ffffffffffffffffffffffffffffffffffffffff1681526020019081526020016000206000828254019250508190555068010000000000000000600160003373ffffffffffffffffffffffffffffffffffffffff1673ffffffffffffffffffffffffffffffffffffffff168152602001908152602001600020548373__Math__________________________________63e46751e390916040518263ffffffff167c01000000000000000000000000000000000000000000000000000000000281526004018082815260200191505060206040518083038186803b158015610c4d57600080fd5b505af4158015610c61573d6000803e3d6000fd5b505050506040513d6020811015610c7757600080fd5b810190808051906020019092919050505002811515610c9257fe5b04905080601b60003373ffffffffffffffffffffffffffffffffffffffff1673ffffffffffffffffffffffffffffffffffffffff16815260200190815260200160002060010160008282540192505081905550600a546009541015610e2e57601473__CoinQueueLib2_________________________63595b59d790913384601160009054906101000a900473ffffffffffffffffffffffffffffffffffffffff166040518563ffffffff167c0100000000000000000000000000000000000000000000000000000000028152600401808581526020018473ffffffffffffffffffffffffffffffffffffffff1673ffffffffffffffffffffffffffffffffffffffff1681526020018381526020018273ffffffffffffffffffffffffffffffffffffffff1673ffffffffffffffffffffffffffffffffffffffff16815260200194505050505060206040518083038186803b158015610df157600080fd5b505af4158015610e05573d6000803e3d6000fd5b505050506040513d6020811015610e1b57600080fd5b8101908080519060200190929190505050505b610e366118e1565b15610f5257601160009054906101000a900473ffffffffffffffffffffffffffffffffffffffff1673ffffffffffffffffffffffffffffffffffffffff1660405180807f536574476f616c52656163686564282900000000000000000000000000000000815250601001905060405180910390207c010000000000000000000000000000000000000000000000000000000090046040518163ffffffff167c01000000000000000000000000000000000000000000000000000000000281526004016000604051808303816000875af1925050501515610f1557600080fd5b7f1e61fe9a90d23ee89cf23cb1f66c1188b68372e59b6ad3470f3b26b564e966776001604051808215151515815260200191505060405180910390a15b34600960008282540192505081905550610f6b34611394565b6001935050505090565b600081600260003373ffffffffffffffffffffffffffffffffffffffff1673ffffffffffffffffffffffffffffffffffffffff16815260200190815260200160002060008573ffffffffffffffffffffffffffffffffffffffff1673ffffffffffffffffffffffffffffffffffffffff168152602001908152602001600020819055508273ffffffffffffffffffffffffffffffffffffffff163373ffffffffffffffffffffffffffffffffffffffff167f8c5be1e5ebec7d5bd14f71427d1e84f3dd0314c0f7b2291e5b200ac8c7c3b925846040518082815260200191505060405180910390a36001905092915050565b61106f6118e1565b801561107c5750600f5442115b151561108757600080fd5b600760009054906101000a900473ffffffffffffffffffffffffffffffffffffffff1673ffffffffffffffffffffffffffffffffffffffff166108fc6009549081150290604051600060405180830381858888f193505050501580156110f1573d6000803e3d6000fd5b50565b60005481565b600081600160008673ffffffffffffffffffffffffffffffffffffffff1673ffffffffffffffffffffffffffffffffffffffff16815260200190815260200160002054101580156111c7575081600260008673ffffffffffffffffffffffffffffffffffffffff1673ffffffffffffffffffffffffffffffffffffffff16815260200190815260200160002060003373ffffffffffffffffffffffffffffffffffffffff1673ffffffffffffffffffffffffffffffffffffffff1681526020019081526020016000205410155b15156111d257600080fd5b81600160008573ffffffffffffffffffffffffffffffffffffffff1673ffffffffffffffffffffffffffffffffffffffff1681526020019081526020016000206000828254019250508190555081600160008673ffffffffffffffffffffffffffffffffffffffff1673ffffffffffffffffffffffffffffffffffffffff1681526020019081526020016000206000828254039250508190555081600260008673ffffffffffffffffffffffffffffffffffffffff1673ffffffffffffffffffffffffffffffffffffffff16815260200190815260200160002060003373ffffffffffffffffffffffffffffffffffffffff1673ffffffffffffffffffffffffffffffffffffffff168152602001908152602001600020600082825403925050819055508273ffffffffffffffffffffffffffffffffffffffff168473ffffffffffffffffffffffffffffffffffffffff167fddf252ad1be2c89b69c2b068fc378daa952ba7f163c4a11628f55a4df523b3ef846040518082815260200191505060405180910390a3600190509392505050565b6000600a5460095410801561137c5750600f5442115b905090565b600460009054906101000a900460ff1681565b6000600762015180600e5442038115156113aa57fe5b048115156113b457fe5b04905081601c6000838152602001908152602001600020600082825401925050819055505050565b6000600160048111156113eb57fe5b601b60008473ffffffffffffffffffffffffffffffffffffffff1673ffffffffffffffffffffffffffffffffffffffff16815260200190815260200160002060030160009054906101000a900460ff16600481111561144657fe5b14151561145257600080fd5b6002601b60008473ffffffffffffffffffffffffffffffffffffffff1673ffffffffffffffffffffffffffffffffffffffff16815260200190815260200160002060030160006101000a81548160ff021916908360048111156114b157fe5b02179055507f5da801b6e57bde18d536d5e32ef866b5fdd927d80101ed20524c269550edf1c733604051808273ffffffffffffffffffffffffffffffffffffffff1673ffffffffffffffffffffffffffffffffffffffff16815260200191505060405180910390a160019050919050565b60068054600181600116156101000203166002900480601f0160208091040260200160405190810160405280929190818152602001828054600181600116156101000203166002900480156115b85780601f1061158d576101008083540402835291602001916115b8565b820191906000526020600020905b81548152906001019060200180831161159b57829003601f168201915b505050505081565b80601160006101000a81548173ffffffffffffffffffffffffffffffffffffffff021916908373ffffffffffffffffffffffffffffffffffffffff16021790555050565b600061160e6118e1565b801561161b5750600f5442115b151561162657600080fd5b600160003373ffffffffffffffffffffffffffffffffffffffff1673ffffffffffffffffffffffffffffffffffffffff1681526020019081526020016000205490506000600160003373ffffffffffffffffffffffffffffffffffffffff1673ffffffffffffffffffffffffffffffffffffffff16815260200190815260200160002081905550601473__CoinQueueLib2_________________________631189dab390913384601160009054906101000a900473ffffffffffffffffffffffffffffffffffffffff166040518563ffffffff167c0100000000000000000000000000000000000000000000000000000000028152600401808581526020018473ffffffffffffffffffffffffffffffffffffffff1673ffffffffffffffffffffffffffffffffffffffff1681526020018381526020018273ffffffffffffffffffffffffffffffffffffffff1673ffffffffffffffffffffffffffffffffffffffff16815260200194505050505060206040518083038186803b1580156117ad57600080fd5b505af41580156117c1573d6000803e3d6000fd5b505050506040513d60208110156117d757600080fd5b810190808051906020019092919050505015156117f357600080fd5b3373ffffffffffffffffffffffffffffffffffffffff166108fc6009548381151561181a57fe5b049081150290604051600060405180830381858888f19350505050158015611846573d6000803e3d6000fd5b5050565b60006118546118e1565b80156118615750600f5442115b151561186c57600080fd5b600b54600d541115151561187f57600080fd5b600d600081548092919060010191905055506001905090565b6000600160008373ffffffffffffffffffffffffffffffffffffffff1673ffffffffffffffffffffffffffffffffffffffff168152602001908152602001600020549050919050565b6000600a546009541015905090565b60058054600181600116156101000203166002900480601f0160208091040260200160405190810160405280929190818152602001828054600181600116156101000203166002900480156119865780601f1061195b57610100808354040283529160200191611986565b820191906000526020600020905b81548152906001019060200180831161196957829003601f168201915b505050505081565b60006003600481111561199d57fe5b601b60008473ffffffffffffffffffffffffffffffffffffffff1673ffffffffffffffffffffffffffffffffffffffff16815260200190815260200160002060030160009054906101000a900460ff1660048111156119f857fe5b141515611a0457600080fd5b6004601b60008473ffffffffffffffffffffffffffffffffffffffff1673ffffffffffffffffffffffffffffffffffffffff16815260200190815260200160002060030160006101000a81548160ff02191690836004811115611a6357fe5b02179055507f2ede3ac351c71eef2c08079e7a98ae331342822768bb2ec7818b11a8e87cd18382604051808273ffffffffffffffffffffffffffffffffffffffff1673ffffffffffffffffffffffffffffffffffffffff16815260200191505060405180910390a160019050919050565b600081600160003373ffffffffffffffffffffffffffffffffffffffff1673ffffffffffffffffffffffffffffffffffffffff1681526020019081526020016000205410151515611b2457600080fd5b81600160003373ffffffffffffffffffffffffffffffffffffffff1673ffffffffffffffffffffffffffffffffffffffff1681526020019081526020016000206000828254039250508190555081600160008573ffffffffffffffffffffffffffffffffffffffff1673ffffffffffffffffffffffffffffffffffffffff168152602001908152602001600020600082825401925050819055508273ffffffffffffffffffffffffffffffffffffffff163373ffffffffffffffffffffffffffffffffffffffff167fddf252ad1be2c89b69c2b068fc378daa952ba7f163c4a11628f55a4df523b3ef846040518082815260200191505060405180910390a36001905092915050565b600082600260003373ffffffffffffffffffffffffffffffffffffffff1673ffffffffffffffffffffffffffffffffffffffff16815260200190815260200160002060008673ffffffffffffffffffffffffffffffffffffffff1673ffffffffffffffffffffffffffffffffffffffff168152602001908152602001600020819055508373ffffffffffffffffffffffffffffffffffffffff163373ffffffffffffffffffffffffffffffffffffffff167f8c5be1e5ebec7d5bd14f71427d1e84f3dd0314c0f7b2291e5b200ac8c7c3b925856040518082815260200191505060405180910390a38373ffffffffffffffffffffffffffffffffffffffff1660405180807f72656365697665417070726f76616c28616464726573732c75696e743235362c81526020017f616464726573732c627974657329000000000000000000000000000000000000815250602e01905060405180910390207c01000000000000000000000000000000000000000000000000000000009004338530866040518563ffffffff167c0100000000000000000000000000000000000000000000000000000000028152600401808573ffffffffffffffffffffffffffffffffffffffff1673ffffffffffffffffffffffffffffffffffffffff1681526020018481526020018373ffffffffffffffffffffffffffffffffffffffff1673ffffffffffffffffffffffffffffffffffffffff168152602001828051906020019080838360005b83811015611e6e578082015181840152602081019050611e53565b50505050905090810190601f168015611e9b5780820380516001836020036101000a031916815260200191505b509450505050506000604051808303816000875af1925050501515611ebf57600080fd5b600190509392505050565b6000600260008473ffffffffffffffffffffffffffffffffffffffff1673ffffffffffffffffffffffffffffffffffffffff16815260200190815260200160002060008373ffffffffffffffffffffffffffffffffffffffff1673ffffffffffffffffffffffffffffffffffffffff16815260200190815260200160002054905092915050565b611f596118e1565b8015611f665750600f5442115b1515611f7157600080fd5b601160009054906101000a900473ffffffffffffffffffffffffffffffffffffffff1673ffffffffffffffffffffffffffffffffffffffff163373ffffffffffffffffffffffffffffffffffffffff16141515611fcd57600080fd5b6001601a600083815260200190815260200160002060006101000a81548160ff02191690831515021790555050565b6000806000601c600085815260200190815260200160002054915060078281151561202357fe5b04915081600a5481151561203357fe5b0490508092505050919050565b60006002600481111561204f57fe5b601b60008473ffffffffffffffffffffffffffffffffffffffff1673ffffffffffffffffffffffffffffffffffffffff16815260200190815260200160002060030160009054906101000a900460ff1660048111156120aa57fe5b1415156120b657600080fd5b6003601b60008473ffffffffffffffffffffffffffffffffffffffff1673ffffffffffffffffffffffffffffffffffffffff16815260200190815260200160002060030160006101000a81548160ff0219169083600481111561211557fe5b02179055507f1fc44c2b44927a36b98c2262da2b66a43bf6395e97a25719577b1bbfa7f279d482604051808273ffffffffffffffffffffffffffffffffffffffff1673ffffffffffffffffffffffffffffffffffffffff16815260200191505060405180910390a160019050919050565b828054600181600116156101000203166002900490600052602060002090601f016020900481019282601f106121c757805160ff19168380011785556121f5565b828001600101855582156121f5579182015b828111156121f45782518255916020019190600101906121d9565b5b5090506122029190612206565b5090565b61222891905b8082111561222457600081600090555060010161220c565b5090565b905600a165627a7a72305820526d44b4e58a0824347048190700947bd777eb09eb902a765eb8ee348c69c35e0029",
  "source": "pragma solidity ^0.4.15;\n\nimport \"./CoinQueueLib2.sol\";\nimport \"./CoinDistLib.sol\";\nimport \"tokens/HumanStandardToken.sol\";\nimport \"./Math.sol\";\ncontract Coin is HumanStandardToken {\n  using CoinQueueLib2 for CoinQueueLib2.CoinQueue;\n  using Math for *;\n  address authorAddress;\n  uint customershipStake;\n  uint balance;\n  uint goal;\n  uint toBeShipped;\n  uint userCount;\n  uint eligibleCount;\n  uint startdate;\n  uint enddate;\n  uint gasSaved;\n  address StatisticsTree;\n  uint weightCoefficient;\n  uint weightCoefficient2;\n  CoinQueueLib2.CoinQueue queue;\n\n  function Coin\n    (\n     address _authorAddress,\n     //bytes metadata,\n     uint _customershipStake,\n     uint _goal,\n     uint _toBeShipped,\n     //uint _userCount,\n     uint _eligibleCount,\n     uint _initialAmount,\n     string _tokenName,\n     uint8 _decimalUnits,\n     uint _startdate,\n     uint _enddate,\n     string _tokenSymbol,\n     uint _weightCoefficient,\n     uint _weightCoefficient2\n     )\n    HumanStandardToken(_initialAmount, _tokenName, _decimalUnits, _tokenSymbol){\n    authorAddress = _authorAddress;\n    customershipStake = _customershipStake;\n    goal = _goal;\n  //  userCount = _userCount;\n    eligibleCount = _eligibleCount;\n    toBeShipped = _toBeShipped;\n    startdate=startdate;\n    enddate=startdate + _enddate *1 days;\n    weightCoefficient=_weightCoefficient;\n    weightCoefficient2=_weightCoefficient2;\n  }\n\n  enum customerStatus { Waiting, Eligible, Requested, Shipped, Confirmed }\n\n  struct customer {\n    uint id;\n    uint points;\n    bytes customerUsername;      //customer's username\n    customerStatus status;\n\n  }\n\n  event BoughtCoin(address customer, uint amountPaid);\n  event GoalMet(bool success);\n  event NewQualifyingcustomers ();          //Some customers become eligible after goal is met\n  event CoinRequested(address customer);    //customer claims Coin\n  event LogCoinShipped(address customer);   //Author sends shipping confirmation\n  event LogCoinConfirmed(address customer);   //Author sends shipping confirmation\n  mapping(uint=>bool) validPoints;\n  mapping (address => customer) customers;\n  mapping(uint=>uint) weeklysales;\n//  mapping(address=>uint) balances;\n  modifier goalMet {\n    require (goalReached()&&(now>enddate));\n    _;\n  }\n  modifier TimeValid {\n    require ((startdate>now)&&(enddate<now));\n    _;\n  }\n\n  function goalReached()\n    returns (bool goalMet)\n  {\n    return balance >= goal;\n  }\n\n  function goalFailed()\n    returns (bool goalFailed)\n  {\n    return ((balance<goal)&&(now>enddate));\n  }\n  function setTreeAddress(address a) {\n    StatisticsTree=a;\n  }\n  function buyCoin()\n    public\n    payable\n    returns(bool success){\n\n    // customer buys coins the first time\n    if (balances[msg.sender] == 0) {\n      // Add customer\n      customers[msg.sender] = customer({ id: userCount, customerUsername: 'Anonymous', status: customerStatus.Waiting,points:0 });\n      userCount++;\n\n      // Add the customer to the queue in the last position\n    }\n    uint Time=((now-startdate)*10000)/(enddate-startdate);\n    int weight=-1*( 0x10000000000000000*((int(weightCoefficient)*int(Time))+int(weightCoefficient2)*int(balance/goal) ));\n\n    balances[msg.sender] += msg.value;\n    uint _points=((weight.exp()*(balances[msg.sender]))/0x10000000000000000);\n    customers[msg.sender].points+=_points;\n    if(balance<goal){\n    queue.insertcustomer( msg.sender,_points,StatisticsTree);\n    }\n    if (goalReached()) {\n      if(!StatisticsTree.call(bytes4(keccak256(\"SetGoalReached()\")))) revert();\n      GoalMet(true);\n    }\n\n  //  queue.addToQueue(int(msg.value), msg.sender);\n\n    balance += msg.value;\n    weekSaleSum( msg.value);\n    return true;\n  }\n\n\n\n  function weekSaleSum(uint value){\n  //  uint currentday=((now-start)/86400)%7;\n    uint currentweek=((now-startdate)/86400)/7;\n    weeklysales[currentweek]+=value;\n  }\n  function ETA(uint week)returns (uint){\n    uint temp= weeklysales[week];\n    temp=temp/7;\n    uint ETA=goal/temp;\n    return(ETA);\n  }\n  // Anyone can call this\n  // Idealy the author should as soon as the goal is met\n  function setFirstEligible()\n    goalMet\n    returns (bool success)\n  {\n    require(eligibleCount <= toBeShipped);\n    eligibleCount++;\n    //address first = queue.getFirstInLine();\n    //customers[first].status = customerStatus.Eligible;\n  //  queue.remove(first, int(balances[first]));\n    return true;\n  }\n  function setEligible(uint value) goalMet{\n  require(msg.sender==StatisticsTree);\n\n  validPoints[value]=true;\n  }\n  //((Author)) withdraws the capital they earned through coin sales\n  function withdrawCapital()\n    goalMet\n    /*isAuthor()*/{\n    authorAddress.transfer(balance);\n  }\n  /*function withdrawInvestment(){\n    uint temp=balances[msg.sender];\n    balances[msg.sender]=0;\n    queue.customerWithdraw(msg.sender,temp,StatisticsTree);\n    msg.sender.transfer(temp);\n\n  }\n  */\n  function claimCoins()\n     goalMet\n  {\n    uint temp=balances[msg.sender];\n    balances[msg.sender]=0;\n    if(!queue.customerWithdraw(msg.sender,temp,StatisticsTree)) revert();\n    msg.sender.transfer((temp/balance));\n  }\n  //customers can claim hard copy after they become eligible\n  function requestDelivery (address customerAddress) returns (bool success) {\n    require(customers[customerAddress].status == customerStatus.Eligible);\n    customers[customerAddress].status = customerStatus.Requested;\n    CoinRequested(msg.sender);\n    return true;\n  }\n\n  function markShipped (address customer) returns (bool success) {\n    require(customers[customer].status == customerStatus.Requested);\n    customers[customer].status = customerStatus.Shipped;\n    LogCoinShipped(customer);\n    return true;\n  }\n\n  function confirmDelivery (address customer) returns (bool success) {\n    require(customers[customer].status == customerStatus.Shipped);\n    customers[customer].status = customerStatus.Confirmed;\n    LogCoinConfirmed(customer);\n    return true;\n  }\n\n}\n",
  "sourcePath": "/home/jjj/Documents/OE/OpenEquity/contracts/Coin.sol",
  "compiler": {
    "name": "solc",
    "version": "0.4.24+commit.e67f0147.Emscripten.clang"
  },
  "schemaVersion": "2.0.1",
  "updatedAt": "2018-08-22T13:59:30.449Z"
}