{
  "contractName": "CoinPub",
  "abi": [
    {
      "constant": false,
      "inputs": [
        {
          "name": "onOff",
          "type": "bool"
        }
      ],
      "name": "runSwitch",
      "outputs": [
        {
          "name": "success",
          "type": "bool"
        }
      ],
      "payable": false,
      "stateMutability": "nonpayable",
      "type": "function"
    },
    {
      "constant": true,
      "inputs": [],
      "name": "owner",
      "outputs": [
        {
          "name": "",
          "type": "address"
        }
      ],
      "payable": false,
      "stateMutability": "view",
      "type": "function"
    },
    {
      "constant": false,
      "inputs": [
        {
          "name": "newOwner",
          "type": "address"
        }
      ],
      "name": "changeOwner",
      "outputs": [
        {
          "name": "success",
          "type": "bool"
        }
      ],
      "payable": false,
      "stateMutability": "nonpayable",
      "type": "function"
    },
    {
      "constant": true,
      "inputs": [],
      "name": "running",
      "outputs": [
        {
          "name": "",
          "type": "bool"
        }
      ],
      "payable": false,
      "stateMutability": "view",
      "type": "function"
    },
    {
      "inputs": [
        {
          "name": "T",
          "type": "address"
        }
      ],
      "payable": false,
      "stateMutability": "nonpayable",
      "type": "constructor"
    },
    {
      "anonymous": false,
      "inputs": [
        {
          "indexed": false,
          "name": "switchSetting",
          "type": "bool"
        }
      ],
      "name": "LogRunSwitch",
      "type": "event"
    },
    {
      "anonymous": false,
      "inputs": [
        {
          "indexed": false,
          "name": "_owner",
          "type": "address"
        },
        {
          "indexed": false,
          "name": "newOwner",
          "type": "address"
        }
      ],
      "name": "LogNewOwner",
      "type": "event"
    },
    {
      "constant": false,
      "inputs": [
        {
          "name": "_CoinID",
          "type": "uint256"
        },
        {
          "name": "_share",
          "type": "uint256"
        }
      ],
      "name": "addPartner",
      "outputs": [],
      "payable": false,
      "stateMutability": "nonpayable",
      "type": "function"
    },
    {
      "constant": false,
      "inputs": [
        {
          "name": "_customerUsername",
          "type": "bytes"
        }
      ],
      "name": "becomecustomer",
      "outputs": [],
      "payable": false,
      "stateMutability": "nonpayable",
      "type": "function"
    },
    {
      "constant": false,
      "inputs": [
        {
          "name": "_authorName",
          "type": "bytes"
        }
      ],
      "name": "becomeAuthor",
      "outputs": [],
      "payable": false,
      "stateMutability": "nonpayable",
      "type": "function"
    },
    {
      "constant": false,
      "inputs": [
        {
          "name": "_customershipStake",
          "type": "uint256"
        },
        {
          "name": "_tokenName",
          "type": "string"
        },
        {
          "name": "_tokenSymbol",
          "type": "string"
        },
        {
          "name": "_governanceModel",
          "type": "string"
        }
      ],
      "name": "createCoinStruct",
      "outputs": [],
      "payable": false,
      "stateMutability": "nonpayable",
      "type": "function"
    },
    {
      "constant": false,
      "inputs": [
        {
          "name": "_CoinID",
          "type": "uint256"
        },
        {
          "name": "_goal",
          "type": "uint256"
        },
        {
          "name": "_startdate",
          "type": "uint256"
        },
        {
          "name": "_enddate",
          "type": "uint256"
        },
        {
          "name": "_eligibleCount",
          "type": "uint256"
        },
        {
          "name": "_weight",
          "type": "uint256"
        },
        {
          "name": "_weight2",
          "type": "uint256"
        }
      ],
      "name": "modifyCoinStruct",
      "outputs": [],
      "payable": false,
      "stateMutability": "nonpayable",
      "type": "function"
    },
    {
      "constant": false,
      "inputs": [
        {
          "name": "id",
          "type": "uint256"
        },
        {
          "name": "_decimalUnits",
          "type": "uint8"
        },
        {
          "name": "_initialAmount",
          "type": "uint256"
        },
        {
          "name": "_toBeShipped",
          "type": "uint256"
        }
      ],
      "name": "publishCoin",
      "outputs": [
        {
          "name": "",
          "type": "address"
        }
      ],
      "payable": false,
      "stateMutability": "nonpayable",
      "type": "function"
    },
    {
      "constant": false,
      "inputs": [
        {
          "name": "n",
          "type": "uint256"
        }
      ],
      "name": "structRet",
      "outputs": [
        {
          "name": "",
          "type": "uint256"
        }
      ],
      "payable": false,
      "stateMutability": "nonpayable",
      "type": "function"
    },
    {
      "constant": false,
      "inputs": [
        {
          "name": "n",
          "type": "uint256"
        }
      ],
      "name": "nameret",
      "outputs": [
        {
          "name": "",
          "type": "string"
        }
      ],
      "payable": false,
      "stateMutability": "nonpayable",
      "type": "function"
    },
    {
      "constant": false,
      "inputs": [
        {
          "name": "n",
          "type": "uint256"
        }
      ],
      "name": "symbolret",
      "outputs": [
        {
          "name": "",
          "type": "string"
        }
      ],
      "payable": false,
      "stateMutability": "nonpayable",
      "type": "function"
    },
    {
      "constant": false,
      "inputs": [
        {
          "name": "n",
          "type": "uint256"
        }
      ],
      "name": "getOtherparams",
      "outputs": [
        {
          "name": "",
          "type": "uint256"
        },
        {
          "name": "",
          "type": "uint256"
        },
        {
          "name": "",
          "type": "uint256"
        },
        {
          "name": "",
          "type": "uint256"
        }
      ],
      "payable": false,
      "stateMutability": "nonpayable",
      "type": "function"
    },
    {
      "constant": false,
      "inputs": [
        {
          "name": "n",
          "type": "uint256"
        },
        {
          "name": "m",
          "type": "uint256"
        }
      ],
      "name": "getPartnerShare",
      "outputs": [
        {
          "name": "",
          "type": "uint256"
        }
      ],
      "payable": false,
      "stateMutability": "nonpayable",
      "type": "function"
    },
    {
      "constant": false,
      "inputs": [
        {
          "name": "n",
          "type": "uint256"
        }
      ],
      "name": "returnallShares",
      "outputs": [
        {
          "name": "",
          "type": "uint256[]"
        }
      ],
      "payable": false,
      "stateMutability": "nonpayable",
      "type": "function"
    }
  ],
  "bytecode": "0x608060405234801561001057600080fd5b5060405160208061488a83398101806040528101908080519060200190929190505050336000806101000a81548173ffffffffffffffffffffffffffffffffffffffff021916908373ffffffffffffffffffffffffffffffffffffffff1602179055506001600060146101000a81548160ff021916908315150217905550600060018190555080600260006101000a81548173ffffffffffffffffffffffffffffffffffffffff021916908373ffffffffffffffffffffffffffffffffffffffff160217905550506147a3806100e76000396000f300608060405260043610620000f7576000357c0100000000000000000000000000000000000000000000000000000000900463ffffffff16806320b4562014620000fc5780632dd9705814620001a85780633c3ee35514620001f25780633e473dd3146200029e5780636ebf84d214620002e2578063781c2e5e146200034e5780638da5cb5b1462000450578063907f597d14620004aa578063952b7c5d14620004f85780639967edb81462000589578063a6f9dae11462000610578063b41304b6146200066e578063b5bb4ec414620006da578063b9f68d9d1462000714578063d85bd5261462000780578063e63ab27714620007b2575b600080fd5b3480156200010957600080fd5b506200012a600480360381019080803590602001909291905050506200080b565b6040518080602001828103825283818151815260200191508051906020019080838360005b838110156200016c5780820151818401526020810190506200014f565b50505050905090810190601f1680156200019a5780820380516001836020036101000a031916815260200191505b509250505060405180910390f35b348015620001b557600080fd5b50620001d860048036038101908080351515906020019092919050505062000ae9565b604051808215151515815260200191505060405180910390f35b348015620001ff57600080fd5b50620002206004803603810190808035906020019092919050505062000ba5565b6040518080602001828103825283818151815260200191508051906020019080838360005b838110156200026257808201518184015260208101905062000245565b50505050905090810190601f168015620002905780820380516001836020036101000a031916815260200191505b509250505060405180910390f35b348015620002ab57600080fd5b50620002cc6004803603810190808035906020019092919050505062000e83565b6040518082815260200191505060405180910390f35b348015620002ef57600080fd5b506200034c600480360381019080803590602001908201803590602001908080601f016020809104026020016040519081016040528093929190818152602001838380828437820191505050505050919291929050505062001160565b005b3480156200035b57600080fd5b506200044e60048036038101908080359060200190929190803590602001908201803590602001908080601f0160208091040260200160405190810160405280939291908181526020018383808284378201915050505050509192919290803590602001908201803590602001908080601f0160208091040260200160405190810160405280939291908181526020018383808284378201915050505050509192919290803590602001908201803590602001908080601f0160208091040260200160405190810160405280939291908181526020018383808284378201915050505050509192919290505050620011fc565b005b3480156200045d57600080fd5b5062000468620013a8565b604051808273ffffffffffffffffffffffffffffffffffffffff1673ffffffffffffffffffffffffffffffffffffffff16815260200191505060405180910390f35b348015620004b757600080fd5b50620004e26004803603810190808035906020019092919080359060200190929190505050620013cd565b6040518082815260200191505060405180910390f35b3480156200050557600080fd5b506200054760048036038101908080359060200190929190803560ff1690602001909291908035906020019092919080359060200190929190505050620013fc565b604051808273ffffffffffffffffffffffffffffffffffffffff1673ffffffffffffffffffffffffffffffffffffffff16815260200191505060405180910390f35b3480156200059657600080fd5b50620005b760048036038101908080359060200190929190505050620019a6565b6040518080602001828103825283818151815260200191508051906020019060200280838360005b83811015620005fc578082015181840152602081019050620005df565b505050509050019250505060405180910390f35b3480156200061d57600080fd5b5062000654600480360381019080803573ffffffffffffffffffffffffffffffffffffffff16906020019092919050505062001d07565b604051808215151515815260200191505060405180910390f35b3480156200067b57600080fd5b50620006d86004803603810190808035906020019092919080359060200190929190803590602001909291908035906020019092919080359060200190929190803590602001909291908035906020019092919050505062001e8b565b005b348015620006e757600080fd5b5062000712600480360381019080803590602001909291908035906020019092919050505062001ef4565b005b3480156200072157600080fd5b506200077e600480360381019080803590602001908201803590602001908080601f016020809104026020016040519081016040528093929190818152602001838380828437820191505050505050919291929050505062001f5d565b005b3480156200078d57600080fd5b506200079862001fe1565b604051808215151515815260200191505060405180910390f35b348015620007bf57600080fd5b50620007e06004803603810190808035906020019092919050505062001ff4565b6040518085815260200184815260200183815260200182815260200194505050505060405180910390f35b606062000817620022ec565b600560008481526020019081526020016000206101a06040519081016040529081600082015481526020016001820160009054906101000a900473ffffffffffffffffffffffffffffffffffffffff1673ffffffffffffffffffffffffffffffffffffffff1673ffffffffffffffffffffffffffffffffffffffff168152602001600282015481526020016003820154815260200160048201548152602001600582015481526020016006820154815260200160078201548152602001600882018054600181600116156101000203166002900480601f016020809104026020016040519081016040528092919081815260200182805460018160011615610100020316600290048015620009705780601f10620009445761010080835404028352916020019162000970565b820191906000526020600020905b8154815290600101906020018083116200095257829003601f168201915b50505050508152602001600982018054600181600116156101000203166002900480601f01602080910402602001604051908101604052809291908181526020018280546001816001161561010002031660029004801562000a165780601f10620009ea5761010080835404028352916020019162000a16565b820191906000526020600020905b815481529060010190602001808311620009f857829003601f168201915b50505050508152602001600a82018054600181600116156101000203166002900480601f01602080910402602001604051908101604052809291908181526020018280546001816001161561010002031660029004801562000abc5780601f1062000a905761010080835404028352916020019162000abc565b820191906000526020600020905b81548152906001019060200180831162000a9e57829003601f168201915b50505050508152602001600b8201548152602001600c820154815250509050806101000151915050919050565b60008060009054906101000a900473ffffffffffffffffffffffffffffffffffffffff1673ffffffffffffffffffffffffffffffffffffffff163373ffffffffffffffffffffffffffffffffffffffff1614151562000b4757600080fd5b81600060146101000a81548160ff0219169083151502179055507fed31ba5dd6d358d47c38232d309f2cdd5f0e58c3eb67621a7f731fe2d7d838d282604051808215151515815260200191505060405180910390a160019050919050565b606062000bb1620022ec565b600560008481526020019081526020016000206101a06040519081016040529081600082015481526020016001820160009054906101000a900473ffffffffffffffffffffffffffffffffffffffff1673ffffffffffffffffffffffffffffffffffffffff1673ffffffffffffffffffffffffffffffffffffffff168152602001600282015481526020016003820154815260200160048201548152602001600582015481526020016006820154815260200160078201548152602001600882018054600181600116156101000203166002900480601f01602080910402602001604051908101604052809291908181526020018280546001816001161561010002031660029004801562000d0a5780601f1062000cde5761010080835404028352916020019162000d0a565b820191906000526020600020905b81548152906001019060200180831162000cec57829003601f168201915b50505050508152602001600982018054600181600116156101000203166002900480601f01602080910402602001604051908101604052809291908181526020018280546001816001161561010002031660029004801562000db05780601f1062000d845761010080835404028352916020019162000db0565b820191906000526020600020905b81548152906001019060200180831162000d9257829003601f168201915b50505050508152602001600a82018054600181600116156101000203166002900480601f01602080910402602001604051908101604052809291908181526020018280546001816001161561010002031660029004801562000e565780601f1062000e2a5761010080835404028352916020019162000e56565b820191906000526020600020905b81548152906001019060200180831162000e3857829003601f168201915b50505050508152602001600b8201548152602001600c820154815250509050806101200151915050919050565b600062000e8f620022ec565b600560008481526020019081526020016000206101a06040519081016040529081600082015481526020016001820160009054906101000a900473ffffffffffffffffffffffffffffffffffffffff1673ffffffffffffffffffffffffffffffffffffffff1673ffffffffffffffffffffffffffffffffffffffff168152602001600282015481526020016003820154815260200160048201548152602001600582015481526020016006820154815260200160078201548152602001600882018054600181600116156101000203166002900480601f01602080910402602001604051908101604052809291908181526020018280546001816001161561010002031660029004801562000fe85780601f1062000fbc5761010080835404028352916020019162000fe8565b820191906000526020600020905b81548152906001019060200180831162000fca57829003601f168201915b50505050508152602001600982018054600181600116156101000203166002900480601f0160208091040260200160405190810160405280929190818152602001828054600181600116156101000203166002900480156200108e5780601f1062001062576101008083540402835291602001916200108e565b820191906000526020600020905b8154815290600101906020018083116200107057829003601f168201915b50505050508152602001600a82018054600181600116156101000203166002900480601f016020809104026020016040519081016040528092919081815260200182805460018160011615610100020316600290048015620011345780601f10620011085761010080835404028352916020019162001134565b820191906000526020600020905b8154815290600101906020018083116200111657829003601f168201915b50505050508152602001600b8201548152602001600c8201548152505090508060400151915050919050565b604080519081016040528082815260200160001515815250600360003373ffffffffffffffffffffffffffffffffffffffff1673ffffffffffffffffffffffffffffffffffffffff1681526020019081526020016000206000820151816000019080519060200190620011d59291906200236b565b5060208201518160010160006101000a81548160ff02191690831515021790555090505050565b600060018060008282540192505081905550600a90506101a06040519081016040528060015481526020013373ffffffffffffffffffffffffffffffffffffffff168152602001868152602001600081526020018281526020018281526020018281526020018281526020018581526020018481526020018381526020016001815260200160018152506005600060015481526020019081526020016000206000820151816000015560208201518160010160006101000a81548173ffffffffffffffffffffffffffffffffffffffff021916908373ffffffffffffffffffffffffffffffffffffffff16021790555060408201518160020155606082015181600301556080820151816004015560a0820151816005015560c0820151816006015560e0820151816007015561010082015181600801908051906020019062001347929190620023f2565b5061012082015181600901908051906020019062001367929190620023f2565b5061014082015181600a01908051906020019062001387929190620023f2565b5061016082015181600b015561018082015181600c01559050505050505050565b6000809054906101000a900473ffffffffffffffffffffffffffffffffffffffff1681565b600060066000848152602001908152602001600020600083815260200190815260200160002054905092915050565b600062001408620022ec565b600080600560008981526020019081526020016000206101a06040519081016040529081600082015481526020016001820160009054906101000a900473ffffffffffffffffffffffffffffffffffffffff1673ffffffffffffffffffffffffffffffffffffffff1673ffffffffffffffffffffffffffffffffffffffff168152602001600282015481526020016003820154815260200160048201548152602001600582015481526020016006820154815260200160078201548152602001600882018054600181600116156101000203166002900480601f016020809104026020016040519081016040528092919081815260200182805460018160011615610100020316600290048015620015645780601f10620015385761010080835404028352916020019162001564565b820191906000526020600020905b8154815290600101906020018083116200154657829003601f168201915b50505050508152602001600982018054600181600116156101000203166002900480601f0160208091040260200160405190810160405280929190818152602001828054600181600116156101000203166002900480156200160a5780601f10620015de576101008083540402835291602001916200160a565b820191906000526020600020905b815481529060010190602001808311620015ec57829003601f168201915b50505050508152602001600a82018054600181600116156101000203166002900480601f016020809104026020016040519081016040528092919081815260200182805460018160011615610100020316600290048015620016b05780601f106200168457610100808354040283529160200191620016b0565b820191906000526020600020905b8154815290600101906020018083116200169257829003601f168201915b50505050508152602001600b8201548152602001600c8201548152505092503383604001518460800151878660a001518a8861010001518d8a60c001518b60e001518c61012001518d61016001518e61018001516200170e62002479565b808e73ffffffffffffffffffffffffffffffffffffffff1673ffffffffffffffffffffffffffffffffffffffff1681526020018d81526020018c81526020018b81526020018a8152602001898152602001806020018860ff1660ff1681526020018781526020018681526020018060200185815260200184815260200183810383528a818151815260200191508051906020019080838360005b83811015620017c5578082015181840152602081019050620017a8565b50505050905090810190601f168015620017f35780820380516001836020036101000a031916815260200191505b50838103825286818151815260200191508051906020019080838360005b838110156200182e57808201518184015260208101905062001811565b50505050905090810190601f1680156200185c5780820380516001836020036101000a031916815260200191505b509f50505050505050505050505050505050604051809103906000f0801580156200188b573d6000803e3d6000fd5b509150819050600260009054906101000a900473ffffffffffffffffffffffffffffffffffffffff1673ffffffffffffffffffffffffffffffffffffffff1660405180807f6465706c6f795472656528616464726573732900000000000000000000000000815250601301905060405180910390207c01000000000000000000000000000000000000000000000000000000009004826040518263ffffffff167c0100000000000000000000000000000000000000000000000000000000028152600401808273ffffffffffffffffffffffffffffffffffffffff1673ffffffffffffffffffffffffffffffffffffffff1681526020019150506000604051808303816000875af19250505050819350505050949350505050565b6060620019b2620022ec565b600060606000600560008781526020019081526020016000206101a06040519081016040529081600082015481526020016001820160009054906101000a900473ffffffffffffffffffffffffffffffffffffffff1673ffffffffffffffffffffffffffffffffffffffff1673ffffffffffffffffffffffffffffffffffffffff168152602001600282015481526020016003820154815260200160048201548152602001600582015481526020016006820154815260200160078201548152602001600882018054600181600116156101000203166002900480601f01602080910402602001604051908101604052809291908181526020018280546001816001161561010002031660029004801562001b115780601f1062001ae55761010080835404028352916020019162001b11565b820191906000526020600020905b81548152906001019060200180831162001af357829003601f168201915b50505050508152602001600982018054600181600116156101000203166002900480601f01602080910402602001604051908101604052809291908181526020018280546001816001161561010002031660029004801562001bb75780601f1062001b8b5761010080835404028352916020019162001bb7565b820191906000526020600020905b81548152906001019060200180831162001b9957829003601f168201915b50505050508152602001600a82018054600181600116156101000203166002900480601f01602080910402602001604051908101604052809291908181526020018280546001816001161561010002031660029004801562001c5d5780601f1062001c315761010080835404028352916020019162001c5d565b820191906000526020600020905b81548152906001019060200180831162001c3f57829003601f168201915b50505050508152602001600b8201548152602001600c820154815250509350836060015192508260405190808252806020026020018201604052801562001cb35781602001602082028038833980820191505090505b509150600090505b8281101562001cfb5762001cd08682620013cd565b828281518110151562001cdf57fe5b9060200190602002018181525050808060010191505062001cbb565b81945050505050919050565b60008060009054906101000a900473ffffffffffffffffffffffffffffffffffffffff1673ffffffffffffffffffffffffffffffffffffffff163373ffffffffffffffffffffffffffffffffffffffff1614151562001d6557600080fd5b60008273ffffffffffffffffffffffffffffffffffffffff16141562001d8a57600080fd5b7f1f8d7d25344642d919d55999e4664aa452a5f424bc0936ceb9c2b300db7dcbd96000809054906101000a900473ffffffffffffffffffffffffffffffffffffffff1683604051808373ffffffffffffffffffffffffffffffffffffffff1673ffffffffffffffffffffffffffffffffffffffff1681526020018273ffffffffffffffffffffffffffffffffffffffff1673ffffffffffffffffffffffffffffffffffffffff1681526020019250505060405180910390a1816000806101000a81548173ffffffffffffffffffffffffffffffffffffffff021916908373ffffffffffffffffffffffffffffffffffffffff16021790555060019050919050565b60006005600089815260200190815260200160002090508681600401819055508581600601819055508481600701819055508381600501819055508281600b01819055508181600c018190555062001ee9886103e8806000620013fc565b505050505050505050565b60006005600060015481526020019081526020016000206003015490508160066000858152602001908152602001600020600083815260200190815260200160002081905550600181016005600085815260200190815260200160002060030181905550505050565b60408051908101604052808281526020016000815250600460003373ffffffffffffffffffffffffffffffffffffffff1673ffffffffffffffffffffffffffffffffffffffff168152602001908152602001600020600082015181600001908051906020019062001fd09291906200236b565b506020820151816001015590505050565b600060149054906101000a900460ff1681565b60008060008062002004620022ec565b600560008781526020019081526020016000206101a06040519081016040529081600082015481526020016001820160009054906101000a900473ffffffffffffffffffffffffffffffffffffffff1673ffffffffffffffffffffffffffffffffffffffff1673ffffffffffffffffffffffffffffffffffffffff168152602001600282015481526020016003820154815260200160048201548152602001600582015481526020016006820154815260200160078201548152602001600882018054600181600116156101000203166002900480601f0160208091040260200160405190810160405280929190818152602001828054600181600116156101000203166002900480156200215d5780601f1062002131576101008083540402835291602001916200215d565b820191906000526020600020905b8154815290600101906020018083116200213f57829003601f168201915b50505050508152602001600982018054600181600116156101000203166002900480601f016020809104026020016040519081016040528092919081815260200182805460018160011615610100020316600290048015620022035780601f10620021d75761010080835404028352916020019162002203565b820191906000526020600020905b815481529060010190602001808311620021e557829003601f168201915b50505050508152602001600a82018054600181600116156101000203166002900480601f016020809104026020016040519081016040528092919081815260200182805460018160011615610100020316600290048015620022a95780601f106200227d57610100808354040283529160200191620022a9565b820191906000526020600020905b8154815290600101906020018083116200228b57829003601f168201915b50505050508152602001600b8201548152602001600c82015481525050905080608001518160c001518260e001518360a001519450945094509450509193509193565b6101a06040519081016040528060008152602001600073ffffffffffffffffffffffffffffffffffffffff16815260200160008152602001600081526020016000815260200160008152602001600081526020016000815260200160608152602001606081526020016060815260200160008152602001600081525090565b828054600181600116156101000203166002900490600052602060002090601f016020900481019282601f10620023ae57805160ff1916838001178555620023df565b82800160010185558215620023df579182015b82811115620023de578251825591602001919060010190620023c1565b5b509050620023ee91906200248a565b5090565b828054600181600116156101000203166002900490600052602060002090601f016020900481019282601f106200243557805160ff191683800117855562002466565b8280016001018555821562002466579182015b828111156200246557825182559160200191906001019062002448565b5b5090506200247591906200248a565b5090565b6040516122c580620024b383390190565b620024af91905b80821115620024ab57600081600090555060010162002491565b5090565b90560060806040526040805190810160405280600481526020017f48302e310000000000000000000000000000000000000000000000000000000081525060069080519060200190620000519291906200022b565b503480156200005f57600080fd5b50604051620022c5380380620022c5833981018060405281019080805190602001909291908051906020019092919080519060200190929190805190602001909291908051906020019092919080519060200190929190805182019291906020018051906020019092919080519060200190929190805190602001909291908051820192919060200180519060200190929190805190602001909291905050508787878583600160003373ffffffffffffffffffffffffffffffffffffffff1673ffffffffffffffffffffffffffffffffffffffff16815260200190815260200160002081905550836000819055508260039080519060200190620001669291906200022b565b5081600460006101000a81548160ff021916908360ff16021790555080600590805190602001906200019a9291906200022b565b50505050508c600760006101000a81548173ffffffffffffffffffffffffffffffffffffffff021916908373ffffffffffffffffffffffffffffffffffffffff1602179055508b6008819055508a600a8190555088600d8190555089600b8190555084600e8190555083600f81905550816012819055508060138190555050505050505050505050505050620002da565b828054600181600116156101000203166002900490600052602060002090601f016020900481019282601f106200026e57805160ff19168380011785556200029f565b828001600101855582156200029f579182015b828111156200029e57825182559160200191906001019062000281565b5b509050620002ae9190620002b2565b5090565b620002d791905b80821115620002d3576000816000905550600101620002b9565b5090565b90565b611fdb80620002ea6000396000f30060806040526004361061013e576000357c0100000000000000000000000000000000000000000000000000000000900463ffffffff16806306fdde0314610143578063091e9a60146101d3578063095ea7b3146101f557806317727a001461025a57806318160ddd1461027157806323b872dd1461029c578063244a39af14610321578063313ce567146103505780633696a817146103815780634791abe1146103ae57806354fd4d50146104095780635b614794146104995780635f5fd2e2146104dc57806365ab841d146104f357806370a08231146105225780637d3d65221461057957806395d89b41146105a85780639f7aee8214610638578063a9059cbb14610693578063bf3e394e146106f8578063cae9ca511461070f578063dd62ed3e146107ba578063ebfdd32d14610831578063fc6dc17d14610872575b600080fd5b34801561014f57600080fd5b506101586108cd565b6040518080602001828103825283818151815260200191508051906020019080838360005b8381101561019857808201518184015260208101905061017d565b50505050905090810190601f1680156101c55780820380516001836020036101000a031916815260200191505b509250505060405180910390f35b6101db61096b565b604051808215151515815260200191505060405180910390f35b34801561020157600080fd5b50610240600480360381019080803573ffffffffffffffffffffffffffffffffffffffff16906020019092919080359060200190929190505050610e17565b604051808215151515815260200191505060405180910390f35b34801561026657600080fd5b5061026f610f09565b005b34801561027d57600080fd5b50610286610f96565b6040518082815260200191505060405180910390f35b3480156102a857600080fd5b50610307600480360381019080803573ffffffffffffffffffffffffffffffffffffffff169060200190929190803573ffffffffffffffffffffffffffffffffffffffff16906020019092919080359060200190929190505050610f9c565b604051808215151515815260200191505060405180910390f35b34801561032d57600080fd5b50610336611208565b604051808215151515815260200191505060405180910390f35b34801561035c57600080fd5b50610365611223565b604051808260ff1660ff16815260200191505060405180910390f35b34801561038d57600080fd5b506103ac60048036038101908080359060200190929190505050611236565b005b3480156103ba57600080fd5b506103ef600480360381019080803573ffffffffffffffffffffffffffffffffffffffff16906020019092919050505061127e565b604051808215151515815260200191505060405180910390f35b34801561041557600080fd5b5061041e6113c4565b6040518080602001828103825283818151815260200191508051906020019080838360005b8381101561045e578082015181840152602081019050610443565b50505050905090810190601f16801561048b5780820380516001836020036101000a031916815260200191505b509250505060405180910390f35b3480156104a557600080fd5b506104da600480360381019080803573ffffffffffffffffffffffffffffffffffffffff169060200190929190505050611462565b005b3480156104e857600080fd5b506104f16114a6565b005b3480156104ff57600080fd5b506105086115a6565b604051808215151515815260200191505060405180910390f35b34801561052e57600080fd5b50610563600480360381019080803573ffffffffffffffffffffffffffffffffffffffff1690602001909291905050506115f4565b6040518082815260200191505060405180910390f35b34801561058557600080fd5b5061058e61163d565b604051808215151515815260200191505060405180910390f35b3480156105b457600080fd5b506105bd61164c565b6040518080602001828103825283818151815260200191508051906020019080838360005b838110156105fd5780820151818401526020810190506105e2565b50505050905090810190601f16801561062a5780820380516001836020036101000a031916815260200191505b509250505060405180910390f35b34801561064457600080fd5b50610679600480360381019080803573ffffffffffffffffffffffffffffffffffffffff1690602001909291905050506116ea565b604051808215151515815260200191505060405180910390f35b34801561069f57600080fd5b506106de600480360381019080803573ffffffffffffffffffffffffffffffffffffffff16906020019092919080359060200190929190505050611830565b604051808215151515815260200191505060405180910390f35b34801561070457600080fd5b5061070d611989565b005b34801561071b57600080fd5b506107a0600480360381019080803573ffffffffffffffffffffffffffffffffffffffff16906020019092919080359060200190929190803590602001908201803590602001908080601f0160208091040260200160405190810160405280939291908181526020018383808284378201915050505050509192919290505050611a5c565b604051808215151515815260200191505060405180910390f35b3480156107c657600080fd5b5061081b600480360381019080803573ffffffffffffffffffffffffffffffffffffffff169060200190929190803573ffffffffffffffffffffffffffffffffffffffff169060200190929190505050611cf9565b6040518082815260200191505060405180910390f35b34801561083d57600080fd5b5061085c60048036038101908080359060200190929190505050611d80565b6040518082815260200191505060405180910390f35b34801561087e57600080fd5b506108b3600480360381019080803573ffffffffffffffffffffffffffffffffffffffff169060200190929190505050611dc4565b604051808215151515815260200191505060405180910390f35b60038054600181600116156101000203166002900480601f0160208091040260200160405190810160405280929190818152602001828054600181600116156101000203166002900480156109635780601f1061093857610100808354040283529160200191610963565b820191906000526020600020905b81548152906001019060200180831161094657829003601f168201915b505050505081565b6000806000806000600160003373ffffffffffffffffffffffffffffffffffffffff1673ffffffffffffffffffffffffffffffffffffffff168152602001908152602001600020541415610abd57606060405190810160405280600c5481526020016040805190810160405280600981526020017f416e6f6e796d6f75730000000000000000000000000000000000000000000000815250815260200160006004811115610a1557fe5b815250601a60003373ffffffffffffffffffffffffffffffffffffffff1673ffffffffffffffffffffffffffffffffffffffff168152602001908152602001600020600082015181600001556020820151816001019080519060200190610a7d929190611f0a565b5060408201518160020160006101000a81548160ff02191690836004811115610aa257fe5b0217905550905050600c600081548092919060010191905055505b600e54600f5403612710600e54420302811515610ad657fe5b049250600a54600954811515610ae857fe5b046013540283601254020168010000000000000000027fffffffffffffffffffffffffffffffffffffffffffffffffffffffffffffffff02915068010000000000000000600160003373ffffffffffffffffffffffffffffffffffffffff1673ffffffffffffffffffffffffffffffffffffffff168152602001908152602001600020548373__Math__________________________________63e46751e390916040518263ffffffff167c01000000000000000000000000000000000000000000000000000000000281526004018082815260200191505060206040518083038186803b158015610bd957600080fd5b505af4158015610bed573d6000803e3d6000fd5b505050506040513d6020811015610c0357600080fd5b810190808051906020019092919050505002811515610c1e57fe5b04905034600160003373ffffffffffffffffffffffffffffffffffffffff1673ffffffffffffffffffffffffffffffffffffffff16815260200190815260200160002060008282540192505081905550601473__CoinQueueLib2_________________________63595b59d790913384601160009054906101000a900473ffffffffffffffffffffffffffffffffffffffff166040518563ffffffff167c0100000000000000000000000000000000000000000000000000000000028152600401808581526020018473ffffffffffffffffffffffffffffffffffffffff1673ffffffffffffffffffffffffffffffffffffffff1681526020018381526020018273ffffffffffffffffffffffffffffffffffffffff1673ffffffffffffffffffffffffffffffffffffffff16815260200194505050505060206040518083038186803b158015610d6e57600080fd5b505af4158015610d82573d6000803e3d6000fd5b505050506040513d6020811015610d9857600080fd5b810190808051906020019092919050505050610db261163d565b15610df4577f1e61fe9a90d23ee89cf23cb1f66c1188b68372e59b6ad3470f3b26b564e966776001604051808215151515815260200191505060405180910390a15b34600960008282540192505081905550610e0d34611236565b6001935050505090565b600081600260003373ffffffffffffffffffffffffffffffffffffffff1673ffffffffffffffffffffffffffffffffffffffff16815260200190815260200160002060008573ffffffffffffffffffffffffffffffffffffffff1673ffffffffffffffffffffffffffffffffffffffff168152602001908152602001600020819055508273ffffffffffffffffffffffffffffffffffffffff163373ffffffffffffffffffffffffffffffffffffffff167f8c5be1e5ebec7d5bd14f71427d1e84f3dd0314c0f7b2291e5b200ac8c7c3b925846040518082815260200191505060405180910390a36001905092915050565b610f1161163d565b8015610f1e5750600f5442115b1515610f2957600080fd5b600760009054906101000a900473ffffffffffffffffffffffffffffffffffffffff1673ffffffffffffffffffffffffffffffffffffffff166108fc6009549081150290604051600060405180830381858888f19350505050158015610f93573d6000803e3d6000fd5b50565b60005481565b600081600160008673ffffffffffffffffffffffffffffffffffffffff1673ffffffffffffffffffffffffffffffffffffffff1681526020019081526020016000205410158015611069575081600260008673ffffffffffffffffffffffffffffffffffffffff1673ffffffffffffffffffffffffffffffffffffffff16815260200190815260200160002060003373ffffffffffffffffffffffffffffffffffffffff1673ffffffffffffffffffffffffffffffffffffffff1681526020019081526020016000205410155b151561107457600080fd5b81600160008573ffffffffffffffffffffffffffffffffffffffff1673ffffffffffffffffffffffffffffffffffffffff1681526020019081526020016000206000828254019250508190555081600160008673ffffffffffffffffffffffffffffffffffffffff1673ffffffffffffffffffffffffffffffffffffffff1681526020019081526020016000206000828254039250508190555081600260008673ffffffffffffffffffffffffffffffffffffffff1673ffffffffffffffffffffffffffffffffffffffff16815260200190815260200160002060003373ffffffffffffffffffffffffffffffffffffffff1673ffffffffffffffffffffffffffffffffffffffff168152602001908152602001600020600082825403925050819055508273ffffffffffffffffffffffffffffffffffffffff168473ffffffffffffffffffffffffffffffffffffffff167fddf252ad1be2c89b69c2b068fc378daa952ba7f163c4a11628f55a4df523b3ef846040518082815260200191505060405180910390a3600190509392505050565b6000600a5460095410801561121e5750600f5442115b905090565b600460009054906101000a900460ff1681565b6000600762015180600e54420381151561124c57fe5b0481151561125657fe5b04905081601b6000838152602001908152602001600020600082825401925050819055505050565b60006001600481111561128d57fe5b601a60008473ffffffffffffffffffffffffffffffffffffffff1673ffffffffffffffffffffffffffffffffffffffff16815260200190815260200160002060020160009054906101000a900460ff1660048111156112e857fe5b1415156112f457600080fd5b6002601a60008473ffffffffffffffffffffffffffffffffffffffff1673ffffffffffffffffffffffffffffffffffffffff16815260200190815260200160002060020160006101000a81548160ff0219169083600481111561135357fe5b02179055507f5da801b6e57bde18d536d5e32ef866b5fdd927d80101ed20524c269550edf1c733604051808273ffffffffffffffffffffffffffffffffffffffff1673ffffffffffffffffffffffffffffffffffffffff16815260200191505060405180910390a160019050919050565b60068054600181600116156101000203166002900480601f01602080910402602001604051908101604052809291908181526020018280546001816001161561010002031660029004801561145a5780601f1061142f5761010080835404028352916020019161145a565b820191906000526020600020905b81548152906001019060200180831161143d57829003601f168201915b505050505081565b80601160006101000a81548173ffffffffffffffffffffffffffffffffffffffff021916908373ffffffffffffffffffffffffffffffffffffffff16021790555050565b60006114b061163d565b80156114bd5750600f5442115b15156114c857600080fd5b600160003373ffffffffffffffffffffffffffffffffffffffff1673ffffffffffffffffffffffffffffffffffffffff1681526020019081526020016000205490506000600160003373ffffffffffffffffffffffffffffffffffffffff1673ffffffffffffffffffffffffffffffffffffffff168152602001908152602001600020819055503373ffffffffffffffffffffffffffffffffffffffff166108fc6009548381151561157657fe5b049081150290604051600060405180830381858888f193505050501580156115a2573d6000803e3d6000fd5b5050565b60006115b061163d565b80156115bd5750600f5442115b15156115c857600080fd5b600b54600d54111515156115db57600080fd5b600d600081548092919060010191905055506001905090565b6000600160008373ffffffffffffffffffffffffffffffffffffffff1673ffffffffffffffffffffffffffffffffffffffff168152602001908152602001600020549050919050565b6000600a546009541015905090565b60058054600181600116156101000203166002900480601f0160208091040260200160405190810160405280929190818152602001828054600181600116156101000203166002900480156116e25780601f106116b7576101008083540402835291602001916116e2565b820191906000526020600020905b8154815290600101906020018083116116c557829003601f168201915b505050505081565b6000600360048111156116f957fe5b601a60008473ffffffffffffffffffffffffffffffffffffffff1673ffffffffffffffffffffffffffffffffffffffff16815260200190815260200160002060020160009054906101000a900460ff16600481111561175457fe5b14151561176057600080fd5b6004601a60008473ffffffffffffffffffffffffffffffffffffffff1673ffffffffffffffffffffffffffffffffffffffff16815260200190815260200160002060020160006101000a81548160ff021916908360048111156117bf57fe5b02179055507f2ede3ac351c71eef2c08079e7a98ae331342822768bb2ec7818b11a8e87cd18382604051808273ffffffffffffffffffffffffffffffffffffffff1673ffffffffffffffffffffffffffffffffffffffff16815260200191505060405180910390a160019050919050565b600081600160003373ffffffffffffffffffffffffffffffffffffffff1673ffffffffffffffffffffffffffffffffffffffff168152602001908152602001600020541015151561188057600080fd5b81600160003373ffffffffffffffffffffffffffffffffffffffff1673ffffffffffffffffffffffffffffffffffffffff1681526020019081526020016000206000828254039250508190555081600160008573ffffffffffffffffffffffffffffffffffffffff1673ffffffffffffffffffffffffffffffffffffffff168152602001908152602001600020600082825401925050819055508273ffffffffffffffffffffffffffffffffffffffff163373ffffffffffffffffffffffffffffffffffffffff167fddf252ad1be2c89b69c2b068fc378daa952ba7f163c4a11628f55a4df523b3ef846040518082815260200191505060405180910390a36001905092915050565b6000600160003373ffffffffffffffffffffffffffffffffffffffff1673ffffffffffffffffffffffffffffffffffffffff1681526020019081526020016000205490506000600160003373ffffffffffffffffffffffffffffffffffffffff1673ffffffffffffffffffffffffffffffffffffffff168152602001908152602001600020819055503373ffffffffffffffffffffffffffffffffffffffff166108fc829081150290604051600060405180830381858888f19350505050158015611a58573d6000803e3d6000fd5b5050565b600082600260003373ffffffffffffffffffffffffffffffffffffffff1673ffffffffffffffffffffffffffffffffffffffff16815260200190815260200160002060008673ffffffffffffffffffffffffffffffffffffffff1673ffffffffffffffffffffffffffffffffffffffff168152602001908152602001600020819055508373ffffffffffffffffffffffffffffffffffffffff163373ffffffffffffffffffffffffffffffffffffffff167f8c5be1e5ebec7d5bd14f71427d1e84f3dd0314c0f7b2291e5b200ac8c7c3b925856040518082815260200191505060405180910390a38373ffffffffffffffffffffffffffffffffffffffff1660405180807f72656365697665417070726f76616c28616464726573732c75696e743235362c81526020017f616464726573732c627974657329000000000000000000000000000000000000815250602e01905060405180910390207c01000000000000000000000000000000000000000000000000000000009004338530866040518563ffffffff167c0100000000000000000000000000000000000000000000000000000000028152600401808573ffffffffffffffffffffffffffffffffffffffff1673ffffffffffffffffffffffffffffffffffffffff1681526020018481526020018373ffffffffffffffffffffffffffffffffffffffff1673ffffffffffffffffffffffffffffffffffffffff168152602001828051906020019080838360005b83811015611c9d578082015181840152602081019050611c82565b50505050905090810190601f168015611cca5780820380516001836020036101000a031916815260200191505b509450505050506000604051808303816000875af1925050501515611cee57600080fd5b600190509392505050565b6000600260008473ffffffffffffffffffffffffffffffffffffffff1673ffffffffffffffffffffffffffffffffffffffff16815260200190815260200160002060008373ffffffffffffffffffffffffffffffffffffffff1673ffffffffffffffffffffffffffffffffffffffff16815260200190815260200160002054905092915050565b6000806000601b6000858152602001908152602001600020549150600782811515611da757fe5b04915081600a54811515611db757fe5b0490508092505050919050565b600060026004811115611dd357fe5b601a60008473ffffffffffffffffffffffffffffffffffffffff1673ffffffffffffffffffffffffffffffffffffffff16815260200190815260200160002060020160009054906101000a900460ff166004811115611e2e57fe5b141515611e3a57600080fd5b6003601a60008473ffffffffffffffffffffffffffffffffffffffff1673ffffffffffffffffffffffffffffffffffffffff16815260200190815260200160002060020160006101000a81548160ff02191690836004811115611e9957fe5b02179055507f1fc44c2b44927a36b98c2262da2b66a43bf6395e97a25719577b1bbfa7f279d482604051808273ffffffffffffffffffffffffffffffffffffffff1673ffffffffffffffffffffffffffffffffffffffff16815260200191505060405180910390a160019050919050565b828054600181600116156101000203166002900490600052602060002090601f016020900481019282601f10611f4b57805160ff1916838001178555611f79565b82800160010185558215611f79579182015b82811115611f78578251825591602001919060010190611f5d565b5b509050611f869190611f8a565b5090565b611fac91905b80821115611fa8576000816000905550600101611f90565b5090565b905600a165627a7a723058201398e54635e8d920f85cfa5e9ede6b5bbf4f91c53cb6aa21b839019871042a6b0029a165627a7a723058207196d671108448df5bdab4e9d4c660225ae3e96e7142124fabe6a464ae6676be0029",
  "source": "//CoinStructPub - Decentralized CoinStruct Self-Publishing Platform\r\n//Must work for many, many authors\r\n//Assume authors might have as many as 10,000,000 fans\r\n//Gonna be sweet!\r\n//------------------------------------------------------*\r\n\r\n/* Summary:\r\n// Authors fund Coin publishing by selling licensing equity via micro crowd funding\r\n1) Publish contract with initial supply of 0 and sell coins at fixed price\r\n2) customers purchase coins to reveal eCoin download, and get in line for a hard copy\r\n3) Any amount of coins purchased is acceptable, price as low as a penny if you like\r\n4) The more coins you hold, the higher in line you get to receive your hard copy\r\n5) Every coin you own represents a small piece of equity in licensing rights\r\n6) Equity is determined by the number of coins you hold in proportion to total supply\r\n7) When certain funding goals are met, users at the top of the line are shipped a hard copy\r\n8) Coin holders are legally entitled to licesnsing revenue if a deal is made with a publisher, movie studio, amusementpark, etc.\r\n*/\r\n\r\n/*MAY NOT COMPILE*/\r\n\r\npragma solidity ^0.4.15;\r\n\r\nimport \"./Stoppable.sol\";\r\nimport \"./Coin.sol\";\r\nimport \"./Math.sol\";\r\n\r\ncontract CoinPub is Stoppable {\r\n  using Math for *;\r\n    uint CoinID;            //ID applied to Coin upon pub, incrementing after each new Coin\r\n    address TreeDeploy;\r\n    function CoinPub(address T){\r\n        CoinID = 0;\r\n        TreeDeploy=T;\r\n      }\r\n    modifier isOwner() {\r\n      require(msg.sender == owner);\r\n      _;}           //Owner of CoinStructPub Platform\r\n    modifier isAuthor() {\r\n      //  require(authors[msg.sender].totalEarned == 0);\r\n      _;}                                          //Author exists in Author mapping\r\n    modifier iscustomer() {\r\n      //    require(customers[msg.sender].customerUsername);\r\n      _;}                                          //customer exists in customer mapping\r\n\r\n    mapping(address => customer) customers;\r\n    mapping(address => Author) authors;\r\n    mapping(uint => CoinStruct) Coins;\r\n    //mapping(uint => uint) partnerShares;\r\n    mapping(uint=>mapping(uint=>uint)) partnerShares;\r\n    //customer details [customersUsername, CoinIDs purchased array]\r\n    struct customer {\r\n      bytes customerUsername;      //customer's username\r\n      bool eligible;\r\n      //uint[] CoinsPurchased;       //CoinStructIDs of all owned Coins\r\n      }\r\n    //Author details [authorName, totalEarned, CoinID published array]\r\n    struct Author {\r\n       bytes authorName;          //Author's legal name\r\n       uint totalEarned;            //How much has this writer earned?\r\n       //uint[] CoinsPublished;       //CoinStructIDs of all published Coins\r\n      }\r\n\r\n    //CoinStruct details [CoinID, authorAddress, customershipStake, customers array]\r\n    struct CoinStruct {\r\n      uint CoinID;                 //Global Coin ID ++1\r\n      address authorAddress;       //Who was the author? Can be used to access Authors mapping\r\n      uint customershipStake;\r\n      //uint[] Partners;\r\n      uint numPartners;\r\n      uint goal\t;\r\n      uint eligibleCount;\r\n\t    uint startdate;\r\n\t    uint enddate;\r\n\r\n\t    string tokenName;\r\n\t    string tokenSymbol;\r\n\t    string governanceModel;\r\n      uint   weightCoefficient;\r\n      uint   weightCoefficient2;\r\n\t  //How much equity did the author provision for customers?\r\n      }\r\n    function addPartner(uint _CoinID,uint _share){\r\n      uint i=Coins[CoinID].numPartners;\r\n\t    partnerShares[_CoinID][i]=_share;\r\n\r\n      Coins[_CoinID].numPartners=i+1;\r\n    }\r\n    function becomecustomer(bytes _customerUsername) {\r\n      //customer signs up to buy Coin coins\r\n      customers[msg.sender] = customer({\r\n                                  customerUsername: _customerUsername,\r\n                                  eligible: false\r\n                                  });\r\n                                }\r\n    function becomeAuthor(bytes _authorName) {\r\n      //Author signs up to publish\r\n      authors[msg.sender] = Author({\r\n                                  authorName: _authorName,\r\n                                  totalEarned: 0\r\n                                  });\r\n                                }\r\n\r\n\r\n\r\n    function createCoinStruct (uint _customershipStake,string _tokenName,string _tokenSymbol,string _governanceModel)\r\n      isAuthor() {\r\n       CoinID += 1;\r\n\t\t   uint t=10;\r\n       //uint[] memory P = new uint[](10);//default 10 possible partners (possibly add option for more or less)\r\n\t\t   //uint[]  P;\r\n\t\t   //P[1]=12;\r\n\r\n\r\n        Coins[CoinID] = CoinStruct({\r\n              CoinID: CoinID,\r\n              authorAddress: msg.sender,\r\n              customershipStake: _customershipStake,\r\n              tokenName:_tokenName,\r\n              tokenSymbol:_tokenSymbol,\r\n\t\t\t\t\t\t\tgovernanceModel:_governanceModel,\r\n\t\t\t\t\t\t\tgoal:t,\r\n\t\t\t\t\t\t  startdate:t,\r\n\t \t\t\t\t\t\tenddate:t,\r\n\t \t\t\t\t\t\teligibleCount:t,\r\n\t\t\t\t\t\t               //\tPartners:P,\r\n              numPartners:0,\r\n              weightCoefficient:1,\r\n              weightCoefficient2:1\r\n                            });\r\n                          }\r\n  function modifyCoinStruct(uint _CoinID,uint _goal,uint _startdate,uint _enddate,uint _eligibleCount,uint _weight, uint _weight2)\r\n\t isAuthor()   {\r\n\t              CoinStruct storage temp=Coins[_CoinID];\r\n\t              temp.goal=_goal;\r\n\t              temp.startdate=_startdate;\r\n\t              temp.enddate=_enddate;\r\n\t              temp.eligibleCount=_eligibleCount;\r\n                temp.weightCoefficient=_weight;\r\n                temp.weightCoefficient2=_weight2;\r\n\r\n      //bytes data=0xa50b4f0;\r\n      publishCoin( _CoinID ,  uint8(1000), uint(1000),  uint(0) );\r\n   }\r\n\r\n  function publishCoin(uint id, uint8 _decimalUnits,uint _initialAmount, uint _toBeShipped ) returns(address){\r\n     CoinStruct memory temp=Coins[id];\r\n\r\n    Coin newCoin = new Coin(msg.sender, temp.customershipStake, temp.goal, _toBeShipped,\r\n                             temp.eligibleCount, _initialAmount, temp.tokenName,_decimalUnits,temp.startdate,temp.enddate,temp.tokenSymbol,temp.weightCoefficient,temp.weightCoefficient2);\r\n      address T=address(newCoin);\r\n     TreeDeploy.call(bytes4(sha3((\"deployTree(address)\"))),T);\r\n     return newCoin;\r\n   }\r\n\r\n   function structRet(uint n)  public returns(uint){\r\n     CoinStruct memory b= Coins[n];\r\n     return b.customershipStake;\r\n\r\n   }\r\n   function nameret(uint n)  public returns(string){\r\n     CoinStruct memory b= Coins[n];\r\n     return b.tokenName;\r\n\r\n   }\r\n   function symbolret(uint n)  public returns(string){\r\n     CoinStruct memory b= Coins[n];\r\n     return b.tokenSymbol;\r\n\r\n   }\r\n  // function getCoinStruct(uint n) public  returns (CoinStruct) {\r\n    // return Coins[n];\r\n   //}\r\n   function getOtherparams(uint n) returns(uint,uint,uint,uint){\r\n     CoinStruct memory b= Coins[n];\r\n     return(b.goal,b.startdate,b.enddate,b.eligibleCount);\r\n\r\n }\r\n  function getPartnerShare(uint n,uint m) public  returns (uint) {\r\n    return  partnerShares[n][m];\r\n  }\r\n  function returnallShares(uint n) public returns (uint[]){\r\n    CoinStruct memory B=Coins[n];\r\n    uint sz=B.numPartners;\r\n    uint[] memory P = new uint[](sz);\r\n    for(uint i=0;i<sz;i++){\r\n    P[i]=getPartnerShare(n,i);\r\n\r\n  }\r\n  return P;\r\n}\r\n}\r\n",
  "sourcePath": "/home/jjj/Documents/OE/OpenEquity/contracts/CoinPub.sol",
  "compiler": {
    "name": "solc",
    "version": "0.4.23+commit.124ca40d.Emscripten.clang"
  },
  "schemaVersion": "2.0.0",
  "updatedAt": "2018-07-06T19:55:31.670Z"
}