{
  "contractName": "Coin",
  "abi": [
    {
      "constant": true,
      "inputs": [],
      "name": "name",
      "outputs": [
        {
          "name": "",
          "type": "string"
        }
      ],
      "payable": false,
      "stateMutability": "view",
      "type": "function"
    },
    {
      "constant": false,
      "inputs": [
        {
          "name": "_spender",
          "type": "address"
        },
        {
          "name": "_value",
          "type": "uint256"
        }
      ],
      "name": "approve",
      "outputs": [
        {
          "name": "success",
          "type": "bool"
        }
      ],
      "payable": false,
      "stateMutability": "nonpayable",
      "type": "function"
    },
    {
      "constant": true,
      "inputs": [],
      "name": "totalSupply",
      "outputs": [
        {
          "name": "",
          "type": "uint256"
        }
      ],
      "payable": false,
      "stateMutability": "view",
      "type": "function"
    },
    {
      "constant": false,
      "inputs": [
        {
          "name": "_from",
          "type": "address"
        },
        {
          "name": "_to",
          "type": "address"
        },
        {
          "name": "_value",
          "type": "uint256"
        }
      ],
      "name": "transferFrom",
      "outputs": [
        {
          "name": "success",
          "type": "bool"
        }
      ],
      "payable": false,
      "stateMutability": "nonpayable",
      "type": "function"
    },
    {
      "constant": true,
      "inputs": [],
      "name": "decimals",
      "outputs": [
        {
          "name": "",
          "type": "uint8"
        }
      ],
      "payable": false,
      "stateMutability": "view",
      "type": "function"
    },
    {
      "constant": true,
      "inputs": [],
      "name": "version",
      "outputs": [
        {
          "name": "",
          "type": "string"
        }
      ],
      "payable": false,
      "stateMutability": "view",
      "type": "function"
    },
    {
      "constant": true,
      "inputs": [
        {
          "name": "_owner",
          "type": "address"
        }
      ],
      "name": "balanceOf",
      "outputs": [
        {
          "name": "balance",
          "type": "uint256"
        }
      ],
      "payable": false,
      "stateMutability": "view",
      "type": "function"
    },
    {
      "constant": true,
      "inputs": [],
      "name": "symbol",
      "outputs": [
        {
          "name": "",
          "type": "string"
        }
      ],
      "payable": false,
      "stateMutability": "view",
      "type": "function"
    },
    {
      "constant": false,
      "inputs": [
        {
          "name": "_to",
          "type": "address"
        },
        {
          "name": "_value",
          "type": "uint256"
        }
      ],
      "name": "transfer",
      "outputs": [
        {
          "name": "success",
          "type": "bool"
        }
      ],
      "payable": false,
      "stateMutability": "nonpayable",
      "type": "function"
    },
    {
      "constant": false,
      "inputs": [
        {
          "name": "_spender",
          "type": "address"
        },
        {
          "name": "_value",
          "type": "uint256"
        },
        {
          "name": "_extraData",
          "type": "bytes"
        }
      ],
      "name": "approveAndCall",
      "outputs": [
        {
          "name": "success",
          "type": "bool"
        }
      ],
      "payable": false,
      "stateMutability": "nonpayable",
      "type": "function"
    },
    {
      "constant": true,
      "inputs": [
        {
          "name": "_owner",
          "type": "address"
        },
        {
          "name": "_spender",
          "type": "address"
        }
      ],
      "name": "allowance",
      "outputs": [
        {
          "name": "remaining",
          "type": "uint256"
        }
      ],
      "payable": false,
      "stateMutability": "view",
      "type": "function"
    },
    {
      "inputs": [
        {
          "name": "_authorAddress",
          "type": "address"
        },
        {
          "name": "_customershipStake",
          "type": "uint256"
        },
        {
          "name": "_goal",
          "type": "uint256"
        },
        {
          "name": "_toBeShipped",
          "type": "uint256"
        },
        {
          "name": "_eligibleCount",
          "type": "uint256"
        },
        {
          "name": "_initialAmount",
          "type": "uint256"
        },
        {
          "name": "_tokenName",
          "type": "string"
        },
        {
          "name": "_decimalUnits",
          "type": "uint8"
        },
        {
          "name": "_startdate",
          "type": "uint256"
        },
        {
          "name": "_enddate",
          "type": "uint256"
        },
        {
          "name": "_tokenSymbol",
          "type": "string"
        }
      ],
      "payable": false,
      "stateMutability": "nonpayable",
      "type": "constructor"
    },
    {
      "anonymous": false,
      "inputs": [
        {
          "indexed": false,
          "name": "customer",
          "type": "address"
        },
        {
          "indexed": false,
          "name": "amountPaid",
          "type": "uint256"
        }
      ],
      "name": "BoughtCoin",
      "type": "event"
    },
    {
      "anonymous": false,
      "inputs": [
        {
          "indexed": false,
          "name": "success",
          "type": "bool"
        }
      ],
      "name": "GoalMet",
      "type": "event"
    },
    {
      "anonymous": false,
      "inputs": [],
      "name": "NewQualifyingcustomers",
      "type": "event"
    },
    {
      "anonymous": false,
      "inputs": [
        {
          "indexed": false,
          "name": "customer",
          "type": "address"
        }
      ],
      "name": "CoinRequested",
      "type": "event"
    },
    {
      "anonymous": false,
      "inputs": [
        {
          "indexed": false,
          "name": "customer",
          "type": "address"
        }
      ],
      "name": "LogCoinShipped",
      "type": "event"
    },
    {
      "anonymous": false,
      "inputs": [
        {
          "indexed": false,
          "name": "customer",
          "type": "address"
        }
      ],
      "name": "LogCoinConfirmed",
      "type": "event"
    },
    {
      "anonymous": false,
      "inputs": [
        {
          "indexed": true,
          "name": "_from",
          "type": "address"
        },
        {
          "indexed": true,
          "name": "_to",
          "type": "address"
        },
        {
          "indexed": false,
          "name": "_value",
          "type": "uint256"
        }
      ],
      "name": "Transfer",
      "type": "event"
    },
    {
      "anonymous": false,
      "inputs": [
        {
          "indexed": true,
          "name": "_owner",
          "type": "address"
        },
        {
          "indexed": true,
          "name": "_spender",
          "type": "address"
        },
        {
          "indexed": false,
          "name": "_value",
          "type": "uint256"
        }
      ],
      "name": "Approval",
      "type": "event"
    },
    {
      "constant": false,
      "inputs": [],
      "name": "goalReached",
      "outputs": [
        {
          "name": "goalMet",
          "type": "bool"
        }
      ],
      "payable": false,
      "stateMutability": "nonpayable",
      "type": "function"
    },
    {
      "constant": false,
      "inputs": [],
      "name": "goalFailed",
      "outputs": [
        {
          "name": "goalFailed",
          "type": "bool"
        }
      ],
      "payable": false,
      "stateMutability": "nonpayable",
      "type": "function"
    },
    {
      "constant": false,
      "inputs": [
        {
          "name": "a",
          "type": "address"
        }
      ],
      "name": "setTreeAddress",
      "outputs": [],
      "payable": false,
      "stateMutability": "nonpayable",
      "type": "function"
    },
    {
      "constant": false,
      "inputs": [],
      "name": "buyCoin",
      "outputs": [
        {
          "name": "success",
          "type": "bool"
        }
      ],
      "payable": true,
      "stateMutability": "payable",
      "type": "function"
    },
    {
      "constant": false,
      "inputs": [
        {
          "name": "value",
          "type": "uint256"
        }
      ],
      "name": "weekSaleSum",
      "outputs": [],
      "payable": false,
      "stateMutability": "nonpayable",
      "type": "function"
    },
    {
      "constant": false,
      "inputs": [
        {
          "name": "week",
          "type": "uint256"
        }
      ],
      "name": "ETA",
      "outputs": [
        {
          "name": "",
          "type": "uint256"
        }
      ],
      "payable": false,
      "stateMutability": "nonpayable",
      "type": "function"
    },
    {
      "constant": false,
      "inputs": [],
      "name": "setFirstEligible",
      "outputs": [
        {
          "name": "success",
          "type": "bool"
        }
      ],
      "payable": false,
      "stateMutability": "nonpayable",
      "type": "function"
    },
    {
      "constant": false,
      "inputs": [],
      "name": "withdrawCapital",
      "outputs": [],
      "payable": false,
      "stateMutability": "nonpayable",
      "type": "function"
    },
    {
      "constant": false,
      "inputs": [],
      "name": "withdrawInvestment",
      "outputs": [],
      "payable": false,
      "stateMutability": "nonpayable",
      "type": "function"
    },
    {
      "constant": false,
      "inputs": [],
      "name": "claimCoins",
      "outputs": [],
      "payable": false,
      "stateMutability": "nonpayable",
      "type": "function"
    },
    {
      "constant": false,
      "inputs": [
        {
          "name": "customerAddress",
          "type": "address"
        }
      ],
      "name": "requestDelivery",
      "outputs": [
        {
          "name": "success",
          "type": "bool"
        }
      ],
      "payable": false,
      "stateMutability": "nonpayable",
      "type": "function"
    },
    {
      "constant": false,
      "inputs": [
        {
          "name": "customer",
          "type": "address"
        }
      ],
      "name": "markShipped",
      "outputs": [
        {
          "name": "success",
          "type": "bool"
        }
      ],
      "payable": false,
      "stateMutability": "nonpayable",
      "type": "function"
    },
    {
      "constant": false,
      "inputs": [
        {
          "name": "customer",
          "type": "address"
        }
      ],
      "name": "confirmDelivery",
      "outputs": [
        {
          "name": "success",
          "type": "bool"
        }
      ],
      "payable": false,
      "stateMutability": "nonpayable",
      "type": "function"
    }
  ],
  "bytecode": "0x60806040526040805190810160405280600481526020017f48302e3100000000000000000000000000000000000000000000000000000000815250600690805190602001906200005192919062000204565b503480156200005f57600080fd5b50604051620021713803806200217183398101806040528101908080519060200190929190805190602001909291908051906020019092919080519060200190929190805190602001909291908051906020019092919080518201929190602001805190602001909291908051906020019092919080519060200190929190805182019291905050508585858383600160003373ffffffffffffffffffffffffffffffffffffffff1673ffffffffffffffffffffffffffffffffffffffff168152602001908152602001600020819055508360008190555082600390805190602001906200014f92919062000204565b5081600460006101000a81548160ff021916908360ff16021790555080600590805190602001906200018392919062000204565b50505050508a600760006101000a81548173ffffffffffffffffffffffffffffffffffffffff021916908373ffffffffffffffffffffffffffffffffffffffff1602179055508960088190555088600a8190555086600d8190555087600b8190555082600e8190555081600f819055505050505050505050505050620002b3565b828054600181600116156101000203166002900490600052602060002090601f016020900481019282601f106200024757805160ff191683800117855562000278565b8280016001018555821562000278579182015b82811115620002775782518255916020019190600101906200025a565b5b5090506200028791906200028b565b5090565b620002b091905b80821115620002ac57600081600090555060010162000292565b5090565b90565b611eae80620002c36000396000f30060806040526004361061013e576000357c0100000000000000000000000000000000000000000000000000000000900463ffffffff16806306fdde0314610143578063091e9a60146101d3578063095ea7b3146101f557806317727a001461025a57806318160ddd1461027157806323b872dd1461029c578063244a39af14610321578063313ce567146103505780633696a817146103815780634791abe1146103ae57806354fd4d50146104095780635b614794146104995780635f5fd2e2146104dc57806365ab841d146104f357806370a08231146105225780637d3d65221461057957806395d89b41146105a85780639f7aee8214610638578063a9059cbb14610693578063bf3e394e146106f8578063cae9ca511461070f578063dd62ed3e146107ba578063ebfdd32d14610831578063fc6dc17d14610872575b600080fd5b34801561014f57600080fd5b506101586108cd565b6040518080602001828103825283818151815260200191508051906020019080838360005b8381101561019857808201518184015260208101905061017d565b50505050905090810190601f1680156101c55780820380516001836020036101000a031916815260200191505b509250505060405180910390f35b6101db61096b565b604051808215151515815260200191505060405180910390f35b34801561020157600080fd5b50610240600480360381019080803573ffffffffffffffffffffffffffffffffffffffff16906020019092919080359060200190929190505050610cea565b604051808215151515815260200191505060405180910390f35b34801561026657600080fd5b5061026f610ddc565b005b34801561027d57600080fd5b50610286610e69565b6040518082815260200191505060405180910390f35b3480156102a857600080fd5b50610307600480360381019080803573ffffffffffffffffffffffffffffffffffffffff169060200190929190803573ffffffffffffffffffffffffffffffffffffffff16906020019092919080359060200190929190505050610e6f565b604051808215151515815260200191505060405180910390f35b34801561032d57600080fd5b506103366110db565b604051808215151515815260200191505060405180910390f35b34801561035c57600080fd5b506103656110f6565b604051808260ff1660ff16815260200191505060405180910390f35b34801561038d57600080fd5b506103ac60048036038101908080359060200190929190505050611109565b005b3480156103ba57600080fd5b506103ef600480360381019080803573ffffffffffffffffffffffffffffffffffffffff169060200190929190505050611151565b604051808215151515815260200191505060405180910390f35b34801561041557600080fd5b5061041e611297565b6040518080602001828103825283818151815260200191508051906020019080838360005b8381101561045e578082015181840152602081019050610443565b50505050905090810190601f16801561048b5780820380516001836020036101000a031916815260200191505b509250505060405180910390f35b3480156104a557600080fd5b506104da600480360381019080803573ffffffffffffffffffffffffffffffffffffffff169060200190929190505050611335565b005b3480156104e857600080fd5b506104f1611379565b005b3480156104ff57600080fd5b50610508611479565b604051808215151515815260200191505060405180910390f35b34801561052e57600080fd5b50610563600480360381019080803573ffffffffffffffffffffffffffffffffffffffff1690602001909291905050506114c7565b6040518082815260200191505060405180910390f35b34801561058557600080fd5b5061058e611510565b604051808215151515815260200191505060405180910390f35b3480156105b457600080fd5b506105bd61151f565b6040518080602001828103825283818151815260200191508051906020019080838360005b838110156105fd5780820151818401526020810190506105e2565b50505050905090810190601f16801561062a5780820380516001836020036101000a031916815260200191505b509250505060405180910390f35b34801561064457600080fd5b50610679600480360381019080803573ffffffffffffffffffffffffffffffffffffffff1690602001909291905050506115bd565b604051808215151515815260200191505060405180910390f35b34801561069f57600080fd5b506106de600480360381019080803573ffffffffffffffffffffffffffffffffffffffff16906020019092919080359060200190929190505050611703565b604051808215151515815260200191505060405180910390f35b34801561070457600080fd5b5061070d61185c565b005b34801561071b57600080fd5b506107a0600480360381019080803573ffffffffffffffffffffffffffffffffffffffff16906020019092919080359060200190929190803590602001908201803590602001908080601f016020809104026020016040519081016040528093929190818152602001838380828437820191505050505050919291929050505061192f565b604051808215151515815260200191505060405180910390f35b3480156107c657600080fd5b5061081b600480360381019080803573ffffffffffffffffffffffffffffffffffffffff169060200190929190803573ffffffffffffffffffffffffffffffffffffffff169060200190929190505050611bcc565b6040518082815260200191505060405180910390f35b34801561083d57600080fd5b5061085c60048036038101908080359060200190929190505050611c53565b6040518082815260200191505060405180910390f35b34801561087e57600080fd5b506108b3600480360381019080803573ffffffffffffffffffffffffffffffffffffffff169060200190929190505050611c97565b604051808215151515815260200191505060405180910390f35b60038054600181600116156101000203166002900480601f0160208091040260200160405190810160405280929190818152602001828054600181600116156101000203166002900480156109635780601f1061093857610100808354040283529160200191610963565b820191906000526020600020905b81548152906001019060200180831161094657829003601f168201915b505050505081565b600080600160003373ffffffffffffffffffffffffffffffffffffffff1673ffffffffffffffffffffffffffffffffffffffff168152602001908152602001600020541415610ab857606060405190810160405280600c5481526020016040805190810160405280600981526020017f416e6f6e796d6f75730000000000000000000000000000000000000000000000815250815260200160006004811115610a1057fe5b815250601860003373ffffffffffffffffffffffffffffffffffffffff1673ffffffffffffffffffffffffffffffffffffffff168152602001908152602001600020600082015181600001556020820151816001019080519060200190610a78929190611ddd565b5060408201518160020160006101000a81548160ff02191690836004811115610a9d57fe5b0217905550905050600c600081548092919060010191905055505b34600160003373ffffffffffffffffffffffffffffffffffffffff1673ffffffffffffffffffffffffffffffffffffffff16815260200190815260200160002060008282540192505081905550601273__CoinQueueLib2_________________________63595b59d7909133600160003373ffffffffffffffffffffffffffffffffffffffff1673ffffffffffffffffffffffffffffffffffffffff16815260200190815260200160002054601160009054906101000a900473ffffffffffffffffffffffffffffffffffffffff166040518563ffffffff167c0100000000000000000000000000000000000000000000000000000000028152600401808581526020018473ffffffffffffffffffffffffffffffffffffffff1673ffffffffffffffffffffffffffffffffffffffff1681526020018381526020018273ffffffffffffffffffffffffffffffffffffffff1673ffffffffffffffffffffffffffffffffffffffff16815260200194505050505060206040518083038186803b158015610c4457600080fd5b505af4158015610c58573d6000803e3d6000fd5b505050506040513d6020811015610c6e57600080fd5b810190808051906020019092919050505050610c88611510565b15610cca577f1e61fe9a90d23ee89cf23cb1f66c1188b68372e59b6ad3470f3b26b564e966776001604051808215151515815260200191505060405180910390a15b34600960008282540192505081905550610ce334611109565b6001905090565b600081600260003373ffffffffffffffffffffffffffffffffffffffff1673ffffffffffffffffffffffffffffffffffffffff16815260200190815260200160002060008573ffffffffffffffffffffffffffffffffffffffff1673ffffffffffffffffffffffffffffffffffffffff168152602001908152602001600020819055508273ffffffffffffffffffffffffffffffffffffffff163373ffffffffffffffffffffffffffffffffffffffff167f8c5be1e5ebec7d5bd14f71427d1e84f3dd0314c0f7b2291e5b200ac8c7c3b925846040518082815260200191505060405180910390a36001905092915050565b610de4611510565b8015610df15750600f5442115b1515610dfc57600080fd5b600760009054906101000a900473ffffffffffffffffffffffffffffffffffffffff1673ffffffffffffffffffffffffffffffffffffffff166108fc6009549081150290604051600060405180830381858888f19350505050158015610e66573d6000803e3d6000fd5b50565b60005481565b600081600160008673ffffffffffffffffffffffffffffffffffffffff1673ffffffffffffffffffffffffffffffffffffffff1681526020019081526020016000205410158015610f3c575081600260008673ffffffffffffffffffffffffffffffffffffffff1673ffffffffffffffffffffffffffffffffffffffff16815260200190815260200160002060003373ffffffffffffffffffffffffffffffffffffffff1673ffffffffffffffffffffffffffffffffffffffff1681526020019081526020016000205410155b1515610f4757600080fd5b81600160008573ffffffffffffffffffffffffffffffffffffffff1673ffffffffffffffffffffffffffffffffffffffff1681526020019081526020016000206000828254019250508190555081600160008673ffffffffffffffffffffffffffffffffffffffff1673ffffffffffffffffffffffffffffffffffffffff1681526020019081526020016000206000828254039250508190555081600260008673ffffffffffffffffffffffffffffffffffffffff1673ffffffffffffffffffffffffffffffffffffffff16815260200190815260200160002060003373ffffffffffffffffffffffffffffffffffffffff1673ffffffffffffffffffffffffffffffffffffffff168152602001908152602001600020600082825403925050819055508273ffffffffffffffffffffffffffffffffffffffff168473ffffffffffffffffffffffffffffffffffffffff167fddf252ad1be2c89b69c2b068fc378daa952ba7f163c4a11628f55a4df523b3ef846040518082815260200191505060405180910390a3600190509392505050565b6000600a546009541080156110f15750600f5442115b905090565b600460009054906101000a900460ff1681565b6000600762015180600e54420381151561111f57fe5b0481151561112957fe5b0490508160196000838152602001908152602001600020600082825401925050819055505050565b60006001600481111561116057fe5b601860008473ffffffffffffffffffffffffffffffffffffffff1673ffffffffffffffffffffffffffffffffffffffff16815260200190815260200160002060020160009054906101000a900460ff1660048111156111bb57fe5b1415156111c757600080fd5b6002601860008473ffffffffffffffffffffffffffffffffffffffff1673ffffffffffffffffffffffffffffffffffffffff16815260200190815260200160002060020160006101000a81548160ff0219169083600481111561122657fe5b02179055507f5da801b6e57bde18d536d5e32ef866b5fdd927d80101ed20524c269550edf1c733604051808273ffffffffffffffffffffffffffffffffffffffff1673ffffffffffffffffffffffffffffffffffffffff16815260200191505060405180910390a160019050919050565b60068054600181600116156101000203166002900480601f01602080910402602001604051908101604052809291908181526020018280546001816001161561010002031660029004801561132d5780601f106113025761010080835404028352916020019161132d565b820191906000526020600020905b81548152906001019060200180831161131057829003601f168201915b505050505081565b80601160006101000a81548173ffffffffffffffffffffffffffffffffffffffff021916908373ffffffffffffffffffffffffffffffffffffffff16021790555050565b6000611383611510565b80156113905750600f5442115b151561139b57600080fd5b600160003373ffffffffffffffffffffffffffffffffffffffff1673ffffffffffffffffffffffffffffffffffffffff1681526020019081526020016000205490506000600160003373ffffffffffffffffffffffffffffffffffffffff1673ffffffffffffffffffffffffffffffffffffffff168152602001908152602001600020819055503373ffffffffffffffffffffffffffffffffffffffff166108fc6009548381151561144957fe5b049081150290604051600060405180830381858888f19350505050158015611475573d6000803e3d6000fd5b5050565b6000611483611510565b80156114905750600f5442115b151561149b57600080fd5b600b54600d54111515156114ae57600080fd5b600d600081548092919060010191905055506001905090565b6000600160008373ffffffffffffffffffffffffffffffffffffffff1673ffffffffffffffffffffffffffffffffffffffff168152602001908152602001600020549050919050565b6000600a546009541015905090565b60058054600181600116156101000203166002900480601f0160208091040260200160405190810160405280929190818152602001828054600181600116156101000203166002900480156115b55780601f1061158a576101008083540402835291602001916115b5565b820191906000526020600020905b81548152906001019060200180831161159857829003601f168201915b505050505081565b6000600360048111156115cc57fe5b601860008473ffffffffffffffffffffffffffffffffffffffff1673ffffffffffffffffffffffffffffffffffffffff16815260200190815260200160002060020160009054906101000a900460ff16600481111561162757fe5b14151561163357600080fd5b6004601860008473ffffffffffffffffffffffffffffffffffffffff1673ffffffffffffffffffffffffffffffffffffffff16815260200190815260200160002060020160006101000a81548160ff0219169083600481111561169257fe5b02179055507f2ede3ac351c71eef2c08079e7a98ae331342822768bb2ec7818b11a8e87cd18382604051808273ffffffffffffffffffffffffffffffffffffffff1673ffffffffffffffffffffffffffffffffffffffff16815260200191505060405180910390a160019050919050565b600081600160003373ffffffffffffffffffffffffffffffffffffffff1673ffffffffffffffffffffffffffffffffffffffff168152602001908152602001600020541015151561175357600080fd5b81600160003373ffffffffffffffffffffffffffffffffffffffff1673ffffffffffffffffffffffffffffffffffffffff1681526020019081526020016000206000828254039250508190555081600160008573ffffffffffffffffffffffffffffffffffffffff1673ffffffffffffffffffffffffffffffffffffffff168152602001908152602001600020600082825401925050819055508273ffffffffffffffffffffffffffffffffffffffff163373ffffffffffffffffffffffffffffffffffffffff167fddf252ad1be2c89b69c2b068fc378daa952ba7f163c4a11628f55a4df523b3ef846040518082815260200191505060405180910390a36001905092915050565b6000600160003373ffffffffffffffffffffffffffffffffffffffff1673ffffffffffffffffffffffffffffffffffffffff1681526020019081526020016000205490506000600160003373ffffffffffffffffffffffffffffffffffffffff1673ffffffffffffffffffffffffffffffffffffffff168152602001908152602001600020819055503373ffffffffffffffffffffffffffffffffffffffff166108fc829081150290604051600060405180830381858888f1935050505015801561192b573d6000803e3d6000fd5b5050565b600082600260003373ffffffffffffffffffffffffffffffffffffffff1673ffffffffffffffffffffffffffffffffffffffff16815260200190815260200160002060008673ffffffffffffffffffffffffffffffffffffffff1673ffffffffffffffffffffffffffffffffffffffff168152602001908152602001600020819055508373ffffffffffffffffffffffffffffffffffffffff163373ffffffffffffffffffffffffffffffffffffffff167f8c5be1e5ebec7d5bd14f71427d1e84f3dd0314c0f7b2291e5b200ac8c7c3b925856040518082815260200191505060405180910390a38373ffffffffffffffffffffffffffffffffffffffff1660405180807f72656365697665417070726f76616c28616464726573732c75696e743235362c81526020017f616464726573732c627974657329000000000000000000000000000000000000815250602e01905060405180910390207c01000000000000000000000000000000000000000000000000000000009004338530866040518563ffffffff167c0100000000000000000000000000000000000000000000000000000000028152600401808573ffffffffffffffffffffffffffffffffffffffff1673ffffffffffffffffffffffffffffffffffffffff1681526020018481526020018373ffffffffffffffffffffffffffffffffffffffff1673ffffffffffffffffffffffffffffffffffffffff168152602001828051906020019080838360005b83811015611b70578082015181840152602081019050611b55565b50505050905090810190601f168015611b9d5780820380516001836020036101000a031916815260200191505b509450505050506000604051808303816000875af1925050501515611bc157600080fd5b600190509392505050565b6000600260008473ffffffffffffffffffffffffffffffffffffffff1673ffffffffffffffffffffffffffffffffffffffff16815260200190815260200160002060008373ffffffffffffffffffffffffffffffffffffffff1673ffffffffffffffffffffffffffffffffffffffff16815260200190815260200160002054905092915050565b600080600060196000858152602001908152602001600020549150600782811515611c7a57fe5b04915081600a54811515611c8a57fe5b0490508092505050919050565b600060026004811115611ca657fe5b601860008473ffffffffffffffffffffffffffffffffffffffff1673ffffffffffffffffffffffffffffffffffffffff16815260200190815260200160002060020160009054906101000a900460ff166004811115611d0157fe5b141515611d0d57600080fd5b6003601860008473ffffffffffffffffffffffffffffffffffffffff1673ffffffffffffffffffffffffffffffffffffffff16815260200190815260200160002060020160006101000a81548160ff02191690836004811115611d6c57fe5b02179055507f1fc44c2b44927a36b98c2262da2b66a43bf6395e97a25719577b1bbfa7f279d482604051808273ffffffffffffffffffffffffffffffffffffffff1673ffffffffffffffffffffffffffffffffffffffff16815260200191505060405180910390a160019050919050565b828054600181600116156101000203166002900490600052602060002090601f016020900481019282601f10611e1e57805160ff1916838001178555611e4c565b82800160010185558215611e4c579182015b82811115611e4b578251825591602001919060010190611e30565b5b509050611e599190611e5d565b5090565b611e7f91905b80821115611e7b576000816000905550600101611e63565b5090565b905600a165627a7a7230582029e3088f67c65a13e055e83b69309169d01c977a61d05219ffad5d4a44caf8060029",
  "source": "pragma solidity ^0.4.15;\n\nimport \"./CoinQueueLib2.sol\";\nimport \"./CoinDistLib.sol\";\nimport \"tokens/HumanStandardToken.sol\";\n\ncontract Coin is HumanStandardToken {\n  using CoinQueueLib2 for CoinQueueLib2.CoinQueue;\n  address authorAddress;\n  uint customershipStake;\n  uint balance;\n  uint goal;\n  uint toBeShipped;\n  uint userCount;\n  uint eligibleCount;\n  uint startdate;\n  uint enddate;\n  uint gasSaved;\n  address StatisticsTree;\n  CoinQueueLib2.CoinQueue queue;\n\n  function Coin\n    (\n     address _authorAddress,\n     //bytes metadata,\n     uint _customershipStake,\n     uint _goal,\n     uint _toBeShipped,\n     //uint _userCount,\n     uint _eligibleCount,\n     uint _initialAmount,\n     string _tokenName,\n     uint8 _decimalUnits,\n     uint _startdate,\n     uint _enddate,\n     string _tokenSymbol)\n    HumanStandardToken(_initialAmount, _tokenName, _decimalUnits, _tokenSymbol){\n    authorAddress = _authorAddress;\n    customershipStake = _customershipStake;\n    goal = _goal;\n  //  userCount = _userCount;\n    eligibleCount = _eligibleCount;\n    toBeShipped = _toBeShipped;\n    startdate=_startdate;\n    enddate=_enddate;\n  }\n\n  enum customerStatus { Waiting, Eligible, Requested, Shipped, Confirmed }\n\n  struct customer {\n    uint id;\n    bytes customerUsername;      //customer's username\n    customerStatus status;\n  }\n\n  event BoughtCoin(address customer, uint amountPaid);\n  event GoalMet(bool success);\n  event NewQualifyingcustomers ();          //Some customers become eligible after goal is met\n  event CoinRequested(address customer);    //customer claims Coin\n  event LogCoinShipped(address customer);   //Author sends shipping confirmation\n  event LogCoinConfirmed(address customer);   //Author sends shipping confirmation\n\n  mapping (address => customer) customers;\n  mapping(uint=>uint) weeklysales;\n//  mapping(address=>uint) balances;\n  modifier goalMet {\n    require (goalReached()&&(now>enddate));\n    _;\n  }\n  modifier TimeValid {\n    require ((startdate>now)&&(enddate<now));\n    _;\n  }\n\n  function goalReached()\n    returns (bool goalMet)\n  {\n    return balance >= goal;\n  }\n\n  function goalFailed()\n    returns (bool goalFailed)\n  {\n    return ((balance<goal)&&(now>enddate));\n  }\n  function setTreeAddress(address a){\n    StatisticsTree=a;\n  }\n  function buyCoin()\n    public\n    payable\n    returns(bool success){\n\n    // customer buys coins the first time\n    if (balances[msg.sender] == 0) {\n      // Add customer\n      customers[msg.sender] = customer({ id: userCount, customerUsername: 'Anonymous', status: customerStatus.Waiting });\n      userCount++;\n\n      // Add the customer to the queue in the last position\n    }\n\n    balances[msg.sender] += msg.value;\n\n    queue.insertcustomer( msg.sender,uint(balances[msg.sender]),StatisticsTree);\n\n    if (goalReached()) {\n      GoalMet(true);\n    }\n\n  //  queue.addToQueue(int(msg.value), msg.sender);\n\n    balance += msg.value;\n    weekSaleSum( msg.value);\n    return true;\n  }\n\n\n\n  function weekSaleSum(uint value){\n  //  uint currentday=((now-start)/86400)%7;\n    uint currentweek=((now-startdate)/86400)/7;\n    weeklysales[currentweek]+=value;\n  }\n  function ETA(uint week)returns (uint){\n    uint temp= weeklysales[week];\n    temp=temp/7;\n    uint ETA=goal/temp;\n    return(ETA);\n  }\n  // Anyone can call this\n  // Idealy the author should as soon as the goal is met\n  function setFirstEligible()\n    goalMet\n    returns (bool success)\n  {\n    require(eligibleCount <= toBeShipped);\n    eligibleCount++;\n    //address first = queue.getFirstInLine();\n    //customers[first].status = customerStatus.Eligible;\n  //  queue.remove(first, int(balances[first]));\n    return true;\n  }\n\n  //((Author)) withdraws the capital they earned through coin sales\n  function withdrawCapital()\n    goalMet\n    /*isAuthor()*/{\n    authorAddress.transfer(balance);\n  }\n  function withdrawInvestment(){\n    uint temp=balances[msg.sender];\n    balances[msg.sender]=0;\n    msg.sender.transfer(temp);\n\n  }\n  function claimCoins()\n     goalMet\n  {\n    uint temp=balances[msg.sender];\n    balances[msg.sender]=0;\n    msg.sender.transfer((temp/balance));\n  }\n  //customers can claim hard copy after they become eligible\n  function requestDelivery (address customerAddress) returns (bool success) {\n    require(customers[customerAddress].status == customerStatus.Eligible);\n    customers[customerAddress].status = customerStatus.Requested;\n    CoinRequested(msg.sender);\n    return true;\n  }\n\n  function markShipped (address customer) returns (bool success) {\n    require(customers[customer].status == customerStatus.Requested);\n    customers[customer].status = customerStatus.Shipped;\n    LogCoinShipped(customer);\n    return true;\n  }\n\n  function confirmDelivery (address customer) returns (bool success) {\n    require(customers[customer].status == customerStatus.Shipped);\n    customers[customer].status = customerStatus.Confirmed;\n    LogCoinConfirmed(customer);\n    return true;\n  }\n\n}\n",
  "sourcePath": "/home/jjj/Documents/OE/OpenEquity/contracts/Coin.sol",
  "compiler": {
    "name": "solc",
    "version": "0.4.23+commit.124ca40d.Emscripten.clang"
  },
  "schemaVersion": "2.0.0",
  "updatedAt": "2018-07-04T03:30:14.850Z"
}