{
  "contractName": "CoinQueueLib2",
  "abi": [
    {
      "constant": false,
      "inputs": [
        {
          "name": "queue",
          "type": "CoinQueueLib2.CoinQueue storage"
        },
        {
          "name": "customer",
          "type": "address"
        },
        {
          "name": "value",
          "type": "uint256"
        },
        {
          "name": "StatisticsTree",
          "type": "address"
        }
      ],
      "name": "insertcustomer",
      "outputs": [
        {
          "name": "",
          "type": "bool"
        }
      ],
      "payable": false,
      "stateMutability": "nonpayable",
      "type": "function"
    },
    {
      "constant": false,
      "inputs": [
        {
          "name": "queue",
          "type": "CoinQueueLib2.CoinQueue storage"
        },
        {
          "name": "customer",
          "type": "address"
        },
        {
          "name": "value",
          "type": "uint256"
        },
        {
          "name": "StatisticsTree",
          "type": "address"
        }
      ],
      "name": "customerWithdraw",
      "outputs": [
        {
          "name": "",
          "type": "bool"
        }
      ],
      "payable": false,
      "stateMutability": "nonpayable",
      "type": "function"
    },
    {
      "constant": false,
      "inputs": [
        {
          "name": "c",
          "type": "address"
        },
        {
          "name": "value",
          "type": "uint256"
        }
      ],
      "name": "CallInsert",
      "outputs": [],
      "payable": false,
      "stateMutability": "nonpayable",
      "type": "function"
    },
    {
      "constant": false,
      "inputs": [
        {
          "name": "c",
          "type": "address"
        },
        {
          "name": "value",
          "type": "uint256"
        }
      ],
      "name": "CallRemove",
      "outputs": [],
      "payable": false,
      "stateMutability": "nonpayable",
      "type": "function"
    }
  ],
  "bytecode": "0x610649610030600b82828239805160001a6073146000811461002057610022565bfe5b5030600052607381538281f3007300000000000000000000000000000000000000003014608060405260043610610079576000357c0100000000000000000000000000000000000000000000000000000000900463ffffffff1680631189dab31461007e578063595b59d71461010d5780635ca3b3a51461019c578063f6e44b13146101e9575b600080fd5b81801561008a57600080fd5b506100f360048036038101908080359060200190929190803573ffffffffffffffffffffffffffffffffffffffff16906020019092919080359060200190929190803573ffffffffffffffffffffffffffffffffffffffff169060200190929190505050610236565b604051808215151515815260200191505060405180910390f35b81801561011957600080fd5b5061018260048036038101908080359060200190929190803573ffffffffffffffffffffffffffffffffffffffff16906020019092919080359060200190929190803573ffffffffffffffffffffffffffffffffffffffff169060200190929190505050610334565b604051808215151515815260200191505060405180910390f35b8180156101a857600080fd5b506101e7600480360381019080803573ffffffffffffffffffffffffffffffffffffffff1690602001909291908035906020019092919050505061048f565b005b8180156101f557600080fd5b50610234600480360381019080803573ffffffffffffffffffffffffffffffffffffffff16906020019092919080359060200190929190505050610556565b005b60008060008660010160008773ffffffffffffffffffffffffffffffffffffffff1673ffffffffffffffffffffffffffffffffffffffff168152602001908152602001600020549150848760010160008873ffffffffffffffffffffffffffffffffffffffff1673ffffffffffffffffffffffffffffffffffffffff168152602001908152602001600020600082825403925050819055508660010160008773ffffffffffffffffffffffffffffffffffffffff1673ffffffffffffffffffffffffffffffffffffffff16815260200190815260200160002054905061031c848361048f565b6103268482610556565b600192505050949350505050565b6000806000808760010160008873ffffffffffffffffffffffffffffffffffffffff1673ffffffffffffffffffffffffffffffffffffffff16815260200190815260200160002054141561039657600187600501600082825401925050819055505b8660010160008773ffffffffffffffffffffffffffffffffffffffff1673ffffffffffffffffffffffffffffffffffffffff168152602001908152602001600020549150848760010160008873ffffffffffffffffffffffffffffffffffffffff1673ffffffffffffffffffffffffffffffffffffffff16815260200190815260200160002060008282540192505081905550610433848361048f565b8660010160008773ffffffffffffffffffffffffffffffffffffffff1673ffffffffffffffffffffffffffffffffffffffff1681526020019081526020016000205490506104818482610556565b600192505050949350505050565b8173ffffffffffffffffffffffffffffffffffffffff1660405180807f72656d6f76652875696e74323536290000000000000000000000000000000000815250600f01905060405180910390207c01000000000000000000000000000000000000000000000000000000009004826040518263ffffffff167c0100000000000000000000000000000000000000000000000000000000028152600401808281526020019150506000604051808303816000875af192505050151561055257600080fd5b5050565b8173ffffffffffffffffffffffffffffffffffffffff1660405180807f696e736572742875696e74323536290000000000000000000000000000000000815250600f01905060405180910390207c01000000000000000000000000000000000000000000000000000000009004826040518263ffffffff167c0100000000000000000000000000000000000000000000000000000000028152600401808281526020019150506000604051808303816000875af192505050151561061957600080fd5b50505600a165627a7a7230582015a75010e0d2c7a587bccbde8fc3871e9398b011f16ae9f01213bfd55cae554c0029",
  "source": "library CoinQueueLib2 {\n  //using OrderedStatisticTree for OrderedStatisticTree.Index;\n\n  struct CoinQueue {\n\n  \t\t//bytes32 id;\n\n   \t  mapping(address=>uint) insertOrder;\n\t    mapping(address=>uint) customerBalance;\n\t    mapping(uint=>address) balanceTocustomer;\n  //  mapping(address=>uint) positions;\n      uint greatestCustomerPurchase;\n      address firstInLine;\n\t    uint numbercustomers;\n\n\t}\n\tfunction createQueue()\n    internal\n    returns (CoinQueue)\n  {\n    return CoinQueue({\n      numbercustomers:0,firstInLine:0x3,greatestCustomerPurchase:0\n\n          });\n  }\n\n\n\n\n\tfunction insertcustomer(CoinQueue storage queue,address customer,uint value,address StatisticsTree) returns (bool){\n    \tif(queue.customerBalance[customer]==0){\n    \t  queue.numbercustomers+=1;\n \t\t }\n\t    uint prevBalance=queue.customerBalance[customer];\n\t    queue.customerBalance[customer]+=value;\n\t  // customerValues.remove(prevBalance);\n      CallRemove(StatisticsTree,prevBalance);\n      uint temp=queue.customerBalance[customer];\n\t    CallInsert(StatisticsTree,temp);\n\t  // positions[customer]=customerValues.rank(value);\n\n        return true;\n}\n  function customerWithdraw(CoinQueue storage queue,address customer, uint value,address StatisticsTree) returns(bool){\n       uint prevBalance=queue.customerBalance[customer];\n       queue.customerBalance[customer]-=value;\n       uint temp=queue.customerBalance[customer];\n       CallRemove(StatisticsTree,prevBalance);\n       CallInsert(StatisticsTree,temp);\n       //positions[customer]=customerValues.rank(value);\n       return true;\n\t\t }\n\t\t function CallInsert(address c,uint value){\n\t\t\t if(!c.call(bytes4(keccak256(\"insert(uint256)\")),value )) revert();\n\t\t }\n\t\t function CallRemove(address c,uint value){\n\t \t\tif(!c.call(bytes4(keccak256(\"remove(uint256)\")),value )) revert();\n\t \t}\n\n}\n",
  "sourcePath": "/home/jjj/Documents/OE/OpenEquity/contracts/CoinQueueLib2.sol",
  "compiler": {
    "name": "solc",
    "version": "0.4.24+commit.e67f0147.Emscripten.clang"
  },
  "schemaVersion": "2.0.1",
  "updatedAt": "2018-09-27T19:32:13.148Z"
}