{
  "contractName": "CoinPub",
  "abi": [
    {
      "constant": false,
      "inputs": [
        {
          "name": "onOff",
          "type": "bool"
        }
      ],
      "name": "runSwitch",
      "outputs": [
        {
          "name": "success",
          "type": "bool"
        }
      ],
      "payable": false,
      "stateMutability": "nonpayable",
      "type": "function"
    },
    {
      "constant": true,
      "inputs": [],
      "name": "owner",
      "outputs": [
        {
          "name": "",
          "type": "address"
        }
      ],
      "payable": false,
      "stateMutability": "view",
      "type": "function"
    },
    {
      "constant": false,
      "inputs": [
        {
          "name": "newOwner",
          "type": "address"
        }
      ],
      "name": "changeOwner",
      "outputs": [
        {
          "name": "success",
          "type": "bool"
        }
      ],
      "payable": false,
      "stateMutability": "nonpayable",
      "type": "function"
    },
    {
      "constant": true,
      "inputs": [],
      "name": "running",
      "outputs": [
        {
          "name": "",
          "type": "bool"
        }
      ],
      "payable": false,
      "stateMutability": "view",
      "type": "function"
    },
    {
      "inputs": [],
      "payable": false,
      "stateMutability": "nonpayable",
      "type": "constructor"
    },
    {
      "anonymous": false,
      "inputs": [
        {
          "indexed": false,
          "name": "switchSetting",
          "type": "bool"
        }
      ],
      "name": "LogRunSwitch",
      "type": "event"
    },
    {
      "anonymous": false,
      "inputs": [
        {
          "indexed": false,
          "name": "_owner",
          "type": "address"
        },
        {
          "indexed": false,
          "name": "newOwner",
          "type": "address"
        }
      ],
      "name": "LogNewOwner",
      "type": "event"
    },
    {
      "constant": false,
      "inputs": [
        {
          "name": "_CoinID",
          "type": "uint256"
        },
        {
          "name": "_share",
          "type": "uint256"
        }
      ],
      "name": "addPartner",
      "outputs": [],
      "payable": false,
      "stateMutability": "nonpayable",
      "type": "function"
    },
    {
      "constant": false,
      "inputs": [
        {
          "name": "_customerUsername",
          "type": "bytes"
        }
      ],
      "name": "becomecustomer",
      "outputs": [],
      "payable": false,
      "stateMutability": "nonpayable",
      "type": "function"
    },
    {
      "constant": false,
      "inputs": [
        {
          "name": "_authorName",
          "type": "bytes"
        }
      ],
      "name": "becomeAuthor",
      "outputs": [],
      "payable": false,
      "stateMutability": "nonpayable",
      "type": "function"
    },
    {
      "constant": false,
      "inputs": [
        {
          "name": "_customershipStake",
          "type": "uint256"
        },
        {
          "name": "_tokenName",
          "type": "string"
        },
        {
          "name": "_tokenSymbol",
          "type": "string"
        },
        {
          "name": "_governanceModel",
          "type": "string"
        }
      ],
      "name": "createCoinStruct",
      "outputs": [],
      "payable": false,
      "stateMutability": "nonpayable",
      "type": "function"
    },
    {
      "constant": false,
      "inputs": [
        {
          "name": "_CoinID",
          "type": "uint256"
        },
        {
          "name": "_goal",
          "type": "uint256"
        },
        {
          "name": "_startdate",
          "type": "uint256"
        },
        {
          "name": "_enddate",
          "type": "uint256"
        },
        {
          "name": "_eligibleCount",
          "type": "uint256"
        }
      ],
      "name": "modifyCoinStruct",
      "outputs": [],
      "payable": false,
      "stateMutability": "nonpayable",
      "type": "function"
    },
    {
      "constant": false,
      "inputs": [
        {
          "name": "id",
          "type": "uint256"
        },
        {
          "name": "_decimalUnits",
          "type": "uint8"
        },
        {
          "name": "_initialAmount",
          "type": "uint256"
        },
        {
          "name": "_toBeShipped",
          "type": "uint256"
        }
      ],
      "name": "publishCoin",
      "outputs": [],
      "payable": false,
      "stateMutability": "nonpayable",
      "type": "function"
    },
    {
      "constant": false,
      "inputs": [
        {
          "name": "n",
          "type": "uint256"
        }
      ],
      "name": "structRet",
      "outputs": [
        {
          "name": "",
          "type": "uint256"
        }
      ],
      "payable": false,
      "stateMutability": "nonpayable",
      "type": "function"
    },
    {
      "constant": false,
      "inputs": [
        {
          "name": "n",
          "type": "uint256"
        }
      ],
      "name": "nameret",
      "outputs": [
        {
          "name": "",
          "type": "string"
        }
      ],
      "payable": false,
      "stateMutability": "nonpayable",
      "type": "function"
    },
    {
      "constant": false,
      "inputs": [
        {
          "name": "n",
          "type": "uint256"
        }
      ],
      "name": "symbolret",
      "outputs": [
        {
          "name": "",
          "type": "string"
        }
      ],
      "payable": false,
      "stateMutability": "nonpayable",
      "type": "function"
    },
    {
      "constant": false,
      "inputs": [
        {
          "name": "n",
          "type": "uint256"
        }
      ],
      "name": "getOtherparams",
      "outputs": [
        {
          "name": "",
          "type": "uint256"
        },
        {
          "name": "",
          "type": "uint256"
        },
        {
          "name": "",
          "type": "uint256"
        },
        {
          "name": "",
          "type": "uint256"
        }
      ],
      "payable": false,
      "stateMutability": "nonpayable",
      "type": "function"
    },
    {
      "constant": false,
      "inputs": [
        {
          "name": "n",
          "type": "uint256"
        },
        {
          "name": "m",
          "type": "uint256"
        }
      ],
      "name": "getPartnerShare",
      "outputs": [
        {
          "name": "",
          "type": "uint256"
        }
      ],
      "payable": false,
      "stateMutability": "nonpayable",
      "type": "function"
    },
    {
      "constant": false,
      "inputs": [
        {
          "name": "n",
          "type": "uint256"
        }
      ],
      "name": "returnallShares",
      "outputs": [
        {
          "name": "",
          "type": "uint256[]"
        }
      ],
      "payable": false,
      "stateMutability": "nonpayable",
      "type": "function"
    }
  ],
  "bytecode": "0x608060405234801561001057600080fd5b50336000806101000a81548173ffffffffffffffffffffffffffffffffffffffff021916908373ffffffffffffffffffffffffffffffffffffffff1602179055506001600060146101000a81548160ff021916908315150217905550600060018190555061440f806100836000396000f300608060405260043610620000f7576000357c0100000000000000000000000000000000000000000000000000000000900463ffffffff16806320b4562014620000fc5780632dd9705814620001a85780633c3ee35514620001f25780633e473dd3146200029e5780636ebf84d214620002e2578063781c2e5e146200034e5780638da5cb5b1462000450578063907f597d14620004aa578063952b7c5d14620004f85780639967edb81462000549578063a6f9dae114620005d0578063b5bb4ec4146200062e578063b9f68d9d1462000668578063c25813f614620006d4578063d85bd526146200072c578063e63ab277146200075e575b600080fd5b3480156200010957600080fd5b506200012a60048036038101908080359060200190929190505050620007b7565b6040518080602001828103825283818151815260200191508051906020019080838360005b838110156200016c5780820151818401526020810190506200014f565b50505050905090810190601f1680156200019a5780820380516001836020036101000a031916815260200191505b509250505060405180910390f35b348015620001b557600080fd5b50620001d860048036038101908080351515906020019092919050505062000a81565b604051808215151515815260200191505060405180910390f35b348015620001ff57600080fd5b50620002206004803603810190808035906020019092919050505062000b3d565b6040518080602001828103825283818151815260200191508051906020019080838360005b838110156200026257808201518184015260208101905062000245565b50505050905090810190601f168015620002905780820380516001836020036101000a031916815260200191505b509250505060405180910390f35b348015620002ab57600080fd5b50620002cc6004803603810190808035906020019092919050505062000e07565b6040518082815260200191505060405180910390f35b348015620002ef57600080fd5b506200034c600480360381019080803590602001908201803590602001908080601f0160208091040260200160405190810160405280939291908181526020018383808284378201915050505050509192919290505050620010d0565b005b3480156200035b57600080fd5b506200044e60048036038101908080359060200190929190803590602001908201803590602001908080601f0160208091040260200160405190810160405280939291908181526020018383808284378201915050505050509192919290803590602001908201803590602001908080601f0160208091040260200160405190810160405280939291908181526020018383808284378201915050505050509192919290803590602001908201803590602001908080601f01602080910402602001604051908101604052809392919081815260200183838082843782019150505050505091929192905050506200116c565b005b3480156200045d57600080fd5b5062000468620012f4565b604051808273ffffffffffffffffffffffffffffffffffffffff1673ffffffffffffffffffffffffffffffffffffffff16815260200191505060405180910390f35b348015620004b757600080fd5b50620004e2600480360381019080803590602001909291908035906020019092919050505062001319565b6040518082815260200191505060405180910390f35b3480156200050557600080fd5b506200054760048036038101908080359060200190929190803560ff169060200190929190803590602001909291908035906020019092919050505062001348565b005b3480156200055657600080fd5b506200057760048036038101908080359060200190929190505050620017b1565b6040518080602001828103825283818151815260200191508051906020019060200280838360005b83811015620005bc5780820151818401526020810190506200059f565b505050509050019250505060405180910390f35b348015620005dd57600080fd5b5062000614600480360381019080803573ffffffffffffffffffffffffffffffffffffffff16906020019092919050505062001afe565b604051808215151515815260200191505060405180910390f35b3480156200063b57600080fd5b5062000666600480360381019080803590602001909291908035906020019092919050505062001c82565b005b3480156200067557600080fd5b50620006d2600480360381019080803590602001908201803590602001908080601f016020809104026020016040519081016040528093929190818152602001838380828437820191505050505050919291929050505062001ceb565b005b348015620006e157600080fd5b506200072a600480360381019080803590602001909291908035906020019092919080359060200190929190803590602001909291908035906020019092919050505062001d6f565b005b3480156200073957600080fd5b506200074462001dc3565b604051808215151515815260200191505060405180910390f35b3480156200076b57600080fd5b506200078c6004803603810190808035906020019092919050505062001dd6565b6040518085815260200184815260200183815260200182815260200194505050505060405180910390f35b6060620007c3620020ba565b600460008481526020019081526020016000206101606040519081016040529081600082015481526020016001820160009054906101000a900473ffffffffffffffffffffffffffffffffffffffff1673ffffffffffffffffffffffffffffffffffffffff1673ffffffffffffffffffffffffffffffffffffffff168152602001600282015481526020016003820154815260200160048201548152602001600582015481526020016006820154815260200160078201548152602001600882018054600181600116156101000203166002900480601f0160208091040260200160405190810160405280929190818152602001828054600181600116156101000203166002900480156200091c5780601f10620008f0576101008083540402835291602001916200091c565b820191906000526020600020905b815481529060010190602001808311620008fe57829003601f168201915b50505050508152602001600982018054600181600116156101000203166002900480601f016020809104026020016040519081016040528092919081815260200182805460018160011615610100020316600290048015620009c25780601f106200099657610100808354040283529160200191620009c2565b820191906000526020600020905b815481529060010190602001808311620009a457829003601f168201915b50505050508152602001600a82018054600181600116156101000203166002900480601f01602080910402602001604051908101604052809291908181526020018280546001816001161561010002031660029004801562000a685780601f1062000a3c5761010080835404028352916020019162000a68565b820191906000526020600020905b81548152906001019060200180831162000a4a57829003601f168201915b5050505050815250509050806101000151915050919050565b60008060009054906101000a900473ffffffffffffffffffffffffffffffffffffffff1673ffffffffffffffffffffffffffffffffffffffff163373ffffffffffffffffffffffffffffffffffffffff1614151562000adf57600080fd5b81600060146101000a81548160ff0219169083151502179055507fed31ba5dd6d358d47c38232d309f2cdd5f0e58c3eb67621a7f731fe2d7d838d282604051808215151515815260200191505060405180910390a160019050919050565b606062000b49620020ba565b600460008481526020019081526020016000206101606040519081016040529081600082015481526020016001820160009054906101000a900473ffffffffffffffffffffffffffffffffffffffff1673ffffffffffffffffffffffffffffffffffffffff1673ffffffffffffffffffffffffffffffffffffffff168152602001600282015481526020016003820154815260200160048201548152602001600582015481526020016006820154815260200160078201548152602001600882018054600181600116156101000203166002900480601f01602080910402602001604051908101604052809291908181526020018280546001816001161561010002031660029004801562000ca25780601f1062000c765761010080835404028352916020019162000ca2565b820191906000526020600020905b81548152906001019060200180831162000c8457829003601f168201915b50505050508152602001600982018054600181600116156101000203166002900480601f01602080910402602001604051908101604052809291908181526020018280546001816001161561010002031660029004801562000d485780601f1062000d1c5761010080835404028352916020019162000d48565b820191906000526020600020905b81548152906001019060200180831162000d2a57829003601f168201915b50505050508152602001600a82018054600181600116156101000203166002900480601f01602080910402602001604051908101604052809291908181526020018280546001816001161561010002031660029004801562000dee5780601f1062000dc25761010080835404028352916020019162000dee565b820191906000526020600020905b81548152906001019060200180831162000dd057829003601f168201915b5050505050815250509050806101200151915050919050565b600062000e13620020ba565b600460008481526020019081526020016000206101606040519081016040529081600082015481526020016001820160009054906101000a900473ffffffffffffffffffffffffffffffffffffffff1673ffffffffffffffffffffffffffffffffffffffff1673ffffffffffffffffffffffffffffffffffffffff168152602001600282015481526020016003820154815260200160048201548152602001600582015481526020016006820154815260200160078201548152602001600882018054600181600116156101000203166002900480601f01602080910402602001604051908101604052809291908181526020018280546001816001161561010002031660029004801562000f6c5780601f1062000f405761010080835404028352916020019162000f6c565b820191906000526020600020905b81548152906001019060200180831162000f4e57829003601f168201915b50505050508152602001600982018054600181600116156101000203166002900480601f016020809104026020016040519081016040528092919081815260200182805460018160011615610100020316600290048015620010125780601f1062000fe65761010080835404028352916020019162001012565b820191906000526020600020905b81548152906001019060200180831162000ff457829003601f168201915b50505050508152602001600a82018054600181600116156101000203166002900480601f016020809104026020016040519081016040528092919081815260200182805460018160011615610100020316600290048015620010b85780601f106200108c57610100808354040283529160200191620010b8565b820191906000526020600020905b8154815290600101906020018083116200109a57829003601f168201915b50505050508152505090508060400151915050919050565b604080519081016040528082815260200160001515815250600260003373ffffffffffffffffffffffffffffffffffffffff1673ffffffffffffffffffffffffffffffffffffffff1681526020019081526020016000206000820151816000019080519060200190620011459291906200212b565b5060208201518160010160006101000a81548160ff02191690831515021790555090505050565b600060018060008282540192505081905550600a90506101606040519081016040528060015481526020013373ffffffffffffffffffffffffffffffffffffffff16815260200186815260200160008152602001828152602001828152602001828152602001828152602001858152602001848152602001838152506004600060015481526020019081526020016000206000820151816000015560208201518160010160006101000a81548173ffffffffffffffffffffffffffffffffffffffff021916908373ffffffffffffffffffffffffffffffffffffffff16021790555060408201518160020155606082015181600301556080820151816004015560a0820151816005015560c0820151816006015560e08201518160070155610100820151816008019080519060200190620012a9929190620021b2565b50610120820151816009019080519060200190620012c9929190620021b2565b5061014082015181600a019080519060200190620012e9929190620021b2565b509050505050505050565b6000809054906101000a900473ffffffffffffffffffffffffffffffffffffffff1681565b600060056000848152602001908152602001600020600083815260200190815260200160002054905092915050565b62001352620020ba565b6000600460008781526020019081526020016000206101606040519081016040529081600082015481526020016001820160009054906101000a900473ffffffffffffffffffffffffffffffffffffffff1673ffffffffffffffffffffffffffffffffffffffff1673ffffffffffffffffffffffffffffffffffffffff168152602001600282015481526020016003820154815260200160048201548152602001600582015481526020016006820154815260200160078201548152602001600882018054600181600116156101000203166002900480601f016020809104026020016040519081016040528092919081815260200182805460018160011615610100020316600290048015620014ad5780601f106200148157610100808354040283529160200191620014ad565b820191906000526020600020905b8154815290600101906020018083116200148f57829003601f168201915b50505050508152602001600982018054600181600116156101000203166002900480601f016020809104026020016040519081016040528092919081815260200182805460018160011615610100020316600290048015620015535780601f10620015275761010080835404028352916020019162001553565b820191906000526020600020905b8154815290600101906020018083116200153557829003601f168201915b50505050508152602001600a82018054600181600116156101000203166002900480601f016020809104026020016040519081016040528092919081815260200182805460018160011615610100020316600290048015620015f95780601f10620015cd57610100808354040283529160200191620015f9565b820191906000526020600020905b815481529060010190602001808311620015db57829003601f168201915b50505050508152505091503382604001518360800151858560a00151888761010001518b8960c001518a60e001518b61012001516200163762002239565b808c73ffffffffffffffffffffffffffffffffffffffff1673ffffffffffffffffffffffffffffffffffffffff1681526020018b81526020018a8152602001898152602001888152602001878152602001806020018660ff1660ff16815260200185815260200184815260200180602001838103835288818151815260200191508051906020019080838360005b83811015620016e2578082015181840152602081019050620016c5565b50505050905090810190601f168015620017105780820380516001836020036101000a031916815260200191505b50838103825284818151815260200191508051906020019080838360005b838110156200174b5780820151818401526020810190506200172e565b50505050905090810190601f168015620017795780820380516001836020036101000a031916815260200191505b509d5050505050505050505050505050604051809103906000f080158015620017a6573d6000803e3d6000fd5b509050505050505050565b6060620017bd620020ba565b600060606000600460008781526020019081526020016000206101606040519081016040529081600082015481526020016001820160009054906101000a900473ffffffffffffffffffffffffffffffffffffffff1673ffffffffffffffffffffffffffffffffffffffff1673ffffffffffffffffffffffffffffffffffffffff168152602001600282015481526020016003820154815260200160048201548152602001600582015481526020016006820154815260200160078201548152602001600882018054600181600116156101000203166002900480601f0160208091040260200160405190810160405280929190818152602001828054600181600116156101000203166002900480156200191c5780601f10620018f0576101008083540402835291602001916200191c565b820191906000526020600020905b815481529060010190602001808311620018fe57829003601f168201915b50505050508152602001600982018054600181600116156101000203166002900480601f016020809104026020016040519081016040528092919081815260200182805460018160011615610100020316600290048015620019c25780601f106200199657610100808354040283529160200191620019c2565b820191906000526020600020905b815481529060010190602001808311620019a457829003601f168201915b50505050508152602001600a82018054600181600116156101000203166002900480601f01602080910402602001604051908101604052809291908181526020018280546001816001161561010002031660029004801562001a685780601f1062001a3c5761010080835404028352916020019162001a68565b820191906000526020600020905b81548152906001019060200180831162001a4a57829003601f168201915b5050505050815250509350836060015192508260405190808252806020026020018201604052801562001aaa5781602001602082028038833980820191505090505b509150600090505b8281101562001af25762001ac7868262001319565b828281518110151562001ad657fe5b9060200190602002018181525050808060010191505062001ab2565b81945050505050919050565b60008060009054906101000a900473ffffffffffffffffffffffffffffffffffffffff1673ffffffffffffffffffffffffffffffffffffffff163373ffffffffffffffffffffffffffffffffffffffff1614151562001b5c57600080fd5b60008273ffffffffffffffffffffffffffffffffffffffff16141562001b8157600080fd5b7f1f8d7d25344642d919d55999e4664aa452a5f424bc0936ceb9c2b300db7dcbd96000809054906101000a900473ffffffffffffffffffffffffffffffffffffffff1683604051808373ffffffffffffffffffffffffffffffffffffffff1673ffffffffffffffffffffffffffffffffffffffff1681526020018273ffffffffffffffffffffffffffffffffffffffff1673ffffffffffffffffffffffffffffffffffffffff1681526020019250505060405180910390a1816000806101000a81548173ffffffffffffffffffffffffffffffffffffffff021916908373ffffffffffffffffffffffffffffffffffffffff16021790555060019050919050565b60006004600060015481526020019081526020016000206003015490508160056000858152602001908152602001600020600083815260200190815260200160002081905550600181016004600085815260200190815260200160002060030181905550505050565b60408051908101604052808281526020016000815250600360003373ffffffffffffffffffffffffffffffffffffffff1673ffffffffffffffffffffffffffffffffffffffff168152602001908152602001600020600082015181600001908051906020019062001d5e9291906200212b565b506020820151816001015590505050565b600060046000878152602001908152602001600020905084816004018190555083816006018190555082816007018190555081816005018190555062001dbb866103e880600062001348565b505050505050565b600060149054906101000a900460ff1681565b60008060008062001de6620020ba565b600460008781526020019081526020016000206101606040519081016040529081600082015481526020016001820160009054906101000a900473ffffffffffffffffffffffffffffffffffffffff1673ffffffffffffffffffffffffffffffffffffffff1673ffffffffffffffffffffffffffffffffffffffff168152602001600282015481526020016003820154815260200160048201548152602001600582015481526020016006820154815260200160078201548152602001600882018054600181600116156101000203166002900480601f01602080910402602001604051908101604052809291908181526020018280546001816001161561010002031660029004801562001f3f5780601f1062001f135761010080835404028352916020019162001f3f565b820191906000526020600020905b81548152906001019060200180831162001f2157829003601f168201915b50505050508152602001600982018054600181600116156101000203166002900480601f01602080910402602001604051908101604052809291908181526020018280546001816001161561010002031660029004801562001fe55780601f1062001fb95761010080835404028352916020019162001fe5565b820191906000526020600020905b81548152906001019060200180831162001fc757829003601f168201915b50505050508152602001600a82018054600181600116156101000203166002900480601f0160208091040260200160405190810160405280929190818152602001828054600181600116156101000203166002900480156200208b5780601f106200205f576101008083540402835291602001916200208b565b820191906000526020600020905b8154815290600101906020018083116200206d57829003601f168201915b505050505081525050905080608001518160c001518260e001518360a001519450945094509450509193509193565b6101606040519081016040528060008152602001600073ffffffffffffffffffffffffffffffffffffffff1681526020016000815260200160008152602001600081526020016000815260200160008152602001600081526020016060815260200160608152602001606081525090565b828054600181600116156101000203166002900490600052602060002090601f016020900481019282601f106200216e57805160ff19168380011785556200219f565b828001600101855582156200219f579182015b828111156200219e57825182559160200191906001019062002181565b5b509050620021ae91906200224a565b5090565b828054600181600116156101000203166002900490600052602060002090601f016020900481019282601f10620021f557805160ff191683800117855562002226565b8280016001018555821562002226579182015b828111156200222557825182559160200191906001019062002208565b5b5090506200223591906200224a565b5090565b604051612171806200227383390190565b6200226f91905b808211156200226b57600081600090555060010162002251565b5090565b90560060806040526040805190810160405280600481526020017f48302e3100000000000000000000000000000000000000000000000000000000815250600690805190602001906200005192919062000204565b503480156200005f57600080fd5b50604051620021713803806200217183398101806040528101908080519060200190929190805190602001909291908051906020019092919080519060200190929190805190602001909291908051906020019092919080518201929190602001805190602001909291908051906020019092919080519060200190929190805182019291905050508585858383600160003373ffffffffffffffffffffffffffffffffffffffff1673ffffffffffffffffffffffffffffffffffffffff168152602001908152602001600020819055508360008190555082600390805190602001906200014f92919062000204565b5081600460006101000a81548160ff021916908360ff16021790555080600590805190602001906200018392919062000204565b50505050508a600760006101000a81548173ffffffffffffffffffffffffffffffffffffffff021916908373ffffffffffffffffffffffffffffffffffffffff1602179055508960088190555088600a8190555086600d8190555087600b8190555082600e8190555081600f819055505050505050505050505050620002b3565b828054600181600116156101000203166002900490600052602060002090601f016020900481019282601f106200024757805160ff191683800117855562000278565b8280016001018555821562000278579182015b82811115620002775782518255916020019190600101906200025a565b5b5090506200028791906200028b565b5090565b620002b091905b80821115620002ac57600081600090555060010162000292565b5090565b90565b611eae80620002c36000396000f30060806040526004361061013e576000357c0100000000000000000000000000000000000000000000000000000000900463ffffffff16806306fdde0314610143578063091e9a60146101d3578063095ea7b3146101f557806317727a001461025a57806318160ddd1461027157806323b872dd1461029c578063244a39af14610321578063313ce567146103505780633696a817146103815780634791abe1146103ae57806354fd4d50146104095780635b614794146104995780635f5fd2e2146104dc57806365ab841d146104f357806370a08231146105225780637d3d65221461057957806395d89b41146105a85780639f7aee8214610638578063a9059cbb14610693578063bf3e394e146106f8578063cae9ca511461070f578063dd62ed3e146107ba578063ebfdd32d14610831578063fc6dc17d14610872575b600080fd5b34801561014f57600080fd5b506101586108cd565b6040518080602001828103825283818151815260200191508051906020019080838360005b8381101561019857808201518184015260208101905061017d565b50505050905090810190601f1680156101c55780820380516001836020036101000a031916815260200191505b509250505060405180910390f35b6101db61096b565b604051808215151515815260200191505060405180910390f35b34801561020157600080fd5b50610240600480360381019080803573ffffffffffffffffffffffffffffffffffffffff16906020019092919080359060200190929190505050610cea565b604051808215151515815260200191505060405180910390f35b34801561026657600080fd5b5061026f610ddc565b005b34801561027d57600080fd5b50610286610e69565b6040518082815260200191505060405180910390f35b3480156102a857600080fd5b50610307600480360381019080803573ffffffffffffffffffffffffffffffffffffffff169060200190929190803573ffffffffffffffffffffffffffffffffffffffff16906020019092919080359060200190929190505050610e6f565b604051808215151515815260200191505060405180910390f35b34801561032d57600080fd5b506103366110db565b604051808215151515815260200191505060405180910390f35b34801561035c57600080fd5b506103656110f6565b604051808260ff1660ff16815260200191505060405180910390f35b34801561038d57600080fd5b506103ac60048036038101908080359060200190929190505050611109565b005b3480156103ba57600080fd5b506103ef600480360381019080803573ffffffffffffffffffffffffffffffffffffffff169060200190929190505050611151565b604051808215151515815260200191505060405180910390f35b34801561041557600080fd5b5061041e611297565b6040518080602001828103825283818151815260200191508051906020019080838360005b8381101561045e578082015181840152602081019050610443565b50505050905090810190601f16801561048b5780820380516001836020036101000a031916815260200191505b509250505060405180910390f35b3480156104a557600080fd5b506104da600480360381019080803573ffffffffffffffffffffffffffffffffffffffff169060200190929190505050611335565b005b3480156104e857600080fd5b506104f1611379565b005b3480156104ff57600080fd5b50610508611479565b604051808215151515815260200191505060405180910390f35b34801561052e57600080fd5b50610563600480360381019080803573ffffffffffffffffffffffffffffffffffffffff1690602001909291905050506114c7565b6040518082815260200191505060405180910390f35b34801561058557600080fd5b5061058e611510565b604051808215151515815260200191505060405180910390f35b3480156105b457600080fd5b506105bd61151f565b6040518080602001828103825283818151815260200191508051906020019080838360005b838110156105fd5780820151818401526020810190506105e2565b50505050905090810190601f16801561062a5780820380516001836020036101000a031916815260200191505b509250505060405180910390f35b34801561064457600080fd5b50610679600480360381019080803573ffffffffffffffffffffffffffffffffffffffff1690602001909291905050506115bd565b604051808215151515815260200191505060405180910390f35b34801561069f57600080fd5b506106de600480360381019080803573ffffffffffffffffffffffffffffffffffffffff16906020019092919080359060200190929190505050611703565b604051808215151515815260200191505060405180910390f35b34801561070457600080fd5b5061070d61185c565b005b34801561071b57600080fd5b506107a0600480360381019080803573ffffffffffffffffffffffffffffffffffffffff16906020019092919080359060200190929190803590602001908201803590602001908080601f016020809104026020016040519081016040528093929190818152602001838380828437820191505050505050919291929050505061192f565b604051808215151515815260200191505060405180910390f35b3480156107c657600080fd5b5061081b600480360381019080803573ffffffffffffffffffffffffffffffffffffffff169060200190929190803573ffffffffffffffffffffffffffffffffffffffff169060200190929190505050611bcc565b6040518082815260200191505060405180910390f35b34801561083d57600080fd5b5061085c60048036038101908080359060200190929190505050611c53565b6040518082815260200191505060405180910390f35b34801561087e57600080fd5b506108b3600480360381019080803573ffffffffffffffffffffffffffffffffffffffff169060200190929190505050611c97565b604051808215151515815260200191505060405180910390f35b60038054600181600116156101000203166002900480601f0160208091040260200160405190810160405280929190818152602001828054600181600116156101000203166002900480156109635780601f1061093857610100808354040283529160200191610963565b820191906000526020600020905b81548152906001019060200180831161094657829003601f168201915b505050505081565b600080600160003373ffffffffffffffffffffffffffffffffffffffff1673ffffffffffffffffffffffffffffffffffffffff168152602001908152602001600020541415610ab857606060405190810160405280600c5481526020016040805190810160405280600981526020017f416e6f6e796d6f75730000000000000000000000000000000000000000000000815250815260200160006004811115610a1057fe5b815250601860003373ffffffffffffffffffffffffffffffffffffffff1673ffffffffffffffffffffffffffffffffffffffff168152602001908152602001600020600082015181600001556020820151816001019080519060200190610a78929190611ddd565b5060408201518160020160006101000a81548160ff02191690836004811115610a9d57fe5b0217905550905050600c600081548092919060010191905055505b34600160003373ffffffffffffffffffffffffffffffffffffffff1673ffffffffffffffffffffffffffffffffffffffff16815260200190815260200160002060008282540192505081905550601273__CoinQueueLib2_________________________63595b59d7909133600160003373ffffffffffffffffffffffffffffffffffffffff1673ffffffffffffffffffffffffffffffffffffffff16815260200190815260200160002054601160009054906101000a900473ffffffffffffffffffffffffffffffffffffffff166040518563ffffffff167c0100000000000000000000000000000000000000000000000000000000028152600401808581526020018473ffffffffffffffffffffffffffffffffffffffff1673ffffffffffffffffffffffffffffffffffffffff1681526020018381526020018273ffffffffffffffffffffffffffffffffffffffff1673ffffffffffffffffffffffffffffffffffffffff16815260200194505050505060206040518083038186803b158015610c4457600080fd5b505af4158015610c58573d6000803e3d6000fd5b505050506040513d6020811015610c6e57600080fd5b810190808051906020019092919050505050610c88611510565b15610cca577f1e61fe9a90d23ee89cf23cb1f66c1188b68372e59b6ad3470f3b26b564e966776001604051808215151515815260200191505060405180910390a15b34600960008282540192505081905550610ce334611109565b6001905090565b600081600260003373ffffffffffffffffffffffffffffffffffffffff1673ffffffffffffffffffffffffffffffffffffffff16815260200190815260200160002060008573ffffffffffffffffffffffffffffffffffffffff1673ffffffffffffffffffffffffffffffffffffffff168152602001908152602001600020819055508273ffffffffffffffffffffffffffffffffffffffff163373ffffffffffffffffffffffffffffffffffffffff167f8c5be1e5ebec7d5bd14f71427d1e84f3dd0314c0f7b2291e5b200ac8c7c3b925846040518082815260200191505060405180910390a36001905092915050565b610de4611510565b8015610df15750600f5442115b1515610dfc57600080fd5b600760009054906101000a900473ffffffffffffffffffffffffffffffffffffffff1673ffffffffffffffffffffffffffffffffffffffff166108fc6009549081150290604051600060405180830381858888f19350505050158015610e66573d6000803e3d6000fd5b50565b60005481565b600081600160008673ffffffffffffffffffffffffffffffffffffffff1673ffffffffffffffffffffffffffffffffffffffff1681526020019081526020016000205410158015610f3c575081600260008673ffffffffffffffffffffffffffffffffffffffff1673ffffffffffffffffffffffffffffffffffffffff16815260200190815260200160002060003373ffffffffffffffffffffffffffffffffffffffff1673ffffffffffffffffffffffffffffffffffffffff1681526020019081526020016000205410155b1515610f4757600080fd5b81600160008573ffffffffffffffffffffffffffffffffffffffff1673ffffffffffffffffffffffffffffffffffffffff1681526020019081526020016000206000828254019250508190555081600160008673ffffffffffffffffffffffffffffffffffffffff1673ffffffffffffffffffffffffffffffffffffffff1681526020019081526020016000206000828254039250508190555081600260008673ffffffffffffffffffffffffffffffffffffffff1673ffffffffffffffffffffffffffffffffffffffff16815260200190815260200160002060003373ffffffffffffffffffffffffffffffffffffffff1673ffffffffffffffffffffffffffffffffffffffff168152602001908152602001600020600082825403925050819055508273ffffffffffffffffffffffffffffffffffffffff168473ffffffffffffffffffffffffffffffffffffffff167fddf252ad1be2c89b69c2b068fc378daa952ba7f163c4a11628f55a4df523b3ef846040518082815260200191505060405180910390a3600190509392505050565b6000600a546009541080156110f15750600f5442115b905090565b600460009054906101000a900460ff1681565b6000600762015180600e54420381151561111f57fe5b0481151561112957fe5b0490508160196000838152602001908152602001600020600082825401925050819055505050565b60006001600481111561116057fe5b601860008473ffffffffffffffffffffffffffffffffffffffff1673ffffffffffffffffffffffffffffffffffffffff16815260200190815260200160002060020160009054906101000a900460ff1660048111156111bb57fe5b1415156111c757600080fd5b6002601860008473ffffffffffffffffffffffffffffffffffffffff1673ffffffffffffffffffffffffffffffffffffffff16815260200190815260200160002060020160006101000a81548160ff0219169083600481111561122657fe5b02179055507f5da801b6e57bde18d536d5e32ef866b5fdd927d80101ed20524c269550edf1c733604051808273ffffffffffffffffffffffffffffffffffffffff1673ffffffffffffffffffffffffffffffffffffffff16815260200191505060405180910390a160019050919050565b60068054600181600116156101000203166002900480601f01602080910402602001604051908101604052809291908181526020018280546001816001161561010002031660029004801561132d5780601f106113025761010080835404028352916020019161132d565b820191906000526020600020905b81548152906001019060200180831161131057829003601f168201915b505050505081565b80601160006101000a81548173ffffffffffffffffffffffffffffffffffffffff021916908373ffffffffffffffffffffffffffffffffffffffff16021790555050565b6000611383611510565b80156113905750600f5442115b151561139b57600080fd5b600160003373ffffffffffffffffffffffffffffffffffffffff1673ffffffffffffffffffffffffffffffffffffffff1681526020019081526020016000205490506000600160003373ffffffffffffffffffffffffffffffffffffffff1673ffffffffffffffffffffffffffffffffffffffff168152602001908152602001600020819055503373ffffffffffffffffffffffffffffffffffffffff166108fc6009548381151561144957fe5b049081150290604051600060405180830381858888f19350505050158015611475573d6000803e3d6000fd5b5050565b6000611483611510565b80156114905750600f5442115b151561149b57600080fd5b600b54600d54111515156114ae57600080fd5b600d600081548092919060010191905055506001905090565b6000600160008373ffffffffffffffffffffffffffffffffffffffff1673ffffffffffffffffffffffffffffffffffffffff168152602001908152602001600020549050919050565b6000600a546009541015905090565b60058054600181600116156101000203166002900480601f0160208091040260200160405190810160405280929190818152602001828054600181600116156101000203166002900480156115b55780601f1061158a576101008083540402835291602001916115b5565b820191906000526020600020905b81548152906001019060200180831161159857829003601f168201915b505050505081565b6000600360048111156115cc57fe5b601860008473ffffffffffffffffffffffffffffffffffffffff1673ffffffffffffffffffffffffffffffffffffffff16815260200190815260200160002060020160009054906101000a900460ff16600481111561162757fe5b14151561163357600080fd5b6004601860008473ffffffffffffffffffffffffffffffffffffffff1673ffffffffffffffffffffffffffffffffffffffff16815260200190815260200160002060020160006101000a81548160ff0219169083600481111561169257fe5b02179055507f2ede3ac351c71eef2c08079e7a98ae331342822768bb2ec7818b11a8e87cd18382604051808273ffffffffffffffffffffffffffffffffffffffff1673ffffffffffffffffffffffffffffffffffffffff16815260200191505060405180910390a160019050919050565b600081600160003373ffffffffffffffffffffffffffffffffffffffff1673ffffffffffffffffffffffffffffffffffffffff168152602001908152602001600020541015151561175357600080fd5b81600160003373ffffffffffffffffffffffffffffffffffffffff1673ffffffffffffffffffffffffffffffffffffffff1681526020019081526020016000206000828254039250508190555081600160008573ffffffffffffffffffffffffffffffffffffffff1673ffffffffffffffffffffffffffffffffffffffff168152602001908152602001600020600082825401925050819055508273ffffffffffffffffffffffffffffffffffffffff163373ffffffffffffffffffffffffffffffffffffffff167fddf252ad1be2c89b69c2b068fc378daa952ba7f163c4a11628f55a4df523b3ef846040518082815260200191505060405180910390a36001905092915050565b6000600160003373ffffffffffffffffffffffffffffffffffffffff1673ffffffffffffffffffffffffffffffffffffffff1681526020019081526020016000205490506000600160003373ffffffffffffffffffffffffffffffffffffffff1673ffffffffffffffffffffffffffffffffffffffff168152602001908152602001600020819055503373ffffffffffffffffffffffffffffffffffffffff166108fc829081150290604051600060405180830381858888f1935050505015801561192b573d6000803e3d6000fd5b5050565b600082600260003373ffffffffffffffffffffffffffffffffffffffff1673ffffffffffffffffffffffffffffffffffffffff16815260200190815260200160002060008673ffffffffffffffffffffffffffffffffffffffff1673ffffffffffffffffffffffffffffffffffffffff168152602001908152602001600020819055508373ffffffffffffffffffffffffffffffffffffffff163373ffffffffffffffffffffffffffffffffffffffff167f8c5be1e5ebec7d5bd14f71427d1e84f3dd0314c0f7b2291e5b200ac8c7c3b925856040518082815260200191505060405180910390a38373ffffffffffffffffffffffffffffffffffffffff1660405180807f72656365697665417070726f76616c28616464726573732c75696e743235362c81526020017f616464726573732c627974657329000000000000000000000000000000000000815250602e01905060405180910390207c01000000000000000000000000000000000000000000000000000000009004338530866040518563ffffffff167c0100000000000000000000000000000000000000000000000000000000028152600401808573ffffffffffffffffffffffffffffffffffffffff1673ffffffffffffffffffffffffffffffffffffffff1681526020018481526020018373ffffffffffffffffffffffffffffffffffffffff1673ffffffffffffffffffffffffffffffffffffffff168152602001828051906020019080838360005b83811015611b70578082015181840152602081019050611b55565b50505050905090810190601f168015611b9d5780820380516001836020036101000a031916815260200191505b509450505050506000604051808303816000875af1925050501515611bc157600080fd5b600190509392505050565b6000600260008473ffffffffffffffffffffffffffffffffffffffff1673ffffffffffffffffffffffffffffffffffffffff16815260200190815260200160002060008373ffffffffffffffffffffffffffffffffffffffff1673ffffffffffffffffffffffffffffffffffffffff16815260200190815260200160002054905092915050565b600080600060196000858152602001908152602001600020549150600782811515611c7a57fe5b04915081600a54811515611c8a57fe5b0490508092505050919050565b600060026004811115611ca657fe5b601860008473ffffffffffffffffffffffffffffffffffffffff1673ffffffffffffffffffffffffffffffffffffffff16815260200190815260200160002060020160009054906101000a900460ff166004811115611d0157fe5b141515611d0d57600080fd5b6003601860008473ffffffffffffffffffffffffffffffffffffffff1673ffffffffffffffffffffffffffffffffffffffff16815260200190815260200160002060020160006101000a81548160ff02191690836004811115611d6c57fe5b02179055507f1fc44c2b44927a36b98c2262da2b66a43bf6395e97a25719577b1bbfa7f279d482604051808273ffffffffffffffffffffffffffffffffffffffff1673ffffffffffffffffffffffffffffffffffffffff16815260200191505060405180910390a160019050919050565b828054600181600116156101000203166002900490600052602060002090601f016020900481019282601f10611e1e57805160ff1916838001178555611e4c565b82800160010185558215611e4c579182015b82811115611e4b578251825591602001919060010190611e30565b5b509050611e599190611e5d565b5090565b611e7f91905b80821115611e7b576000816000905550600101611e63565b5090565b905600a165627a7a7230582029e3088f67c65a13e055e83b69309169d01c977a61d05219ffad5d4a44caf8060029a165627a7a72305820a87ac280bb96528813105b32f1fca1efd7f5f9b776133c53e6f624749b87f0500029",
  "source": "//CoinStructPub - Decentralized CoinStruct Self-Publishing Platform\r\n//Must work for many, many authors\r\n//Assume authors might have as many as 10,000,000 fans\r\n//Gonna be sweet!\r\n//------------------------------------------------------*\r\n\r\n/* Summary:\r\n// Authors fund Coin publishing by selling licensing equity via micro crowd funding\r\n1) Publish contract with initial supply of 0 and sell coins at fixed price\r\n2) customers purchase coins to reveal eCoin download, and get in line for a hard copy\r\n3) Any amount of coins purchased is acceptable, price as low as a penny if you like\r\n4) The more coins you hold, the higher in line you get to receive your hard copy\r\n5) Every coin you own represents a small piece of equity in licensing rights\r\n6) Equity is determined by the number of coins you hold in proportion to total supply\r\n7) When certain funding goals are met, users at the top of the line are shipped a hard copy\r\n8) Coin holders are legally entitled to licesnsing revenue if a deal is made with a publisher, movie studio, amusementpark, etc.\r\n*/\r\n\r\n/*MAY NOT COMPILE*/\r\n\r\npragma solidity ^0.4.15;\r\n\r\nimport \"./Stoppable.sol\";\r\nimport \"./Coin.sol\";\r\n\r\ncontract CoinPub is Stoppable {\r\n    uint CoinID;            //ID applied to Coin upon pub, incrementing after each new Coin\r\n\r\n    function CoinPub(){\r\n        CoinID = 0;\r\n      }\r\n    modifier isOwner() {\r\n      require(msg.sender == owner);\r\n      _;}           //Owner of CoinStructPub Platform\r\n    modifier isAuthor() {\r\n      //  require(authors[msg.sender].totalEarned == 0);\r\n      _;}                                          //Author exists in Author mapping\r\n    modifier iscustomer() {\r\n      //    require(customers[msg.sender].customerUsername);\r\n      _;}                                          //customer exists in customer mapping\r\n\r\n    mapping(address => customer) customers;\r\n    mapping(address => Author) authors;\r\n    mapping(uint => CoinStruct) Coins;\r\n    //mapping(uint => uint) partnerShares;\r\n    mapping(uint=>mapping(uint=>uint)) partnerShares;\r\n    //customer details [customersUsername, CoinIDs purchased array]\r\n    struct customer {\r\n      bytes customerUsername;      //customer's username\r\n      bool eligible;\r\n      //uint[] CoinsPurchased;       //CoinStructIDs of all owned Coins\r\n      }\r\n    //Author details [authorName, totalEarned, CoinID published array]\r\n    struct Author {\r\n       bytes authorName;          //Author's legal name\r\n       uint totalEarned;            //How much has this writer earned?\r\n       //uint[] CoinsPublished;       //CoinStructIDs of all published Coins\r\n      }\r\n\r\n    //CoinStruct details [CoinID, authorAddress, customershipStake, customers array]\r\n    struct CoinStruct {\r\n      uint CoinID;                 //Global Coin ID ++1\r\n      address authorAddress;       //Who was the author? Can be used to access Authors mapping\r\n      uint customershipStake;\r\n      //uint[] Partners;\r\n      uint numPartners;\r\n      uint goal\t;\r\n      uint eligibleCount;\r\n\t    uint startdate;\r\n\t    uint enddate;\r\n\r\n\t    string tokenName;\r\n\t    string tokenSymbol;\r\n\t    string governanceModel;\r\n\t  //How much equity did the author provision for customers?\r\n      }\r\n    function addPartner(uint _CoinID,uint _share){\r\n      uint i=Coins[CoinID].numPartners;\r\n\t    partnerShares[_CoinID][i]=_share;\r\n\r\n      Coins[_CoinID].numPartners=i+1;\r\n    }\r\n    function becomecustomer(bytes _customerUsername) {\r\n      //customer signs up to buy Coin coins\r\n      customers[msg.sender] = customer({\r\n                                  customerUsername: _customerUsername,\r\n                                  eligible: false\r\n                                  });\r\n                                }\r\n    function becomeAuthor(bytes _authorName) {\r\n      //Author signs up to publish\r\n      authors[msg.sender] = Author({\r\n                                  authorName: _authorName,\r\n                                  totalEarned: 0\r\n                                  });\r\n                                }\r\n\r\n\r\n\r\n    function createCoinStruct (uint _customershipStake,string _tokenName,string _tokenSymbol,string _governanceModel)\r\n      isAuthor() {\r\n       CoinID += 1;\r\n\t\t   uint t=10;\r\n       //uint[] memory P = new uint[](10);//default 10 possible partners (possibly add option for more or less)\r\n\t\t   //uint[]  P;\r\n\t\t   //P[1]=12;\r\n\r\n\r\n        Coins[CoinID] = CoinStruct({\r\n              CoinID: CoinID,\r\n              authorAddress: msg.sender,\r\n              customershipStake: _customershipStake,\r\n              tokenName:_tokenName,\r\n              tokenSymbol:_tokenSymbol,\r\n\t\t\t\t\t\t\tgovernanceModel:_governanceModel,\r\n\t\t\t\t\t\t\tgoal:t,\r\n\t\t\t\t\t\t  startdate:t,\r\n\t \t\t\t\t\t\tenddate:t,\r\n\t \t\t\t\t\t\teligibleCount:t,\r\n\t\t\t\t\t\t               //\tPartners:P,\r\n              numPartners:0\r\n\r\n                            });\r\n                          }\r\n  function modifyCoinStruct(uint _CoinID,uint _goal,uint _startdate,uint _enddate,uint _eligibleCount)\r\n\t isAuthor()   {\r\n\t              CoinStruct storage temp=Coins[_CoinID];\r\n\t              temp.goal=_goal;\r\n\t              temp.startdate=_startdate;\r\n\t              temp.enddate=_enddate;\r\n\t              temp.eligibleCount=_eligibleCount;\r\n\r\n      //bytes data=0xa50b4f0;\r\n      publishCoin( _CoinID ,  uint8(1000), uint(1000),  uint(0) );\r\n   }\r\n\r\n  function publishCoin(uint id, uint8 _decimalUnits,uint _initialAmount, uint _toBeShipped ){\r\n     CoinStruct memory temp=Coins[id];\r\n\r\n     Coin newCoin = new Coin(msg.sender, temp.customershipStake, temp.goal, _toBeShipped,\r\n                             temp.eligibleCount, _initialAmount, temp.tokenName,_decimalUnits,temp.startdate,temp.enddate,temp.tokenSymbol);\r\n   }\r\n\r\n   function structRet(uint n)  public returns(uint){\r\n     CoinStruct memory b= Coins[n];\r\n     return b.customershipStake;\r\n\r\n   }\r\n   function nameret(uint n)  public returns(string){\r\n     CoinStruct memory b= Coins[n];\r\n     return b.tokenName;\r\n\r\n   }\r\n   function symbolret(uint n)  public returns(string){\r\n     CoinStruct memory b= Coins[n];\r\n     return b.tokenSymbol;\r\n\r\n   }\r\n  // function getCoinStruct(uint n) public  returns (CoinStruct) {\r\n    // return Coins[n];\r\n   //}\r\n   function getOtherparams(uint n) returns(uint,uint,uint,uint){\r\n     CoinStruct memory b= Coins[n];\r\n     return(b.goal,b.startdate,b.enddate,b.eligibleCount);\r\n\r\n }\r\n  function getPartnerShare(uint n,uint m) public  returns (uint) {\r\n    return  partnerShares[n][m];\r\n  }\r\n  function returnallShares(uint n) public returns (uint[]){\r\n    CoinStruct memory B=Coins[n];\r\n    uint sz=B.numPartners;\r\n    uint[] memory P = new uint[](sz);\r\n    for(uint i=0;i<sz;i++){\r\n    P[i]=getPartnerShare(n,i);\r\n\r\n  }\r\n  return P;\r\n}\r\n}\r\n",
  "sourcePath": "/home/jjj/Documents/OE/OpenEquity/contracts/CoinPub.sol",
  "compiler": {
    "name": "solc",
    "version": "0.4.23+commit.124ca40d.Emscripten.clang"
  },
  "schemaVersion": "2.0.0",
  "updatedAt": "2018-07-04T03:30:14.832Z"
}