{
  "contractName": "CoinQueueLib2",
  "abi": [
    {
      "constant": false,
      "inputs": [
        {
          "name": "queue",
          "type": "CoinQueueLib2.CoinQueue storage"
        },
        {
          "name": "customer",
          "type": "address"
        },
        {
          "name": "value",
          "type": "uint256"
        }
      ],
      "name": "insertcustomer",
      "outputs": [
        {
          "name": "",
          "type": "bool"
        }
      ],
      "payable": false,
      "stateMutability": "nonpayable",
      "type": "function"
    },
    {
      "constant": false,
      "inputs": [
        {
          "name": "queue",
          "type": "CoinQueueLib2.CoinQueue storage"
        },
        {
          "name": "customer",
          "type": "address"
        },
        {
          "name": "value",
          "type": "uint256"
        }
      ],
      "name": "customerWithdraw",
      "outputs": [],
      "payable": false,
      "stateMutability": "nonpayable",
      "type": "function"
    },
    {
      "constant": false,
      "inputs": [
        {
          "name": "queue",
          "type": "CoinQueueLib2.CoinQueue storage"
        },
        {
          "name": "customer",
          "type": "address"
        }
      ],
      "name": "findcustomerPos",
      "outputs": [
        {
          "name": "",
          "type": "uint256"
        }
      ],
      "payable": false,
      "stateMutability": "nonpayable",
      "type": "function"
    },
    {
      "constant": false,
      "inputs": [
        {
          "name": "queue",
          "type": "CoinQueueLib2.CoinQueue storage"
        }
      ],
      "name": "getFirstInLine",
      "outputs": [
        {
          "name": "",
          "type": "address"
        }
      ],
      "payable": false,
      "stateMutability": "nonpayable",
      "type": "function"
    },
    {
      "constant": false,
      "inputs": [
        {
          "name": "queue",
          "type": "CoinQueueLib2.CoinQueue storage"
        },
        {
          "name": "customer",
          "type": "address"
        }
      ],
      "name": "findbalance",
      "outputs": [
        {
          "name": "",
          "type": "uint256"
        }
      ],
      "payable": false,
      "stateMutability": "nonpayable",
      "type": "function"
    },
    {
      "constant": false,
      "inputs": [
        {
          "name": "queue",
          "type": "CoinQueueLib2.CoinQueue storage"
        }
      ],
      "name": "findinserts",
      "outputs": [
        {
          "name": "",
          "type": "uint256"
        }
      ],
      "payable": false,
      "stateMutability": "nonpayable",
      "type": "function"
    },
    {
      "constant": false,
      "inputs": [
        {
          "name": "queue",
          "type": "CoinQueueLib2.CoinQueue storage"
        },
        {
          "name": "value",
          "type": "uint256"
        }
      ],
      "name": "findvalueAtRank",
      "outputs": [
        {
          "name": "",
          "type": "uint256"
        }
      ],
      "payable": false,
      "stateMutability": "nonpayable",
      "type": "function"
    },
    {
      "constant": false,
      "inputs": [
        {
          "name": "queue",
          "type": "CoinQueueLib2.CoinQueue storage"
        },
        {
          "name": "value",
          "type": "uint256"
        }
      ],
      "name": "findheight",
      "outputs": [
        {
          "name": "",
          "type": "uint256"
        }
      ],
      "payable": false,
      "stateMutability": "nonpayable",
      "type": "function"
    },
    {
      "constant": false,
      "inputs": [
        {
          "name": "queue",
          "type": "CoinQueueLib2.CoinQueue storage"
        },
        {
          "name": "value",
          "type": "uint256"
        }
      ],
      "name": "findValueAtPercentile",
      "outputs": [
        {
          "name": "",
          "type": "uint256"
        }
      ],
      "payable": false,
      "stateMutability": "nonpayable",
      "type": "function"
    },
    {
      "constant": false,
      "inputs": [
        {
          "name": "queue",
          "type": "CoinQueueLib2.CoinQueue storage"
        },
        {
          "name": "value",
          "type": "uint256"
        }
      ],
      "name": "findNodeCount",
      "outputs": [
        {
          "name": "",
          "type": "uint256"
        }
      ],
      "payable": false,
      "stateMutability": "nonpayable",
      "type": "function"
    }
  ],
  "bytecode": "0x610eba610030600b82828239805160001a6073146000811461002057610022565bfe5b5030600052607381538281f30073000000000000000000000000000000000000000030146080604052600436106100bb576000357c0100000000000000000000000000000000000000000000000000000000900463ffffffff1680630e48077e146100c0578063213d93ba1461011757806336ba72821461016257806364f5ae24146101ad578063950c2637146101f85780639c323a9314610243578063ae3baa0714610284578063ccc7f060146102f1578063eceacf1c14610352578063fb98b6a3146103b3575b600080fd5b8180156100cc57600080fd5b5061011560048036038101908080359060200190929190803573ffffffffffffffffffffffffffffffffffffffff16906020019092919080359060200190929190505050610422565b005b81801561012357600080fd5b5061014c600480360381019080803590602001909291908035906020019092919050505061061e565b6040518082815260200191505060405180910390f35b81801561016e57600080fd5b5061019760048036038101908080359060200190929190803590602001909291905050506106db565b6040518082815260200191505060405180910390f35b8180156101b957600080fd5b506101e26004803603810190808035906020019092919080359060200190929190505050610798565b6040518082815260200191505060405180910390f35b81801561020457600080fd5b5061022d6004803603810190808035906020019092919080359060200190929190505050610855565b6040518082815260200191505060405180910390f35b81801561024f57600080fd5b5061026e60048036038101908080359060200190929190505050610912565b6040518082815260200191505060405180910390f35b81801561029057600080fd5b506102af600480360381019080803590602001909291905050506109c6565b604051808273ffffffffffffffffffffffffffffffffffffffff1673ffffffffffffffffffffffffffffffffffffffff16815260200191505060405180910390f35b8180156102fd57600080fd5b5061033c60048036038101908080359060200190929190803573ffffffffffffffffffffffffffffffffffffffff1690602001909291905050506109f4565b6040518082815260200191505060405180910390f35b81801561035e57600080fd5b5061039d60048036038101908080359060200190929190803573ffffffffffffffffffffffffffffffffffffffff169060200190929190505050610a40565b6040518082815260200191505060405180910390f35b8180156103bf57600080fd5b5061040860048036038101908080359060200190929190803573ffffffffffffffffffffffffffffffffffffffff16906020019092919080359060200190929190505050610b49565b604051808215151515815260200191505060405180910390f35b60008360030160008473ffffffffffffffffffffffffffffffffffffffff1673ffffffffffffffffffffffffffffffffffffffff168152602001908152602001600020549050818460030160008573ffffffffffffffffffffffffffffffffffffffff1673ffffffffffffffffffffffffffffffffffffffff168152602001908152602001600020600082825403925050819055508360000173__OrderedStatisticTree__________________6303c7511a9091836040518363ffffffff167c0100000000000000000000000000000000000000000000000000000000028152600401808381526020018281526020019250505060006040518083038186803b15801561052f57600080fd5b505af4158015610543573d6000803e3d6000fd5b505050508360000173__OrderedStatisticTree__________________6314055b3990918660030160008773ffffffffffffffffffffffffffffffffffffffff1673ffffffffffffffffffffffffffffffffffffffff168152602001908152602001600020546040518363ffffffff167c0100000000000000000000000000000000000000000000000000000000028152600401808381526020018281526020019250505060006040518083038186803b15801561060057600080fd5b505af4158015610614573d6000803e3d6000fd5b5050505050505050565b60008260000173__OrderedStatisticTree__________________6330c580789091846040518363ffffffff167c0100000000000000000000000000000000000000000000000000000000028152600401808381526020018281526020019250505060206040518083038186803b15801561069857600080fd5b505af41580156106ac573d6000803e3d6000fd5b505050506040513d60208110156106c257600080fd5b8101908080519060200190929190505050905092915050565b60008260000173__OrderedStatisticTree__________________63c22005a79091846040518363ffffffff167c0100000000000000000000000000000000000000000000000000000000028152600401808381526020018281526020019250505060206040518083038186803b15801561075557600080fd5b505af4158015610769573d6000803e3d6000fd5b505050506040513d602081101561077f57600080fd5b8101908080519060200190929190505050905092915050565b60008260000173__OrderedStatisticTree__________________630b9d35f69091846040518363ffffffff167c0100000000000000000000000000000000000000000000000000000000028152600401808381526020018281526020019250505060206040518083038186803b15801561081257600080fd5b505af4158015610826573d6000803e3d6000fd5b505050506040513d602081101561083c57600080fd5b8101908080519060200190929190505050905092915050565b60008260000173__OrderedStatisticTree__________________63d6e6d2d89091846040518363ffffffff167c0100000000000000000000000000000000000000000000000000000000028152600401808381526020018281526020019250505060206040518083038186803b1580156108cf57600080fd5b505af41580156108e3573d6000803e3d6000fd5b505050506040513d60208110156108f957600080fd5b8101908080519060200190929190505050905092915050565b60008160000173__OrderedStatisticTree__________________631e6e281090916040518263ffffffff167c01000000000000000000000000000000000000000000000000000000000281526004018082815260200191505060206040518083038186803b15801561098457600080fd5b505af4158015610998573d6000803e3d6000fd5b505050506040513d60208110156109ae57600080fd5b81019080805190602001909291905050509050919050565b60008160060160009054906101000a900473ffffffffffffffffffffffffffffffffffffffff169050919050565b60008260030160008373ffffffffffffffffffffffffffffffffffffffff1673ffffffffffffffffffffffffffffffffffffffff16815260200190815260200160002054905092915050565b60008060008460030160008573ffffffffffffffffffffffffffffffffffffffff1673ffffffffffffffffffffffffffffffffffffffff1681526020019081526020016000205491508460000173__OrderedStatisticTree__________________63ad7d76599091846040518363ffffffff167c0100000000000000000000000000000000000000000000000000000000028152600401808381526020018281526020019250505060206040518083038186803b158015610b0157600080fd5b505af4158015610b15573d6000803e3d6000fd5b505050506040513d6020811015610b2b57600080fd5b81019080805190602001909291905050509050809250505092915050565b6000806000808660030160008773ffffffffffffffffffffffffffffffffffffffff1673ffffffffffffffffffffffffffffffffffffffff168152602001908152602001600020541415610bab57600186600701600082825401925050819055505b8560050154848760030160008873ffffffffffffffffffffffffffffffffffffffff1673ffffffffffffffffffffffffffffffffffffffff16815260200190815260200160002054011115610c8a57838660030160008773ffffffffffffffffffffffffffffffffffffffff1673ffffffffffffffffffffffffffffffffffffffff16815260200190815260200160002054018660050181905550848660060160006101000a81548173ffffffffffffffffffffffffffffffffffffffff021916908373ffffffffffffffffffffffffffffffffffffffff1602179055505b8560030160008673ffffffffffffffffffffffffffffffffffffffff1673ffffffffffffffffffffffffffffffffffffffff168152602001908152602001600020549150838660030160008773ffffffffffffffffffffffffffffffffffffffff1673ffffffffffffffffffffffffffffffffffffffff168152602001908152602001600020600082825401925050819055508560000173__OrderedStatisticTree__________________6303c7511a9091846040518363ffffffff167c0100000000000000000000000000000000000000000000000000000000028152600401808381526020018281526020019250505060006040518083038186803b158015610d9557600080fd5b505af4158015610da9573d6000803e3d6000fd5b505050508560030160008673ffffffffffffffffffffffffffffffffffffffff1673ffffffffffffffffffffffffffffffffffffffff1681526020019081526020016000205490508560000173__OrderedStatisticTree__________________6314055b399091836040518363ffffffff167c0100000000000000000000000000000000000000000000000000000000028152600401808381526020018281526020019250505060006040518083038186803b158015610e6957600080fd5b505af4158015610e7d573d6000803e3d6000fd5b5050505060019250505093925050505600a165627a7a72305820094e459fddd137746fdf7a88cac21d46f233fc887158bf40b4d61ea1a5660dde0029",
  "source": "pragma solidity ^0.4.15;\n\nimport \"./OrderedStatisticTree.sol\";\nlibrary CoinQueueLib2 {\n  using OrderedStatisticTree for OrderedStatisticTree.Index;\n\n\n\tstruct CoinQueue {\n\n  \t\t//bytes32 id;\n  \t  OrderedStatisticTree.Index customerValues;\n   \t  mapping(address=>uint) insertOrder;\n\t    mapping(address=>uint) customerBalance;\n\t    mapping(uint=>address) balanceTocustomer;\n  //  mapping(address=>uint) positions;\n      uint greatestCustomerPurchase;\n      address firstInLine;\n\t    uint numbercustomers;\n\n\t}\n\tfunction createQueue()\n    internal\n    returns (CoinQueue)\n  {\n    return CoinQueue({\n      customerValues: OrderedStatisticTree.Index(0),numbercustomers:0,firstInLine:0x3,greatestCustomerPurchase:0\n\n          });\n  }\n\n\tfunction insertcustomer(CoinQueue storage queue,address customer,uint value) returns (bool){\n    \tif(queue.customerBalance[customer]==0){\n    \t  queue.numbercustomers+=1;\n \t\t }\n     if(queue.customerBalance[customer]+value>  queue.greatestCustomerPurchase){\n       queue.greatestCustomerPurchase=queue.customerBalance[customer]+value;\n       queue.firstInLine=customer;\n     }\n\t    uint prevBalance=queue.customerBalance[customer];\n\t    queue.customerBalance[customer]+=value;\n\t    queue.customerValues.remove(prevBalance);\n      uint temp=queue.customerBalance[customer];\n\t    queue.customerValues.insert(temp);\n\t  // queue.positions[customer]=queue.customerValues.rank(value);\n        //uint Rank=queue.customerValues.rank(temp);\n\n        return true;\n}\n  function customerWithdraw(CoinQueue storage queue,address customer, uint value){\n       uint prevBalance=queue.customerBalance[customer];\n       queue.customerBalance[customer]-=value;\n       queue.customerValues.remove(prevBalance);\n       queue.customerValues.insert(queue.customerBalance[customer]);\n       //queue.positions[customer]=queue.customerValues.rank(value);\n\n  }\n  function findcustomerPos(CoinQueue storage queue,address customer) returns(uint){\n\tuint balance=queue.customerBalance[customer];\n\tuint pos=queue.customerValues.rank(balance);\n\treturn pos;\n\t}\n  function getFirstInLine(CoinQueue storage queue) returns(address){\n    return queue.firstInLine;\n\n  }\n  function findbalance(CoinQueue storage queue,address customer) returns(uint){\n     return queue.customerBalance[customer];\n\n  }\n  function findinserts(CoinQueue storage queue) returns(uint){\n\treturn queue.customerValues.numInserts();\n  }\n  function findvalueAtRank(CoinQueue storage queue,uint value) returns(uint){\n\treturn queue.customerValues.select_at(value);\n\t}\n    function findheight(CoinQueue storage queue,uint value) returns(uint){\n\treturn queue.customerValues.node_height(value);\n  }\n  function findValueAtPercentile(CoinQueue storage queue,uint value) returns(uint){\n  \treturn queue.customerValues.percentile(value);\n\n  }\n  function findNodeCount(CoinQueue storage queue, uint value) returns(uint){\n    return queue.customerValues.node_count(value);\n  }\n}\n",
  "sourcePath": "/home/jjj/Documents/OE/GitHubOpenEquity/OpenEquity/contracts/CoinQueueLib2.sol",
  "compiler": {
    "name": "solc",
    "version": "0.4.23+commit.124ca40d.Emscripten.clang"
  },
  "schemaVersion": "2.0.0",
  "updatedAt": "2018-07-06T18:22:29.620Z"
}