{
  "contractName": "CoinDistLib",
  "abi": [
    {
      "anonymous": false,
      "inputs": [],
      "name": "NewQualifyingcustomers",
      "type": "event"
    },
    {
      "anonymous": false,
      "inputs": [
        {
          "indexed": false,
          "name": "customer",
          "type": "address"
        }
      ],
      "name": "CoinRequested",
      "type": "event"
    },
    {
      "anonymous": false,
      "inputs": [
        {
          "indexed": false,
          "name": "customer",
          "type": "address"
        }
      ],
      "name": "LogCoinShipped",
      "type": "event"
    },
    {
      "constant": false,
      "inputs": [
        {
          "name": "customers",
          "type": "uint256"
        }
      ],
      "name": "prepShip",
      "outputs": [],
      "payable": false,
      "stateMutability": "nonpayable",
      "type": "function"
    },
    {
      "constant": false,
      "inputs": [],
      "name": "requestDelivery",
      "outputs": [],
      "payable": false,
      "stateMutability": "nonpayable",
      "type": "function"
    },
    {
      "constant": false,
      "inputs": [
        {
          "name": "customer",
          "type": "address"
        }
      ],
      "name": "markShipped",
      "outputs": [],
      "payable": false,
      "stateMutability": "nonpayable",
      "type": "function"
    }
  ],
  "bytecode": "0x61017f610030600b82828239805160001a6073146000811461002057610022565bfe5b5030600052607381538281f300730000000000000000000000000000000000000000301460806040526004361061006d5763ffffffff7c010000000000000000000000000000000000000000000000000000000060003504166330f7451e8114610072578063988e039014610089578063fc6dc17d146100a1575b600080fd5b81801561007e57600080fd5b506100876100cf565b005b81801561009557600080fd5b50610087600435610104565b8180156100ad57600080fd5b5061008773ffffffffffffffffffffffffffffffffffffffff60043516610107565b6040805133815290517f5da801b6e57bde18d536d5e32ef866b5fdd927d80101ed20524c269550edf1c79181900360200190a1565b50565b6040805173ffffffffffffffffffffffffffffffffffffffff8316815290517f1fc44c2b44927a36b98c2262da2b66a43bf6395e97a25719577b1bbfa7f279d49181900360200190a1505600a165627a7a72305820a92a8716b45a884c14b95ed7795da129db6f0bb3f3afc80cad4f6cd13c7e7dd00029",
  "source": "pragma solidity ^0.4.15;\n\n\nimport \"./CoinPub.sol\";\n\nlibrary CoinDistLib {\n\n  event NewQualifyingcustomers ();          //Some customers become eligible after goal is met\n  event CoinRequested(address customer);    //customer claims Coin\n  event LogCoinShipped(address customer);   //Author sends shipping confirmation\n\n  //Some customers become eligible to claim hard copy upon funding goal\n  function prepShip(uint customers){\n    //getFirstInLine(CoinQueue storage queue)\n    //Coin.customerEligibilityAndBalance.eligibleForCoin = true;\n    }\n  //customers can claim hard copy after they become eligible\n  function requestDelivery (){\n    //require(Coin.customerEligibilityAndBalance.eligibleForCoin = false = true);\n    //Coin.customerEligibilityAndBalance.eligibleForCoin = false;\n    CoinRequested(msg.sender);\n    }\n  function markShipped (address customer){\n    //How should I alert the customer?\n    LogCoinShipped(customer);\n    }\n\n}\n",
  "sourcePath": "/home/john/OE/OpenEquity/contracts/CoinDistLib.sol",
  "compiler": {
    "name": "solc",
    "version": "0.4.24+commit.e67f0147.Emscripten.clang"
  },
  "schemaVersion": "3.0.5",
  "updatedAt": "2019-03-27T18:54:57.555Z",
  "devdoc": {
    "methods": {}
  },
  "userdoc": {
    "methods": {}
  }
}