{
  "contractName": "CoinPub",
  "abi": [
    {
      "inputs": [
        {
          "name": "T",
          "type": "address"
        },
        {
          "name": "C",
          "type": "address"
        }
      ],
      "payable": false,
      "stateMutability": "nonpayable",
      "type": "constructor"
    },
    {
      "constant": false,
      "inputs": [
        {
          "name": "_CoinID",
          "type": "uint256"
        },
        {
          "name": "_share",
          "type": "uint256"
        }
      ],
      "name": "addPartner",
      "outputs": [],
      "payable": false,
      "stateMutability": "nonpayable",
      "type": "function"
    },
    {
      "constant": false,
      "inputs": [
        {
          "name": "_customerUsername",
          "type": "bytes"
        }
      ],
      "name": "becomecustomer",
      "outputs": [],
      "payable": false,
      "stateMutability": "nonpayable",
      "type": "function"
    },
    {
      "constant": false,
      "inputs": [
        {
          "name": "_authorName",
          "type": "bytes"
        }
      ],
      "name": "becomeAuthor",
      "outputs": [],
      "payable": false,
      "stateMutability": "nonpayable",
      "type": "function"
    },
    {
      "constant": false,
      "inputs": [
        {
          "name": "_customershipStake",
          "type": "uint256"
        },
        {
          "name": "_tokenName",
          "type": "string"
        },
        {
          "name": "_tokenSymbol",
          "type": "string"
        },
        {
          "name": "_governanceModel",
          "type": "string"
        }
      ],
      "name": "createCoinStruct",
      "outputs": [],
      "payable": false,
      "stateMutability": "nonpayable",
      "type": "function"
    },
    {
      "constant": false,
      "inputs": [
        {
          "name": "_CoinID",
          "type": "uint256"
        },
        {
          "name": "_goal",
          "type": "uint256"
        },
        {
          "name": "_startdate",
          "type": "uint256"
        },
        {
          "name": "_enddate",
          "type": "uint256"
        },
        {
          "name": "_eligibleCount",
          "type": "uint256"
        },
        {
          "name": "_weight",
          "type": "uint256"
        },
        {
          "name": "_weight2",
          "type": "uint256"
        }
      ],
      "name": "modifyCoinStruct",
      "outputs": [],
      "payable": false,
      "stateMutability": "nonpayable",
      "type": "function"
    },
    {
      "constant": false,
      "inputs": [
        {
          "name": "id",
          "type": "uint256"
        },
        {
          "name": "_decimalUnits",
          "type": "uint8"
        },
        {
          "name": "_initialAmount",
          "type": "uint256"
        },
        {
          "name": "_toBeShipped",
          "type": "uint256"
        }
      ],
      "name": "publishCoin",
      "outputs": [],
      "payable": false,
      "stateMutability": "nonpayable",
      "type": "function"
    },
    {
      "constant": false,
      "inputs": [
        {
          "name": "n",
          "type": "uint256"
        }
      ],
      "name": "structRet",
      "outputs": [
        {
          "name": "",
          "type": "uint256"
        }
      ],
      "payable": false,
      "stateMutability": "nonpayable",
      "type": "function"
    },
    {
      "constant": false,
      "inputs": [
        {
          "name": "n",
          "type": "uint256"
        }
      ],
      "name": "nameret",
      "outputs": [
        {
          "name": "",
          "type": "string"
        }
      ],
      "payable": false,
      "stateMutability": "nonpayable",
      "type": "function"
    },
    {
      "constant": false,
      "inputs": [
        {
          "name": "n",
          "type": "uint256"
        }
      ],
      "name": "symbolret",
      "outputs": [
        {
          "name": "",
          "type": "string"
        }
      ],
      "payable": false,
      "stateMutability": "nonpayable",
      "type": "function"
    },
    {
      "constant": false,
      "inputs": [
        {
          "name": "n",
          "type": "uint256"
        }
      ],
      "name": "getOtherparams",
      "outputs": [
        {
          "name": "",
          "type": "uint256"
        },
        {
          "name": "",
          "type": "uint256"
        },
        {
          "name": "",
          "type": "uint256"
        },
        {
          "name": "",
          "type": "uint256"
        }
      ],
      "payable": false,
      "stateMutability": "nonpayable",
      "type": "function"
    },
    {
      "constant": false,
      "inputs": [
        {
          "name": "n",
          "type": "uint256"
        },
        {
          "name": "m",
          "type": "uint256"
        }
      ],
      "name": "getPartnerShare",
      "outputs": [
        {
          "name": "",
          "type": "uint256"
        }
      ],
      "payable": false,
      "stateMutability": "nonpayable",
      "type": "function"
    },
    {
      "constant": false,
      "inputs": [
        {
          "name": "n",
          "type": "uint256"
        }
      ],
      "name": "returnallShares",
      "outputs": [
        {
          "name": "",
          "type": "uint256[]"
        }
      ],
      "payable": false,
      "stateMutability": "nonpayable",
      "type": "function"
    }
  ],
  "bytecode": "0x608060405234801561001057600080fd5b5060405160408061214083398101806040528101908080519060200190929190805190602001909291905050506000808190555080600260006101000a81548173ffffffffffffffffffffffffffffffffffffffff021916908373ffffffffffffffffffffffffffffffffffffffff16021790555081600160006101000a81548173ffffffffffffffffffffffffffffffffffffffff021916908373ffffffffffffffffffffffffffffffffffffffff16021790555033600360006101000a81548173ffffffffffffffffffffffffffffffffffffffff021916908373ffffffffffffffffffffffffffffffffffffffff1602179055505050612028806101186000396000f3006080604052600436106100ba576000357c0100000000000000000000000000000000000000000000000000000000900463ffffffff16806320b45620146100bf5780633c3ee355146101655780633e473dd31461020b5780636ebf84d21461024c578063781c2e5e146102b5578063907f597d146103b4578063952b7c5d146103ff5780639967edb81461044d578063b41304b6146104cf578063b5bb4ec414610538578063b9f68d9d1461056f578063e63ab277146105d8575b600080fd5b3480156100cb57600080fd5b506100ea6004803603810190808035906020019092919050505061062e565b6040518080602001828103825283818151815260200191508051906020019080838360005b8381101561012a57808201518184015260208101905061010f565b50505050905090810190601f1680156101575780820380516001836020036101000a031916815260200191505b509250505060405180910390f35b34801561017157600080fd5b50610190600480360381019080803590602001909291905050506108fe565b6040518080602001828103825283818151815260200191508051906020019080838360005b838110156101d05780820151818401526020810190506101b5565b50505050905090810190601f1680156101fd5780820380516001836020036101000a031916815260200191505b509250505060405180910390f35b34801561021757600080fd5b5061023660048036038101908080359060200190929190505050610bce565b6040518082815260200191505060405180910390f35b34801561025857600080fd5b506102b3600480360381019080803590602001908201803590602001908080601f0160208091040260200160405190810160405280939291908181526020018383808284378201915050505050509192919290505050610e9d565b005b3480156102c157600080fd5b506103b260048036038101908080359060200190929190803590602001908201803590602001908080601f0160208091040260200160405190810160405280939291908181526020018383808284378201915050505050509192919290803590602001908201803590602001908080601f0160208091040260200160405190810160405280939291908181526020018383808284378201915050505050509192919290803590602001908201803590602001908080601f0160208091040260200160405190810160405280939291908181526020018383808284378201915050505050509192919290505050610f37565b005b3480156103c057600080fd5b506103e960048036038101908080359060200190929190803590602001909291905050506110dc565b6040518082815260200191505060405180910390f35b34801561040b57600080fd5b5061044b60048036038101908080359060200190929190803560ff169060200190929190803590602001909291908035906020019092919050505061110b565b005b34801561045957600080fd5b50610478600480360381019080803590602001909291905050506116d1565b6040518080602001828103825283818151815260200191508051906020019060200280838360005b838110156104bb5780820151818401526020810190506104a0565b505050509050019250505060405180910390f35b3480156104db57600080fd5b5061053660048036038101908080359060200190929190803590602001909291908035906020019092919080359060200190929190803590602001909291908035906020019092919080359060200190929190505050611a1e565b005b34801561054457600080fd5b5061056d6004803603810190808035906020019092919080359060200190929190505050611a84565b005b34801561057b57600080fd5b506105d6600480360381019080803590602001908201803590602001908080601f0160208091040260200160405190810160405280939291908181526020018383808284378201915050505050509192919290505050611aec565b005b3480156105e457600080fd5b5061060360048036038101908080359060200190929190505050611b6e565b6040518085815260200184815260200183815260200182815260200194505050505060405180910390f35b6060610638611e58565b600660008481526020019081526020016000206101a06040519081016040529081600082015481526020016001820160009054906101000a900473ffffffffffffffffffffffffffffffffffffffff1673ffffffffffffffffffffffffffffffffffffffff1673ffffffffffffffffffffffffffffffffffffffff168152602001600282015481526020016003820154815260200160048201548152602001600582015481526020016006820154815260200160078201548152602001600882018054600181600116156101000203166002900480601f01602080910402602001604051908101604052809291908181526020018280546001816001161561010002031660029004801561078d5780601f106107625761010080835404028352916020019161078d565b820191906000526020600020905b81548152906001019060200180831161077057829003601f168201915b50505050508152602001600982018054600181600116156101000203166002900480601f01602080910402602001604051908101604052809291908181526020018280546001816001161561010002031660029004801561082f5780601f106108045761010080835404028352916020019161082f565b820191906000526020600020905b81548152906001019060200180831161081257829003601f168201915b50505050508152602001600a82018054600181600116156101000203166002900480601f0160208091040260200160405190810160405280929190818152602001828054600181600116156101000203166002900480156108d15780601f106108a6576101008083540402835291602001916108d1565b820191906000526020600020905b8154815290600101906020018083116108b457829003601f168201915b50505050508152602001600b8201548152602001600c820154815250509050806101000151915050919050565b6060610908611e58565b600660008481526020019081526020016000206101a06040519081016040529081600082015481526020016001820160009054906101000a900473ffffffffffffffffffffffffffffffffffffffff1673ffffffffffffffffffffffffffffffffffffffff1673ffffffffffffffffffffffffffffffffffffffff168152602001600282015481526020016003820154815260200160048201548152602001600582015481526020016006820154815260200160078201548152602001600882018054600181600116156101000203166002900480601f016020809104026020016040519081016040528092919081815260200182805460018160011615610100020316600290048015610a5d5780601f10610a3257610100808354040283529160200191610a5d565b820191906000526020600020905b815481529060010190602001808311610a4057829003601f168201915b50505050508152602001600982018054600181600116156101000203166002900480601f016020809104026020016040519081016040528092919081815260200182805460018160011615610100020316600290048015610aff5780601f10610ad457610100808354040283529160200191610aff565b820191906000526020600020905b815481529060010190602001808311610ae257829003601f168201915b50505050508152602001600a82018054600181600116156101000203166002900480601f016020809104026020016040519081016040528092919081815260200182805460018160011615610100020316600290048015610ba15780601f10610b7657610100808354040283529160200191610ba1565b820191906000526020600020905b815481529060010190602001808311610b8457829003601f168201915b50505050508152602001600b8201548152602001600c820154815250509050806101200151915050919050565b6000610bd8611e58565b600660008481526020019081526020016000206101a06040519081016040529081600082015481526020016001820160009054906101000a900473ffffffffffffffffffffffffffffffffffffffff1673ffffffffffffffffffffffffffffffffffffffff1673ffffffffffffffffffffffffffffffffffffffff168152602001600282015481526020016003820154815260200160048201548152602001600582015481526020016006820154815260200160078201548152602001600882018054600181600116156101000203166002900480601f016020809104026020016040519081016040528092919081815260200182805460018160011615610100020316600290048015610d2d5780601f10610d0257610100808354040283529160200191610d2d565b820191906000526020600020905b815481529060010190602001808311610d1057829003601f168201915b50505050508152602001600982018054600181600116156101000203166002900480601f016020809104026020016040519081016040528092919081815260200182805460018160011615610100020316600290048015610dcf5780601f10610da457610100808354040283529160200191610dcf565b820191906000526020600020905b815481529060010190602001808311610db257829003601f168201915b50505050508152602001600a82018054600181600116156101000203166002900480601f016020809104026020016040519081016040528092919081815260200182805460018160011615610100020316600290048015610e715780601f10610e4657610100808354040283529160200191610e71565b820191906000526020600020905b815481529060010190602001808311610e5457829003601f168201915b50505050508152602001600b8201548152602001600c8201548152505090508060400151915050919050565b604080519081016040528082815260200160001515815250600460003373ffffffffffffffffffffffffffffffffffffffff1673ffffffffffffffffffffffffffffffffffffffff1681526020019081526020016000206000820151816000019080519060200190610f10929190611ed7565b5060208201518160010160006101000a81548160ff02191690831515021790555090505050565b600060016000808282540192505081905550600a90506101a06040519081016040528060005481526020013373ffffffffffffffffffffffffffffffffffffffff1681526020018681526020016000815260200182815260200182815260200182815260200182815260200185815260200184815260200183815260200160018152602001600181525060066000805481526020019081526020016000206000820151816000015560208201518160010160006101000a81548173ffffffffffffffffffffffffffffffffffffffff021916908373ffffffffffffffffffffffffffffffffffffffff16021790555060408201518160020155606082015181600301556080820151816004015560a0820151816005015560c0820151816006015560e0820151816007015561010082015181600801908051906020019061107f929190611f57565b5061012082015181600901908051906020019061109d929190611f57565b5061014082015181600a0190805190602001906110bb929190611f57565b5061016082015181600b015561018082015181600c01559050505050505050565b600060086000848152602001908152602001600020600083815260200190815260200160002054905092915050565b611113611e58565b600660008681526020019081526020016000206101a06040519081016040529081600082015481526020016001820160009054906101000a900473ffffffffffffffffffffffffffffffffffffffff1673ffffffffffffffffffffffffffffffffffffffff1673ffffffffffffffffffffffffffffffffffffffff168152602001600282015481526020016003820154815260200160048201548152602001600582015481526020016006820154815260200160078201548152602001600882018054600181600116156101000203166002900480601f0160208091040260200160405190810160405280929190818152602001828054600181600116156101000203166002900480156112685780601f1061123d57610100808354040283529160200191611268565b820191906000526020600020905b81548152906001019060200180831161124b57829003601f168201915b50505050508152602001600982018054600181600116156101000203166002900480601f01602080910402602001604051908101604052809291908181526020018280546001816001161561010002031660029004801561130a5780601f106112df5761010080835404028352916020019161130a565b820191906000526020600020905b8154815290600101906020018083116112ed57829003601f168201915b50505050508152602001600a82018054600181600116156101000203166002900480601f0160208091040260200160405190810160405280929190818152602001828054600181600116156101000203166002900480156113ac5780601f10611381576101008083540402835291602001916113ac565b820191906000526020600020905b81548152906001019060200180831161138f57829003601f168201915b50505050508152602001600b8201548152602001600c820154815250509050600260009054906101000a900473ffffffffffffffffffffffffffffffffffffffff1673ffffffffffffffffffffffffffffffffffffffff1660405180807f6465706c6f79436f696e28616464726573732c75696e743235362c75696e743281526020017f35362c75696e743235362c75696e743235362c75696e743235362c737472696e81526020017f672c75696e74382c75696e743235362c75696e743235362c737472696e672c7581526020017f696e743235362c75696e743235362c6164647265737329000000000000000000815250607701905060405180910390207c010000000000000000000000000000000000000000000000000000000090043383604001518460800151868660a00151898861010001518c8a60c001518b60e001518c61012001518d61016001518e6101800151600160009054906101000a900473ffffffffffffffffffffffffffffffffffffffff166040518f63ffffffff167c0100000000000000000000000000000000000000000000000000000000028152600401808f73ffffffffffffffffffffffffffffffffffffffff1673ffffffffffffffffffffffffffffffffffffffff1681526020018e81526020018d81526020018c81526020018b81526020018a8152602001898051906020019080838360005b838110156115cc5780820151818401526020810190506115b1565b50505050905090810190601f1680156115f95780820380516001836020036101000a031916815260200191505b508860ff1660ff168152602001878152602001868152602001858051906020019080838360005b8381101561163b578082015181840152602081019050611620565b50505050905090810190601f1680156116685780820380516001836020036101000a031916815260200191505b508481526020018381526020018273ffffffffffffffffffffffffffffffffffffffff1673ffffffffffffffffffffffffffffffffffffffff1681526020019e5050505050505050505050505050506000604051808303816000875af192505050505050505050565b60606116db611e58565b600060606000600660008781526020019081526020016000206101a06040519081016040529081600082015481526020016001820160009054906101000a900473ffffffffffffffffffffffffffffffffffffffff1673ffffffffffffffffffffffffffffffffffffffff1673ffffffffffffffffffffffffffffffffffffffff168152602001600282015481526020016003820154815260200160048201548152602001600582015481526020016006820154815260200160078201548152602001600882018054600181600116156101000203166002900480601f0160208091040260200160405190810160405280929190818152602001828054600181600116156101000203166002900480156118365780601f1061180b57610100808354040283529160200191611836565b820191906000526020600020905b81548152906001019060200180831161181957829003601f168201915b50505050508152602001600982018054600181600116156101000203166002900480601f0160208091040260200160405190810160405280929190818152602001828054600181600116156101000203166002900480156118d85780601f106118ad576101008083540402835291602001916118d8565b820191906000526020600020905b8154815290600101906020018083116118bb57829003601f168201915b50505050508152602001600a82018054600181600116156101000203166002900480601f01602080910402602001604051908101604052809291908181526020018280546001816001161561010002031660029004801561197a5780601f1061194f5761010080835404028352916020019161197a565b820191906000526020600020905b81548152906001019060200180831161195d57829003601f168201915b50505050508152602001600b8201548152602001600c82015481525050935083606001519250826040519080825280602002602001820160405280156119cf5781602001602082028038833980820191505090505b509150600090505b82811015611a12576119e986826110dc565b82828151811015156119f757fe5b906020019060200201818152505080806001019150506119d7565b81945050505050919050565b60006006600089815260200190815260200160002090508681600401819055508581600601819055508481600701819055508381600501819055508281600b01819055508181600c0181905550611a7a886103e880600061110b565b5050505050505050565b600060066000805481526020019081526020016000206003015490508160086000858152602001908152602001600020600083815260200190815260200160002081905550600181016006600085815260200190815260200160002060030181905550505050565b60408051908101604052808281526020016000815250600560003373ffffffffffffffffffffffffffffffffffffffff1673ffffffffffffffffffffffffffffffffffffffff1681526020019081526020016000206000820151816000019080519060200190611b5d929190611ed7565b506020820151816001015590505050565b600080600080611b7c611e58565b600660008781526020019081526020016000206101a06040519081016040529081600082015481526020016001820160009054906101000a900473ffffffffffffffffffffffffffffffffffffffff1673ffffffffffffffffffffffffffffffffffffffff1673ffffffffffffffffffffffffffffffffffffffff168152602001600282015481526020016003820154815260200160048201548152602001600582015481526020016006820154815260200160078201548152602001600882018054600181600116156101000203166002900480601f016020809104026020016040519081016040528092919081815260200182805460018160011615610100020316600290048015611cd15780601f10611ca657610100808354040283529160200191611cd1565b820191906000526020600020905b815481529060010190602001808311611cb457829003601f168201915b50505050508152602001600982018054600181600116156101000203166002900480601f016020809104026020016040519081016040528092919081815260200182805460018160011615610100020316600290048015611d735780601f10611d4857610100808354040283529160200191611d73565b820191906000526020600020905b815481529060010190602001808311611d5657829003601f168201915b50505050508152602001600a82018054600181600116156101000203166002900480601f016020809104026020016040519081016040528092919081815260200182805460018160011615610100020316600290048015611e155780601f10611dea57610100808354040283529160200191611e15565b820191906000526020600020905b815481529060010190602001808311611df857829003601f168201915b50505050508152602001600b8201548152602001600c82015481525050905080608001518160c001518260e001518360a001519450945094509450509193509193565b6101a06040519081016040528060008152602001600073ffffffffffffffffffffffffffffffffffffffff16815260200160008152602001600081526020016000815260200160008152602001600081526020016000815260200160608152602001606081526020016060815260200160008152602001600081525090565b828054600181600116156101000203166002900490600052602060002090601f016020900481019282601f10611f1857805160ff1916838001178555611f46565b82800160010185558215611f46579182015b82811115611f45578251825591602001919060010190611f2a565b5b509050611f539190611fd7565b5090565b828054600181600116156101000203166002900490600052602060002090601f016020900481019282601f10611f9857805160ff1916838001178555611fc6565b82800160010185558215611fc6579182015b82811115611fc5578251825591602001919060010190611faa565b5b509050611fd39190611fd7565b5090565b611ff991905b80821115611ff5576000816000905550600101611fdd565b5090565b905600a165627a7a72305820fbf20eee880ce5d28a43435c4b321548e9220b93c3eca4e9a9bb3cd3914158e60029",
  "source": "//CoinStructPub - Decentralized CoinStruct Self-Publishing Platform\r\n//Must work for many, many authors\r\n//Assume authors might have as many as 10,000,000 fans\r\n//Gonna be sweet!\r\n//------------------------------------------------------*\r\n\r\n/* Summary:\r\n// Authors fund Coin publishing by selling licensing equity via micro crowd funding\r\n1) Publish contract with initial supply of 0 and sell coins at fixed price\r\n2) customers purchase coins to reveal eCoin download, and get in line for a hard copy\r\n3) Any amount of coins purchased is acceptable, price as low as a penny if you like\r\n4) The more coins you hold, the higher in line you get to receive your hard copy\r\n5) Every coin you own represents a small piece of equity in licensing rights\r\n6) Equity is determined by the number of coins you hold in proportion to total supply\r\n7) When certain funding goals are met, users at the top of the line are shipped a hard copy\r\n8) Coin holders are legally entitled to licesnsing revenue if a deal is made with a publisher, movie studio, amusementpark, etc.\r\n*/\r\n\r\n\r\n\r\npragma solidity ^0.4.15;\r\n\r\n//import \"./Stoppable.sol\";\r\n//import \"./Coin.sol\";\r\n//import \"./Math.sol\";\r\n\r\ncontract CoinPub  {\r\n    //using Math for *;\r\n    uint CoinID;            //ID applied to Coin upon pub, incrementing after each new Coin\r\n    address TreeDeploy;\r\n    address CoinDeploy;\r\n    address owner;\r\n    function CoinPub(address T,address C){\r\n        CoinID = 0;\r\n        CoinDeploy=C;\r\n        TreeDeploy=T;\r\n        owner=msg.sender;\r\n      }\r\n    modifier isOwner() {\r\n      require(msg.sender == owner);\r\n      _;}           //Owner of CoinStructPub Platform\r\n    modifier isAuthor() {\r\n      //  require(authors[msg.sender].totalEarned == 0);\r\n      _;}                                          //Author exists in Author mapping\r\n    modifier iscustomer() {\r\n      //    require(customers[msg.sender].customerUsername);\r\n      _;}                                          //customer exists in customer mapping\r\n\r\n    mapping(address => customer) customers;\r\n    mapping(address => Author) authors;\r\n    mapping(uint => CoinStruct) Coins;\r\n    //mapping(uint => address) CoinInstances;\r\n    mapping(uint => address) getPartner;\r\n    mapping(uint=>mapping(uint=>uint)) partnerShares;\r\n    //customer details [customersUsername, CoinIDs purchased array]\r\n    struct customer {\r\n      bytes customerUsername;      //customer's username\r\n      bool eligible;\r\n      //uint[] CoinsPurchased;       //CoinStructIDs of all owned Coins\r\n      }\r\n    //Author details [authorName, totalEarned, CoinID published array]\r\n    struct Author {\r\n       bytes authorName;          //Author's legal name\r\n       uint totalEarned;            //How much has this writer earned?\r\n       //uint[] CoinsPublished;       //CoinStructIDs of all published Coins\r\n      }\r\n\r\n    //CoinStruct details [CoinID, authorAddress, customershipStake, customers array]\r\n    struct CoinStruct {\r\n      uint CoinID;                 //Global Coin ID ++1\r\n      address authorAddress;       //Who was the author? Can be used to access Authors mapping\r\n      uint customershipStake;\r\n      //uint[] Partners;\r\n      uint numPartners;\r\n      uint goal\t;\r\n      uint eligibleCount;\r\n\t    uint startdate;\r\n\t    uint enddate;\r\n\r\n\t    string tokenName;\r\n\t    string tokenSymbol;\r\n\t    string governanceModel;\r\n      uint   weightCoefficient;\r\n      uint   weightCoefficient2;\r\n\t  //How much equity did the author provision for customers?\r\n      }\r\n    function addPartner(uint _CoinID,uint _share){\r\n      uint i=Coins[CoinID].numPartners;\r\n\t    partnerShares[_CoinID][i]=_share;\r\n\r\n      Coins[_CoinID].numPartners=i+1;\r\n    }\r\n    function becomecustomer(bytes _customerUsername) {\r\n      //customer signs up to buy Coin coins\r\n      customers[msg.sender] = customer({\r\n                                  customerUsername: _customerUsername,\r\n                                  eligible: false\r\n                                  });\r\n                                }\r\n    function becomeAuthor(bytes _authorName) {\r\n      //Author signs up to publish\r\n      authors[msg.sender] = Author({\r\n                                  authorName: _authorName,\r\n                                  totalEarned: 0\r\n                                  });\r\n                                }\r\n\r\n\r\n\r\n    function createCoinStruct (uint _customershipStake,string _tokenName,string _tokenSymbol,string _governanceModel)\r\n      isAuthor() {\r\n       CoinID += 1;\r\n\t\t   uint t=10;\r\n       //uint[] memory P = new uint[](10);//default 10 possible partners (possibly add option for more or less)\r\n\t\t   //uint[]  P;\r\n\t\t   //P[1]=12;\r\n\r\n\r\n        Coins[CoinID] = CoinStruct({\r\n              CoinID: CoinID,\r\n              authorAddress: msg.sender,\r\n              customershipStake: _customershipStake,\r\n              tokenName:_tokenName,\r\n              tokenSymbol:_tokenSymbol,\r\n\t\t\t\t\t\t\tgovernanceModel:_governanceModel,\r\n\t\t\t\t\t\t\tgoal:t,\r\n\t\t\t\t\t\t  startdate:t,\r\n\t \t\t\t\t\t\tenddate:t,\r\n\t \t\t\t\t\t\teligibleCount:t,\r\n\t\t\t\t\t\t               //\tPartners:P,\r\n              numPartners:0,\r\n              weightCoefficient:1,\r\n              weightCoefficient2:1\r\n            });\r\n      }\r\n  function modifyCoinStruct(uint _CoinID,uint _goal,uint _startdate,uint _enddate,uint _eligibleCount,uint _weight, uint _weight2)\r\n\t isAuthor()   {\r\n\t              CoinStruct storage temp=Coins[_CoinID];\r\n\t              temp.goal=_goal;\r\n\t              temp.startdate=_startdate;\r\n\t              temp.enddate=_enddate;\r\n\t              temp.eligibleCount=_eligibleCount;\r\n                temp.weightCoefficient=_weight;\r\n                temp.weightCoefficient2=_weight2;\r\n\r\n      //bytes data=0xa50b4f0;\r\n      publishCoin( _CoinID ,  uint8(1000), uint(1000),  uint(0) );\r\n   }\r\n\r\n  function publishCoin(uint id, uint8 _decimalUnits,uint _initialAmount, uint _toBeShipped) {\r\n     CoinStruct memory temp=Coins[id];\r\n\r\n    //Coin newCoin = new Coin(msg.sender, temp.customershipStake, temp.goal, _toBeShipped,\r\n      //                       temp.eligibleCount, _initialAmount, temp.tokenName,_decimalUnits,temp.startdate,temp.enddate,temp.tokenSymbol,temp.weightCoefficient,temp.weightCoefficient2);\r\n      //address T=address(newCoin);\r\n      //CoinInstances[temp.CoinID]=T;\r\n\r\n     CoinDeploy.call(bytes4(sha3((\"deployCoin(address,uint256,uint256,uint256,uint256,uint256,string,uint8,uint256,uint256,string,uint256,uint256,address)\"))),msg.sender, temp.customershipStake, temp.goal, _toBeShipped,\r\n                              temp.eligibleCount, _initialAmount, temp.tokenName,_decimalUnits,temp.startdate,temp.enddate,temp.tokenSymbol,temp.weightCoefficient,temp.weightCoefficient2,TreeDeploy);\r\n\r\n   }\r\n\r\n   function structRet(uint n)  public returns(uint){\r\n     CoinStruct memory b= Coins[n];\r\n     return b.customershipStake;\r\n\r\n   }\r\n   function nameret(uint n)  public returns(string){\r\n     CoinStruct memory b= Coins[n];\r\n     return b.tokenName;\r\n\r\n   }\r\n   function symbolret(uint n)  public returns(string){\r\n     CoinStruct memory b= Coins[n];\r\n     return b.tokenSymbol;\r\n\r\n   }\r\n  // function getCoinStruct(uint n) public  returns (CoinStruct) {\r\n    // return Coins[n];\r\n   //}\r\n   function getOtherparams(uint n) returns(uint,uint,uint,uint){\r\n     CoinStruct memory b= Coins[n];\r\n     return(b.goal,b.startdate,b.enddate,b.eligibleCount);\r\n\r\n }\r\n  function getPartnerShare(uint n,uint m) public  returns (uint) {\r\n    return  partnerShares[n][m];\r\n  }\r\n  function returnallShares(uint n) public returns (uint[]){\r\n    CoinStruct memory B=Coins[n];\r\n    uint sz=B.numPartners;\r\n    uint[] memory P = new uint[](sz);\r\n    for(uint i=0;i<sz;i++){\r\n    P[i]=getPartnerShare(n,i);\r\n\r\n  }\r\n  return P;\r\n}\r\n}\r\n",
  "sourcePath": "/home/jjj/Documents/OE/OpenEquity/contracts/CoinPub.sol",
  "compiler": {
    "name": "solc",
    "version": "0.4.24+commit.e67f0147.Emscripten.clang"
  },
  "schemaVersion": "2.0.1",
  "updatedAt": "2018-08-22T13:59:30.411Z"
}