{
  "contractName": "CoinDistLib",
  "abi": [
    {
      "anonymous": false,
      "inputs": [],
      "name": "NewQualifyingcustomers",
      "type": "event"
    },
    {
      "anonymous": false,
      "inputs": [
        {
          "indexed": false,
          "name": "customer",
          "type": "address"
        }
      ],
      "name": "CoinRequested",
      "type": "event"
    },
    {
      "anonymous": false,
      "inputs": [
        {
          "indexed": false,
          "name": "customer",
          "type": "address"
        }
      ],
      "name": "LogCoinShipped",
      "type": "event"
    },
    {
      "constant": false,
      "inputs": [
        {
          "name": "customers",
          "type": "uint256"
        }
      ],
      "name": "prepShip",
      "outputs": [],
      "payable": false,
      "stateMutability": "nonpayable",
      "type": "function"
    },
    {
      "constant": false,
      "inputs": [],
      "name": "requestDelivery",
      "outputs": [],
      "payable": false,
      "stateMutability": "nonpayable",
      "type": "function"
    },
    {
      "constant": false,
      "inputs": [
        {
          "name": "customer",
          "type": "address"
        }
      ],
      "name": "markShipped",
      "outputs": [],
      "payable": false,
      "stateMutability": "nonpayable",
      "type": "function"
    }
  ],
  "bytecode": "0x6101f4610030600b82828239805160001a6073146000811461002057610022565bfe5b5030600052607381538281f300730000000000000000000000000000000000000000301460806040526004361061006e576000357c0100000000000000000000000000000000000000000000000000000000900463ffffffff16806330f7451e14610073578063988e03901461008a578063fc6dc17d146100b7575b600080fd5b81801561007f57600080fd5b506100886100fa565b005b81801561009657600080fd5b506100b56004803603810190808035906020019092919050505061015f565b005b8180156100c357600080fd5b506100f8600480360381019080803573ffffffffffffffffffffffffffffffffffffffff169060200190929190505050610162565b005b7f5da801b6e57bde18d536d5e32ef866b5fdd927d80101ed20524c269550edf1c733604051808273ffffffffffffffffffffffffffffffffffffffff1673ffffffffffffffffffffffffffffffffffffffff16815260200191505060405180910390a1565b50565b7f1fc44c2b44927a36b98c2262da2b66a43bf6395e97a25719577b1bbfa7f279d481604051808273ffffffffffffffffffffffffffffffffffffffff1673ffffffffffffffffffffffffffffffffffffffff16815260200191505060405180910390a1505600a165627a7a723058206909108033a34d787568c16b85e091786482e64362b7fe7a70a8a6df8058debe0029",
  "source": "pragma solidity ^0.4.15;\n\n\nimport \"./CoinPub.sol\";\n\nlibrary CoinDistLib {\n\n  event NewQualifyingcustomers ();          //Some customers become eligible after goal is met\n  event CoinRequested(address customer);    //customer claims Coin\n  event LogCoinShipped(address customer);   //Author sends shipping confirmation\n\n  //Some customers become eligible to claim hard copy upon funding goal\n  function prepShip(uint customers){\n    //getFirstInLine(CoinQueue storage queue)\n    //Coin.customerEligibilityAndBalance.eligibleForCoin = true;\n    }\n  //customers can claim hard copy after they become eligible\n  function requestDelivery (){\n    //require(Coin.customerEligibilityAndBalance.eligibleForCoin = false = true);\n    //Coin.customerEligibilityAndBalance.eligibleForCoin = false;\n    CoinRequested(msg.sender);\n    }\n  function markShipped (address customer){\n    //How should I alert the customer?\n    LogCoinShipped(customer);\n    }\n\n}\n",
  "sourcePath": "/home/jjj/Documents/OE/OpenEquity/contracts/CoinDistLib.sol",
  "compiler": {
    "name": "solc",
    "version": "0.4.24+commit.e67f0147.Emscripten.clang"
  },
  "schemaVersion": "2.0.1",
  "updatedAt": "2018-09-27T19:32:13.162Z"
}