{
  "contractName": "CoinPub",
  "abi": [
    {
      "inputs": [
        {
          "name": "C",
          "type": "address"
        }
      ],
      "payable": false,
      "stateMutability": "nonpayable",
      "type": "constructor"
    },
    {
      "constant": false,
      "inputs": [
        {
          "name": "_CoinID",
          "type": "uint256"
        },
        {
          "name": "_share",
          "type": "uint256"
        }
      ],
      "name": "addPartner",
      "outputs": [],
      "payable": false,
      "stateMutability": "nonpayable",
      "type": "function"
    },
    {
      "constant": false,
      "inputs": [
        {
          "name": "_customerUsername",
          "type": "bytes"
        }
      ],
      "name": "becomecustomer",
      "outputs": [],
      "payable": false,
      "stateMutability": "nonpayable",
      "type": "function"
    },
    {
      "constant": false,
      "inputs": [
        {
          "name": "_authorName",
          "type": "bytes"
        }
      ],
      "name": "becomeAuthor",
      "outputs": [],
      "payable": false,
      "stateMutability": "nonpayable",
      "type": "function"
    },
    {
      "constant": false,
      "inputs": [
        {
          "name": "_customershipStake",
          "type": "uint256"
        },
        {
          "name": "_tokenName",
          "type": "string"
        },
        {
          "name": "_tokenSymbol",
          "type": "string"
        },
        {
          "name": "_governanceModel",
          "type": "string"
        }
      ],
      "name": "createCoinStruct",
      "outputs": [],
      "payable": false,
      "stateMutability": "nonpayable",
      "type": "function"
    },
    {
      "constant": false,
      "inputs": [
        {
          "name": "_CoinID",
          "type": "uint256"
        },
        {
          "name": "_goal",
          "type": "uint256"
        },
        {
          "name": "_startdate",
          "type": "uint256"
        },
        {
          "name": "_enddate",
          "type": "uint256"
        },
        {
          "name": "_eligibleCount",
          "type": "uint256"
        },
        {
          "name": "_weight",
          "type": "uint256"
        },
        {
          "name": "_weight2",
          "type": "uint256"
        }
      ],
      "name": "modifyCoinStruct",
      "outputs": [],
      "payable": false,
      "stateMutability": "nonpayable",
      "type": "function"
    },
    {
      "constant": false,
      "inputs": [
        {
          "name": "id",
          "type": "uint256"
        },
        {
          "name": "_decimalUnits",
          "type": "uint8"
        },
        {
          "name": "_initialAmount",
          "type": "uint256"
        }
      ],
      "name": "publishCoin",
      "outputs": [],
      "payable": false,
      "stateMutability": "nonpayable",
      "type": "function"
    },
    {
      "constant": false,
      "inputs": [
        {
          "name": "n",
          "type": "uint256"
        }
      ],
      "name": "getStructDetails",
      "outputs": [
        {
          "name": "",
          "type": "string"
        },
        {
          "name": "",
          "type": "string"
        },
        {
          "name": "",
          "type": "uint256"
        },
        {
          "name": "",
          "type": "uint256"
        },
        {
          "name": "",
          "type": "uint256"
        },
        {
          "name": "",
          "type": "uint256"
        },
        {
          "name": "",
          "type": "uint256"
        }
      ],
      "payable": false,
      "stateMutability": "nonpayable",
      "type": "function"
    },
    {
      "constant": false,
      "inputs": [
        {
          "name": "n",
          "type": "uint256"
        },
        {
          "name": "m",
          "type": "uint256"
        }
      ],
      "name": "getPartnerShare",
      "outputs": [
        {
          "name": "",
          "type": "uint256"
        }
      ],
      "payable": false,
      "stateMutability": "nonpayable",
      "type": "function"
    },
    {
      "constant": false,
      "inputs": [
        {
          "name": "n",
          "type": "uint256"
        }
      ],
      "name": "returnallShares",
      "outputs": [
        {
          "name": "",
          "type": "uint256[]"
        }
      ],
      "payable": false,
      "stateMutability": "nonpayable",
      "type": "function"
    }
  ],
  "bytecode": "0x608060405234801561001057600080fd5b506040516020806117fb833981018060405281019080805190602001909291905050506000808190555080600160006101000a81548173ffffffffffffffffffffffffffffffffffffffff021916908373ffffffffffffffffffffffffffffffffffffffff16021790555033600260006101000a81548173ffffffffffffffffffffffffffffffffffffffff021916908373ffffffffffffffffffffffffffffffffffffffff1602179055505061172f806100cc6000396000f300608060405260043610610099576000357c0100000000000000000000000000000000000000000000000000000000900463ffffffff1680636ebf84d21461009e578063705d0ab214610107578063781c2e5e1461023c578063907f597d1461033b5780639967edb814610386578063acf5a4e314610408578063b41304b61461044c578063b5bb4ec4146104b5578063b9f68d9d146104ec575b600080fd5b3480156100aa57600080fd5b50610105600480360381019080803590602001908201803590602001908080601f0160208091040260200160405190810160405280939291908181526020018383808284378201915050505050509192919290505050610555565b005b34801561011357600080fd5b50610132600480360381019080803590602001909291905050506105ef565b60405180806020018060200188815260200187815260200186815260200185815260200184815260200183810383528a818151815260200191508051906020019080838360005b83811015610194578082015181840152602081019050610179565b50505050905090810190601f1680156101c15780820380516001836020036101000a031916815260200191505b50838103825289818151815260200191508051906020019080838360005b838110156101fa5780820151818401526020810190506101df565b50505050905090810190601f1680156102275780820380516001836020036101000a031916815260200191505b50995050505050505050505060405180910390f35b34801561024857600080fd5b5061033960048036038101908080359060200190929190803590602001908201803590602001908080601f0160208091040260200160405190810160405280939291908181526020018383808284378201915050505050509192919290803590602001908201803590602001908080601f0160208091040260200160405190810160405280939291908181526020018383808284378201915050505050509192919290803590602001908201803590602001908080601f01602080910402602001604051908101604052809392919081815260200183838082843782019150505050505091929192905050506108ff565b005b34801561034757600080fd5b506103706004803603810190808035906020019092919080359060200190929190505050610aea565b6040518082815260200191505060405180910390f35b34801561039257600080fd5b506103b160048036038101908080359060200190929190505050610b19565b6040518080602001828103825283818151815260200191508051906020019060200280838360005b838110156103f45780820151818401526020810190506103d9565b505050509050019250505060405180910390f35b34801561041457600080fd5b5061044a60048036038101908080359060200190929190803560ff16906020019092919080359060200190929190505050610e66565b005b34801561045857600080fd5b506104b36004803603810190808035906020019092919080359060200190929190803590602001909291908035906020019092919080359060200190929190803590602001909291908035906020019092919050505061141e565b005b3480156104c157600080fd5b506104ea6004803603810190808035906020019092919080359060200190929190505050611475565b005b3480156104f857600080fd5b50610553600480360381019080803590602001908201803590602001908080601f01602080910402602001604051908101604052809392919081815260200183838082843782019150505050505091929192905050506114dd565b005b604080519081016040528082815260200160001515815250600460003373ffffffffffffffffffffffffffffffffffffffff1673ffffffffffffffffffffffffffffffffffffffff16815260200190815260200160002060008201518160000190805190602001906105c892919061155f565b5060208201518160010160006101000a81548160ff02191690831515021790555090505050565b60608060008060008060006106026115df565b600760008a81526020019081526020016000206101a06040519081016040529081600082015481526020016001820160009054906101000a900473ffffffffffffffffffffffffffffffffffffffff1673ffffffffffffffffffffffffffffffffffffffff1673ffffffffffffffffffffffffffffffffffffffff168152602001600282015481526020016003820154815260200160048201548152602001600582015481526020016006820154815260200160078201548152602001600882018054600181600116156101000203166002900480601f0160208091040260200160405190810160405280929190818152602001828054600181600116156101000203166002900480156107575780601f1061072c57610100808354040283529160200191610757565b820191906000526020600020905b81548152906001019060200180831161073a57829003601f168201915b50505050508152602001600982018054600181600116156101000203166002900480601f0160208091040260200160405190810160405280929190818152602001828054600181600116156101000203166002900480156107f95780601f106107ce576101008083540402835291602001916107f9565b820191906000526020600020905b8154815290600101906020018083116107dc57829003601f168201915b50505050508152602001600a82018054600181600116156101000203166002900480601f01602080910402602001604051908101604052809291908181526020018280546001816001161561010002031660029004801561089b5780601f106108705761010080835404028352916020019161089b565b820191906000526020600020905b81548152906001019060200180831161087e57829003601f168201915b50505050508152602001600b8201548152602001600c82015481525050905080610100015181610120015182608001518360c001518460e001518560a001518660400151869650859550975097509750975097509750975050919395979092949650565b600060016000808282540192505081905550600a9050600054600a60003373ffffffffffffffffffffffffffffffffffffffff1673ffffffffffffffffffffffffffffffffffffffff168152602001908152602001600020819055506101a06040519081016040528060005481526020013373ffffffffffffffffffffffffffffffffffffffff1681526020018681526020016000815260200182815260200182815260200182815260200182815260200185815260200184815260200183815260200160018152602001600181525060076000805481526020019081526020016000206000820151816000015560208201518160010160006101000a81548173ffffffffffffffffffffffffffffffffffffffff021916908373ffffffffffffffffffffffffffffffffffffffff16021790555060408201518160020155606082015181600301556080820151816004015560a0820151816005015560c0820151816006015560e08201518160070155610100820151816008019080519060200190610a8d92919061165e565b50610120820151816009019080519060200190610aab92919061165e565b5061014082015181600a019080519060200190610ac992919061165e565b5061016082015181600b015561018082015181600c01559050505050505050565b600060096000848152602001908152602001600020600083815260200190815260200160002054905092915050565b6060610b236115df565b600060606000600760008781526020019081526020016000206101a06040519081016040529081600082015481526020016001820160009054906101000a900473ffffffffffffffffffffffffffffffffffffffff1673ffffffffffffffffffffffffffffffffffffffff1673ffffffffffffffffffffffffffffffffffffffff168152602001600282015481526020016003820154815260200160048201548152602001600582015481526020016006820154815260200160078201548152602001600882018054600181600116156101000203166002900480601f016020809104026020016040519081016040528092919081815260200182805460018160011615610100020316600290048015610c7e5780601f10610c5357610100808354040283529160200191610c7e565b820191906000526020600020905b815481529060010190602001808311610c6157829003601f168201915b50505050508152602001600982018054600181600116156101000203166002900480601f016020809104026020016040519081016040528092919081815260200182805460018160011615610100020316600290048015610d205780601f10610cf557610100808354040283529160200191610d20565b820191906000526020600020905b815481529060010190602001808311610d0357829003601f168201915b50505050508152602001600a82018054600181600116156101000203166002900480601f016020809104026020016040519081016040528092919081815260200182805460018160011615610100020316600290048015610dc25780601f10610d9757610100808354040283529160200191610dc2565b820191906000526020600020905b815481529060010190602001808311610da557829003601f168201915b50505050508152602001600b8201548152602001600c8201548152505093508360600151925082604051908082528060200260200182016040528015610e175781602001602082028038833980820191505090505b509150600090505b82811015610e5a57610e318682610aea565b8282815181101515610e3f57fe5b90602001906020020181815250508080600101915050610e1f565b81945050505050919050565b610e6e6115df565b600760008581526020019081526020016000206101a06040519081016040529081600082015481526020016001820160009054906101000a900473ffffffffffffffffffffffffffffffffffffffff1673ffffffffffffffffffffffffffffffffffffffff1673ffffffffffffffffffffffffffffffffffffffff168152602001600282015481526020016003820154815260200160048201548152602001600582015481526020016006820154815260200160078201548152602001600882018054600181600116156101000203166002900480601f016020809104026020016040519081016040528092919081815260200182805460018160011615610100020316600290048015610fc35780601f10610f9857610100808354040283529160200191610fc3565b820191906000526020600020905b815481529060010190602001808311610fa657829003601f168201915b50505050508152602001600982018054600181600116156101000203166002900480601f0160208091040260200160405190810160405280929190818152602001828054600181600116156101000203166002900480156110655780601f1061103a57610100808354040283529160200191611065565b820191906000526020600020905b81548152906001019060200180831161104857829003601f168201915b50505050508152602001600a82018054600181600116156101000203166002900480601f0160208091040260200160405190810160405280929190818152602001828054600181600116156101000203166002900480156111075780601f106110dc57610100808354040283529160200191611107565b820191906000526020600020905b8154815290600101906020018083116110ea57829003601f168201915b50505050508152602001600b8201548152602001600c820154815250509050600160009054906101000a900473ffffffffffffffffffffffffffffffffffffffff1673ffffffffffffffffffffffffffffffffffffffff1660405180807f6465706c6f79436f696e28616464726573732c75696e743235362c75696e743281526020017f35362c75696e743235362c75696e743235362c737472696e672c75696e74382c81526020017f75696e743235362c75696e743235362c737472696e672c75696e743235362c7581526020017f696e743235362c75696e74323536290000000000000000000000000000000000815250606f01905060405180910390207c0100000000000000000000000000000000000000000000000000000000900433836040015184608001518560a00151878761010001518a8960c001518a60e001518b61012001518c61016001518d6101800151600a60003373ffffffffffffffffffffffffffffffffffffffff1673ffffffffffffffffffffffffffffffffffffffff168152602001908152602001600020546040518e63ffffffff167c0100000000000000000000000000000000000000000000000000000000028152600401808e73ffffffffffffffffffffffffffffffffffffffff1673ffffffffffffffffffffffffffffffffffffffff1681526020018d81526020018c81526020018b81526020018a8152602001898051906020019080838360005b8381101561133d578082015181840152602081019050611322565b50505050905090810190601f16801561136a5780820380516001836020036101000a031916815260200191505b508860ff1660ff168152602001878152602001868152602001858051906020019080838360005b838110156113ac578082015181840152602081019050611391565b50505050905090810190601f1680156113d95780820380516001836020036101000a031916815260200191505b508481526020018381526020018281526020019d50505050505050505050505050506000604051808303816000875af192505050151561141857600080fd5b50505050565b60006007600089815260200190815260200160002090508681600401819055508581600601819055508481600701819055508381600501819055508281600b01819055508181600c01819055505050505050505050565b600060076000805481526020019081526020016000206003015490508160096000858152602001908152602001600020600083815260200190815260200160002081905550600181016007600085815260200190815260200160002060030181905550505050565b60408051908101604052808281526020016000815250600660003373ffffffffffffffffffffffffffffffffffffffff1673ffffffffffffffffffffffffffffffffffffffff168152602001908152602001600020600082015181600001908051906020019061154e92919061155f565b506020820151816001015590505050565b828054600181600116156101000203166002900490600052602060002090601f016020900481019282601f106115a057805160ff19168380011785556115ce565b828001600101855582156115ce579182015b828111156115cd5782518255916020019190600101906115b2565b5b5090506115db91906116de565b5090565b6101a06040519081016040528060008152602001600073ffffffffffffffffffffffffffffffffffffffff16815260200160008152602001600081526020016000815260200160008152602001600081526020016000815260200160608152602001606081526020016060815260200160008152602001600081525090565b828054600181600116156101000203166002900490600052602060002090601f016020900481019282601f1061169f57805160ff19168380011785556116cd565b828001600101855582156116cd579182015b828111156116cc5782518255916020019190600101906116b1565b5b5090506116da91906116de565b5090565b61170091905b808211156116fc5760008160009055506001016116e4565b5090565b905600a165627a7a723058203aa1ffea18fb7029827074517132e11416b7a71b3057ec9a1c663bf6ddde626c0029",
  "source": "//CoinStructPub - Decentralized CoinStruct Self-Publishing Platform\r\n//Must work for many, many authors\r\n//Assume authors might have as many as 10,000,000 fans\r\n//Gonna be sweet!\r\n//------------------------------------------------------*\r\n\r\n/* Summary:\r\n// Authors fund Coin publishing by selling licensing equity via micro crowd funding\r\n1) Publish contract with initial supply of 0 and sell coins at fixed price\r\n2) customers purchase coins to reveal eCoin download, and get in line for a hard copy\r\n3) Any amount of coins purchased is acceptable, price as low as a penny if you like\r\n4) The more coins you hold, the higher in line you get to receive your hard copy\r\n5) Every coin you own represents a small piece of equity in licensing rights\r\n6) Equity is determined by the number of coins you hold in proportion to total supply\r\n7) When certain funding goals are met, users at the top of the line are shipped a hard copy\r\n8) Coin holders are legally entitled to licesnsing revenue if a deal is made with a publisher, movie studio, amusementpark, etc.\r\n*/\r\n\r\n\r\n\r\npragma solidity ^0.4.15;\r\n\r\n//import \"./Stoppable.sol\";\r\n//import \"./Coin.sol\";\r\n//import \"./Math.sol\";\r\n\r\ncontract CoinPub  {\r\n    //using Math for *;\r\n    uint CoinID;            //ID applied to Coin upon pub, incrementing after each new Coin\r\n\r\n    address CoinDeploy;\r\n    address owner;\r\n    uint DeployTime;\r\n    function CoinPub(address C){\r\n        CoinID = 0;\r\n\r\n        CoinDeploy=C;\r\n\r\n        owner=msg.sender;\r\n      }\r\n    modifier isOwner() {\r\n      require(msg.sender == owner);\r\n      _;}           //Owner of CoinStructPub Platform\r\n    modifier isAuthor() {\r\n      //  require(authors[msg.sender].totalEarned == 0);\r\n      _;}                                          //Author exists in Author mapping\r\n    modifier iscustomer() {\r\n      //    require(customers[msg.sender].customerUsername);\r\n      _;}                                          //customer exists in customer mapping\r\n\r\n    mapping(address => customer) customers;\r\n    mapping(address=>uint[]) createdCoinIDs;\r\n    mapping(address => Author) authors;\r\n    mapping(uint => CoinStruct) Coins;\r\n    //mapping(uint => address) CoinInstances;\r\n    mapping(uint => address) getPartner;\r\n    mapping(uint=>mapping(uint=>uint)) partnerShares;\r\n    mapping(address=>uint) QueuedCoin;\r\n    //customer details [customersUsername, CoinIDs purchased array]\r\n    struct customer {\r\n      bytes customerUsername;      //customer's username\r\n      bool eligible;\r\n      //uint[] CoinsPurchased;       //CoinStructIDs of all owned Coins\r\n      }\r\n    //Author details [authorName, totalEarned, CoinID published array]\r\n    struct Author {\r\n       bytes authorName;          //Author's legal name\r\n       uint totalEarned;            //How much has this writer earned?\r\n       //uint[] CoinsPublished;       //CoinStructIDs of all published Coins\r\n      }\r\n\r\n    //CoinStruct details [CoinID, authorAddress, customershipStake, customers array]\r\n    struct CoinStruct {\r\n      uint CoinID;                 //Global Coin ID ++1\r\n      address authorAddress;       //Who was the author? Can be used to access Authors mapping\r\n      uint customershipStake;\r\n      //uint[] Partners;\r\n      uint numPartners;\r\n      uint goal\t;\r\n      uint eligibleCount;\r\n\t    uint startdate;\r\n\t    uint enddate;\r\n\r\n\t    string tokenName;\r\n\t    string tokenSymbol;\r\n\t    string governanceModel;\r\n      uint   weightCoefficient;\r\n      uint   weightCoefficient2;\r\n\t  //How much equity did the author provision for customers?\r\n      }\r\n    function addPartner(uint _CoinID,uint _share){\r\n      uint i=Coins[CoinID].numPartners;\r\n\t    partnerShares[_CoinID][i]=_share;\r\n\r\n      Coins[_CoinID].numPartners=i+1;\r\n    }\r\n    function becomecustomer(bytes _customerUsername) {\r\n      //customer signs up to buy Coin coins\r\n      customers[msg.sender] = customer({\r\n                                  customerUsername: _customerUsername,\r\n                                  eligible: false\r\n                                  });\r\n                                }\r\n    function becomeAuthor(bytes _authorName) {\r\n      //Author signs up to publish\r\n      authors[msg.sender] = Author({\r\n                                  authorName: _authorName,\r\n                                  totalEarned: 0\r\n                                  });\r\n                                }\r\n\r\n\r\n\r\n    function createCoinStruct (uint _customershipStake,string _tokenName,string _tokenSymbol,string _governanceModel)\r\n      isAuthor() {\r\n       CoinID += 1;\r\n\t\t   uint t=10;\r\n       QueuedCoin[msg.sender]=CoinID;\r\n       //uint[] memory P = new uint[](10);//default 10 possible partners (possibly add option for more or less)\r\n\t\t   //uint[]  P;\r\n\t\t   //P[1]=12;\r\n\r\n\r\n        Coins[CoinID] = CoinStruct({\r\n              CoinID: CoinID,\r\n              authorAddress: msg.sender,\r\n              customershipStake: _customershipStake,\r\n              tokenName:_tokenName,\r\n              tokenSymbol:_tokenSymbol,\r\n\t\t\t\t\t\t\tgovernanceModel:_governanceModel,\r\n\t\t\t\t\t\t\tgoal:t,\r\n\t\t\t\t\t\t  startdate:t,\r\n\t \t\t\t\t\t\tenddate:t,\r\n\t \t\t\t\t\t\teligibleCount:t,\r\n\t\t\t\t\t\t               //\tPartners:P,\r\n              numPartners:0,\r\n              weightCoefficient:1,\r\n              weightCoefficient2:1\r\n            });\r\n      }\r\n  function modifyCoinStruct(uint _CoinID,uint _goal,uint _startdate,uint _enddate,uint _eligibleCount,uint _weight, uint _weight2)\r\n\t isAuthor()   {\r\n\t              CoinStruct storage temp=Coins[_CoinID];\r\n\t              temp.goal=_goal;\r\n\t              temp.startdate=_startdate;\r\n\t              temp.enddate=_enddate;\r\n\t              temp.eligibleCount=_eligibleCount;\r\n                temp.weightCoefficient=_weight;\r\n                temp.weightCoefficient2=_weight2;\r\n\r\n      //bytes data=0xa50b4f0;\r\n      //publishCoin( _CoinID ,  uint8(1000), uint(1000),  uint(0) );\r\n   }\r\n\r\n  function publishCoin(uint id,uint8 _decimalUnits,uint _initialAmount ) {\r\n\r\n     CoinStruct memory temp=Coins[id];\r\n\r\n    //Coin newCoin = new Coin(msg.sender, temp.customershipStake, temp.goal, _toBeShipped,\r\n      //                       temp.eligibleCount, _initialAmount, temp.tokenName,_decimalUnits,temp.startdate,temp.enddate,temp.tokenSymbol,temp.weightCoefficient,temp.weightCoefficient2);\r\n      //address T=address(newCoin);\r\n      //CoinInstances[temp.CoinID]=T;\r\n\r\n    if(!CoinDeploy.call(bytes4(sha3((\"deployCoin(address,uint256,uint256,uint256,uint256,string,uint8,uint256,uint256,string,uint256,uint256,uint256)\"))),msg.sender, temp.customershipStake, temp.goal,\r\n                            temp.eligibleCount,_initialAmount, temp.tokenName,_decimalUnits,temp.startdate,temp.enddate,temp.tokenSymbol,temp.weightCoefficient,temp.weightCoefficient2,QueuedCoin[msg.sender])) revert();\r\n\r\n\r\n   }\r\n\r\n\r\n  // function getCoinStruct(uint n) public  returns (CoinStruct) {\r\n    // return Coins[n];\r\n   //}\r\n   function getStructDetails(uint n) returns(string,string,uint,uint,uint,uint,uint){\r\n     CoinStruct memory b= Coins[n];\r\n     return(b.tokenName,b.tokenSymbol,b.goal,b.startdate,b.enddate,b.eligibleCount,b.customershipStake);\r\n }\r\n\r\n  function getPartnerShare(uint n,uint m) public  returns (uint) {\r\n    return  partnerShares[n][m];\r\n  }\r\n\r\n  function returnallShares(uint n) public returns (uint[]){\r\n    CoinStruct memory B=Coins[n];\r\n    uint sz=B.numPartners;\r\n    uint[] memory P = new uint[](sz);\r\n    for(uint i=0;i<sz;i++){\r\n    P[i]=getPartnerShare(n,i);\r\n\r\n  }\r\n  return P;\r\n}\r\n\r\n}\r\n",
  "sourcePath": "/home/jjj/Documents/OE/OpenEquity/contracts/CoinPub.sol",
  "compiler": {
    "name": "solc",
    "version": "0.4.24+commit.e67f0147.Emscripten.clang"
  },
  "schemaVersion": "2.0.1",
  "updatedAt": "2018-09-27T18:49:52.114Z"
}