{
  "contractName": "Math",
  "abi": [
    {
      "constant": true,
      "inputs": [],
      "name": "LN2",
      "outputs": [
        {
          "name": "",
          "type": "uint256"
        }
      ],
      "payable": false,
      "stateMutability": "view",
      "type": "function"
    },
    {
      "constant": true,
      "inputs": [],
      "name": "LOG2_E",
      "outputs": [
        {
          "name": "",
          "type": "uint256"
        }
      ],
      "payable": false,
      "stateMutability": "view",
      "type": "function"
    },
    {
      "constant": true,
      "inputs": [],
      "name": "ONE",
      "outputs": [
        {
          "name": "",
          "type": "uint256"
        }
      ],
      "payable": false,
      "stateMutability": "view",
      "type": "function"
    },
    {
      "constant": true,
      "inputs": [
        {
          "name": "x",
          "type": "int256"
        }
      ],
      "name": "exp",
      "outputs": [
        {
          "name": "",
          "type": "uint256"
        }
      ],
      "payable": false,
      "stateMutability": "view",
      "type": "function"
    },
    {
      "constant": true,
      "inputs": [
        {
          "name": "x",
          "type": "uint256"
        }
      ],
      "name": "ln",
      "outputs": [
        {
          "name": "",
          "type": "int256"
        }
      ],
      "payable": false,
      "stateMutability": "view",
      "type": "function"
    },
    {
      "constant": true,
      "inputs": [
        {
          "name": "x",
          "type": "uint256"
        }
      ],
      "name": "floorLog2",
      "outputs": [
        {
          "name": "lo",
          "type": "int256"
        }
      ],
      "payable": false,
      "stateMutability": "view",
      "type": "function"
    },
    {
      "constant": true,
      "inputs": [
        {
          "name": "nums",
          "type": "int256[]"
        }
      ],
      "name": "max",
      "outputs": [
        {
          "name": "max",
          "type": "int256"
        }
      ],
      "payable": false,
      "stateMutability": "view",
      "type": "function"
    },
    {
      "constant": true,
      "inputs": [
        {
          "name": "a",
          "type": "uint256"
        },
        {
          "name": "b",
          "type": "uint256"
        }
      ],
      "name": "safeToAdd",
      "outputs": [
        {
          "name": "",
          "type": "bool"
        }
      ],
      "payable": false,
      "stateMutability": "view",
      "type": "function"
    },
    {
      "constant": true,
      "inputs": [
        {
          "name": "a",
          "type": "uint256"
        },
        {
          "name": "b",
          "type": "uint256"
        }
      ],
      "name": "safeToSub",
      "outputs": [
        {
          "name": "",
          "type": "bool"
        }
      ],
      "payable": false,
      "stateMutability": "view",
      "type": "function"
    },
    {
      "constant": true,
      "inputs": [
        {
          "name": "a",
          "type": "uint256"
        },
        {
          "name": "b",
          "type": "uint256"
        }
      ],
      "name": "safeToMul",
      "outputs": [
        {
          "name": "",
          "type": "bool"
        }
      ],
      "payable": false,
      "stateMutability": "view",
      "type": "function"
    },
    {
      "constant": true,
      "inputs": [
        {
          "name": "a",
          "type": "uint256"
        },
        {
          "name": "b",
          "type": "uint256"
        }
      ],
      "name": "add",
      "outputs": [
        {
          "name": "",
          "type": "uint256"
        }
      ],
      "payable": false,
      "stateMutability": "view",
      "type": "function"
    },
    {
      "constant": true,
      "inputs": [
        {
          "name": "a",
          "type": "uint256"
        },
        {
          "name": "b",
          "type": "uint256"
        }
      ],
      "name": "sub",
      "outputs": [
        {
          "name": "",
          "type": "uint256"
        }
      ],
      "payable": false,
      "stateMutability": "view",
      "type": "function"
    },
    {
      "constant": true,
      "inputs": [
        {
          "name": "a",
          "type": "uint256"
        },
        {
          "name": "b",
          "type": "uint256"
        }
      ],
      "name": "mul",
      "outputs": [
        {
          "name": "",
          "type": "uint256"
        }
      ],
      "payable": false,
      "stateMutability": "view",
      "type": "function"
    }
  ],
  "bytecode": "0x610eb4610030600b82828239805160001a6073146000811461002057610022565bfe5b5030600052607381538281f30073000000000000000000000000000000000000000030146080604052600436106100dc576000357c0100000000000000000000000000000000000000000000000000000000900463ffffffff16806302780677146100e157806324902e24146100ff57806324d4e90a1461011d57806345b8bafc146101515780634e30a66c14610185578063771602f7146101c7578063b67d77c514610205578063c2ee3a0814610243578063c8a4ac9c14610261578063cb10fa761461029f578063ccc13814146102e1578063e31c71c41461034e578063e46751e314610390575b600080fd5b6100e96103c4565b6040518082815260200191505060405180910390f35b6101076103d0565b6040518082815260200191505060405180910390f35b61013b600480360381019080803590602001909291905050506103dd565b6040518082815260200191505060405180910390f35b61016f60048036038101908080359060200190929190505050610781565b6040518082815260200191505060405180910390f35b6101ad6004803603810190808035906020019092919080359060200190929190505050610838565b604051808215151515815260200191505060405180910390f35b6101ef6004803603810190808035906020019092919080359060200190929190505050610848565b6040518082815260200191505060405180910390f35b61022d600480360381019080803590602001909291908035906020019092919050505061086a565b6040518082815260200191505060405180910390f35b61024b61088c565b6040518082815260200191505060405180910390f35b6102896004803603810190808035906020019092919080359060200190929190505050610899565b6040518082815260200191505060405180910390f35b6102c760048036038101908080359060200190929190803590602001909291905050506108bb565b604051808215151515815260200191505060405180910390f35b610338600480360381019080803590602001908201803590602001908080602002602001604051908101604052809392919081815260200183836020028082843782019150505050505091929192905050506108df565b6040518082815260200191505060405180910390f35b6103766004803603810190808035906020019092919080359060200190929190505050610970565b604051808215151515815260200191505060405180910390f35b6103ae6004803603810190808035906020019092919050505061097e565b6040518082815260200191505060405180910390f35b67b17217f7d1cf79ac81565b680171547652b82fe17781565b6000806000806000806000871115156103f557600080fd5b6103fe87610781565b9450600085121561041a5784600003879060020a029350610425565b84879060020a900493505b680100000000000000008401680100000000000000008086030281151561044857fe5b05925082915068010000000000000000836801000000000000000085860281151561046f57fe5b050281151561047a57fe5b05905060038181151561048957fe5b05820191506801000000000000000083680100000000000000008584028115156104af57fe5b05028115156104ba57fe5b0590506005818115156104c957fe5b05820191506801000000000000000083680100000000000000008584028115156104ef57fe5b05028115156104fa57fe5b05905060078181151561050957fe5b058201915068010000000000000000836801000000000000000085840281151561052f57fe5b050281151561053a57fe5b05905060098181151561054957fe5b058201915068010000000000000000836801000000000000000085840281151561056f57fe5b050281151561057a57fe5b059050600b8181151561058957fe5b05820191506801000000000000000083680100000000000000008584028115156105af57fe5b05028115156105ba57fe5b059050600d818115156105c957fe5b05820191506801000000000000000083680100000000000000008584028115156105ef57fe5b05028115156105fa57fe5b059050600f8181151561060957fe5b058201915068010000000000000000836801000000000000000085840281151561062f57fe5b050281151561063a57fe5b05905060118181151561064957fe5b058201915068010000000000000000836801000000000000000085840281151561066f57fe5b050281151561067a57fe5b05905060138181151561068957fe5b05820191506801000000000000000083680100000000000000008584028115156106af57fe5b05028115156106ba57fe5b0590506015818115156106c957fe5b05820191506801000000000000000083680100000000000000008584028115156106ef57fe5b05028115156106fa57fe5b05905060178181151561070957fe5b058201915068010000000000000000836801000000000000000085840281151561072f57fe5b050281151561073a57fe5b05905060198181151561074957fe5b058201915081600202680171547652b82fe177680100000000000000008088020281151561077357fe5b050195505050505050919050565b60008060007fffffffffffffffffffffffffffffffffffffffffffffffffffffffffffffffc0925060c1915060018383019060020a900590505b81600184011215610831576000811280156107e757506801000000000000000081600003859060020a02105b8061080e57506000811215801561080d57506801000000000000000081859060020a9004105b5b1561081b5780915061081f565b8092505b60018383019060020a900590506107bb565b5050919050565b6000828284011015905092915050565b60006108548383610838565b151561085f57600080fd5b818301905092915050565b60006108768383610970565b151561088157600080fd5b818303905092915050565b6801000000000000000081565b60006108a583836108bb565b15156108b057600080fd5b818302905092915050565b6000808214806108d7575082828385028115156108d457fe5b04145b905092915050565b600080600083511115156108f257600080fd5b7f80000000000000000000000000000000000000000000000000000000000000009150600090505b825181101561096a5781838281518110151561093257fe5b90602001906020020151131561095d57828181518110151561095057fe5b9060200190602002015191505b808060010191505061091a565b50919050565b600081831015905092915050565b600080600080600068851591f9dd5b9b40d7861315151561099e57600080fd5b7fffffffffffffffffffffffffffffffffffffffffffffffd3a37a020b8c21950d8612156109cf5760009450610e7f565b67b17217f7d1cf79ac6801000000000000000087028115156109ed57fe5b059550600086121515610a2d576801000000000000000086811515610a0e57fe5b0593506801000000000000000086811515610a2557fe5b079250610a6d565b60016801000000000000000087811515610a4357fe5b050393506801000000000000000086600003811515610a5e57fe5b07680100000000000000000392505b829150680100000000000000009050680100000000000000008267b17217f7d1cf79ab02811515610a9a57fe5b048101905068010000000000000000838302811515610ab557fe5b0491506801000000000000000082673d7f7bff058b1d5002811515610ad657fe5b048101905068010000000000000000838302811515610af157fe5b0491506801000000000000000082670e35846b82505fc502811515610b1257fe5b048101905068010000000000000000838302811515610b2d57fe5b0491506801000000000000000082670276556df749cee502811515610b4e57fe5b048101905068010000000000000000838302811515610b6957fe5b0491506801000000000000000082665761ff9e299cc402811515610b8957fe5b048101905068010000000000000000838302811515610ba457fe5b0491506801000000000000000082660a184897c363c302811515610bc457fe5b048101905068010000000000000000838302811515610bdf57fe5b049150680100000000000000008265ffe5fe2c458602811515610bfe57fe5b048101905068010000000000000000838302811515610c1957fe5b049150680100000000000000008265162c0223a5c802811515610c3857fe5b048101905068010000000000000000838302811515610c5357fe5b04915068010000000000000000826501b5253d395e02811515610c7257fe5b048101905068010000000000000000838302811515610c8d57fe5b0491506801000000000000000082641e4cf5158b02811515610cab57fe5b048101905068010000000000000000838302811515610cc657fe5b04915068010000000000000000826401e8cac73502811515610ce457fe5b048101905068010000000000000000838302811515610cff57fe5b0491506801000000000000000082631c3bd65002811515610d1c57fe5b048101905068010000000000000000838302811515610d3757fe5b0491506801000000000000000082630181619302811515610d5457fe5b048101905068010000000000000000838302811515610d6f57fe5b04915068010000000000000000826213149602811515610d8b57fe5b048101905068010000000000000000838302811515610da657fe5b049150680100000000000000008261e1b702811515610dc157fe5b048101905068010000000000000000838302811515610ddc57fe5b04915068010000000000000000826109c702811515610df757fe5b0481019050600084121515610e665760008461010003826000821215610e1957fe5b9060020a90041115610e4d577fffffffffffffffffffffffffffffffffffffffffffffffffffffffffffffffff9450610e7f565b83816000821215610e5a57fe5b9060020a029450610e7f565b83600003816000821215610e7657fe5b9060020a900494505b505050509190505600a165627a7a7230582016e4090ba148055db36b2815710163cf36db3e310ee2c137f84f6fa98366a4ed0029",
  "source": "pragma solidity ^0.4.15;\n\n\n/// @title Math library - Allows calculation of logarithmic and exponential functions\n/// @author Alan Lu - <alan.lu@gnosis.pm>\n/// @author Stefan George - <stefan@gnosis.pm>\nlibrary Math {\n\n    /*\n     *  Constants\n     */\n    // This is equal to 1 in our calculations\n    uint public constant ONE =  0x10000000000000000;\n    uint public constant LN2 = 0xb17217f7d1cf79ac;\n    uint public constant LOG2_E = 0x171547652b82fe177;\n\n    /*\n     *  Public functions\n     */\n    /// @dev Returns natural exponential function value of given x\n    /// @param x x\n    /// @return e**x\n    function exp(int x)\n        public\n        constant\n        returns (uint)\n    {\n        // revert if x is > MAX_POWER, where\n        // MAX_POWER = int(mp.floor(mp.log(mpf(2**256 - 1) / ONE) * ONE))\n        require(x <= 2454971259878909886679);\n        // return 0 if exp(x) is tiny, using\n        // MIN_POWER = int(mp.floor(mp.log(mpf(1) / ONE) * ONE))\n        if (x < -818323753292969962227)\n            return 0;\n        // Transform so that e^x -> 2^x\n        x = x * int(ONE) / int(LN2);\n        // 2^x = 2^whole(x) * 2^frac(x)\n        //       ^^^^^^^^^^ is a bit shift\n        // so Taylor expand on z = frac(x)\n        int shift;\n        uint z;\n        if (x >= 0) {\n            shift = x / int(ONE);\n            z = uint(x % int(ONE));\n        }\n        else {\n            shift = x / int(ONE) - 1;\n            z = ONE - uint(-x % int(ONE));\n        }\n        // 2^x = 1 + (ln 2) x + (ln 2)^2/2! x^2 + ...\n        //\n        // Can generate the z coefficients using mpmath and the following lines\n        // >>> from mpmath import mp\n        // >>> mp.dps = 100\n        // >>> ONE =  0x10000000000000000\n        // >>> print('\\n'.join(hex(int(mp.log(2)**i / mp.factorial(i) * ONE)) for i in range(1, 7)))\n        // 0xb17217f7d1cf79ab\n        // 0x3d7f7bff058b1d50\n        // 0xe35846b82505fc5\n        // 0x276556df749cee5\n        // 0x5761ff9e299cc4\n        // 0xa184897c363c3\n        uint zpow = z;\n        uint result = ONE;\n        result += 0xb17217f7d1cf79ab * zpow / ONE;\n        zpow = zpow * z / ONE;\n        result += 0x3d7f7bff058b1d50 * zpow / ONE;\n        zpow = zpow * z / ONE;\n        result += 0xe35846b82505fc5 * zpow / ONE;\n        zpow = zpow * z / ONE;\n        result += 0x276556df749cee5 * zpow / ONE;\n        zpow = zpow * z / ONE;\n        result += 0x5761ff9e299cc4 * zpow / ONE;\n        zpow = zpow * z / ONE;\n        result += 0xa184897c363c3 * zpow / ONE;\n        zpow = zpow * z / ONE;\n        result += 0xffe5fe2c4586 * zpow / ONE;\n        zpow = zpow * z / ONE;\n        result += 0x162c0223a5c8 * zpow / ONE;\n        zpow = zpow * z / ONE;\n        result += 0x1b5253d395e * zpow / ONE;\n        zpow = zpow * z / ONE;\n        result += 0x1e4cf5158b * zpow / ONE;\n        zpow = zpow * z / ONE;\n        result += 0x1e8cac735 * zpow / ONE;\n        zpow = zpow * z / ONE;\n        result += 0x1c3bd650 * zpow / ONE;\n        zpow = zpow * z / ONE;\n        result += 0x1816193 * zpow / ONE;\n        zpow = zpow * z / ONE;\n        result += 0x131496 * zpow / ONE;\n        zpow = zpow * z / ONE;\n        result += 0xe1b7 * zpow / ONE;\n        zpow = zpow * z / ONE;\n        result += 0x9c7 * zpow / ONE;\n        if (shift >= 0) {\n            if (result >> (256-shift) > 0)\n                return (2**256-1);\n            return result << shift;\n        }\n        else\n            return result >> (-shift);\n    }\n\n    /// @dev Returns natural logarithm value of given x\n    /// @param x x\n    /// @return ln(x)\n    function ln(uint x)\n        public\n        constant\n        returns (int)\n    {\n        require(x > 0);\n        // binary search for floor(log2(x))\n        int ilog2 = floorLog2(x);\n        int z;\n        if (ilog2 < 0)\n            z = int(x << uint(-ilog2));\n        else\n            z = int(x >> uint(ilog2));\n        // z = x * 2^-⌊log₂x⌋\n        // so 1 <= z < 2\n        // and ln z = ln x - ⌊log₂x⌋/log₂e\n        // so just compute ln z using artanh series\n        // and calculate ln x from that\n        int term = (z - int(ONE)) * int(ONE) / (z + int(ONE));\n        int halflnz = term;\n        int termpow = term * term / int(ONE) * term / int(ONE);\n        halflnz += termpow / 3;\n        termpow = termpow * term / int(ONE) * term / int(ONE);\n        halflnz += termpow / 5;\n        termpow = termpow * term / int(ONE) * term / int(ONE);\n        halflnz += termpow / 7;\n        termpow = termpow * term / int(ONE) * term / int(ONE);\n        halflnz += termpow / 9;\n        termpow = termpow * term / int(ONE) * term / int(ONE);\n        halflnz += termpow / 11;\n        termpow = termpow * term / int(ONE) * term / int(ONE);\n        halflnz += termpow / 13;\n        termpow = termpow * term / int(ONE) * term / int(ONE);\n        halflnz += termpow / 15;\n        termpow = termpow * term / int(ONE) * term / int(ONE);\n        halflnz += termpow / 17;\n        termpow = termpow * term / int(ONE) * term / int(ONE);\n        halflnz += termpow / 19;\n        termpow = termpow * term / int(ONE) * term / int(ONE);\n        halflnz += termpow / 21;\n        termpow = termpow * term / int(ONE) * term / int(ONE);\n        halflnz += termpow / 23;\n        termpow = termpow * term / int(ONE) * term / int(ONE);\n        halflnz += termpow / 25;\n        return (ilog2 * int(ONE)) * int(ONE) / int(LOG2_E) + 2 * halflnz;\n    }\n\n    /// @dev Returns base 2 logarithm value of given x\n    /// @param x x\n    /// @return logarithmic value\n    function floorLog2(uint x)\n        public\n        constant\n        returns (int lo)\n    {\n        lo = -64;\n        int hi = 193;\n        // I use a shift here instead of / 2 because it floors instead of rounding towards 0\n        int mid = (hi + lo) >> 1;\n        while((lo + 1) < hi) {\n            if (mid < 0 && x << uint(-mid) < ONE || mid >= 0 && x >> uint(mid) < ONE)\n                hi = mid;\n            else\n                lo = mid;\n            mid = (hi + lo) >> 1;\n        }\n    }\n\n    /// @dev Returns maximum of an array\n    /// @param nums Numbers to look through\n    /// @return Maximum number\n    function max(int[] nums)\n        public\n        constant\n        returns (int max)\n    {\n        require(nums.length > 0);\n        max = -2**255;\n        for (uint i = 0; i < nums.length; i++)\n            if (nums[i] > max)\n                max = nums[i];\n    }\n\n    /// @dev Returns whether an add operation causes an overflow\n    /// @param a First addend\n    /// @param b Second addend\n    /// @return Did no overflow occur?\n    function safeToAdd(uint a, uint b)\n        public\n        constant\n        returns (bool)\n    {\n        return a + b >= a;\n    }\n\n    /// @dev Returns whether a subtraction operation causes an underflow\n    /// @param a Minuend\n    /// @param b Subtrahend\n    /// @return Did no underflow occur?\n    function safeToSub(uint a, uint b)\n        public\n        constant\n        returns (bool)\n    {\n        return a >= b;\n    }\n\n    /// @dev Returns whether a multiply operation causes an overflow\n    /// @param a First factor\n    /// @param b Second factor\n    /// @return Did no overflow occur?\n    function safeToMul(uint a, uint b)\n        public\n        constant\n        returns (bool)\n    {\n        return b == 0 || a * b / b == a;\n    }\n\n    /// @dev Returns sum if no overflow occurred\n    /// @param a First addend\n    /// @param b Second addend\n    /// @return Sum\n    function add(uint a, uint b)\n        public\n        constant\n        returns (uint)\n    {\n        require(safeToAdd(a, b));\n        return a + b;\n    }\n\n    /// @dev Returns difference if no overflow occurred\n    /// @param a Minuend\n    /// @param b Subtrahend\n    /// @return Difference\n    function sub(uint a, uint b)\n        public\n        constant\n        returns (uint)\n    {\n        require(safeToSub(a, b));\n        return a - b;\n    }\n\n    /// @dev Returns product if no overflow occurred\n    /// @param a First factor\n    /// @param b Second factor\n    /// @return Product\n    function mul(uint a, uint b)\n        public\n        constant\n        returns (uint)\n    {\n        require(safeToMul(a, b));\n        return a * b;\n    }\n\n\n\n}\n",
  "sourcePath": "/home/jjj/Documents/OE/OpenEquity/contracts/Math.sol",
  "compiler": {
    "name": "solc",
    "version": "0.4.23+commit.124ca40d.Emscripten.clang"
  },
  "schemaVersion": "2.0.0",
  "updatedAt": "2018-07-06T19:55:31.694Z"
}