{
  "contractName": "Math",
  "abi": [
    {
      "constant": true,
      "inputs": [],
      "name": "LN2",
      "outputs": [
        {
          "name": "",
          "type": "uint256"
        }
      ],
      "payable": false,
      "stateMutability": "view",
      "type": "function"
    },
    {
      "constant": true,
      "inputs": [],
      "name": "LOG2_E",
      "outputs": [
        {
          "name": "",
          "type": "uint256"
        }
      ],
      "payable": false,
      "stateMutability": "view",
      "type": "function"
    },
    {
      "constant": true,
      "inputs": [],
      "name": "ONE",
      "outputs": [
        {
          "name": "",
          "type": "uint256"
        }
      ],
      "payable": false,
      "stateMutability": "view",
      "type": "function"
    },
    {
      "constant": true,
      "inputs": [
        {
          "name": "x",
          "type": "int256"
        }
      ],
      "name": "exp",
      "outputs": [
        {
          "name": "",
          "type": "uint256"
        }
      ],
      "payable": false,
      "stateMutability": "view",
      "type": "function"
    },
    {
      "constant": true,
      "inputs": [
        {
          "name": "a",
          "type": "uint256"
        },
        {
          "name": "b",
          "type": "uint256"
        }
      ],
      "name": "safeToAdd",
      "outputs": [
        {
          "name": "",
          "type": "bool"
        }
      ],
      "payable": false,
      "stateMutability": "view",
      "type": "function"
    },
    {
      "constant": true,
      "inputs": [
        {
          "name": "a",
          "type": "uint256"
        },
        {
          "name": "b",
          "type": "uint256"
        }
      ],
      "name": "safeToSub",
      "outputs": [
        {
          "name": "",
          "type": "bool"
        }
      ],
      "payable": false,
      "stateMutability": "view",
      "type": "function"
    },
    {
      "constant": true,
      "inputs": [
        {
          "name": "a",
          "type": "uint256"
        },
        {
          "name": "b",
          "type": "uint256"
        }
      ],
      "name": "safeToMul",
      "outputs": [
        {
          "name": "",
          "type": "bool"
        }
      ],
      "payable": false,
      "stateMutability": "view",
      "type": "function"
    },
    {
      "constant": true,
      "inputs": [
        {
          "name": "a",
          "type": "uint256"
        },
        {
          "name": "b",
          "type": "uint256"
        }
      ],
      "name": "add",
      "outputs": [
        {
          "name": "",
          "type": "uint256"
        }
      ],
      "payable": false,
      "stateMutability": "view",
      "type": "function"
    },
    {
      "constant": true,
      "inputs": [
        {
          "name": "a",
          "type": "uint256"
        },
        {
          "name": "b",
          "type": "uint256"
        }
      ],
      "name": "sub",
      "outputs": [
        {
          "name": "",
          "type": "uint256"
        }
      ],
      "payable": false,
      "stateMutability": "view",
      "type": "function"
    },
    {
      "constant": true,
      "inputs": [
        {
          "name": "a",
          "type": "uint256"
        },
        {
          "name": "b",
          "type": "uint256"
        }
      ],
      "name": "mul",
      "outputs": [
        {
          "name": "",
          "type": "uint256"
        }
      ],
      "payable": false,
      "stateMutability": "view",
      "type": "function"
    }
  ],
  "bytecode": "0x6108d2610030600b82828239805160001a6073146000811461002057610022565bfe5b5030600052607381538281f30073000000000000000000000000000000000000000030146080604052600436106100bb576000357c0100000000000000000000000000000000000000000000000000000000900463ffffffff16806302780677146100c057806324902e24146100de5780634e30a66c146100fc578063771602f71461013e578063b67d77c51461017c578063c2ee3a08146101ba578063c8a4ac9c146101d8578063cb10fa7614610216578063e31c71c414610258578063e46751e31461029a575b600080fd5b6100c86102ce565b6040518082815260200191505060405180910390f35b6100e66102da565b6040518082815260200191505060405180910390f35b61012460048036038101908080359060200190929190803590602001909291905050506102e7565b604051808215151515815260200191505060405180910390f35b61016660048036038101908080359060200190929190803590602001909291905050506102f7565b6040518082815260200191505060405180910390f35b6101a46004803603810190808035906020019092919080359060200190929190505050610319565b6040518082815260200191505060405180910390f35b6101c261033b565b6040518082815260200191505060405180910390f35b6102006004803603810190808035906020019092919080359060200190929190505050610348565b6040518082815260200191505060405180910390f35b61023e600480360381019080803590602001909291908035906020019092919050505061036a565b604051808215151515815260200191505060405180910390f35b610280600480360381019080803590602001909291908035906020019092919050505061038e565b604051808215151515815260200191505060405180910390f35b6102b86004803603810190808035906020019092919050505061039c565b6040518082815260200191505060405180910390f35b67b17217f7d1cf79ac81565b680171547652b82fe17781565b6000828284011015905092915050565b600061030383836102e7565b151561030e57600080fd5b818301905092915050565b6000610325838361038e565b151561033057600080fd5b818303905092915050565b6801000000000000000081565b6000610354838361036a565b151561035f57600080fd5b818302905092915050565b6000808214806103865750828283850281151561038357fe5b04145b905092915050565b600081831015905092915050565b600080600080600068851591f9dd5b9b40d786131515156103bc57600080fd5b7fffffffffffffffffffffffffffffffffffffffffffffffd3a37a020b8c21950d8612156103ed576000945061089d565b67b17217f7d1cf79ac68010000000000000000870281151561040b57fe5b05955060008612151561044b57680100000000000000008681151561042c57fe5b059350680100000000000000008681151561044357fe5b07925061048b565b6001680100000000000000008781151561046157fe5b05039350680100000000000000008660000381151561047c57fe5b07680100000000000000000392505b829150680100000000000000009050680100000000000000008267b17217f7d1cf79ab028115156104b857fe5b0481019050680100000000000000008383028115156104d357fe5b0491506801000000000000000082673d7f7bff058b1d50028115156104f457fe5b04810190506801000000000000000083830281151561050f57fe5b0491506801000000000000000082670e35846b82505fc50281151561053057fe5b04810190506801000000000000000083830281151561054b57fe5b0491506801000000000000000082670276556df749cee50281151561056c57fe5b04810190506801000000000000000083830281151561058757fe5b0491506801000000000000000082665761ff9e299cc4028115156105a757fe5b0481019050680100000000000000008383028115156105c257fe5b0491506801000000000000000082660a184897c363c3028115156105e257fe5b0481019050680100000000000000008383028115156105fd57fe5b049150680100000000000000008265ffe5fe2c45860281151561061c57fe5b04810190506801000000000000000083830281151561063757fe5b049150680100000000000000008265162c0223a5c80281151561065657fe5b04810190506801000000000000000083830281151561067157fe5b04915068010000000000000000826501b5253d395e0281151561069057fe5b0481019050680100000000000000008383028115156106ab57fe5b0491506801000000000000000082641e4cf5158b028115156106c957fe5b0481019050680100000000000000008383028115156106e457fe5b04915068010000000000000000826401e8cac7350281151561070257fe5b04810190506801000000000000000083830281151561071d57fe5b0491506801000000000000000082631c3bd6500281151561073a57fe5b04810190506801000000000000000083830281151561075557fe5b049150680100000000000000008263018161930281151561077257fe5b04810190506801000000000000000083830281151561078d57fe5b049150680100000000000000008262131496028115156107a957fe5b0481019050680100000000000000008383028115156107c457fe5b049150680100000000000000008261e1b7028115156107df57fe5b0481019050680100000000000000008383028115156107fa57fe5b04915068010000000000000000826109c70281151561081557fe5b0481019050600084121515610884576000846101000382600082121561083757fe5b9060020a9004111561086b577fffffffffffffffffffffffffffffffffffffffffffffffffffffffffffffffff945061089d565b8381600082121561087857fe5b9060020a02945061089d565b8360000381600082121561089457fe5b9060020a900494505b505050509190505600a165627a7a7230582077cce0c930e5da59837af4a9475421ce93ca547bd47ed8cabc762a39379941850029",
  "source": "pragma solidity ^0.4.15;\n\n\n/// @title Math library - Allows calculation of logarithmic and exponential functions\n/// @author Alan Lu - <alan.lu@gnosis.pm>\n/// @author Stefan George - <stefan@gnosis.pm>\nlibrary Math {\n\n    /*\n     *  Constants\n     */\n    // This is equal to 1 in our calculations\n    uint public constant ONE =  0x10000000000000000;\n    uint public constant LN2 = 0xb17217f7d1cf79ac;\n    uint public constant LOG2_E = 0x171547652b82fe177;\n\n    /*\n     *  Public functions\n     */\n    /// @dev Returns natural exponential function value of given x\n    /// @param x x\n    /// @return e**x\n    function exp(int x)\n        public\n        constant\n        returns (uint)\n    {\n        // revert if x is > MAX_POWER, where\n        // MAX_POWER = int(mp.floor(mp.log(mpf(2**256 - 1) / ONE) * ONE))\n        require(x <= 2454971259878909886679);\n        // return 0 if exp(x) is tiny, using\n        // MIN_POWER = int(mp.floor(mp.log(mpf(1) / ONE) * ONE))\n        if (x < -818323753292969962227)\n            return 0;\n        // Transform so that e^x -> 2^x\n        x = x * int(ONE) / int(LN2);\n        // 2^x = 2^whole(x) * 2^frac(x)\n        //       ^^^^^^^^^^ is a bit shift\n        // so Taylor expand on z = frac(x)\n        int shift;\n        uint z;\n        if (x >= 0) {\n            shift = x / int(ONE);\n            z = uint(x % int(ONE));\n        }\n        else {\n            shift = x / int(ONE) - 1;\n            z = ONE - uint(-x % int(ONE));\n        }\n        // 2^x = 1 + (ln 2) x + (ln 2)^2/2! x^2 + ...\n        //\n        // Can generate the z coefficients using mpmath and the following lines\n        // >>> from mpmath import mp\n        // >>> mp.dps = 100\n        // >>> ONE =  0x10000000000000000\n        // >>> print('\\n'.join(hex(int(mp.log(2)**i / mp.factorial(i) * ONE)) for i in range(1, 7)))\n        // 0xb17217f7d1cf79ab\n        // 0x3d7f7bff058b1d50\n        // 0xe35846b82505fc5\n        // 0x276556df749cee5\n        // 0x5761ff9e299cc4\n        // 0xa184897c363c3\n        uint zpow = z;\n        uint result = ONE;\n        result += 0xb17217f7d1cf79ab * zpow / ONE;\n        zpow = zpow * z / ONE;\n        result += 0x3d7f7bff058b1d50 * zpow / ONE;\n        zpow = zpow * z / ONE;\n        result += 0xe35846b82505fc5 * zpow / ONE;\n        zpow = zpow * z / ONE;\n        result += 0x276556df749cee5 * zpow / ONE;\n        zpow = zpow * z / ONE;\n        result += 0x5761ff9e299cc4 * zpow / ONE;\n        zpow = zpow * z / ONE;\n        result += 0xa184897c363c3 * zpow / ONE;\n        zpow = zpow * z / ONE;\n        result += 0xffe5fe2c4586 * zpow / ONE;\n        zpow = zpow * z / ONE;\n        result += 0x162c0223a5c8 * zpow / ONE;\n        zpow = zpow * z / ONE;\n        result += 0x1b5253d395e * zpow / ONE;\n        zpow = zpow * z / ONE;\n        result += 0x1e4cf5158b * zpow / ONE;\n        zpow = zpow * z / ONE;\n        result += 0x1e8cac735 * zpow / ONE;\n        zpow = zpow * z / ONE;\n        result += 0x1c3bd650 * zpow / ONE;\n        zpow = zpow * z / ONE;\n        result += 0x1816193 * zpow / ONE;\n        zpow = zpow * z / ONE;\n        result += 0x131496 * zpow / ONE;\n        zpow = zpow * z / ONE;\n        result += 0xe1b7 * zpow / ONE;\n        zpow = zpow * z / ONE;\n        result += 0x9c7 * zpow / ONE;\n        if (shift >= 0) {\n            if (result >> (256-shift) > 0)\n                return (2**256-1);\n            return result << shift;\n        }\n        else\n            return result >> (-shift);\n    }\n\n\n\n\n\n\n\n    /// @dev Returns whether an add operation causes an overflow\n    /// @param a First addend\n    /// @param b Second addend\n    /// @return Did no overflow occur?\n    function safeToAdd(uint a, uint b)\n        public\n        constant\n        returns (bool)\n    {\n        return a + b >= a;\n    }\n\n    /// @dev Returns whether a subtraction operation causes an underflow\n    /// @param a Minuend\n    /// @param b Subtrahend\n    /// @return Did no underflow occur?\n    function safeToSub(uint a, uint b)\n        public\n        constant\n        returns (bool)\n    {\n        return a >= b;\n    }\n\n    /// @dev Returns whether a multiply operation causes an overflow\n    /// @param a First factor\n    /// @param b Second factor\n    /// @return Did no overflow occur?\n    function safeToMul(uint a, uint b)\n        public\n        constant\n        returns (bool)\n    {\n        return b == 0 || a * b / b == a;\n    }\n\n    /// @dev Returns sum if no overflow occurred\n    /// @param a First addend\n    /// @param b Second addend\n    /// @return Sum\n    function add(uint a, uint b)\n        public\n        constant\n        returns (uint)\n    {\n        require(safeToAdd(a, b));\n        return a + b;\n    }\n\n    /// @dev Returns difference if no overflow occurred\n    /// @param a Minuend\n    /// @param b Subtrahend\n    /// @return Difference\n    function sub(uint a, uint b)\n        public\n        constant\n        returns (uint)\n    {\n        require(safeToSub(a, b));\n        return a - b;\n    }\n\n    /// @dev Returns product if no overflow occurred\n    /// @param a First factor\n    /// @param b Second factor\n    /// @return Product\n    function mul(uint a, uint b)\n        public\n        constant\n        returns (uint)\n    {\n        require(safeToMul(a, b));\n        return a * b;\n    }\n\n\n\n}\n",
  "sourcePath": "/home/jjj/Documents/OE/OpenEquity/contracts/Math.sol",
  "compiler": {
    "name": "solc",
    "version": "0.4.24+commit.e67f0147.Emscripten.clang"
  },
  "schemaVersion": "2.0.1",
  "updatedAt": "2018-09-27T18:49:52.122Z"
}