{
  "contractName": "OrderedStatisticTree",
  "abi": [
    {
      "constant": false,
      "inputs": [
        {
          "name": "index",
          "type": "OrderedStatisticTree.Index storage"
        },
        {
          "name": "value",
          "type": "uint256"
        }
      ],
      "name": "insert",
      "outputs": [],
      "payable": false,
      "stateMutability": "nonpayable",
      "type": "function"
    },
    {
      "constant": false,
      "inputs": [
        {
          "name": "index",
          "type": "OrderedStatisticTree.Index storage"
        },
        {
          "name": "value",
          "type": "uint256"
        }
      ],
      "name": "remove",
      "outputs": [],
      "payable": false,
      "stateMutability": "nonpayable",
      "type": "function"
    },
    {
      "constant": true,
      "inputs": [
        {
          "name": "index",
          "type": "OrderedStatisticTree.Index storage"
        },
        {
          "name": "value",
          "type": "uint256"
        }
      ],
      "name": "rank",
      "outputs": [
        {
          "name": "smaller",
          "type": "uint256"
        }
      ],
      "payable": false,
      "stateMutability": "view",
      "type": "function"
    },
    {
      "constant": true,
      "inputs": [
        {
          "name": "index",
          "type": "OrderedStatisticTree.Index storage"
        },
        {
          "name": "pos",
          "type": "uint256"
        }
      ],
      "name": "select_at",
      "outputs": [
        {
          "name": "value",
          "type": "uint256"
        }
      ],
      "payable": false,
      "stateMutability": "view",
      "type": "function"
    },
    {
      "constant": true,
      "inputs": [
        {
          "name": "index",
          "type": "OrderedStatisticTree.Index storage"
        },
        {
          "name": "value",
          "type": "uint256"
        }
      ],
      "name": "duplicates",
      "outputs": [
        {
          "name": "n",
          "type": "uint256"
        }
      ],
      "payable": false,
      "stateMutability": "view",
      "type": "function"
    },
    {
      "constant": true,
      "inputs": [
        {
          "name": "index",
          "type": "OrderedStatisticTree.Index storage"
        }
      ],
      "name": "count",
      "outputs": [
        {
          "name": "count",
          "type": "uint256"
        }
      ],
      "payable": false,
      "stateMutability": "view",
      "type": "function"
    },
    {
      "constant": true,
      "inputs": [
        {
          "name": "index",
          "type": "OrderedStatisticTree.Index storage"
        },
        {
          "name": "value",
          "type": "uint256"
        },
        {
          "name": "n",
          "type": "uint256"
        }
      ],
      "name": "in_top_n",
      "outputs": [
        {
          "name": "truth",
          "type": "bool"
        }
      ],
      "payable": false,
      "stateMutability": "view",
      "type": "function"
    },
    {
      "constant": true,
      "inputs": [
        {
          "name": "index",
          "type": "OrderedStatisticTree.Index storage"
        },
        {
          "name": "value",
          "type": "uint256"
        }
      ],
      "name": "percentile",
      "outputs": [
        {
          "name": "k",
          "type": "uint256"
        }
      ],
      "payable": false,
      "stateMutability": "view",
      "type": "function"
    },
    {
      "constant": true,
      "inputs": [
        {
          "name": "index",
          "type": "OrderedStatisticTree.Index storage"
        },
        {
          "name": "percentile",
          "type": "uint256"
        }
      ],
      "name": "at_percentile",
      "outputs": [
        {
          "name": "value",
          "type": "uint256"
        }
      ],
      "payable": false,
      "stateMutability": "view",
      "type": "function"
    },
    {
      "constant": true,
      "inputs": [
        {
          "name": "index",
          "type": "OrderedStatisticTree.Index storage"
        },
        {
          "name": "value",
          "type": "uint256"
        }
      ],
      "name": "permille",
      "outputs": [
        {
          "name": "k",
          "type": "uint256"
        }
      ],
      "payable": false,
      "stateMutability": "view",
      "type": "function"
    },
    {
      "constant": true,
      "inputs": [
        {
          "name": "index",
          "type": "OrderedStatisticTree.Index storage"
        },
        {
          "name": "permille",
          "type": "uint256"
        }
      ],
      "name": "at_permille",
      "outputs": [
        {
          "name": "value",
          "type": "uint256"
        }
      ],
      "payable": false,
      "stateMutability": "view",
      "type": "function"
    },
    {
      "constant": true,
      "inputs": [
        {
          "name": "index",
          "type": "OrderedStatisticTree.Index storage"
        }
      ],
      "name": "median",
      "outputs": [
        {
          "name": "value",
          "type": "uint256"
        }
      ],
      "payable": false,
      "stateMutability": "view",
      "type": "function"
    },
    {
      "constant": true,
      "inputs": [
        {
          "name": "index",
          "type": "OrderedStatisticTree.Index storage"
        },
        {
          "name": "value",
          "type": "uint256"
        }
      ],
      "name": "node_left_child",
      "outputs": [
        {
          "name": "child",
          "type": "uint256"
        }
      ],
      "payable": false,
      "stateMutability": "view",
      "type": "function"
    },
    {
      "constant": true,
      "inputs": [
        {
          "name": "index",
          "type": "OrderedStatisticTree.Index storage"
        },
        {
          "name": "value",
          "type": "uint256"
        }
      ],
      "name": "node_right_child",
      "outputs": [
        {
          "name": "child",
          "type": "uint256"
        }
      ],
      "payable": false,
      "stateMutability": "view",
      "type": "function"
    },
    {
      "constant": true,
      "inputs": [
        {
          "name": "index",
          "type": "OrderedStatisticTree.Index storage"
        },
        {
          "name": "value",
          "type": "uint256"
        }
      ],
      "name": "node_parent",
      "outputs": [
        {
          "name": "parent",
          "type": "uint256"
        }
      ],
      "payable": false,
      "stateMutability": "view",
      "type": "function"
    },
    {
      "constant": true,
      "inputs": [
        {
          "name": "index",
          "type": "OrderedStatisticTree.Index storage"
        },
        {
          "name": "value",
          "type": "uint256"
        }
      ],
      "name": "node_side",
      "outputs": [
        {
          "name": "side",
          "type": "bool"
        }
      ],
      "payable": false,
      "stateMutability": "view",
      "type": "function"
    },
    {
      "constant": true,
      "inputs": [
        {
          "name": "index",
          "type": "OrderedStatisticTree.Index storage"
        },
        {
          "name": "value",
          "type": "uint256"
        }
      ],
      "name": "node_height",
      "outputs": [
        {
          "name": "height",
          "type": "uint256"
        }
      ],
      "payable": false,
      "stateMutability": "view",
      "type": "function"
    },
    {
      "constant": true,
      "inputs": [
        {
          "name": "index",
          "type": "OrderedStatisticTree.Index storage"
        },
        {
          "name": "value",
          "type": "uint256"
        }
      ],
      "name": "node_count",
      "outputs": [
        {
          "name": "count",
          "type": "uint256"
        }
      ],
      "payable": false,
      "stateMutability": "view",
      "type": "function"
    },
    {
      "constant": true,
      "inputs": [
        {
          "name": "index",
          "type": "OrderedStatisticTree.Index storage"
        },
        {
          "name": "value",
          "type": "uint256"
        }
      ],
      "name": "node_dupes",
      "outputs": [
        {
          "name": "dupes",
          "type": "uint256"
        }
      ],
      "payable": false,
      "stateMutability": "view",
      "type": "function"
    },
    {
      "constant": false,
      "inputs": [
        {
          "name": "index",
          "type": "OrderedStatisticTree.Index storage"
        }
      ],
      "name": "numInserts",
      "outputs": [
        {
          "name": "",
          "type": "uint256"
        }
      ],
      "payable": false,
      "stateMutability": "nonpayable",
      "type": "function"
    }
  ],
  "bytecode": "0x611999610030600b82828239805160001a6073146000811461002057610022565bfe5b5030600052607381538281f3007300000000000000000000000000000000000000003014608060405260043610610129576000357c0100000000000000000000000000000000000000000000000000000000900463ffffffff16806303c7511a1461012e5780630b9d35f61461016557806314055b39146101a35780631e5a06b4146101da5780631e6e28101461021857806330c58078146102595780633b7e1e5c146102975780633dbd723d146102d55780633e2e06eb146103095780633f910006146103475780635ba41a7a1461038557806373bae860146103c35780638b55bce4146104015780638b6747271461043f57806394e358e01461048b578063ad7d7659146104bf578063b41b5882146104fd578063c22005a71461053b578063cdc2b23214610579578063d6e6d2d8146105bb575b600080fd5b81801561013a57600080fd5b5061016360048036038101908080359060200190929190803590602001909291905050506105f9565b005b61018d60048036038101908080359060200190929190803590602001909291905050506106bd565b6040518082815260200191505060405180910390f35b8180156101af57600080fd5b506101d860048036038101908080359060200190929190803590602001909291905050506106e0565b005b610202600480360381019080803590602001909291908035906020019092919050505061073c565b6040518082815260200191505060405180910390f35b81801561022457600080fd5b5061024360048036038101908080359060200190929190505050610774565b6040518082815260200191505060405180910390f35b6102816004803603810190808035906020019092919080359060200190929190505050610782565b6040518082815260200191505060405180910390f35b6102bf60048036038101908080359060200190929190803590602001909291905050506107a5565b6040518082815260200191505060405180910390f35b6102f3600480360381019080803590602001909291905050506107c8565b6040518082815260200191505060405180910390f35b61033160048036038101908080359060200190929190803590602001909291905050506107dc565b6040518082815260200191505060405180910390f35b61036f600480360381019080803590602001909291908035906020019092919050505061080b565b6040518082815260200191505060405180910390f35b6103ad600480360381019080803590602001909291908035906020019092919050505061082e565b6040518082815260200191505060405180910390f35b6103eb6004803603810190808035906020019092919080359060200190929190505050610895565b6040518082815260200191505060405180910390f35b61042960048036038101908080359060200190929190803590602001909291905050506108c5565b6040518082815260200191505060405180910390f35b6104716004803603810190808035906020019092919080359060200190929190803590602001909291905050506108fe565b604051808215151515815260200191505060405180910390f35b6104a96004803603810190808035906020019092919050505061092d565b6040518082815260200191505060405180910390f35b6104e7600480360381019080803590602001909291908035906020019092919050505061098e565b6040518082815260200191505060405180910390f35b6105256004803603810190808035906020019092919080359060200190929190505050610b0f565b6040518082815260200191505060405180910390f35b6105636004803603810190808035906020019092919080359060200190929190505050610b35565b6040518082815260200191505060405180910390f35b6105a16004803603810190808035906020019092919080359060200190929190505050610b9a565b604051808215151515815260200191505060405180910390f35b6105e36004803603810190808035906020019092919080359060200190929190505050610bca565b6040518082815260200191505060405180910390f35b6000826000016000838152602001908152602001600020905060008214156106325760008160050154141561062d576106b8565b610645565b600081600401541415610644576106b8565b5b6000816005015411156106ac57806005016000815480929190600190039190505550600082141515610687578060040160008154809291906001900391905055505b6106a78382600101548360020160009054906101000a900460ff16610d26565b6106b7565b6106b68383610d55565b5b5b505050565b600082600001600083815260200190815260200160002060030154905092915050565b6001826001016000828254019250508190555060008114156107295781600001600082815260200190815260200160002060050160008154809291906001019190505550610738565b610737826000600184610edb565b5b5050565b600082600001600083815260200190815260200160002060000160008015151515815260200190815260200160002054905092915050565b600081600101549050919050565b600082600001600083815260200190815260200160002060040154905092915050565b600082600001600083815260200190815260200160002060010154905092915050565b60006107d58260326107dc565b9050919050565b6000806107e88461092d565b90506108028460648386028115156107fc57fe5b04610bca565b91505092915050565b600082600001600083815260200190815260200160002060050154905092915050565b60008060008061083e868661098e565b92508560000160008681526020019081526020016000206005015491506108648661092d565b90508060026103e88085020181151561087957fe5b046103e885020181151561088957fe5b04935050505092915050565b6000806108a18461092d565b90506108bc846103e88386028115156108b657fe5b04610bca565b91505092915050565b60008260000160008381526020019081526020016000206000016000600115151515815260200190815260200160002054905092915050565b600080600061090d868661098e565b91506109188661092d565b90508360018383030310925050509392505050565b6000806000836000016000808152602001908152602001600020915083600001600083600001600060011515151581526020019081526020016000205481526020019081526020016000209050806004015482600501540192505050919050565b60008060008060008086141515610b0557600093508660000160008081526020019081526020016000206005015494508660000160008081526020019081526020016000206000016000600115151515815260200190815260200160002054925086600001600084815260200190815260200160002091505b600a841015610b04576001840193508583111515610a795785831015610a34578160050154600101850194505b81600001600080151515158152602001908152602001600020549050600081141515610a785786600001600082815260200190815260200160002060040154850194505b5b85831415610a8657610b04565b85831015610ac357816000016000600115151515815260200190815260200160002054925086600001600084815260200190815260200160002091505b85831115610aff578160000160008015151515815260200190815260200160002054925086600001600084815260200190815260200160002091505b610a07565b5b5050505092915050565b600060018360000160008481526020019081526020016000206005015401905092915050565b600080600080610b45868661098e565b9250856000016000868152602001908152602001600020600501549150610b6b8661092d565b9050806002606480850201811515610b7f57fe5b046064850201811515610b8e57fe5b04935050505092915050565b600082600001600083815260200190815260200160002060020160009054906101000a900460ff16905092915050565b60008060008060008060008060008a6000016000808152602001908152602001600020600501549750878a1015610c045760009850610d18565b878a0396508a6000016000808152602001908152602001600020600001600060011515151581526020019081526020016000205495508a600001600087815260200190815260200160002094505b600115610d17578460000160008015151515815260200190815260200160002054935060018560050154019250600084141515610cac578a6000016000858152602001908152602001600020915081600401549050610cb1565b600090505b80871015610cc457839550819450610d12565b828101871015610cd657859850610d18565b84600001600060011515151581526020019081526020016000205495508a60000160008781526020019081526020016000209450828101870396505b610c52565b5b505050505050505092915050565b600082141515610d5057610d3a838361100b565b610d4483836110a0565b610d4f8383836110f7565b5b505050565b6000806000806000806000808960000160008a81526020019081526020016000209750876001015496508760020160009054906101000a900460ff1695508960000160008881526020019081526020016000209450876000016000801515151581526020019081526020016000205493508760000160006001151515158152602001908152602001600020549250600084148015610df35750600083145b15610e315760008560000160008815151515815260200190815260200160002081905550610e218a8a611286565b610e2c8a8888610d26565b610ecf565b60008414158015610e43575060008314155b15610e5957610e548a8a8686611328565b610ece565b82840191508960000160008381526020019081526020016000209050818560000160008815151515815260200190815260200160002081905550868160010181905550858160020160006101000a81548160ff021916908315150217905550610ec28a8a611286565b610ecd8a8888610d26565b5b5b50505050505050505050565b6000806000808760000160008881526020019081526020016000209350836000016000871515151581526020019081526020016000205492506000831415610fa4578484600001600088151515158152602001908152602001600020819055508760000160008681526020019081526020016000209150868260010181905550858260020160006101000a81548160ff0219169083151502179055506001826003018190555060018260040181905550610f9588866110a0565b610f9f8886611510565b611001565b84831415610fed5787600001600084815260200190815260200160002060050160008154809291906001019190505550610fde888661100b565b610fe888866110a0565b611000565b828510159050610fff88848388610edb565b5b5b5050505050505050565b600082600001600083815260200190815260200160002090508060050154836000016000836000016000600115151515815260200190815260200160002054815260200190815260200160002060040154846000016000846000016000801515151581526020019081526020016000205481526020019081526020016000206004015460010101018160040181905550505050565b60008260000160008381526020019081526020016000206001015490505b6000811415156110f2576110d2838261100b565b8260000160008281526020019081526020016000206001015490506110be565b505050565b6000806000806000806000808914151561127a576111158a8a611618565b61111f8a8a6116ca565b965087955087156111335760019450611157565b7fffffffffffffffffffffffffffffffffffffffffffffffffffffffffffffffff94505b6111618a8a6116ca565b935084600202841415611237578960000160008a8152602001908152602001600020925082600001600089151515151581526020019081526020016000205491506111ac8a836116ca565b9050847fffffffffffffffffffffffffffffffffffffffffffffffffffffffffffffffff028114156111e5576111e48a838a15611753565b5b6111f08a8a8a611753565b600081141515611232578960000160008a815260200190815260200160002092506112318a84600101548560020160009054906101000a900460ff166110f7565b5b611279565b8487141515611278578960000160008a815260200190815260200160002092506112778a84600101548560020160009054906101000a900460ff166110f7565b5b5b5b50505050505050505050565b600082600001600083815260200190815260200160002090506000816001018190555060008160020160006101000a81548160ff021916908315150217905550600081600001600080151515158152602001908152602001600020819055506000816000016000600115151515815260200190815260200160002081905550600081600401819055506000816003018190555060008160050181905550505050565b60008060008060008060008060006113408d8c611913565b98508c60000160008a815260200190815260200160002097508760050154965061136a8d8a610d55565b8c60000160008d81526020019081526020016000209550856001015494508c60000160008681526020019081526020016000209350856003015492508560020160009054906101000a900460ff16915085600401549050856000016000600115151515815260200190815260200160002054995085600001600080151515158152602001908152602001600020549a50888460000160008415151515815260200190815260200160002081905550848860010181905550818860020160006101000a81548160ff021916908315150217905550856005015487820103886004018190555082886003018190555086886005018190555060008b1415156114a6578a8860000160008015151515815260200190815260200160002081905550888d60000160008d8152602001908152602001600020600101819055505b60008a1415156114ed5789886000016000600115151515815260200190815260200160002081905550888d60000160008c8152602001908152602001600020600101819055505b6114f78d8d611286565b6115018d8a6110a0565b50505050505050505050505050565b60008060008060006115228787611618565b86600001600087815260200190815260200160002094508460010154935060008414151561160f5761155487856116ca565b92508460020160009054906101000a900460ff1691508115611598577fffffffffffffffffffffffffffffffffffffffffffffffffffffffffffffffff905061159d565b600190505b600281028314156115f857807fffffffffffffffffffffffffffffffffffffffffffffffffffffffffffffffff026115d588886116ca565b14156115e7576115e6878784611753565b5b6115f387858415611753565b61160e565b60008314151561160d5761160c8785611510565b5b5b5b50505050505050565b60008060008460000160008581526020019081526020016000209250846000016000846000016000801515151581526020019081526020016000205481526020019081526020016000206003015491508460000160008460000160006001151515158152602001908152602001600020548152602001908152602001600020600301549050808211156116b6576001820183600301819055506116c3565b6001810183600301819055505b5050505050565b600080836000016000848152602001908152602001600020905083600001600082600001600060011515151581526020019081526020016000205481526020019081526020016000206003015484600001600083600001600080151515158152602001908152602001600020548152602001908152602001600020600301540391505092915050565b6000806000806000806000806000891598508b60000160008c815260200190815260200160002097508760020160009054906101000a900460ff169650876001015495508760000160008a1515151581526020019081526020016000205494508b600001600086815260200190815260200160002093508360000160008b1515151581526020019081526020016000205492508b600001600087815260200190815260200160002091508b60000160008481526020019081526020016000209050848260000160008915151515815260200190815260200160002081905550868460020160006101000a81548160ff0219169083151502179055508584600101819055508a8460000160008c15151515815260200190815260200160002081905550848860010181905550898860020160006101000a81548160ff021916908315150217905550828860000160008b151515158152602001908152602001600020819055508a8160010181905550888160020160006101000a81548160ff0219169083151502179055506118e78c8c611618565b6118f18c86611618565b6118fb8c8c61100b565b6119058c8661100b565b505050505050505050505050565b600080836000016000848152602001908152602001600020600001600060011515151581526020019081526020016000205490506000811415156119625761195b8482611913565b9150611966565b8291505b50929150505600a165627a7a7230582089e65b40c50eb940277f8d15519d68172205d0c09335425dfbd616b3eb106f840029",
  "source": "pragma solidity ^0.4.15;\n\n\n\nlibrary OrderedStatisticTree {\n    //function OrderedStatisticTree() {\n  //  }\n    function update_count(Index storage index,uint value) private {\n        Node n=index.nodes[value];\n        n.count=1+index.nodes[n.children[false]].count+index.nodes[n.children[true]].count+n.dupes;\n    }\n    function update_counts(Index storage index,uint value) private {\n        uint parent=index.nodes[value].parent;\n        while (parent!=0) {\n            update_count(index,parent);\n            parent=index.nodes[parent].parent;\n        }\n    }\n    function update_height(Index storage index,uint value) private {\n        Node n=index.nodes[value];\n        uint height_left=index.nodes[n.children[false]].height;\n        uint height_right=index.nodes[n.children[true]].height;\n        if (height_left>height_right)\n            n.height=height_left+1;\n        else\n            n.height=height_right+1;\n    }\n    function balance_factor(Index storage index,uint value) constant private returns (int bf) {\n        Node n=index.nodes[value];\n        return int(index.nodes[n.children[false]].height)-int(index.nodes[n.children[true]].height);\n    }\n    function rotate(Index storage index,uint value,bool dir) private {\n        bool other_dir=!dir;\n        Node n=index.nodes[value];\n        bool side=n.side;\n        uint parent=n.parent;\n        uint value_new=n.children[other_dir];\n        Node n_new=index.nodes[value_new];\n        uint orphan=n_new.children[dir];\n        Node p=index.nodes[parent];\n        Node o=index.nodes[orphan];\n        p.children[side]=value_new;\n        n_new.side=side;\n        n_new.parent=parent;\n        n_new.children[dir]=value;\n        n.parent=value_new;\n        n.side=dir;\n        n.children[other_dir]=orphan;\n        o.parent=value;\n        o.side=other_dir;\n        update_height(index,value);\n        update_height(index,value_new);\n        update_count(index,value);\n        update_count(index,value_new);\n    }\n    function rebalance_insert(Index storage index,uint n_value) private {\n        update_height(index,n_value);\n        Node n=index.nodes[n_value];\n        uint p_value=n.parent;\n        if (p_value!=0) {\n            int p_bf=balance_factor(index,p_value);\n            bool side=n.side;\n            int sign;\n            if (side)\n                sign=-1;\n            else\n                sign=1;\n            if (p_bf == sign*2) {\n                if (balance_factor(index,n_value) == (-1 * sign))\n                    rotate(index,n_value,side);\n                rotate(index,p_value,!side);\n            }\n            else if (p_bf != 0)\n                rebalance_insert(index,p_value);\n        }\n    }\n    function rebalance_delete(Index storage index,uint p_value,bool side) private{\n        if (p_value!=0) {\n            update_height(index,p_value);\n            int p_bf=balance_factor(index,p_value);\n            bool dir=side;\n            int sign;\n            if (side)\n                sign=1;\n            else\n                sign=-1;\n            int bf=balance_factor(index,p_value);\n            if (bf==(2*sign)) {\n                Node p=index.nodes[p_value];\n                uint s_value=p.children[!side];\n                int s_bf=balance_factor(index,s_value);\n                if (s_bf == (-1 * sign))\n                    rotate(index,s_value,!side);\n                rotate(index,p_value,side);\n                if (s_bf!=0){\n                    p=index.nodes[p_value];\n                    rebalance_delete(index,p.parent,p.side);\n                }\n            }\n            else if (p_bf != sign){\n                p=index.nodes[p_value];\n                rebalance_delete(index,p.parent,p.side);\n            }\n        }\n    }\n    function fix_parents(Index storage index,uint parent,bool side) private {\n        if(parent!=0) {\n            update_count(index,parent);\n            update_counts(index,parent);\n            rebalance_delete(index,parent,side);\n        }\n    }\n    function insert_helper(Index storage index,uint p_value,bool side,uint value) private {\n        Node root=index.nodes[p_value];\n        uint c_value=root.children[side];\n        if (c_value==0){\n            root.children[side]=value;\n            Node child=index.nodes[value];\n            child.parent=p_value;\n            child.side=side;\n            child.height=1;\n            child.count=1;\n            update_counts(index,value);\n            rebalance_insert(index,value);\n        }\n        else if (c_value==value){\n            index.nodes[c_value].dupes++;\n            update_count(index,value);\n            update_counts(index,value);\n        }\n        else{\n            bool side_new=(value >= c_value);\n            insert_helper(index,c_value,side_new,value);\n        }\n    }\n    function insert(Index storage index,uint value) {\n        if(index.numberofInserts==0){\n         //index.nodes[0]=Node(0,true,0,0,0);\n\n        }\n         index.numberofInserts+=1;\n        if (value==0){\n            index.nodes[value].dupes++;\n        }\n        else{\n            insert_helper(index,0,true,value);\n        }\n    }\n    function rightmost_leaf(Index storage index,uint value) constant private returns (uint leaf) {\n        uint child=index.nodes[value].children[true];\n        if (child!=0)\n            return rightmost_leaf(index,child);\n        else\n            return value;\n    }\n    function zero_out(Index storage index,uint value) private {\n        Node n=index.nodes[value];\n        n.parent=0;\n        n.side=false;\n        n.children[false]=0;\n        n.children[true]=0;\n        n.count=0;\n        n.height=0;\n        n.dupes=0;\n    }\n    function remove_branch(Index storage index,uint value,uint left,uint right) private {\n        uint ipn=rightmost_leaf(index,left);\n        Node i=index.nodes[ipn];\n        uint dupes=i.dupes;\n        remove_helper(index,ipn);\n        Node n=index.nodes[value];\n        uint parent=n.parent;\n        Node p=index.nodes[parent];\n        uint height=n.height;\n        bool side=n.side;\n        uint count=n.count;\n        right=n.children[true];\n        left=n.children[false];\n        p.children[side]=ipn;\n        i.parent=parent;\n        i.side=side;\n        i.count=count+dupes-n.dupes;\n        i.height=height;\n        i.dupes=dupes;\n        if (left!=0) {\n            i.children[false]=left;\n            index.nodes[left].parent=ipn;\n        }\n        if (right!=0) {\n            i.children[true]=right;\n            index.nodes[right].parent=ipn;\n        }\n        zero_out(index,value);\n        update_counts(index,ipn);\n    }\n    function remove_helper(Index storage index,uint value) private {\n        Node n=index.nodes[value];\n        uint parent=n.parent;\n        bool side=n.side;\n        Node p=index.nodes[parent];\n        uint left=n.children[false];\n        uint right=n.children[true];\n        if ((left == 0) && (right == 0)) {\n            p.children[side]=0;\n            zero_out(index,value);\n            fix_parents(index,parent,side);\n        }\n        else if ((left !=0) && (right != 0)) {\n            remove_branch(index,value,left,right);\n        }\n        else {\n            uint child=left+right;\n            Node c=index.nodes[child];\n            p.children[side]=child;\n            c.parent=parent;\n            c.side=side;\n            zero_out(index,value);\n            fix_parents(index,parent,side);\n        }\n    }\n    function remove(Index storage index,uint value){\n        Node n=index.nodes[value];\n        if (value==0){\n            if (n.dupes==0)\n                return;\n        }\n        else{\n            if (n.count==0)\n                return;\n        }\n        if (n.dupes>0) {\n            n.dupes--;\n            if(value!=0)\n                n.count--;\n            fix_parents(index,n.parent,n.side);\n        }\n        else\n            remove_helper(index,value);\n    }\n    function rank(Index storage index,uint value) constant returns (uint smaller){\n        if(value!=0){\n            uint temp=0;\n            smaller=index.nodes[0].dupes;\n            uint cur=index.nodes[0].children[true];\n            Node cur_node=index.nodes[cur];\n            while(temp<10){\n              temp+=1;\n                if (cur<=value){\n                    if(cur<value)\n                        smaller+=1+cur_node.dupes;\n                    uint left_child=+cur_node.children[false];\n                    if (left_child!=0)\n                        smaller+=index.nodes[left_child].count;\n                }\n                if (cur==value)\n                    break;\n                //cur=cur_node.children[cur<value];\n                if(cur<value){\n                cur=cur_node.children[true];\n                cur_node=index.nodes[cur];\n\n                }\n                 if(cur>value){\n                cur=cur_node.children[false];\n                 cur_node=index.nodes[cur];\n                }\n            }\n        }\n    }\n    function select_at(Index storage index,uint pos) constant returns (uint value){\n        uint zeroes=index.nodes[0].dupes;\n        if (pos<zeroes)\n            return 0;\n        else {\n            uint pos_new=pos-zeroes;\n            uint cur=index.nodes[0].children[true];\n            Node cur_node=index.nodes[cur];\n            while(true){\n                uint left=cur_node.children[false];\n                uint cur_num=cur_node.dupes+1;\n                if (left!=0) {\n                    Node left_node=index.nodes[left];\n                    uint left_count=left_node.count;\n                }\n                else {\n                    left_count=0;\n                }\n                if (pos_new<left_count) {\n                    cur=left;\n                    cur_node=left_node;\n                }\n                else if (pos_new<left_count+cur_num){\n                    return cur;\n                }\n                else {\n                    cur=cur_node.children[true];\n                    cur_node=index.nodes[cur];\n                    pos_new-=left_count+cur_num;\n                }\n            }\n        }\n    }\n    function duplicates(Index storage index,uint value) constant returns (uint n){\n        return index.nodes[value].dupes+1;\n    }\n    function count(Index storage index) constant returns (uint count){\n        Node root=index.nodes[0];\n        Node child=index.nodes[root.children[true]];\n        return root.dupes+child.count;\n    }\n    function in_top_n(Index storage index,uint value,uint n) constant returns (bool truth){\n        uint pos=rank(index,value);\n        uint num=count(index);\n        return (num-pos-1<n);\n    }\n    function percentile(Index storage index,uint value) constant returns (uint k){\n        uint pos=rank(index,value);\n        uint same=index.nodes[value].dupes;\n        uint num=count( index);\n        return (pos*100+(same*100+100)/2)/num;\n    }\n    function at_percentile(Index storage index,uint percentile) constant returns (uint value){\n        uint n=count( index);\n        return select_at(index,percentile*n/100);\n    }\n    function permille(Index storage index,uint value) constant returns (uint k){\n        uint pos=rank(index,value);\n        uint same=index.nodes[value].dupes;\n        uint num=count( index);\n        return (pos*1000+(same*1000+1000)/2)/num;\n    }\n    function at_permille(Index storage index, uint permille) constant returns (uint value){\n        uint n=count( index);\n        return select_at(index,permille*n/1000);\n    }\n    function median(Index storage index) constant returns (uint value){\n        return at_percentile(index,50);\n    }\n    function node_left_child(Index storage index,uint value) constant returns (uint child){\n        child=index.nodes[value].children[false];\n    }\n    function node_right_child(Index storage index,uint value) constant returns (uint child){\n        child=index.nodes[value].children[true];\n    }\n    function node_parent(Index storage index,uint value) constant returns (uint parent){\n        parent=index.nodes[value].parent;\n    }\n    function node_side(Index storage index,uint value) constant returns (bool side){\n        side=index.nodes[value].side;\n    }\n    function node_height(Index storage index,uint value) constant returns (uint height){\n        height=index.nodes[value].height;\n    }\n    function node_count(Index storage index,uint value) constant returns (uint count){\n        count=index.nodes[value].count;\n    }\n    function node_dupes(Index storage index, uint value) constant returns (uint dupes){\n        dupes=index.nodes[value].dupes;\n    }\n    function numInserts(Index storage index) returns(uint){\n\t      return index.numberofInserts;\n\t}\n    struct Node {\n        mapping (bool => uint) children; //false left child,true right child\n        uint parent;\n        bool side;  //side of the tree?\n        uint height;\n        uint count;\n        uint dupes;  //duplicates\n    }\n    //mapping(uint => Node) nodes;\n\n    struct Index {\n\n            mapping (uint => Node) nodes;\n            uint numberofInserts;\n    }\n\n}\n",
  "sourcePath": "/home/jjj/Documents/OE/GitHubOpenEquity/OpenEquity/contracts/OrderedStatisticTree.sol",
  "compiler": {
    "name": "solc",
    "version": "0.4.23+commit.124ca40d.Emscripten.clang"
  },
  "schemaVersion": "2.0.0",
  "updatedAt": "2018-07-06T18:22:29.643Z"
}