{
  "contractName": "OrderStatisticTree",
  "abi": [
    {
      "inputs": [
        {
          "name": "_owner",
          "type": "address"
        }
      ],
      "payable": false,
      "stateMutability": "nonpayable",
      "type": "constructor"
    },
    {
      "constant": false,
      "inputs": [
        {
          "name": "value",
          "type": "uint256"
        }
      ],
      "name": "insert",
      "outputs": [],
      "payable": false,
      "stateMutability": "nonpayable",
      "type": "function"
    },
    {
      "constant": false,
      "inputs": [
        {
          "name": "value",
          "type": "uint256"
        }
      ],
      "name": "remove",
      "outputs": [],
      "payable": false,
      "stateMutability": "nonpayable",
      "type": "function"
    },
    {
      "constant": true,
      "inputs": [
        {
          "name": "value",
          "type": "uint256"
        }
      ],
      "name": "rank",
      "outputs": [
        {
          "name": "smaller",
          "type": "uint256"
        }
      ],
      "payable": false,
      "stateMutability": "view",
      "type": "function"
    },
    {
      "constant": true,
      "inputs": [
        {
          "name": "pos",
          "type": "uint256"
        }
      ],
      "name": "select_at",
      "outputs": [
        {
          "name": "value",
          "type": "uint256"
        }
      ],
      "payable": false,
      "stateMutability": "view",
      "type": "function"
    },
    {
      "constant": true,
      "inputs": [
        {
          "name": "value",
          "type": "uint256"
        }
      ],
      "name": "duplicates",
      "outputs": [
        {
          "name": "n",
          "type": "uint256"
        }
      ],
      "payable": false,
      "stateMutability": "view",
      "type": "function"
    },
    {
      "constant": true,
      "inputs": [],
      "name": "count",
      "outputs": [
        {
          "name": "count",
          "type": "uint256"
        }
      ],
      "payable": false,
      "stateMutability": "view",
      "type": "function"
    },
    {
      "constant": true,
      "inputs": [
        {
          "name": "value",
          "type": "uint256"
        },
        {
          "name": "n",
          "type": "uint256"
        }
      ],
      "name": "in_top_n",
      "outputs": [
        {
          "name": "truth",
          "type": "bool"
        }
      ],
      "payable": false,
      "stateMutability": "view",
      "type": "function"
    },
    {
      "constant": true,
      "inputs": [
        {
          "name": "value",
          "type": "uint256"
        }
      ],
      "name": "percentile",
      "outputs": [
        {
          "name": "k",
          "type": "uint256"
        }
      ],
      "payable": false,
      "stateMutability": "view",
      "type": "function"
    },
    {
      "constant": true,
      "inputs": [
        {
          "name": "percentile",
          "type": "uint256"
        }
      ],
      "name": "at_percentile",
      "outputs": [
        {
          "name": "value",
          "type": "uint256"
        }
      ],
      "payable": false,
      "stateMutability": "view",
      "type": "function"
    },
    {
      "constant": true,
      "inputs": [
        {
          "name": "value",
          "type": "uint256"
        }
      ],
      "name": "permille",
      "outputs": [
        {
          "name": "k",
          "type": "uint256"
        }
      ],
      "payable": false,
      "stateMutability": "view",
      "type": "function"
    },
    {
      "constant": true,
      "inputs": [
        {
          "name": "permille",
          "type": "uint256"
        }
      ],
      "name": "at_permille",
      "outputs": [
        {
          "name": "value",
          "type": "uint256"
        }
      ],
      "payable": false,
      "stateMutability": "view",
      "type": "function"
    },
    {
      "constant": true,
      "inputs": [],
      "name": "median",
      "outputs": [
        {
          "name": "value",
          "type": "uint256"
        }
      ],
      "payable": false,
      "stateMutability": "view",
      "type": "function"
    },
    {
      "constant": true,
      "inputs": [
        {
          "name": "value",
          "type": "uint256"
        }
      ],
      "name": "node_left_child",
      "outputs": [
        {
          "name": "child",
          "type": "uint256"
        }
      ],
      "payable": false,
      "stateMutability": "view",
      "type": "function"
    },
    {
      "constant": true,
      "inputs": [
        {
          "name": "value",
          "type": "uint256"
        }
      ],
      "name": "node_right_child",
      "outputs": [
        {
          "name": "child",
          "type": "uint256"
        }
      ],
      "payable": false,
      "stateMutability": "view",
      "type": "function"
    },
    {
      "constant": true,
      "inputs": [
        {
          "name": "value",
          "type": "uint256"
        }
      ],
      "name": "node_parent",
      "outputs": [
        {
          "name": "parent",
          "type": "uint256"
        }
      ],
      "payable": false,
      "stateMutability": "view",
      "type": "function"
    },
    {
      "constant": true,
      "inputs": [
        {
          "name": "value",
          "type": "uint256"
        }
      ],
      "name": "node_side",
      "outputs": [
        {
          "name": "side",
          "type": "bool"
        }
      ],
      "payable": false,
      "stateMutability": "view",
      "type": "function"
    },
    {
      "constant": true,
      "inputs": [
        {
          "name": "value",
          "type": "uint256"
        }
      ],
      "name": "node_height",
      "outputs": [
        {
          "name": "height",
          "type": "uint256"
        }
      ],
      "payable": false,
      "stateMutability": "view",
      "type": "function"
    },
    {
      "constant": true,
      "inputs": [
        {
          "name": "value",
          "type": "uint256"
        }
      ],
      "name": "node_count",
      "outputs": [
        {
          "name": "count",
          "type": "uint256"
        }
      ],
      "payable": false,
      "stateMutability": "view",
      "type": "function"
    },
    {
      "constant": true,
      "inputs": [
        {
          "name": "value",
          "type": "uint256"
        }
      ],
      "name": "node_dupes",
      "outputs": [
        {
          "name": "dupes",
          "type": "uint256"
        }
      ],
      "payable": false,
      "stateMutability": "view",
      "type": "function"
    },
    {
      "constant": false,
      "inputs": [],
      "name": "numInserts",
      "outputs": [
        {
          "name": "",
          "type": "uint256"
        }
      ],
      "payable": false,
      "stateMutability": "nonpayable",
      "type": "function"
    }
  ],
  "bytecode": "0x608060405234801561001057600080fd5b50604051602080611a0483398101806040528101908080519060200190929190505050806000806101000a81548173ffffffffffffffffffffffffffffffffffffffff021916908373ffffffffffffffffffffffffffffffffffffffff1602179055506000600181905550506119798061008b6000396000f300608060405260043610610112576000357c0100000000000000000000000000000000000000000000000000000000900463ffffffff16806306661abd1461011757806321f0a7271461014257806337da8058146101835780633b5f24eb146101d257806341beb9971461021357806348da15321461023e5780634cc82215146102835780635014a18e146102b057806356632637146102f1578063598ac8f21461033257806366d5c8ed1461037357806377049457146103b457806390b5561d146103df5780639f8537171461040c578063b37c191b1461044d578063bdc0f93c1461048e578063d9269cb4146104cf578063e832fda314610510578063e973b7ba14610551578063fa2b579d14610592575b600080fd5b34801561012357600080fd5b5061012c6105d3565b6040518082815260200191505060405180910390f35b34801561014e57600080fd5b5061016d6004803603810190808035906020019092919050505061062e565b6040518082815260200191505060405180910390f35b34801561018f57600080fd5b506101b86004803603810190808035906020019092919080359060200190929190505050610664565b604051808215151515815260200191505060405180910390f35b3480156101de57600080fd5b506101fd60048036038101908080359060200190929190505050610690565b6040518082815260200191505060405180910390f35b34801561021f57600080fd5b506102286106f0565b6040518082815260200191505060405180910390f35b34801561024a57600080fd5b50610269600480360381019080803590602001909291905050506106fa565b604051808215151515815260200191505060405180910390f35b34801561028f57600080fd5b506102ae60048036038101908080359060200190929190505050610727565b005b3480156102bc57600080fd5b506102db60048036038101908080359060200190929190505050610841565b6040518082815260200191505060405180910390f35b3480156102fd57600080fd5b5061031c60048036038101908080359060200190929190505050610861565b6040518082815260200191505060405180910390f35b34801561033e57600080fd5b5061035d60048036038101908080359060200190929190505050610881565b6040518082815260200191505060405180910390f35b34801561037f57600080fd5b5061039e600480360381019080803590602001909291905050506108e3565b6040518082815260200191505060405180910390f35b3480156103c057600080fd5b506103c9610918565b6040518082815260200191505060405180910390f35b3480156103eb57600080fd5b5061040a60048036038101908080359060200190929190505050610929565b005b34801561041857600080fd5b50610437600480360381019080803590602001909291905050506109d9565b6040518082815260200191505060405180910390f35b34801561045957600080fd5b50610478600480360381019080803590602001909291905050506109fc565b6040518082815260200191505060405180910390f35b34801561049a57600080fd5b506104b960048036038101908080359060200190929190505050610b8e565b6040518082815260200191505060405180910390f35b3480156104db57600080fd5b506104fa60048036038101908080359060200190929190505050610bae565b6040518082815260200191505060405180910390f35b34801561051c57600080fd5b5061053b60048036038101908080359060200190929190505050610bdb565b6040518082815260200191505060405180910390f35b34801561055d57600080fd5b5061057c60048036038101908080359060200190929190505050610d2c565b6040518082815260200191505060405180910390f35b34801561059e57600080fd5b506105bd60048036038101908080359060200190929190505050610d4c565b6040518082815260200191505060405180910390f35b6000806000600260008081526020019081526020016000209150600260008360000160006001151515158152602001908152602001600020548152602001908152602001600020905080600401548260050154019250505090565b60006002600083815260200190815260200160002060000160006001151515158152602001908152602001600020549050919050565b6000806000610672856109fc565b915061067c6105d3565b905083600183830303109250505092915050565b60008060008061069f856109fc565b9250600260008681526020019081526020016000206005015491506106c26105d3565b90508060026064808502018115156106d657fe5b0460648502018115156106e557fe5b049350505050919050565b6000600154905090565b60006002600083815260200190815260200160002060020160009054906101000a900460ff169050919050565b60008060009054906101000a900473ffffffffffffffffffffffffffffffffffffffff1673ffffffffffffffffffffffffffffffffffffffff163373ffffffffffffffffffffffffffffffffffffffff1614151561078457600080fd5b60026000838152602001908152602001600020905060008214156107b9576000816005015414156107b45761083d565b6107cc565b6000816004015414156107cb5761083d565b5b6000816005015411156108325780600501600081548092919060019003919050555060008214151561080e578060040160008154809291906001900391905055505b61082d81600101548260020160009054906101000a900460ff16610d78565b61083c565b61083b82610da3565b5b5b5050565b600060026000838152602001908152602001600020600101549050919050565b600060026000838152602001908152602001600020600501549050919050565b600080600080610890856109fc565b9250600260008681526020019081526020016000206005015491506108b36105d3565b90508060026103e8808502018115156108c857fe5b046103e88502018115156108d857fe5b049350505050919050565b600060026000838152602001908152602001600020600001600080151515158152602001908152602001600020549050919050565b60006109246032610d4c565b905090565b6000809054906101000a900473ffffffffffffffffffffffffffffffffffffffff1673ffffffffffffffffffffffffffffffffffffffff163373ffffffffffffffffffffffffffffffffffffffff1614151561098457600080fd5b60008114156109b85760026000828152602001908152602001600020600501600081548092919060010191905055506109d6565b600180600082825401925050819055506109d56000600183610f1d565b5b50565b600060016002600084815260200190815260200160002060050154019050919050565b6000806000806000809350600086141515610b85576002600080815260200190815260200160002060050154945060026000808152602001908152602001600020600001600060011515151581526020019081526020016000205492506002600084815260200190815260200160002091505b600a841015610b84576001840193508583111515610adf5785831015610a9c578160050154600101850194505b81600001600080151515158152602001908152602001600020549050600081141515610ade576002600082815260200190815260200160002060040154850194505b5b85831415610aec57610b84565b81600001600087851015151515815260200190815260200160002054925085831015610b455781600001600060011515151581526020019081526020016000205492506002600084815260200190815260200160002091505b85831115610b7f57816000016000801515151581526020019081526020016000205492506002600084815260200190815260200160002091505b610a6f565b5b50505050919050565b600060026000838152602001908152602001600020600401549050919050565b600080610bb96105d3565b9050610bd36103e8828502811515610bcd57fe5b04610bdb565b915050919050565b600080600080600080600080600060026000808152602001908152602001600020600501549750878a1015610c135760009850610d1f565b878a03965060026000808152602001908152602001600020600001600060011515151581526020019081526020016000205495506002600087815260200190815260200160002094505b600115610d1e578460000160008015151515815260200190815260200160002054935060018560050154019250600084141515610cb55760026000858152602001908152602001600020915081600401549050610cba565b600090505b80871015610ccd57839550819450610d19565b828101871015610cdf57859850610d1f565b8460000160006001151515158152602001908152602001600020549550600260008781526020019081526020016000209450828101870396505b610c5d565b5b5050505050505050919050565b600060026000838152602001908152602001600020600301549050919050565b600080610d576105d3565b9050610d706064828502811515610d6a57fe5b04610bdb565b915050919050565b600082141515610d9f57610d8b82611041565b610d94826110cf565b610d9e8282611120565b5b5050565b600080600080600080600080600260008a81526020019081526020016000209750876001015496508760020160009054906101000a900460ff169550600260008881526020019081526020016000209450876000016000801515151581526020019081526020016000205493508760000160006001151515158152602001908152602001600020549250600084148015610e3d5750600083145b15610e795760008560000160008815151515815260200190815260200160002081905550610e6a896112a0565b610e748787610d78565b610f12565b60008414158015610e8b575060008314155b15610ea057610e9b89858561133f565b610f11565b8284019150600260008381526020019081526020016000209050818560000160008815151515815260200190815260200160002081905550868160010181905550858160020160006101000a81548160ff021916908315150217905550610f06896112a0565b610f108787610d78565b5b5b505050505050505050565b600080600080600260008881526020019081526020016000209350836000016000871515151581526020019081526020016000205492506000831415610fe057848460000160008815151515815260200190815260200160002081905550600260008681526020019081526020016000209150868260010181905550858260020160006101000a81548160ff0219169083151502179055506001826003018190555060018260040181905550610fd2856110cf565b610fdb85611518565b611038565b8483141561102557600260008481526020019081526020016000206005016000815480929190600101919050555061101785611041565b611020856110cf565b611037565b828510159050611036838287610f1d565b5b5b50505050505050565b6000600260008381526020019081526020016000209050806005015460026000836000016000600115151515815260200190815260200160002054815260200190815260200160002060040154600260008460000160008015151515815260200190815260200160002054815260200190815260200160002060040154600101010181600401819055505050565b6000600260008381526020019081526020016000206001015490505b60008114151561111c576110fe81611041565b600260008281526020019081526020016000206001015490506110eb565b5050565b600080600080600080600080891415156112955761113d89611617565b611146896116c2565b9650879550871561115a576001945061117e565b7fffffffffffffffffffffffffffffffffffffffffffffffffffffffffffffffff94505b611187896116c2565b93508460020284141561125557600260008a8152602001908152602001600020925082600001600089151515151581526020019081526020016000205491506111cf826116c2565b9050847fffffffffffffffffffffffffffffffffffffffffffffffffffffffffffffffff0281141561120757611206828915611744565b5b6112118989611744565b60008114151561125057600260008a8152602001908152602001600020925061124f83600101548460020160009054906101000a900460ff16611120565b5b611294565b848714151561129357600260008a8152602001908152602001600020925061129283600101548460020160009054906101000a900460ff16611120565b5b5b5b505050505050505050565b60006002600083815260200190815260200160002090506000816001018190555060008160020160006101000a81548160ff0219169083151502179055506000816000016000801515151581526020019081526020016000208190555060008160000160006001151515158152602001908152602001600020819055506000816004018190555060008160030181905550600081600501819055505050565b60008060008060008060008060006113568b6118f7565b9850600260008a815260200190815260200160002097508760050154965061137d89610da3565b600260008d8152602001908152602001600020955085600101549450600260008681526020019081526020016000209350856003015492508560020160009054906101000a900460ff16915085600401549050856000016000600115151515815260200190815260200160002054995085600001600080151515158152602001908152602001600020549a50888460000160008415151515815260200190815260200160002081905550848860010181905550818860020160006101000a81548160ff021916908315150217905550856005015487820103886004018190555082886003018190555086886005018190555060008b1415156114b3578a886000016000801515151581526020019081526020016000208190555088600260008d8152602001908152602001600020600101819055505b60008a1415156114f8578988600001600060011515151581526020019081526020016000208190555088600260008c8152602001908152602001600020600101819055505b6115018c6112a0565b61150a896110cf565b505050505050505050505050565b600080600080600061152986611617565b6002600087815260200190815260200160002094508460010154935060008414151561160f57611558846116c2565b92508460020160009054906101000a900460ff169150811561159c577fffffffffffffffffffffffffffffffffffffffffffffffffffffffffffffffff90506115a1565b600190505b600281028314156115f957807fffffffffffffffffffffffffffffffffffffffffffffffffffffffffffffffff026115d8876116c2565b14156115e9576115e88683611744565b5b6115f4848315611744565b61160e565b60008314151561160d5761160c84611518565b5b5b5b505050505050565b60008060006002600085815260200190815260200160002092506002600084600001600080151515158152602001908152602001600020548152602001908152602001600020600301549150600260008460000160006001151515158152602001908152602001600020548152602001908152602001600020600301549050808211156116af576001820183600301819055506116bc565b6001810183600301819055505b50505050565b6000806002600084815260200190815260200160002090506002600082600001600060011515151581526020019081526020016000205481526020019081526020016000206003015460026000836000016000801515151581526020019081526020016000205481526020019081526020016000206003015403915050919050565b600080600080600080600080600089159850600260008c815260200190815260200160002097508760020160009054906101000a900460ff169650876001015495508760000160008a1515151581526020019081526020016000205494506002600086815260200190815260200160002093508360000160008b151515158152602001908152602001600020549250600260008781526020019081526020016000209150600260008481526020019081526020016000209050848260000160008915151515815260200190815260200160002081905550868460020160006101000a81548160ff0219169083151502179055508584600101819055508a8460000160008c15151515815260200190815260200160002081905550848860010181905550898860020160006101000a81548160ff021916908315150217905550828860000160008b151515158152602001908152602001600020819055508a8160010181905550888160020160006101000a81548160ff0219169083151502179055506118cf8b611617565b6118d885611617565b6118e18b611041565b6118ea85611041565b5050505050505050505050565b60008060026000848152602001908152602001600020600001600060011515151581526020019081526020016000205490506000811415156119435761193c816118f7565b9150611947565b8291505b509190505600a165627a7a7230582022f970828b31e011db737d52d166ed1ccb40e6226861f9b48e573aed834512cd0029",
  "source": "\n\ncontract OrderStatisticTree {\n\n\n    address owner;\n    uint numberofInserts;\n    \n    constructor(address _owner) {\n    owner=_owner;\n    numberofInserts=0;\n    }\n\n    modifier isOwner(){\n      require(msg.sender==owner);\n      _;\n    }\n    function update_count(uint value) private {\n        Node n=nodes[value];\n        n.count=1+nodes[n.children[false]].count+nodes[n.children[true]].count+n.dupes;\n    }\n    function update_counts(uint value) private {\n        uint parent=nodes[value].parent;\n        while (parent!=0) {\n            update_count(parent);\n            parent=nodes[parent].parent;\n        }\n    }\n    function update_height(uint value) private {\n        Node n=nodes[value];\n        uint height_left=nodes[n.children[false]].height;\n        uint height_right=nodes[n.children[true]].height;\n        if (height_left>height_right)\n            n.height=height_left+1;\n        else\n            n.height=height_right+1;\n    }\n    function balance_factor(uint value) constant private returns (int bf) {\n        Node n=nodes[value];\n        return int(nodes[n.children[false]].height)-int(nodes[n.children[true]].height);\n    }\n    function rotate(uint value,bool dir) private {\n        bool other_dir=!dir;\n        Node n=nodes[value];\n        bool side=n.side;\n        uint parent=n.parent;\n        uint value_new=n.children[other_dir];\n        Node n_new=nodes[value_new];\n        uint orphan=n_new.children[dir];\n        Node p=nodes[parent];\n        Node o=nodes[orphan];\n        p.children[side]=value_new;\n        n_new.side=side;\n        n_new.parent=parent;\n        n_new.children[dir]=value;\n        n.parent=value_new;\n        n.side=dir;\n        n.children[other_dir]=orphan;\n        o.parent=value;\n        o.side=other_dir;\n        update_height(value);\n        update_height(value_new);\n        update_count(value);\n        update_count(value_new);\n    }\n    function rebalance_insert(uint n_value) private {\n        update_height(n_value);\n        Node n=nodes[n_value];\n        uint p_value=n.parent;\n        if (p_value!=0) {\n            int p_bf=balance_factor(p_value);\n            bool side=n.side;\n            int sign;\n            if (side)\n                sign=-1;\n            else\n                sign=1;\n            if (p_bf == sign*2) {\n                if (balance_factor(n_value) == (-1 * sign))\n                    rotate(n_value,side);\n                rotate(p_value,!side);\n            }\n            else if (p_bf != 0)\n                rebalance_insert(p_value);\n        }\n    }\n    function rebalance_delete(uint p_value,bool side) private{\n        if (p_value!=0) {\n            update_height(p_value);\n            int p_bf=balance_factor(p_value);\n            bool dir=side;\n            int sign;\n            if (side)\n                sign=1;\n            else\n                sign=-1;\n            int bf=balance_factor(p_value);\n            if (bf==(2*sign)) {\n                Node p=nodes[p_value];\n                uint s_value=p.children[!side];\n                int s_bf=balance_factor(s_value);\n                if (s_bf == (-1 * sign))\n                    rotate(s_value,!side);\n                rotate(p_value,side);\n                if (s_bf!=0){\n                    p=nodes[p_value];\n                    rebalance_delete(p.parent,p.side);\n                }\n            }\n            else if (p_bf != sign){\n                p=nodes[p_value];\n                rebalance_delete(p.parent,p.side);\n            }\n        }\n    }\n    function fix_parents(uint parent,bool side) private {\n        if(parent!=0) {\n            update_count(parent);\n            update_counts(parent);\n            rebalance_delete(parent,side);\n        }\n    }\n    function insert_helper(uint p_value,bool side,uint value) private {\n        Node root=nodes[p_value];\n        uint c_value=root.children[side];\n        if (c_value==0){\n            root.children[side]=value;\n            Node child=nodes[value];\n            child.parent=p_value;\n            child.side=side;\n            child.height=1;\n            child.count=1;\n            update_counts(value);\n            rebalance_insert(value);\n        }\n        else if (c_value==value){\n            nodes[c_value].dupes++;\n            update_count(value);\n            update_counts(value);\n        }\n        else{\n            bool side_new=(value >= c_value);\n            insert_helper(c_value,side_new,value);\n        }\n    }\n    function insert(uint value) isOwner() {\n\n        if (value==0)\n            nodes[value].dupes++;\n        else{\n            numberofInserts+=1;\n            insert_helper(0,true,value);\n        }\n    }\n    function rightmost_leaf(uint value) constant private returns (uint leaf) {\n        uint child=nodes[value].children[true];\n        if (child!=0)\n            return rightmost_leaf(child);\n        else\n            return value;\n    }\n    function zero_out(uint value) private {\n        Node n=nodes[value];\n        n.parent=0;\n        n.side=false;\n        n.children[false]=0;\n        n.children[true]=0;\n        n.count=0;\n        n.height=0;\n        n.dupes=0;\n    }\n    function remove_branch(uint value,uint left,uint right) private {\n        uint ipn=rightmost_leaf(left);\n        Node i=nodes[ipn];\n        uint dupes=i.dupes;\n        remove_helper(ipn);\n        Node n=nodes[value];\n        uint parent=n.parent;\n        Node p=nodes[parent];\n        uint height=n.height;\n        bool side=n.side;\n        uint count=n.count;\n        right=n.children[true];\n        left=n.children[false];\n        p.children[side]=ipn;\n        i.parent=parent;\n        i.side=side;\n        i.count=count+dupes-n.dupes;\n        i.height=height;\n        i.dupes=dupes;\n        if (left!=0) {\n            i.children[false]=left;\n            nodes[left].parent=ipn;\n        }\n        if (right!=0) {\n            i.children[true]=right;\n            nodes[right].parent=ipn;\n        }\n        zero_out(value);\n        update_counts(ipn);\n    }\n    function remove_helper(uint value) private {\n        Node n=nodes[value];\n        uint parent=n.parent;\n        bool side=n.side;\n        Node p=nodes[parent];\n        uint left=n.children[false];\n        uint right=n.children[true];\n        if ((left == 0) && (right == 0)) {\n            p.children[side]=0;\n            zero_out(value);\n            fix_parents(parent,side);\n        }\n        else if ((left !=0) && (right != 0)) {\n            remove_branch(value,left,right);\n        }\n        else {\n            uint child=left+right;\n            Node c=nodes[child];\n            p.children[side]=child;\n            c.parent=parent;\n            c.side=side;\n            zero_out(value);\n            fix_parents(parent,side);\n        }\n    }\n    function remove(uint value) isOwner(){\n        Node n=nodes[value];\n        if (value==0){\n            if (n.dupes==0)\n                return;\n        }\n        else{\n            if (n.count==0)\n                return;\n        }\n        if (n.dupes>0) {\n            n.dupes--;\n            if(value!=0)\n                n.count--;\n            fix_parents(n.parent,n.side);\n        }\n        else\n            remove_helper(value);\n    }\n    function rank(uint value) constant returns (uint smaller){\n       uint temp=0;\n        if(value!=0){\n            smaller=nodes[0].dupes;\n            uint cur=nodes[0].children[true];\n            Node cur_node=nodes[cur];\n            while(temp<10){\n              temp+=1;\n                if (cur<=value){\n                    if(cur<value)\n                        smaller+=1+cur_node.dupes;\n                    uint left_child=+cur_node.children[false];\n                    if (left_child!=0)\n                        smaller+=nodes[left_child].count;\n                }\n                if (cur==value)\n                    break;\n                cur=cur_node.children[cur<value];\n                if(cur<value){\n                cur=cur_node.children[true];\n                cur_node=nodes[cur];\n\n                }\n                 if(cur>value){\n                cur=cur_node.children[false];\n                cur_node=nodes[cur];\n                }\n            }\n        }\n    }\n    function select_at(uint pos) constant returns (uint value){\n        uint zeroes=nodes[0].dupes;\n        if (pos<zeroes)\n            return 0;\n        else {\n            uint pos_new=pos-zeroes;\n            uint cur=nodes[0].children[true];\n            Node cur_node=nodes[cur];\n            while(true){\n                uint left=cur_node.children[false];\n                uint cur_num=cur_node.dupes+1;\n                if (left!=0) {\n                    Node left_node=nodes[left];\n                    uint left_count=left_node.count;\n                }\n                else {\n                    left_count=0;\n                }\n                if (pos_new<left_count) {\n                    cur=left;\n                    cur_node=left_node;\n                }\n                else if (pos_new<left_count+cur_num){\n                    return cur;\n                }\n                else {\n                    cur=cur_node.children[true];\n                    cur_node=nodes[cur];\n                    pos_new-=left_count+cur_num;\n                }\n            }\n        }\n    }\n    function duplicates(uint value) constant returns (uint n){\n        return nodes[value].dupes+1;\n    }\n    function count() constant returns (uint count){\n        Node root=nodes[0];\n        Node child=nodes[root.children[true]];\n        return root.dupes+child.count;\n    }\n    function in_top_n(uint value,uint n) constant returns (bool truth){\n        uint pos=rank(value);\n        uint num=count();\n        return (num-pos-1<n);\n    }\n    function percentile(uint value) constant returns (uint k){\n        uint pos=rank(value);\n        uint same=nodes[value].dupes;\n        uint num=count();\n        return (pos*100+(same*100+100)/2)/num;\n    }\n    function at_percentile(uint percentile) constant returns (uint value){\n        uint n=count();\n        return select_at(percentile*n/100);\n    }\n    function permille(uint value) constant returns (uint k){\n        uint pos=rank(value);\n        uint same=nodes[value].dupes;\n        uint num=count();\n        return (pos*1000+(same*1000+1000)/2)/num;\n    }\n    function at_permille(uint permille) constant returns (uint value){\n        uint n=count();\n        return select_at(permille*n/1000);\n    }\n    function median() constant returns (uint value){\n        return at_percentile(50);\n    }\n    function node_left_child(uint value) constant returns (uint child){\n        child=nodes[value].children[false];\n    }\n    function node_right_child(uint value) constant returns (uint child){\n        child=nodes[value].children[true];\n    }\n    function node_parent(uint value) constant returns (uint parent){\n        parent=nodes[value].parent;\n    }\n    function node_side(uint value) constant returns (bool side){\n        side=nodes[value].side;\n    }\n    function node_height(uint value) constant returns (uint height){\n        height=nodes[value].height;\n    }\n    function node_count(uint value) constant returns (uint count){\n        count=nodes[value].count;\n    }\n    function node_dupes(uint value) constant returns (uint dupes){\n        dupes=nodes[value].dupes;\n    }\n    function numInserts() returns(uint){\n        return numberofInserts;\n  }\n    struct Node {\n        mapping (bool => uint) children;\n        uint parent;\n        bool side;\n        uint height;\n        uint count;\n        uint dupes;\n    }\n    mapping(uint => Node) nodes;\n}\n",
  "sourcePath": "/home/jjj/Documents/OE/OpenEquity/contracts/OrderStatisticsTree.sol",
  "compiler": {
    "name": "solc",
    "version": "0.4.23+commit.124ca40d.Emscripten.clang"
  },
  "schemaVersion": "2.0.0",
  "updatedAt": "2018-07-04T03:30:14.864Z"
}