{
  "contractName": "Owned",
  "abi": [
    {
      "constant": true,
      "inputs": [],
      "name": "owner",
      "outputs": [
        {
          "name": "",
          "type": "address"
        }
      ],
      "payable": false,
      "stateMutability": "view",
      "type": "function"
    },
    {
      "inputs": [],
      "payable": false,
      "stateMutability": "nonpayable",
      "type": "constructor"
    },
    {
      "anonymous": false,
      "inputs": [
        {
          "indexed": false,
          "name": "_owner",
          "type": "address"
        },
        {
          "indexed": false,
          "name": "newOwner",
          "type": "address"
        }
      ],
      "name": "LogNewOwner",
      "type": "event"
    },
    {
      "constant": false,
      "inputs": [
        {
          "name": "newOwner",
          "type": "address"
        }
      ],
      "name": "changeOwner",
      "outputs": [
        {
          "name": "success",
          "type": "bool"
        }
      ],
      "payable": false,
      "stateMutability": "nonpayable",
      "type": "function"
    }
  ],
  "bytecode": "0x608060405234801561001057600080fd5b5060008054600160a060020a03191633179055610198806100326000396000f30060806040526004361061004b5763ffffffff7c01000000000000000000000000000000000000000000000000000000006000350416638da5cb5b8114610050578063a6f9dae114610081575b600080fd5b34801561005c57600080fd5b506100656100b6565b60408051600160a060020a039092168252519081900360200190f35b34801561008d57600080fd5b506100a2600160a060020a03600435166100c5565b604080519115158252519081900360200190f35b600054600160a060020a031681565b60008054600160a060020a031633146100dd57600080fd5b600160a060020a03821615156100f257600080fd5b60005460408051600160a060020a039283168152918416602083015280517f1f8d7d25344642d919d55999e4664aa452a5f424bc0936ceb9c2b300db7dcbd99281900390910190a15060008054600160a060020a03831673ffffffffffffffffffffffffffffffffffffffff1990911617905560019190505600a165627a7a72305820b9e64d0d2bc1592386f2b21276c11110b5ebbe47b6e4f4d9e0aa119315b1191e0029",
  "source": "pragma solidity ^0.4.15;\n\n\ncontract Owned {\n\n  address public owner;\n\n  event LogNewOwner (address _owner, address newOwner);\n\n  modifier onlyOwner {\n    if(msg.sender != owner) revert();\n    _;\n  }\n\n  function Owned() {\n      owner = msg.sender;\n  }\n\n  function changeOwner (address newOwner)\n      onlyOwner\n      returns(bool success){\n        if (newOwner == 0) revert();\n        LogNewOwner(owner, newOwner);\n        owner = newOwner;\n        return true;\n      }\n  }\n",
  "sourcePath": "/home/john/OE/OpenEquity/contracts/Owned.sol",
  "compiler": {
    "name": "solc",
    "version": "0.4.24+commit.e67f0147.Emscripten.clang"
  },
  "schemaVersion": "3.0.5",
  "updatedAt": "2019-03-27T18:54:57.557Z",
  "devdoc": {
    "methods": {}
  },
  "userdoc": {
    "methods": {}
  }
}