{
  "contractName": "Stoppable",
  "abi": [
    {
      "constant": true,
      "inputs": [],
      "name": "owner",
      "outputs": [
        {
          "name": "",
          "type": "address"
        }
      ],
      "payable": false,
      "stateMutability": "view",
      "type": "function"
    },
    {
      "constant": false,
      "inputs": [
        {
          "name": "newOwner",
          "type": "address"
        }
      ],
      "name": "changeOwner",
      "outputs": [
        {
          "name": "success",
          "type": "bool"
        }
      ],
      "payable": false,
      "stateMutability": "nonpayable",
      "type": "function"
    },
    {
      "constant": true,
      "inputs": [],
      "name": "running",
      "outputs": [
        {
          "name": "",
          "type": "bool"
        }
      ],
      "payable": false,
      "stateMutability": "view",
      "type": "function"
    },
    {
      "inputs": [],
      "payable": false,
      "stateMutability": "nonpayable",
      "type": "constructor"
    },
    {
      "anonymous": false,
      "inputs": [
        {
          "indexed": false,
          "name": "switchSetting",
          "type": "bool"
        }
      ],
      "name": "LogRunSwitch",
      "type": "event"
    },
    {
      "anonymous": false,
      "inputs": [
        {
          "indexed": false,
          "name": "_owner",
          "type": "address"
        },
        {
          "indexed": false,
          "name": "newOwner",
          "type": "address"
        }
      ],
      "name": "LogNewOwner",
      "type": "event"
    },
    {
      "constant": false,
      "inputs": [
        {
          "name": "onOff",
          "type": "bool"
        }
      ],
      "name": "runSwitch",
      "outputs": [
        {
          "name": "success",
          "type": "bool"
        }
      ],
      "payable": false,
      "stateMutability": "nonpayable",
      "type": "function"
    }
  ],
  "bytecode": "0x608060405234801561001057600080fd5b506000805460a060020a60ff0219600160a060020a031990911633171674010000000000000000000000000000000000000000179055610290806100556000396000f3006080604052600436106100615763ffffffff7c01000000000000000000000000000000000000000000000000000000006000350416632dd9705881146100665780638da5cb5b14610094578063a6f9dae1146100c5578063d85bd526146100e6575b600080fd5b34801561007257600080fd5b5061008060043515156100fb565b604080519115158252519081900360200190f35b3480156100a057600080fd5b506100a961018d565b60408051600160a060020a039092168252519081900360200190f35b3480156100d157600080fd5b50610080600160a060020a036004351661019c565b3480156100f257600080fd5b50610080610243565b60008054600160a060020a0316331461011357600080fd5b6000805483151574010000000000000000000000000000000000000000810274ff0000000000000000000000000000000000000000199092169190911790915560408051918252517fed31ba5dd6d358d47c38232d309f2cdd5f0e58c3eb67621a7f731fe2d7d838d29181900360200190a1506001919050565b600054600160a060020a031681565b60008054600160a060020a031633146101b457600080fd5b600160a060020a03821615156101c957600080fd5b60005460408051600160a060020a039283168152918416602083015280517f1f8d7d25344642d919d55999e4664aa452a5f424bc0936ceb9c2b300db7dcbd99281900390910190a15060008054600160a060020a03831673ffffffffffffffffffffffffffffffffffffffff199091161790556001919050565b60005474010000000000000000000000000000000000000000900460ff16815600a165627a7a723058205ebff1eefba7fb75beffdf435824b1931a267d654019a4485b75c6a82a5b550f0029",
  "source": "pragma solidity ^0.4.15;\n\nimport \"./Owned.sol\";\n\ncontract Stoppable is Owned {\n\n  bool public running;\n\n  event LogRunSwitch(bool switchSetting);\n\n  modifier onlyIfRunning {\n    if(!running) revert();\n    _;\n  }\n\n  function Stoppable() {\n    running = true;\n  }\n\n  function runSwitch(bool onOff)\n    onlyOwner\n    returns(bool success){\n      running = onOff;\n      LogRunSwitch(onOff);\n      return true;\n    }\n}\n",
  "sourcePath": "/home/john/OE/OpenEquity/contracts/Stoppable.sol",
  "compiler": {
    "name": "solc",
    "version": "0.4.24+commit.e67f0147.Emscripten.clang"
  },
  "schemaVersion": "3.0.5",
  "updatedAt": "2019-03-27T18:54:57.556Z",
  "devdoc": {
    "methods": {}
  },
  "userdoc": {
    "methods": {}
  }
}