{
  "contractName": "TreeDeployer",
  "abi": [
    {
      "constant": false,
      "inputs": [
        {
          "name": "Owner",
          "type": "address"
        }
      ],
      "name": "deployTree",
      "outputs": [],
      "payable": false,
      "stateMutability": "nonpayable",
      "type": "function"
    },
    {
      "constant": false,
      "inputs": [
        {
          "name": "creator",
          "type": "address"
        }
      ],
      "name": "getTreeLocation",
      "outputs": [
        {
          "name": "",
          "type": "address"
        }
      ],
      "payable": false,
      "stateMutability": "nonpayable",
      "type": "function"
    }
  ],
  "bytecode": "0x608060405234801561001057600080fd5b50611c82806100206000396000f30060806040526004361061004c576000357c0100000000000000000000000000000000000000000000000000000000900463ffffffff1680631d94440714610051578063bae0f44d146100d4575b600080fd5b34801561005d57600080fd5b50610092600480360381019080803573ffffffffffffffffffffffffffffffffffffffff169060200190929190505050610117565b604051808273ffffffffffffffffffffffffffffffffffffffff1673ffffffffffffffffffffffffffffffffffffffff16815260200191505060405180910390f35b3480156100e057600080fd5b50610115600480360381019080803573ffffffffffffffffffffffffffffffffffffffff16906020019092919050505061017f565b005b60008060008373ffffffffffffffffffffffffffffffffffffffff1673ffffffffffffffffffffffffffffffffffffffff16815260200190815260200160002060009054906101000a900473ffffffffffffffffffffffffffffffffffffffff169050919050565b60008161018a610260565b808273ffffffffffffffffffffffffffffffffffffffff1673ffffffffffffffffffffffffffffffffffffffff168152602001915050604051809103906000f0801580156101dc573d6000803e3d6000fd5b509050806000803373ffffffffffffffffffffffffffffffffffffffff1673ffffffffffffffffffffffffffffffffffffffff16815260200190815260200160002060006101000a81548173ffffffffffffffffffffffffffffffffffffffff021916908373ffffffffffffffffffffffffffffffffffffffff1602179055505050565b6040516119e680610271833901905600608060405234801561001057600080fd5b506040516020806119e683398101806040528101908080519060200190929190505050806000806101000a81548173ffffffffffffffffffffffffffffffffffffffff021916908373ffffffffffffffffffffffffffffffffffffffff16021790555060006001819055505061195b8061008b6000396000f300608060405260043610610112576000357c0100000000000000000000000000000000000000000000000000000000900463ffffffff16806306661abd1461011757806321f0a7271461014257806337da8058146101835780633b5f24eb146101d257806341beb9971461021357806348da15321461023e5780634cc82215146102835780635014a18e146102b057806356632637146102f1578063598ac8f21461033257806366d5c8ed1461037357806377049457146103b457806390b5561d146103df5780639f8537171461040c578063b37c191b1461044d578063bdc0f93c1461048e578063d9269cb4146104cf578063e832fda314610510578063e973b7ba14610551578063fa2b579d14610592575b600080fd5b34801561012357600080fd5b5061012c6105d3565b6040518082815260200191505060405180910390f35b34801561014e57600080fd5b5061016d6004803603810190808035906020019092919050505061062e565b6040518082815260200191505060405180910390f35b34801561018f57600080fd5b506101b86004803603810190808035906020019092919080359060200190929190505050610664565b604051808215151515815260200191505060405180910390f35b3480156101de57600080fd5b506101fd60048036038101908080359060200190929190505050610690565b6040518082815260200191505060405180910390f35b34801561021f57600080fd5b506102286106f0565b6040518082815260200191505060405180910390f35b34801561024a57600080fd5b50610269600480360381019080803590602001909291905050506106fa565b604051808215151515815260200191505060405180910390f35b34801561028f57600080fd5b506102ae60048036038101908080359060200190929190505050610727565b005b3480156102bc57600080fd5b506102db60048036038101908080359060200190929190505050610841565b6040518082815260200191505060405180910390f35b3480156102fd57600080fd5b5061031c60048036038101908080359060200190929190505050610861565b6040518082815260200191505060405180910390f35b34801561033e57600080fd5b5061035d60048036038101908080359060200190929190505050610881565b6040518082815260200191505060405180910390f35b34801561037f57600080fd5b5061039e600480360381019080803590602001909291905050506108e3565b6040518082815260200191505060405180910390f35b3480156103c057600080fd5b506103c9610918565b6040518082815260200191505060405180910390f35b3480156103eb57600080fd5b5061040a60048036038101908080359060200190929190505050610929565b005b34801561041857600080fd5b50610437600480360381019080803590602001909291905050506109d9565b6040518082815260200191505060405180910390f35b34801561045957600080fd5b50610478600480360381019080803590602001909291905050506109fc565b6040518082815260200191505060405180910390f35b34801561049a57600080fd5b506104b960048036038101908080359060200190929190505050610b70565b6040518082815260200191505060405180910390f35b3480156104db57600080fd5b506104fa60048036038101908080359060200190929190505050610b90565b6040518082815260200191505060405180910390f35b34801561051c57600080fd5b5061053b60048036038101908080359060200190929190505050610bbd565b6040518082815260200191505060405180910390f35b34801561055d57600080fd5b5061057c60048036038101908080359060200190929190505050610d0e565b6040518082815260200191505060405180910390f35b34801561059e57600080fd5b506105bd60048036038101908080359060200190929190505050610d2e565b6040518082815260200191505060405180910390f35b6000806000600260008081526020019081526020016000209150600260008360000160006001151515158152602001908152602001600020548152602001908152602001600020905080600401548260050154019250505090565b60006002600083815260200190815260200160002060000160006001151515158152602001908152602001600020549050919050565b6000806000610672856109fc565b915061067c6105d3565b905083600183830303109250505092915050565b60008060008061069f856109fc565b9250600260008681526020019081526020016000206005015491506106c26105d3565b90508060026064808502018115156106d657fe5b0460648502018115156106e557fe5b049350505050919050565b6000600154905090565b60006002600083815260200190815260200160002060020160009054906101000a900460ff169050919050565b60008060009054906101000a900473ffffffffffffffffffffffffffffffffffffffff1673ffffffffffffffffffffffffffffffffffffffff163373ffffffffffffffffffffffffffffffffffffffff1614151561078457600080fd5b60026000838152602001908152602001600020905060008214156107b9576000816005015414156107b45761083d565b6107cc565b6000816004015414156107cb5761083d565b5b6000816005015411156108325780600501600081548092919060019003919050555060008214151561080e578060040160008154809291906001900391905055505b61082d81600101548260020160009054906101000a900460ff16610d5a565b61083c565b61083b82610d85565b5b5b5050565b600060026000838152602001908152602001600020600101549050919050565b600060026000838152602001908152602001600020600501549050919050565b600080600080610890856109fc565b9250600260008681526020019081526020016000206005015491506108b36105d3565b90508060026103e8808502018115156108c857fe5b046103e88502018115156108d857fe5b049350505050919050565b600060026000838152602001908152602001600020600001600080151515158152602001908152602001600020549050919050565b60006109246032610d2e565b905090565b6000809054906101000a900473ffffffffffffffffffffffffffffffffffffffff1673ffffffffffffffffffffffffffffffffffffffff163373ffffffffffffffffffffffffffffffffffffffff1614151561098457600080fd5b60008114156109b85760026000828152602001908152602001600020600501600081548092919060010191905055506109d6565b600180600082825401925050819055506109d56000600183610eff565b5b50565b600060016002600084815260200190815260200160002060050154019050919050565b6000806000806000809350600086141515610b67576002600080815260200190815260200160002060050154945060026000808152602001908152602001600020600001600060011515151581526020019081526020016000205492506002600084815260200190815260200160002091505b600a841015610b66576001840193508583111515610adf5785831015610a9c578160050154600101850194505b81600001600080151515158152602001908152602001600020549050600081141515610ade576002600082815260200190815260200160002060040154850194505b5b85831415610aec57610b66565b85831015610b275781600001600060011515151581526020019081526020016000205492506002600084815260200190815260200160002091505b85831115610b6157816000016000801515151581526020019081526020016000205492506002600084815260200190815260200160002091505b610a6f565b5b50505050919050565b600060026000838152602001908152602001600020600401549050919050565b600080610b9b6105d3565b9050610bb56103e8828502811515610baf57fe5b04610bbd565b915050919050565b600080600080600080600080600060026000808152602001908152602001600020600501549750878a1015610bf55760009850610d01565b878a03965060026000808152602001908152602001600020600001600060011515151581526020019081526020016000205495506002600087815260200190815260200160002094505b600115610d00578460000160008015151515815260200190815260200160002054935060018560050154019250600084141515610c975760026000858152602001908152602001600020915081600401549050610c9c565b600090505b80871015610caf57839550819450610cfb565b828101871015610cc157859850610d01565b8460000160006001151515158152602001908152602001600020549550600260008781526020019081526020016000209450828101870396505b610c3f565b5b5050505050505050919050565b600060026000838152602001908152602001600020600301549050919050565b600080610d396105d3565b9050610d526064828502811515610d4c57fe5b04610bbd565b915050919050565b600082141515610d8157610d6d82611023565b610d76826110b1565b610d808282611102565b5b5050565b600080600080600080600080600260008a81526020019081526020016000209750876001015496508760020160009054906101000a900460ff169550600260008881526020019081526020016000209450876000016000801515151581526020019081526020016000205493508760000160006001151515158152602001908152602001600020549250600084148015610e1f5750600083145b15610e5b5760008560000160008815151515815260200190815260200160002081905550610e4c89611282565b610e568787610d5a565b610ef4565b60008414158015610e6d575060008314155b15610e8257610e7d898585611321565b610ef3565b8284019150600260008381526020019081526020016000209050818560000160008815151515815260200190815260200160002081905550868160010181905550858160020160006101000a81548160ff021916908315150217905550610ee889611282565b610ef28787610d5a565b5b5b505050505050505050565b600080600080600260008881526020019081526020016000209350836000016000871515151581526020019081526020016000205492506000831415610fc257848460000160008815151515815260200190815260200160002081905550600260008681526020019081526020016000209150868260010181905550858260020160006101000a81548160ff0219169083151502179055506001826003018190555060018260040181905550610fb4856110b1565b610fbd856114fa565b61101a565b84831415611007576002600084815260200190815260200160002060050160008154809291906001019190505550610ff985611023565b611002856110b1565b611019565b828510159050611018838287610eff565b5b5b50505050505050565b6000600260008381526020019081526020016000209050806005015460026000836000016000600115151515815260200190815260200160002054815260200190815260200160002060040154600260008460000160008015151515815260200190815260200160002054815260200190815260200160002060040154600101010181600401819055505050565b6000600260008381526020019081526020016000206001015490505b6000811415156110fe576110e081611023565b600260008281526020019081526020016000206001015490506110cd565b5050565b600080600080600080600080891415156112775761111f896115f9565b611128896116a4565b9650879550871561113c5760019450611160565b7fffffffffffffffffffffffffffffffffffffffffffffffffffffffffffffffff94505b611169896116a4565b93508460020284141561123757600260008a8152602001908152602001600020925082600001600089151515151581526020019081526020016000205491506111b1826116a4565b9050847fffffffffffffffffffffffffffffffffffffffffffffffffffffffffffffffff028114156111e9576111e8828915611726565b5b6111f38989611726565b60008114151561123257600260008a8152602001908152602001600020925061123183600101548460020160009054906101000a900460ff16611102565b5b611276565b848714151561127557600260008a8152602001908152602001600020925061127483600101548460020160009054906101000a900460ff16611102565b5b5b5b505050505050505050565b60006002600083815260200190815260200160002090506000816001018190555060008160020160006101000a81548160ff0219169083151502179055506000816000016000801515151581526020019081526020016000208190555060008160000160006001151515158152602001908152602001600020819055506000816004018190555060008160030181905550600081600501819055505050565b60008060008060008060008060006113388b6118d9565b9850600260008a815260200190815260200160002097508760050154965061135f89610d85565b600260008d8152602001908152602001600020955085600101549450600260008681526020019081526020016000209350856003015492508560020160009054906101000a900460ff16915085600401549050856000016000600115151515815260200190815260200160002054995085600001600080151515158152602001908152602001600020549a50888460000160008415151515815260200190815260200160002081905550848860010181905550818860020160006101000a81548160ff021916908315150217905550856005015487820103886004018190555082886003018190555086886005018190555060008b141515611495578a886000016000801515151581526020019081526020016000208190555088600260008d8152602001908152602001600020600101819055505b60008a1415156114da578988600001600060011515151581526020019081526020016000208190555088600260008c8152602001908152602001600020600101819055505b6114e38c611282565b6114ec896110b1565b505050505050505050505050565b600080600080600061150b866115f9565b600260008781526020019081526020016000209450846001015493506000841415156115f15761153a846116a4565b92508460020160009054906101000a900460ff169150811561157e577fffffffffffffffffffffffffffffffffffffffffffffffffffffffffffffffff9050611583565b600190505b600281028314156115db57807fffffffffffffffffffffffffffffffffffffffffffffffffffffffffffffffff026115ba876116a4565b14156115cb576115ca8683611726565b5b6115d6848315611726565b6115f0565b6000831415156115ef576115ee846114fa565b5b5b5b505050505050565b60008060006002600085815260200190815260200160002092506002600084600001600080151515158152602001908152602001600020548152602001908152602001600020600301549150600260008460000160006001151515158152602001908152602001600020548152602001908152602001600020600301549050808211156116915760018201836003018190555061169e565b6001810183600301819055505b50505050565b6000806002600084815260200190815260200160002090506002600082600001600060011515151581526020019081526020016000205481526020019081526020016000206003015460026000836000016000801515151581526020019081526020016000205481526020019081526020016000206003015403915050919050565b600080600080600080600080600089159850600260008c815260200190815260200160002097508760020160009054906101000a900460ff169650876001015495508760000160008a1515151581526020019081526020016000205494506002600086815260200190815260200160002093508360000160008b151515158152602001908152602001600020549250600260008781526020019081526020016000209150600260008481526020019081526020016000209050848260000160008915151515815260200190815260200160002081905550868460020160006101000a81548160ff0219169083151502179055508584600101819055508a8460000160008c15151515815260200190815260200160002081905550848860010181905550898860020160006101000a81548160ff021916908315150217905550828860000160008b151515158152602001908152602001600020819055508a8160010181905550888160020160006101000a81548160ff0219169083151502179055506118b18b6115f9565b6118ba856115f9565b6118c38b611023565b6118cc85611023565b5050505050505050505050565b60008060026000848152602001908152602001600020600001600060011515151581526020019081526020016000205490506000811415156119255761191e816118d9565b9150611929565b8291505b509190505600a165627a7a72305820a6cabb3869a55e499d50ff4f197bba4cd8e8a5c772dc7cc8e7cb435b5e3a1d5d0029a165627a7a7230582084c5ec7cb293d2c4fdbf5f493ac0a83a4191d4de11d682e4bb562f9a20bd18ea0029",
  "source": "pragma solidity ^0.4.15;\n\nimport \"./OrderStatisticsTree.sol\";\n\n\n\ncontract TreeDeployer{\n\nmapping(address=>address) deployedAddresses;\n\nfunction deployTree(address Owner){\nOrderStatisticTree Tree= new OrderStatisticTree(Owner);\n\ndeployedAddresses[msg.sender]=address(Tree);\n}\nfunction getTreeLocation(address creator) returns(address){\n  return deployedAddresses[creator];\n}\n\n\n\n\n\n}\n",
  "sourcePath": "/home/jjj/Documents/OE/OpenEquity/contracts/TreeDeployer.sol",
  "compiler": {
    "name": "solc",
    "version": "0.4.23+commit.124ca40d.Emscripten.clang"
  },
  "schemaVersion": "2.0.0",
  "updatedAt": "2018-07-06T19:55:31.700Z"
}