{
  "contractName": "TreeDeployer",
  "abi": [
    {
      "constant": false,
      "inputs": [
        {
          "name": "Owner",
          "type": "address"
        },
        {
          "name": "eligible",
          "type": "uint256"
        },
        {
          "name": "CD",
          "type": "address"
        }
      ],
      "name": "deployTree",
      "outputs": [],
      "payable": false,
      "stateMutability": "nonpayable",
      "type": "function",
      "signature": "0xfacf9b9d"
    },
    {
      "constant": true,
      "inputs": [
        {
          "name": "creator",
          "type": "address"
        }
      ],
      "name": "getTreeLocation",
      "outputs": [
        {
          "name": "",
          "type": "address"
        }
      ],
      "payable": false,
      "stateMutability": "view",
      "type": "function",
      "signature": "0x1d944407"
    }
  ],
  "bytecode": "0x608060405234801561001057600080fd5b506115bb806100206000396000f30060806040526004361061004b5763ffffffff7c01000000000000000000000000000000000000000000000000000000006000350416631d9444078114610050578063facf9b9d146100a7575b600080fd5b34801561005c57600080fd5b5061007e73ffffffffffffffffffffffffffffffffffffffff600435166100e1565b6040805173ffffffffffffffffffffffffffffffffffffffff9092168252519081900360200190f35b3480156100b357600080fd5b506100df73ffffffffffffffffffffffffffffffffffffffff600435811690602435906044351661010c565b005b73ffffffffffffffffffffffffffffffffffffffff9081166000908152602081905260409020541690565b6000808484610119610237565b73ffffffffffffffffffffffffffffffffffffffff90921682526020820152604080519182900301906000f080158015610157573d6000803e3d6000fd5b5073ffffffffffffffffffffffffffffffffffffffff808716600081815260208190526040808220805494861673ffffffffffffffffffffffffffffffffffffffff199095168517905580517f73657454726565416464726573732861646472657373290000000000000000008152815190819003601701812063ffffffff7c0100000000000000000000000000000000000000000000000000000000918290049081169091028252600482019590955290519496503395509193602480840193829003018183875af192505050151561023057600080fd5b5050505050565b60405161134880610248833901905600608060405234801561001057600080fd5b5060405160408061134883398101604052805160209091015160008054600160a060020a031916600160a060020a0390931692909217825560018290556002556003805460ff191690556112de90819061006a90396000f3006080604052600436106101275763ffffffff7c010000000000000000000000000000000000000000000000000000000060003504166306661abd811461012c57806321f0a7271461015357806337da80581461016b5780633b5f24eb1461019a57806341beb997146101b257806348da1532146101c75780634cc82215146101df5780635014a18e146101f957806354c8f46d146102115780635663263714610229578063598ac8f21461024157806366d5c8ed14610259578063770494571461027157806390b5561d146102865780639f8537171461029e578063b37c191b146102b6578063b754175b146102ce578063bdc0f93c146102e3578063d9269cb4146102fb578063e832fda314610313578063e973b7ba1461032b578063fa2b579d14610343575b600080fd5b34801561013857600080fd5b5061014161035b565b60408051918252519081900360200190f35b34801561015f57600080fd5b506101416004356103b6565b34801561017757600080fd5b506101866004356024356103d4565b604080519115158252519081900360200190f35b3480156101a657600080fd5b50610141600435610400565b3480156101be57600080fd5b50610141610452565b3480156101d357600080fd5b50610186600435610458565b3480156101eb57600080fd5b506101f7600435610470565b005b34801561020557600080fd5b50610141600435610525565b34801561021d57600080fd5b506101f760043561053a565b34801561023557600080fd5b50610141600435610634565b34801561024d57600080fd5b50610141600435610649565b34801561026557600080fd5b50610141600435610693565b34801561027d57600080fd5b506101416106b0565b34801561029257600080fd5b506101f76004356106c1565b3480156102aa57600080fd5b5061014160043561071e565b3480156102c257600080fd5b50610141600435610736565b3480156102da57600080fd5b506101f7610860565b3480156102ef57600080fd5b50610141600435610893565b34801561030757600080fd5b506101416004356108a9565b34801561031f57600080fd5b506101416004356108cf565b34801561033757600080fd5b506101416004356109ee565b34801561034f57600080fd5b50610141600435610a03565b7f560c5c35d362ebe12852e61b5bb1957021175ee6b552ac19e7c3fb4e272bed3f54600090815260046020819052604090912001547f17ef568e3e12ab5b9c7254a8d58478811de00f9e6eb34345acd53bf8fd09d3f1540190565b60009081526004602090815260408083206001845290915290205490565b60008060006103e285610736565b91506103ec61035b565b905083600183830303109250505092915050565b60008060008061040f85610736565b600086815260046020526040902060050154909350915061042e61035b565b905080600260648085020104846064020181151561044857fe5b0495945050505050565b60015490565b60009081526004602052604090206002015460ff1690565b6000805473ffffffffffffffffffffffffffffffffffffffff16331461049557600080fd5b5060008181526004602052604090208115156104c057600581015415156104bb57610521565b6104d0565b600481015415156104d057610521565b6000816005015411156105185760058101805460001901905581156104fc576004810180546000190190555b60018101546002820154610513919060ff16610a1d565b610521565b61052182610a3f565b5050565b60009081526004602052604090206001015490565b60005473ffffffffffffffffffffffffffffffffffffffff16331461055e57600080fd5b60035460ff16151560011461057257600080fd5b60025461057e82610736565b111561058957600080fd5b60008054604080517f736574456c696769626c652875696e74323536290000000000000000000000008152815190819003601401812063ffffffff7c010000000000000000000000000000000000000000000000000000000091829004908116909102825260048201869052915173ffffffffffffffffffffffffffffffffffffffff90931693919260248083019392829003018183875af192505050151561063157600080fd5b50565b60009081526004602052604090206005015490565b60008060008061065885610736565b600086815260046020526040902060050154909350915061067761035b565b90508060026103e88085020104846103e8020181151561044857fe5b600090815260046020908152604080832083805290915290205490565b60006106bc6032610a03565b905090565b60005473ffffffffffffffffffffffffffffffffffffffff1633146106e557600080fd5b80151561070957600081815260046020526040902060050180546001019055610631565b60018054810181556106319060009083610b32565b60009081526004602052604090206005015460010190565b6000808080808515610857577f17ef568e3e12ab5b9c7254a8d58478811de00f9e6eb34345acd53bf8fd09d3f1547f560c5c35d362ebe12852e61b5bb1957021175ee6b552ac19e7c3fb4e272bed3f546000818152600460205260409020919650935091505b600a84101561085757600193909301928583116107f757858310156107c8578160050154600101850194505b5060008080526020829052604090205480156107f7576000818152600460208190526040909120015494909401935b8583141561080457610857565b8583101561082c57600160009081526020928352604080822054808352600490945290209192505b858311156108525760008080526020928352604080822054808352600490945290209192505b61079c565b50505050919050565b60005473ffffffffffffffffffffffffffffffffffffffff16331461088457600080fd5b6003805460ff19166001179055565b6000908152600460208190526040909120015490565b6000806108b461035b565b90506108c66103e88483025b046108cf565b91505b50919050565b600080805260046020527f17ef568e3e12ab5b9c7254a8d58478811de00f9e6eb34345acd53bf8fd09d3f15481808080808080878a101561091357600098506109e1565b7f560c5c35d362ebe12852e61b5bb1957021175ee6b552ac19e7c3fb4e272bed3f546000818152600460205260409020898c03985090965094505b60008080526020869052604090205460058601549094506001019250831561098c575050600082815260046020819052604090912090810154610990565b5060005b808710156109a3578395508194506109dc565b8281018710156109b5578598506109e1565b60016000908152602095865260408082205480835260049097529020818401909703969495505b61094e565b5050505050505050919050565b60009081526004602052604090206003015490565b600080610a0e61035b565b90506108c660648483026108c0565b811561052157610a2c82610c04565b610a3582610c56565b6105218282610c8f565b600081815260046020908152604080832060018082015460028301548187528487208780529584905284872054928752938620549295909460ff9094169392908083158015610a8c575082155b15610abb57851515600090815260208690526040812055610aac89610d88565b610ab68787610a1d565b610b27565b8315801590610ac957508215155b15610ad957610ab6898585610dd5565b505081810160008181526004602090815260408083208815158085529288905292208390556001820188905560028201805460ff19169091179055610b1d89610d88565b610b278787610a1d565b505050505050505050565b6000838152600460209081526040808320851515845291829052822054909180821515610bb95785151560008181526020868152604080832089905588835260049182905290912060018082018b905560028201805460ff191690941790935560038101839055908101919091559150610bab85610c56565b610bb485610f77565b610bfb565b84831415610beb57600083815260046020526040902060050180546001019055610be285610c04565b610bb485610c56565b5081841015610bfb838287610b32565b50505050505050565b6000908152600460208181526040808420600581015460018087528285528387205487528585528387208601548780528386528488205488529486905292909520840154909201909301909201910155565b6000818152600460205260409020600101545b801561052157610c7881610c04565b600090815260046020526040902060010154610c69565b60008080808080808815610b2757610ca68961101f565b610caf89611083565b96508795508715610cc35760019450610cc9565b60001994505b610cd289611083565b935084600202841415610d5a5760008981526004602090815260408083208b15845291829052909120549093509150610d0a82611083565b90508460001902811415610d2357610d238289156110c6565b610d2d89896110c6565b8015610ab657600089815260046020526040902060018101546002820154919450610ab69160ff16610c8f565b868514610b2757600089815260046020526040902060018101546002820154919450610b279160ff16610c8f565b6000908152600460208181526040808420600180820186905560028201805460ff191690558580529281905281852085905591845283208390559081018290556003810182905560050155565b6000806000806000806000806000610dec8b611279565b60008181526004602052604090206005810154919a5098509650610e0f89610a3f565b600460008d8152602001908152602001600020955085600101549450600460008681526020019081526020016000209350856003015492508560020160009054906101000a900460ff16915085600401549050856000016000600115151515815260200190815260200160002054995085600001600080151515158152602001908152602001600020549a50888460000160008415151515815260200190815260200160002081905550848860010181905550818860020160006101000a81548160ff02191690831515021790555085600501548782010388600401819055508288600301819055508688600501819055508a6000141515610f2e576000808052602089815260408083208e90558d8352600490915290206001018990555b8915610f57576001600081815260208a815260408083208e90558d835260049091529020018990555b610f608c610d88565b610f6989610c56565b505050505050505050505050565b6000806000806000610f888661101f565b600086815260046020526040902060018101549095509350831561101757610faf84611083565b600286015490935060ff1691508115610fcb5750600019610fcf565b5060015b80600202831415611008578060001902610fe887611083565b1415610ff857610ff886836110c6565b6110038483156110c6565b611017565b82156110175761101784610f77565b505050505050565b6000818152600460208181526040808420848052808352818520548552838352818520600390810154600187528285528387205487529490935293200154808211156110735760018201600384015561107d565b6001810160038401555b50505050565b6000908152600460208181526040808420600185528083528185205485528383528185206003908101548680529184528286205486529390925290922001540390565b600080600080600080600080600089159850600460008c815260200190815260200160002097508760020160009054906101000a900460ff169650876001015495508760000160008a1515151581526020019081526020016000205494506004600086815260200190815260200160002093508360000160008b151515158152602001908152602001600020549250600460008781526020019081526020016000209150600460008481526020019081526020016000209050848260000160008915151515815260200190815260200160002081905550868460020160006101000a81548160ff0219169083151502179055508584600101819055508a8460000160008c15151515815260200190815260200160002081905550848860010181905550898860020160006101000a81548160ff021916908315150217905550828860000160008b151515158152602001908152602001600020819055508a8160010181905550888160020160006101000a81548160ff0219169083151502179055506112518b61101f565b61125a8561101f565b6112638b610c04565b61126c85610c04565b5050505050505050505050565b60008181526004602090815260408083206001845290915281205480156112aa576112a381611279565b91506108c9565b8291506108c95600a165627a7a72305820e397380a7e86696984eb69b345b2ecb8c5b26028e441cbbac30b66846564553e0029a165627a7a723058200fe9178d8a48fea07d17f2c3795776336c2383830df2ed2c299becd4550b47f40029",
  "source": "pragma solidity ^0.4.15;\n\nimport \"./OrderStatisticsTree.sol\";\n\n\n\ncontract TreeDeployer{\n\nmapping(address=>address) deployedAddresses;\n//mapping(address=>address) coinAuthors;\nfunction deployTree(address Owner,uint eligible,address CD){\nOrderStatisticTree Tree= new OrderStatisticTree(Owner,eligible);\n\ndeployedAddresses[Owner]=address(Tree);\naddress sender=msg.sender;\n if(!Owner.call(bytes4(sha3('setTreeAddress(address)')),address(Tree))) revert();\n}\nfunction getTreeLocation(address creator)  constant returns(address){\n  return deployedAddresses[creator];\n}\n\n\n\n\n\n}\n",
  "sourcePath": "/home/john/OE/OpenEquity/contracts/TreeDeployer.sol",
  "compiler": {
    "name": "solc",
    "version": "0.4.24+commit.e67f0147.Emscripten.clang"
  },
  "schemaVersion": "3.0.5",
  "updatedAt": "2019-03-27T18:54:57.561Z",
  "devdoc": {
    "methods": {}
  },
  "userdoc": {
    "methods": {}
  }
}